{
  "_format": "hh-sol-artifact-1",
  "contractName": "CMAccountManager",
  "sourceName": "contracts/manager/CMAccountManager.sol",
  "abi": [
    {
      "inputs": [],
      "stateMutability": "nonpayable",
      "type": "constructor"
    },
    {
      "inputs": [],
      "name": "AccessControlBadConfirmation",
      "type": "error"
    },
    {
      "inputs": [
        {
          "internalType": "address",
          "name": "account",
          "type": "address"
        },
        {
          "internalType": "bytes32",
          "name": "neededRole",
          "type": "bytes32"
        }
      ],
      "name": "AccessControlUnauthorizedAccount",
      "type": "error"
    },
    {
      "inputs": [
        {
          "internalType": "address",
          "name": "target",
          "type": "address"
        }
      ],
      "name": "AddressEmptyCode",
      "type": "error"
    },
    {
      "inputs": [
        {
          "internalType": "address",
          "name": "account",
          "type": "address"
        }
      ],
      "name": "AddressInsufficientBalance",
      "type": "error"
    },
    {
      "inputs": [
        {
          "internalType": "address",
          "name": "admin",
          "type": "address"
        }
      ],
      "name": "CMAccountInvalidAdmin",
      "type": "error"
    },
    {
      "inputs": [
        {
          "internalType": "address",
          "name": "implementation",
          "type": "address"
        }
      ],
      "name": "CMAccountInvalidImplementation",
      "type": "error"
    },
    {
      "inputs": [
        {
          "internalType": "address",
          "name": "implementation",
          "type": "address"
        }
      ],
      "name": "ERC1967InvalidImplementation",
      "type": "error"
    },
    {
      "inputs": [],
      "name": "ERC1967NonPayable",
      "type": "error"
    },
    {
      "inputs": [],
      "name": "EnforcedPause",
      "type": "error"
    },
    {
      "inputs": [],
      "name": "ExpectedPause",
      "type": "error"
    },
    {
      "inputs": [],
      "name": "FailedInnerCall",
      "type": "error"
    },
    {
      "inputs": [
        {
          "internalType": "uint256",
          "name": "expected",
          "type": "uint256"
        },
        {
          "internalType": "uint256",
          "name": "sended",
          "type": "uint256"
        }
      ],
      "name": "IncorrectPrefundAmount",
      "type": "error"
    },
    {
      "inputs": [
        {
          "internalType": "address",
          "name": "bookingToken",
          "type": "address"
        }
      ],
      "name": "InvalidBookingTokenAddress",
      "type": "error"
    },
    {
      "inputs": [
        {
          "internalType": "address",
          "name": "developerWallet",
          "type": "address"
        }
      ],
      "name": "InvalidDeveloperWallet",
      "type": "error"
    },
    {
      "inputs": [],
      "name": "InvalidInitialization",
      "type": "error"
    },
    {
      "inputs": [],
      "name": "NotInitializing",
      "type": "error"
    },
    {
      "inputs": [],
      "name": "ReentrancyGuardReentrantCall",
      "type": "error"
    },
    {
      "inputs": [
        {
          "internalType": "string",
          "name": "serviceName",
          "type": "string"
        }
      ],
      "name": "ServiceAlreadyRegistered",
      "type": "error"
    },
    {
      "inputs": [],
      "name": "ServiceNotRegistered",
      "type": "error"
    },
    {
      "inputs": [],
      "name": "UUPSUnauthorizedCallContext",
      "type": "error"
    },
    {
      "inputs": [
        {
          "internalType": "bytes32",
          "name": "slot",
          "type": "bytes32"
        }
      ],
      "name": "UUPSUnsupportedProxiableUUID",
      "type": "error"
    },
    {
      "anonymous": false,
      "inputs": [
        {
          "indexed": true,
          "internalType": "address",
          "name": "oldBookingToken",
          "type": "address"
        },
        {
          "indexed": true,
          "internalType": "address",
          "name": "newBookingToken",
          "type": "address"
        }
      ],
      "name": "BookingTokenAddressUpdated",
      "type": "event"
    },
    {
      "anonymous": false,
      "inputs": [
        {
          "indexed": true,
          "internalType": "address",
          "name": "account",
          "type": "address"
        }
      ],
      "name": "CMAccountCreated",
      "type": "event"
    },
    {
      "anonymous": false,
      "inputs": [
        {
          "indexed": true,
          "internalType": "address",
          "name": "oldImplementation",
          "type": "address"
        },
        {
          "indexed": true,
          "internalType": "address",
          "name": "newImplementation",
          "type": "address"
        }
      ],
      "name": "CMAccountImplementationUpdated",
      "type": "event"
    },
    {
      "anonymous": false,
      "inputs": [
        {
          "indexed": true,
          "internalType": "uint256",
          "name": "oldDeveloperFeeBp",
          "type": "uint256"
        },
        {
          "indexed": true,
          "internalType": "uint256",
          "name": "newDeveloperFeeBp",
          "type": "uint256"
        }
      ],
      "name": "DeveloperFeeBpUpdated",
      "type": "event"
    },
    {
      "anonymous": false,
      "inputs": [
        {
          "indexed": true,
          "internalType": "address",
          "name": "oldDeveloperWallet",
          "type": "address"
        },
        {
          "indexed": true,
          "internalType": "address",
          "name": "newDeveloperWallet",
          "type": "address"
        }
      ],
      "name": "DeveloperWalletUpdated",
      "type": "event"
    },
    {
      "anonymous": false,
      "inputs": [
        {
          "indexed": false,
          "internalType": "uint64",
          "name": "version",
          "type": "uint64"
        }
      ],
      "name": "Initialized",
      "type": "event"
    },
    {
      "anonymous": false,
      "inputs": [
        {
          "indexed": false,
          "internalType": "address",
          "name": "account",
          "type": "address"
        }
      ],
      "name": "Paused",
      "type": "event"
    },
    {
      "anonymous": false,
      "inputs": [
        {
          "indexed": true,
          "internalType": "bytes32",
          "name": "role",
          "type": "bytes32"
        },
        {
          "indexed": true,
          "internalType": "bytes32",
          "name": "previousAdminRole",
          "type": "bytes32"
        },
        {
          "indexed": true,
          "internalType": "bytes32",
          "name": "newAdminRole",
          "type": "bytes32"
        }
      ],
      "name": "RoleAdminChanged",
      "type": "event"
    },
    {
      "anonymous": false,
      "inputs": [
        {
          "indexed": true,
          "internalType": "bytes32",
          "name": "role",
          "type": "bytes32"
        },
        {
          "indexed": true,
          "internalType": "address",
          "name": "account",
          "type": "address"
        },
        {
          "indexed": true,
          "internalType": "address",
          "name": "sender",
          "type": "address"
        }
      ],
      "name": "RoleGranted",
      "type": "event"
    },
    {
      "anonymous": false,
      "inputs": [
        {
          "indexed": true,
          "internalType": "bytes32",
          "name": "role",
          "type": "bytes32"
        },
        {
          "indexed": true,
          "internalType": "address",
          "name": "account",
          "type": "address"
        },
        {
          "indexed": true,
          "internalType": "address",
          "name": "sender",
          "type": "address"
        }
      ],
      "name": "RoleRevoked",
      "type": "event"
    },
    {
      "anonymous": false,
      "inputs": [
        {
          "indexed": false,
          "internalType": "string",
          "name": "serviceName",
          "type": "string"
        },
        {
          "indexed": false,
          "internalType": "bytes32",
          "name": "serviceHash",
          "type": "bytes32"
        }
      ],
      "name": "ServiceRegistered",
      "type": "event"
    },
    {
      "anonymous": false,
      "inputs": [
        {
          "indexed": false,
          "internalType": "string",
          "name": "serviceName",
          "type": "string"
        },
        {
          "indexed": false,
          "internalType": "bytes32",
          "name": "serviceHash",
          "type": "bytes32"
        }
      ],
      "name": "ServiceUnregistered",
      "type": "event"
    },
    {
      "anonymous": false,
      "inputs": [
        {
          "indexed": false,
          "internalType": "address",
          "name": "account",
          "type": "address"
        }
      ],
      "name": "Unpaused",
      "type": "event"
    },
    {
      "anonymous": false,
      "inputs": [
        {
          "indexed": true,
          "internalType": "address",
          "name": "implementation",
          "type": "address"
        }
      ],
      "name": "Upgraded",
      "type": "event"
    },
    {
      "inputs": [],
      "name": "CMACCOUNT_ROLE",
      "outputs": [
        {
          "internalType": "bytes32",
          "name": "",
          "type": "bytes32"
        }
      ],
      "stateMutability": "view",
      "type": "function"
    },
    {
      "inputs": [],
      "name": "DEFAULT_ADMIN_ROLE",
      "outputs": [
        {
          "internalType": "bytes32",
          "name": "",
          "type": "bytes32"
        }
      ],
      "stateMutability": "view",
      "type": "function"
    },
    {
      "inputs": [],
      "name": "DEVELOPER_WALLET_ADMIN_ROLE",
      "outputs": [
        {
          "internalType": "bytes32",
          "name": "",
          "type": "bytes32"
        }
      ],
      "stateMutability": "view",
      "type": "function"
    },
    {
      "inputs": [],
      "name": "FEE_ADMIN_ROLE",
      "outputs": [
        {
          "internalType": "bytes32",
          "name": "",
          "type": "bytes32"
        }
      ],
      "stateMutability": "view",
      "type": "function"
    },
    {
      "inputs": [],
      "name": "PAUSER_ROLE",
      "outputs": [
        {
          "internalType": "bytes32",
          "name": "",
          "type": "bytes32"
        }
      ],
      "stateMutability": "view",
      "type": "function"
    },
    {
      "inputs": [],
      "name": "PREFUND_ADMIN_ROLE",
      "outputs": [
        {
          "internalType": "bytes32",
          "name": "",
          "type": "bytes32"
        }
      ],
      "stateMutability": "view",
      "type": "function"
    },
    {
      "inputs": [],
      "name": "SERVICE_REGISTRY_ADMIN_ROLE",
      "outputs": [
        {
          "internalType": "bytes32",
          "name": "",
          "type": "bytes32"
        }
      ],
      "stateMutability": "view",
      "type": "function"
    },
    {
      "inputs": [],
      "name": "UPGRADER_ROLE",
      "outputs": [
        {
          "internalType": "bytes32",
          "name": "",
          "type": "bytes32"
        }
      ],
      "stateMutability": "view",
      "type": "function"
    },
    {
      "inputs": [],
      "name": "UPGRADE_INTERFACE_VERSION",
      "outputs": [
        {
          "internalType": "string",
          "name": "",
          "type": "string"
        }
      ],
      "stateMutability": "view",
      "type": "function"
    },
    {
      "inputs": [],
      "name": "VERSIONER_ROLE",
      "outputs": [
        {
          "internalType": "bytes32",
          "name": "",
          "type": "bytes32"
        }
      ],
      "stateMutability": "view",
      "type": "function"
    },
    {
      "inputs": [
        {
          "internalType": "address",
          "name": "admin",
          "type": "address"
        },
        {
          "internalType": "address",
          "name": "upgrader",
          "type": "address"
        }
      ],
      "name": "createCMAccount",
      "outputs": [
        {
          "internalType": "address",
          "name": "",
          "type": "address"
        }
      ],
      "stateMutability": "payable",
      "type": "function"
    },
    {
      "inputs": [],
      "name": "getAccountImplementation",
      "outputs": [
        {
          "internalType": "address",
          "name": "",
          "type": "address"
        }
      ],
      "stateMutability": "view",
      "type": "function"
    },
    {
      "inputs": [],
      "name": "getAllRegisteredServiceHashes",
      "outputs": [
        {
          "internalType": "bytes32[]",
          "name": "services",
          "type": "bytes32[]"
        }
      ],
      "stateMutability": "view",
      "type": "function"
    },
    {
      "inputs": [],
      "name": "getAllRegisteredServiceNames",
      "outputs": [
        {
          "internalType": "string[]",
          "name": "services",
          "type": "string[]"
        }
      ],
      "stateMutability": "view",
      "type": "function"
    },
    {
      "inputs": [],
      "name": "getBookingTokenAddress",
      "outputs": [
        {
          "internalType": "address",
          "name": "",
          "type": "address"
        }
      ],
      "stateMutability": "view",
      "type": "function"
    },
    {
      "inputs": [
        {
          "internalType": "address",
          "name": "account",
          "type": "address"
        }
      ],
      "name": "getCMAccountCreator",
      "outputs": [
        {
          "internalType": "address",
          "name": "",
          "type": "address"
        }
      ],
      "stateMutability": "view",
      "type": "function"
    },
    {
      "inputs": [],
      "name": "getDeveloperFeeBp",
      "outputs": [
        {
          "internalType": "uint256",
          "name": "developerFeeBp",
          "type": "uint256"
        }
      ],
      "stateMutability": "view",
      "type": "function"
    },
    {
      "inputs": [],
      "name": "getDeveloperWallet",
      "outputs": [
        {
          "internalType": "address",
          "name": "developerWallet",
          "type": "address"
        }
      ],
      "stateMutability": "view",
      "type": "function"
    },
    {
      "inputs": [],
      "name": "getPrefundAmount",
      "outputs": [
        {
          "internalType": "uint256",
          "name": "",
          "type": "uint256"
        }
      ],
      "stateMutability": "view",
      "type": "function"
    },
    {
      "inputs": [
        {
          "internalType": "string",
          "name": "serviceName",
          "type": "string"
        }
      ],
      "name": "getRegisteredServiceHashByName",
      "outputs": [
        {
          "internalType": "bytes32",
          "name": "serviceHash",
          "type": "bytes32"
        }
      ],
      "stateMutability": "view",
      "type": "function"
    },
    {
      "inputs": [
        {
          "internalType": "bytes32",
          "name": "serviceHash",
          "type": "bytes32"
        }
      ],
      "name": "getRegisteredServiceNameByHash",
      "outputs": [
        {
          "internalType": "string",
          "name": "serviceName",
          "type": "string"
        }
      ],
      "stateMutability": "view",
      "type": "function"
    },
    {
      "inputs": [
        {
          "internalType": "bytes32",
          "name": "role",
          "type": "bytes32"
        }
      ],
      "name": "getRoleAdmin",
      "outputs": [
        {
          "internalType": "bytes32",
          "name": "",
          "type": "bytes32"
        }
      ],
      "stateMutability": "view",
      "type": "function"
    },
    {
      "inputs": [
        {
          "internalType": "bytes32",
          "name": "role",
          "type": "bytes32"
        },
        {
          "internalType": "uint256",
          "name": "index",
          "type": "uint256"
        }
      ],
      "name": "getRoleMember",
      "outputs": [
        {
          "internalType": "address",
          "name": "",
          "type": "address"
        }
      ],
      "stateMutability": "view",
      "type": "function"
    },
    {
      "inputs": [
        {
          "internalType": "bytes32",
          "name": "role",
          "type": "bytes32"
        }
      ],
      "name": "getRoleMemberCount",
      "outputs": [
        {
          "internalType": "uint256",
          "name": "",
          "type": "uint256"
        }
      ],
      "stateMutability": "view",
      "type": "function"
    },
    {
      "inputs": [
        {
          "internalType": "bytes32",
          "name": "role",
          "type": "bytes32"
        },
        {
          "internalType": "address",
          "name": "account",
          "type": "address"
        }
      ],
      "name": "grantRole",
      "outputs": [],
      "stateMutability": "nonpayable",
      "type": "function"
    },
    {
      "inputs": [
        {
          "internalType": "bytes32",
          "name": "role",
          "type": "bytes32"
        },
        {
          "internalType": "address",
          "name": "account",
          "type": "address"
        }
      ],
      "name": "hasRole",
      "outputs": [
        {
          "internalType": "bool",
          "name": "",
          "type": "bool"
        }
      ],
      "stateMutability": "view",
      "type": "function"
    },
    {
      "inputs": [
        {
          "internalType": "address",
          "name": "defaultAdmin",
          "type": "address"
        },
        {
          "internalType": "address",
          "name": "pauser",
          "type": "address"
        },
        {
          "internalType": "address",
          "name": "upgrader",
          "type": "address"
        },
        {
          "internalType": "address",
          "name": "versioner",
          "type": "address"
        },
        {
          "internalType": "address",
          "name": "developerWallet",
          "type": "address"
        },
        {
          "internalType": "uint256",
          "name": "developerFeeBp",
          "type": "uint256"
        }
      ],
      "name": "initialize",
      "outputs": [],
      "stateMutability": "nonpayable",
      "type": "function"
    },
    {
      "inputs": [
        {
          "internalType": "address",
          "name": "account",
          "type": "address"
        }
      ],
      "name": "isCMAccount",
      "outputs": [
        {
          "internalType": "bool",
          "name": "",
          "type": "bool"
        }
      ],
      "stateMutability": "view",
      "type": "function"
    },
    {
      "inputs": [],
      "name": "pause",
      "outputs": [],
      "stateMutability": "nonpayable",
      "type": "function"
    },
    {
      "inputs": [],
      "name": "paused",
      "outputs": [
        {
          "internalType": "bool",
          "name": "",
          "type": "bool"
        }
      ],
      "stateMutability": "view",
      "type": "function"
    },
    {
      "inputs": [],
      "name": "proxiableUUID",
      "outputs": [
        {
          "internalType": "bytes32",
          "name": "",
          "type": "bytes32"
        }
      ],
      "stateMutability": "view",
      "type": "function"
    },
    {
      "inputs": [
        {
          "internalType": "string",
          "name": "serviceName",
          "type": "string"
        }
      ],
      "name": "registerService",
      "outputs": [],
      "stateMutability": "nonpayable",
      "type": "function"
    },
    {
      "inputs": [
        {
          "internalType": "bytes32",
          "name": "role",
          "type": "bytes32"
        },
        {
          "internalType": "address",
          "name": "callerConfirmation",
          "type": "address"
        }
      ],
      "name": "renounceRole",
      "outputs": [],
      "stateMutability": "nonpayable",
      "type": "function"
    },
    {
      "inputs": [
        {
          "internalType": "bytes32",
          "name": "role",
          "type": "bytes32"
        },
        {
          "internalType": "address",
          "name": "account",
          "type": "address"
        }
      ],
      "name": "revokeRole",
      "outputs": [],
      "stateMutability": "nonpayable",
      "type": "function"
    },
    {
      "inputs": [
        {
          "internalType": "address",
          "name": "newImplementation",
          "type": "address"
        }
      ],
      "name": "setAccountImplementation",
      "outputs": [],
      "stateMutability": "nonpayable",
      "type": "function"
    },
    {
      "inputs": [
        {
          "internalType": "address",
          "name": "token",
          "type": "address"
        }
      ],
      "name": "setBookingTokenAddress",
      "outputs": [],
      "stateMutability": "nonpayable",
      "type": "function"
    },
    {
      "inputs": [
        {
          "internalType": "uint256",
          "name": "bp",
          "type": "uint256"
        }
      ],
      "name": "setDeveloperFeeBp",
      "outputs": [],
      "stateMutability": "nonpayable",
      "type": "function"
    },
    {
      "inputs": [
        {
          "internalType": "address",
          "name": "developerWallet",
          "type": "address"
        }
      ],
      "name": "setDeveloperWallet",
      "outputs": [],
      "stateMutability": "nonpayable",
      "type": "function"
    },
    {
      "inputs": [
        {
          "internalType": "uint256",
          "name": "newPrefundAmount",
          "type": "uint256"
        }
      ],
      "name": "setPrefundAmount",
      "outputs": [],
      "stateMutability": "nonpayable",
      "type": "function"
    },
    {
      "inputs": [
        {
          "internalType": "bytes4",
          "name": "interfaceId",
          "type": "bytes4"
        }
      ],
      "name": "supportsInterface",
      "outputs": [
        {
          "internalType": "bool",
          "name": "",
          "type": "bool"
        }
      ],
      "stateMutability": "view",
      "type": "function"
    },
    {
      "inputs": [],
      "name": "unpause",
      "outputs": [],
      "stateMutability": "nonpayable",
      "type": "function"
    },
    {
      "inputs": [
        {
          "internalType": "string",
          "name": "serviceName",
          "type": "string"
        }
      ],
      "name": "unregisterService",
      "outputs": [],
      "stateMutability": "nonpayable",
      "type": "function"
    },
    {
      "inputs": [
        {
          "internalType": "address",
          "name": "newImplementation",
          "type": "address"
        },
        {
          "internalType": "bytes",
          "name": "data",
          "type": "bytes"
        }
      ],
      "name": "upgradeToAndCall",
      "outputs": [],
      "stateMutability": "payable",
      "type": "function"
    }
  ],
  "bytecode": "0x60a0604052306080523480156200001557600080fd5b506200002062000026565b620000da565b7ff0c57e16840df040f15088dc2f81fe391c3923bec73e23a9662efc9c229c6a00805468010000000000000000900460ff1615620000775760405163f92ee8a960e01b815260040160405180910390fd5b80546001600160401b0390811614620000d75780546001600160401b0319166001600160401b0390811782556040519081527fc7f505b2f371ae2175ee4913f4499e1f2633a7b5936321eed1cdaeb6115181d29060200160405180910390a15b50565b608051612f7462000104600039600081816115bf015281816115e901526117440152612f746000f3fe608060405260043610620002185760003560e01c806301601d2f146200021d57806301ffc9a714620002555780630470d3ac146200028b57806309766da214620002b25780630d6115d014620002d957806312b357b514620002fe5780631c2b3afc1462000323578063248a9ca314620003485780632cec1a06146200036d5780632f2ff15d1462000392578063352af39a14620003b757806336568abe14620003dc5780633c55593814620004015780633f4ba83a146200041957806340df8d8414620004315780634cba593a14620004565780634f1ef286146200047b5780634f3f4639146200049257806352d1902d14620004aa5780635a81a62614620004c25780635c975abb14620004f65780635e818619146200050e5780636cd5687814620005335780637fa3465714620005585780638127f465146200057d5780638456cb5914620005a45780639010d07c14620005bc57806391d1485414620005e157806392cf833f146200060657806395b6ef0c146200062b5780639d825bc51462000650578063a217fddf1462000668578063ad3cb1cc146200067f578063b289819c14620006b2578063c17e30bf14620006d7578063c2a1db7814620006fc578063c39409e11462000723578063ca15c873146200073b578063d547741f1462000760578063e63ab1e91462000785578063f72c0d8b14620007aa578063f85b4a9c14620007cf578063fd2fbd5214620007f4575b600080fd5b3480156200022a57600080fd5b506200024260008051602062002e1f83398151915281565b6040519081526020015b60405180910390f35b3480156200026257600080fd5b506200027a620002743660046200241c565b6200080b565b60405190151581526020016200024c565b3480156200029857600080fd5b50620002a362000839565b6040516200024c919062002448565b348015620002bf57600080fd5b50620002d7620002d136600462002479565b62000859565b005b348015620002e657600080fd5b50620002d7620002f836600462002529565b6200090b565b3480156200030b57600080fd5b506200027a6200031d36600462002479565b62000935565b3480156200033057600080fd5b50620002d76200034236600462002576565b62000967565b3480156200035557600080fd5b50620002426200036736600462002576565b62000999565b3480156200037a57600080fd5b50620002a36200038c36600462002479565b620009bb565b3480156200039f57600080fd5b50620002d7620003b136600462002590565b620009f3565b348015620003c457600080fd5b5062000242620003d636600462002529565b62000a1b565b348015620003e957600080fd5b50620002d7620003fb36600462002590565b62000aaa565b3480156200040e57600080fd5b506200024262000ae5565b3480156200042657600080fd5b50620002d762000afc565b3480156200043e57600080fd5b506200024260008051602062002eff83398151915281565b3480156200046357600080fd5b506200024260008051602062002e5f83398151915281565b620002d76200048c366004620025bf565b62000b24565b3480156200049f57600080fd5b50620002a362000b45565b348015620004b757600080fd5b506200024262000b65565b348015620004cf57600080fd5b50620004e7620004e136600462002576565b62000b85565b6040516200024c91906200267b565b3480156200050357600080fd5b506200027a62000c68565b3480156200051b57600080fd5b50620002d76200052d36600462002529565b62000c7f565b3480156200054057600080fd5b50620002d76200055236600462002479565b62000ca5565b3480156200056557600080fd5b506200024260008051602062002f1f83398151915281565b3480156200058a57600080fd5b506200059562000d4a565b6040516200024c919062002690565b348015620005b157600080fd5b50620002d762000d6b565b348015620005c957600080fd5b50620002a3620005db366004620026d6565b62000d90565b348015620005ee57600080fd5b506200027a6200060036600462002590565b62000dc2565b3480156200061357600080fd5b506200024260008051602062002e3f83398151915281565b3480156200063857600080fd5b50620002d76200064a366004620026f9565b62000dfa565b3480156200065d57600080fd5b50620002a362000fb8565b3480156200067557600080fd5b5062000242600081565b3480156200068c57600080fd5b50620004e7604051806040016040528060058152602001640352e302e360dc1b81525081565b348015620006bf57600080fd5b506200024260008051602062002e7f83398151915281565b348015620006e457600080fd5b50620002d7620006f636600462002479565b62000fd5565b3480156200070957600080fd5b50620007146200107e565b6040516200024c919062002771565b3480156200073057600080fd5b5062000242620011f3565b3480156200074857600080fd5b50620002426200075a36600462002576565b6200120a565b3480156200076d57600080fd5b50620002d76200077f36600462002590565b6200123a565b3480156200079257600080fd5b506200024260008051602062002edf83398151915281565b348015620007b757600080fd5b506200024260008051602062002e9f83398151915281565b348015620007dc57600080fd5b50620002d7620007ee36600462002576565b6200125c565b620002a362000805366004620027d9565b620012c2565b60006001600160e01b03198216635a05180f60e01b14806200083357506200083382620012f0565b92915050565b6000806200084662001327565b600201546001600160a01b031692915050565b60008051602062002e7f83398151915262000874816200134b565b816001600160a01b03163b600003620008ad57816040516337766f4360e11b8152600401620008a4919062002448565b60405180910390fd5b6000620008b962000fb8565b9050620008c68362001357565b826001600160a01b0316816001600160a01b03167fecd599290ada9c149ae0fb600bc6ada3c103a716eadb877b5341b7d298b62d9360405160405180910390a3505050565b60008051602062002e3f83398151915262000926816200134b565b620009318262001385565b5050565b6000806200094262001327565b6001600160a01b03909316600090815260059093016020525050604090205460ff1690565b60008051602062002e1f83398151915262000982816200134b565b60006200098e62001327565b600101929092555050565b600080620009a662001478565b60009384526020525050604090206001015490565b600080620009c862001327565b6001600160a01b03938416600090815260059091016020526040902054610100900490921692915050565b620009fe8262000999565b62000a09816200134b565b62000a1583836200149c565b50505050565b60008062000a28620014e5565b905062000a618360405160200162000a41919062002808565b60408051601f198184030181529190528051602090910120829062001509565b62000a7f5760405163162e926760e11b815260040160405180910390fd5b806003018360405162000a93919062002808565b908152602001604051809103902054915050919050565b6001600160a01b038116331462000ad45760405163334bd91960e11b815260040160405180910390fd5b62000ae0828262001517565b505050565b60008062000af262001327565b6003015492915050565b60008051602062002edf83398151915262000b17816200134b565b62000b2162001557565b50565b62000b2e620015b4565b62000b39826200165f565b6200093182826200167a565b60008062000b5262001327565b600401546001600160a01b031692915050565b600062000b7162001739565b5060008051602062002ebf83398151915290565b6060600062000b93620014e5565b905062000ba1818462001509565b62000bbf5760405163162e926760e11b815260040160405180910390fd5b60008381526002820160205260409020805462000bdc9062002826565b80601f016020809104026020016040519081016040528092919081815260200182805462000c0a9062002826565b801562000c5b5780601f1062000c2f5761010080835404028352916020019162000c5b565b820191906000526020600020905b81548152906001019060200180831162000c3d57829003601f168201915b5050505050915050919050565b60008062000c7562001783565b5460ff1692915050565b60008051602062002e3f83398151915262000c9a816200134b565b6200093182620017a7565b60008051602062002eff83398151915262000cc0816200134b565b6001600160a01b03821662000cec578160405163220b4f1160e11b8152600401620008a4919062002448565b600062000cf862000839565b905062000d058362001885565b826001600160a01b0316816001600160a01b03167f88bf70d4f3c446213b5064d7cfe95ec0ed196748f014c19a833117bac32468fd60405160405180910390a3505050565b6060600062000d58620014e5565b905062000d6581620018b6565b91505090565b60008051602062002edf83398151915262000d86816200134b565b62000b21620018c5565b60008062000d9d62001911565b600085815260208290526040902090915062000dba908462001935565b949350505050565b60008062000dcf62001478565b6000948552602090815260408086206001600160a01b03959095168652939052505090205460ff1690565b600062000e0662001943565b805490915060ff600160401b82041615906001600160401b031660008115801562000e2e5750825b90506000826001600160401b0316600114801562000e4b5750303b155b90508115801562000e5a575080155b1562000e795760405163f92ee8a960e01b815260040160405180910390fd5b84546001600160401b0319166001178555831562000ea357845460ff60401b1916600160401b1785555b62000ead62001967565b62000eb76200197b565b62000ec16200197b565b62000ece60008c6200149c565b5062000eea60008051602062002edf8339815191528b6200149c565b5062000f0660008051602062002e9f8339815191528a6200149c565b5062000f2260008051602062002e7f833981519152896200149c565b50600062000f2f62001327565b6002810180546001600160a01b0319166001600160a01b038b161790556003810188905568056bc75e2d6310000060019091015550831562000fab57845460ff60401b19168555604051600181527fc7f505b2f371ae2175ee4913f4499e1f2633a7b5936321eed1cdaeb6115181d29060200160405180910390a15b5050505050505050505050565b60008062000fc562001327565b546001600160a01b031692915050565b60008051602062002e7f83398151915262000ff0816200134b565b816001600160a01b03163b60000362001020578160405163c9c10a6160e01b8152600401620008a4919062002448565b60006200102c62000b45565b9050620010398362001985565b826001600160a01b0316816001600160a01b03167f8752daf55fa0ccd919c149bbc809abaad4433f02ba7aa93ac6d5acfd2f8dc22c60405160405180910390a3505050565b606060006200108c620014e5565b905060006200109b82620018b6565b9050600081516001600160401b03811115620010bb57620010bb62002497565b604051908082528060200260200182016040528015620010f057816020015b6060815260200190600190039081620010da5790505b50905060005b8251811015620011eb578360020160008483815181106200111b576200111b62002862565b6020026020010151815260200190815260200160002080546200113e9062002826565b80601f01602080910402602001604051908101604052809291908181526020018280546200116c9062002826565b8015620011bd5780601f106200119157610100808354040283529160200191620011bd565b820191906000526020600020905b8154815290600101906020018083116200119f57829003601f168201915b5050505050828281518110620011d757620011d762002862565b6020908102919091010152600101620010f6565b509392505050565b6000806200120062001327565b6001015492915050565b6000806200121762001911565b60008481526020829052604090209091506200123390620019b6565b9392505050565b620012458262000999565b62001250816200134b565b62000a15838362001517565b60008051602062002e5f83398151915262001277816200134b565b60006200128362000ae5565b90506200129083620019c1565b604051839082907fc1fec27bbb8c533fedd3d449016c429341bfc0df21a9600e6162605e08f1c78f90600090a3505050565b6000620012ce620019d7565b620012d862001a10565b620012e4838362001a39565b90506200083362001c79565b60006001600160e01b03198216637965db0b60e01b14806200083357506301ffc9a760e01b6001600160e01b031983161462000833565b7f2b421af391835920c41e77b6810f6e715f5b713c17bc590f55de6a7d3912e80090565b62000b21813362001c8c565b60006200136362001327565b80546001600160a01b0319166001600160a01b03939093169290921790915550565b6000816040516020016200139a919062002808565b6040516020818303038152906040528051906020012090506000620013be620014e5565b90506000620013ce828462001cc9565b905080620013f35783604051633dad0df560e11b8152600401620008a491906200267b565b600083815260028301602052604090206200140f8582620028cc565b5082826003018560405162001425919062002808565b9081526020016040518091039020819055507fbad43a69707ac20dd539f3163b927e83baef6e967f2c95432129b1ded416645884846040516200146a92919062002998565b60405180910390a150505050565b7f02dd7bc7dec4dceedda775e58dd541e08a116c6c53815c0bd028192f7b62680090565b600080620014a962001911565b90506000620014b9858562001cd7565b9050801562000dba576000858152602083905260409020620014dc908562001d80565b50949350505050565b7f563e037355fff0507705f481e4b362e4c3996a3b57d07307deabfca3d816860090565b600062001233838362001d97565b6000806200152462001911565b9050600062001534858562001daf565b9050801562000dba576000858152602083905260409020620014dc908562001e2d565b6200156162001e44565b60006200156d62001783565b805460ff1916815590507f5db9ee0a495bf2e6ff9c91a7834c1ba4fdd244a5e8aa4e537bd38aeae4b073aa335b604051620015a9919062002448565b60405180910390a150565b306001600160a01b037f00000000000000000000000000000000000000000000000000000000000000001614806200163e57507f00000000000000000000000000000000000000000000000000000000000000006001600160a01b03166200163260008051602062002ebf833981519152546001600160a01b031690565b6001600160a01b031614155b156200165d5760405163703e46dd60e11b815260040160405180910390fd5b565b60008051602062002e9f83398151915262000931816200134b565b816001600160a01b03166352d1902d6040518163ffffffff1660e01b8152600401602060405180830381865afa925050508015620016d7575060408051601f3d908101601f19168201909252620016d491810190620029bc565b60015b620016f95781604051634c9c8ce360e01b8152600401620008a4919062002448565b60008051602062002ebf83398151915281146200172d57604051632a87526960e21b815260048101829052602401620008a4565b62000ae0838362001e6c565b306001600160a01b037f000000000000000000000000000000000000000000000000000000000000000016146200165d5760405163703e46dd60e11b815260040160405180910390fd5b7fcd5ed15c6e187e77e9aee88184c21f4f2182ab5827cb3b7e07fbedcd63f0330090565b600081604051602001620017bc919062002808565b6040516020818303038152906040528051906020012090506000620017e0620014e5565b90506000620017f0828462001ec9565b905080620018115760405163162e926760e11b815260040160405180910390fd5b600083815260028301602052604081206200182c91620023b4565b816003018460405162001840919062002808565b9081526020016040518091039020600090557f57158eaa7e642cefd761327d5cd6c147ddaad706ec257f90f4d8b59b3d365eb784846040516200146a92919062002998565b60006200189162001327565b60020180546001600160a01b0319166001600160a01b03939093169290921790915550565b60606000620012338362001ed7565b620018cf62001a10565b6000620018db62001783565b805460ff1916600117815590507f62e78cea01bee320cd4e420270b5ea74000d11b0c9f74754ebdbfc544b05a2586200159a3390565b7fc1f6fe24621ce81ec5827caf0253cadb74709b061630e6b55e8237170593200090565b600062001233838362001f35565b7ff0c57e16840df040f15088dc2f81fe391c3923bec73e23a9662efc9c229c6a0090565b6200197162001f62565b6200165d62001f8a565b6200165d62001f62565b60006200199162001327565b60040180546001600160a01b0319166001600160a01b03939093169290921790915550565b600062000833825490565b6000620019cd62001327565b6003019190915550565b6000620019e362001fab565b80549091506001190162001a0a57604051633ee5aeb560e01b815260040160405180910390fd5b60029055565b62001a1a62000c68565b156200165d5760405163d93c066560e01b815260040160405180910390fd5b60006001600160a01b03831662001a67578260405163715397cd60e11b8152600401620008a4919062002448565b600062001a73620011f3565b90508034101562001aa1576040516353f01c6360e11b815260048101829052346024820152604401620008a4565b600062001aad62000fb8565b9050806001600160a01b03163b60000362001adf57806040516337766f4360e11b8152600401620008a4919062002448565b600062001aeb62000b45565b9050806001600160a01b03163b60000362001b1d578060405163c9c10a6160e01b8152600401620008a4919062002448565b60008260405162001b2e90620023f3565b6001600160a01b039091168152604060208201819052600090820152606001604051809103906000f08015801562001b6a573d6000803e3d6000fd5b506040516333e1a22360e01b81523060048201526001600160a01b0384811660248301526044820187905289811660648301528881166084830152919250908216906333e1a2239060a401600060405180830381600087803b15801562001bd057600080fd5b505af115801562001be5573d6000803e3d6000fd5b5050604080518082019091526001815233602082015262001c0a925083915062001fcf565b62001c2560008051602062002f1f833981519152826200149c565b5062001c3b6001600160a01b0382163462002032565b6040516001600160a01b038216907f22de16ef21e3a33810fbcaf0e737ab9c9e2854fa565d8535041456c789afcd9390600090a29695505050505050565b600062001c8562001fab565b6001905550565b62001c98828262000dc2565b620009315760405163e2517d3f60e01b81526001600160a01b038216600482015260248101839052604401620008a4565b6000620012338383620020cf565b60008062001ce462001478565b905062001cf2848462000dc2565b62001d75576000848152602082815260408083206001600160a01b03871684529091529020805460ff1916600117905562001d2a3390565b6001600160a01b0316836001600160a01b0316857f2f8788117e7eff1d82e926ec794901d17c78024a50270940304540a733656f0d60405160405180910390a4600191505062000833565b600091505062000833565b600062001233836001600160a01b038416620020cf565b60009081526001919091016020526040902054151590565b60008062001dbc62001478565b905062001dca848462000dc2565b1562001d75576000848152602082815260408083206001600160a01b0387168085529252808320805460ff1916905551339287917ff6391f5c32d9c69d2a47ea670b442974b53935d1edc7fd64eb21e047a839171b9190a4600191505062000833565b600062001233836001600160a01b0384166200211e565b62001e4e62000c68565b6200165d57604051638dfc202b60e01b815260040160405180910390fd5b62001e778262002217565b6040516001600160a01b038316907fbc7cd75a20ee27fd9adebab32041f755214dbc6bffa90cc0225b39da2e5c2d3b90600090a280511562001ebf5762000ae0828262002277565b62000931620022f3565b60006200123383836200211e565b60608160000180548060200260200160405190810160405280929190818152602001828054801562001f2957602002820191906000526020600020905b81548152602001906001019080831162001f14575b50505050509050919050565b600082600001828154811062001f4f5762001f4f62002862565b9060005260206000200154905092915050565b62001f6c62002313565b6200165d57604051631afcd79f60e31b815260040160405180910390fd5b62001f9462001f62565b600062001fa062001783565b805460ff1916905550565b7f9b779b17422d0df92223018b32b4d1fa46e071723d6817e2486d003becc55f0090565b600062001fdb62001327565b6001600160a01b03938416600090815260059091016020908152604090912083518154929094015190941661010002610100600160a81b0319931515939093166001600160a81b0319909116179190911790915550565b8047101562002058573060405163cd78605960e01b8152600401620008a4919062002448565b6000826001600160a01b03168260405160006040518083038185875af1925050503d8060008114620020a7576040519150601f19603f3d011682016040523d82523d6000602084013e620020ac565b606091505b505090508062000ae057604051630a12f52160e11b815260040160405180910390fd5b6000620020dd838362001d97565b620021155750815460018181018455600084815260208082209093018490558454848252828601909352604090209190915562000833565b50600062000833565b6000818152600183016020526040812054801562001d7557600062002145600183620029d6565b85549091506000906200215b90600190620029d6565b9050808214620021c75760008660000182815481106200217f576200217f62002862565b9060005260206000200154905080876000018481548110620021a557620021a562002862565b6000918252602080832090910192909255918252600188019052604090208390555b8554869080620021db57620021db620029f8565b60019003818190600052602060002001600090559055856001016000868152602001908152602001600020600090556001935050505062000833565b806001600160a01b03163b600003620022475780604051634c9c8ce360e01b8152600401620008a4919062002448565b60008051602062002ebf83398151915280546001600160a01b0319166001600160a01b0392909216919091179055565b6060600080846001600160a01b03168460405162002296919062002808565b600060405180830381855af49150503d8060008114620022d3576040519150601f19603f3d011682016040523d82523d6000602084013e620022d8565b606091505b5091509150620022ea8583836200232f565b95945050505050565b34156200165d5760405163b398979f60e01b815260040160405180910390fd5b60006200231f62001943565b54600160401b900460ff16919050565b606082620023485762002342826200238a565b62001233565b81511580156200236057506001600160a01b0384163b155b15620023835783604051639996b31560e01b8152600401620008a4919062002448565b5092915050565b8051156200239b5780518082602001fd5b604051630a12f52160e11b815260040160405180910390fd5b508054620023c29062002826565b6000825580601f10620023d3575050565b601f01602090049060005260206000209081019062000b21919062002401565b6104108062002a0f83390190565b5b8082111562002418576000815560010162002402565b5090565b6000602082840312156200242f57600080fd5b81356001600160e01b0319811681146200123357600080fd5b6001600160a01b0391909116815260200190565b80356001600160a01b03811681146200247457600080fd5b919050565b6000602082840312156200248c57600080fd5b62001233826200245c565b634e487b7160e01b600052604160045260246000fd5b60006001600160401b0380841115620024ca57620024ca62002497565b604051601f8501601f19908116603f01168101908282118183101715620024f557620024f562002497565b816040528093508581528686860111156200250f57600080fd5b858560208301376000602087830101525050509392505050565b6000602082840312156200253c57600080fd5b81356001600160401b038111156200255357600080fd5b8201601f810184136200256557600080fd5b62000dba84823560208401620024ad565b6000602082840312156200258957600080fd5b5035919050565b60008060408385031215620025a457600080fd5b82359150620025b6602084016200245c565b90509250929050565b60008060408385031215620025d357600080fd5b620025de836200245c565b915060208301356001600160401b03811115620025fa57600080fd5b8301601f810185136200260c57600080fd5b6200261d85823560208401620024ad565b9150509250929050565b60005b83811015620026445781810151838201526020016200262a565b50506000910152565b600081518084526200266781602086016020860162002627565b601f01601f19169290920160200192915050565b6020815260006200123360208301846200264d565b6020808252825182820181905260009190848201906040850190845b81811015620026ca57835183529284019291840191600101620026ac565b50909695505050505050565b60008060408385031215620026ea57600080fd5b50508035926020909101359150565b60008060008060008060c087890312156200271357600080fd5b6200271e876200245c565b95506200272e602088016200245c565b94506200273e604088016200245c565b93506200274e606088016200245c565b92506200275e608088016200245c565b915060a087013590509295509295509295565b600060208083016020845280855180835260408601915060408160051b87010192506020870160005b82811015620027cc57603f19888603018452620027b98583516200264d565b945092850192908501906001016200279a565b5092979650505050505050565b60008060408385031215620027ed57600080fd5b620027f8836200245c565b9150620025b6602084016200245c565b600082516200281c81846020870162002627565b9190910192915050565b600181811c908216806200283b57607f821691505b6020821081036200285c57634e487b7160e01b600052602260045260246000fd5b50919050565b634e487b7160e01b600052603260045260246000fd5b601f82111562000ae0576000816000526020600020601f850160051c81016020861015620028a35750805b601f850160051c820191505b81811015620028c457828155600101620028af565b505050505050565b81516001600160401b03811115620028e857620028e862002497565b6200290081620028f9845462002826565b8462002878565b602080601f8311600181146200293857600084156200291f5750858301515b600019600386901b1c1916600185901b178555620028c4565b600085815260208120601f198616915b82811015620029695788860151825594840194600190910190840162002948565b5085821015620029885787850151600019600388901b60f8161c191681555b5050505050600190811b01905550565b604081526000620029ad60408301856200264d565b90508260208301529392505050565b600060208284031215620029cf57600080fd5b5051919050565b818103818111156200083357634e487b7160e01b600052601160045260246000fd5b634e487b7160e01b600052603160045260246000fdfe60806040526040516104103803806104108339810160408190526100229161025a565b61002c8282610033565b5050610358565b61003c82610092565b6040516001600160a01b038316907fbc7cd75a20ee27fd9adebab32041f755214dbc6bffa90cc0225b39da2e5c2d3b90600090a2805115610086576100818282610109565b505050565b61008e610180565b5050565b806001600160a01b03163b6000036100c85780604051634c9c8ce360e01b81526004016100bf9190610328565b60405180910390fd5b7f360894a13ba1a3210667c828492db98dca3e2076cc3735a920a3ca505d382bbc80546001600160a01b0319166001600160a01b0392909216919091179055565b6060600080846001600160a01b031684604051610126919061033c565b600060405180830381855af49150503d8060008114610161576040519150601f19603f3d011682016040523d82523d6000602084013e610166565b606091505b5090925090506101778583836101a1565b95945050505050565b341561019f5760405163b398979f60e01b815260040160405180910390fd5b565b6060826101b6576101b1826101f7565b6101f0565b81511580156101cd57506001600160a01b0384163b155b156101ed5783604051639996b31560e01b81526004016100bf9190610328565b50805b9392505050565b8051156102075780518082602001fd5b604051630a12f52160e11b815260040160405180910390fd5b634e487b7160e01b600052604160045260246000fd5b60005b83811015610251578181015183820152602001610239565b50506000910152565b6000806040838503121561026d57600080fd5b82516001600160a01b038116811461028457600080fd5b60208401519092506001600160401b03808211156102a157600080fd5b818501915085601f8301126102b557600080fd5b8151818111156102c7576102c7610220565b604051601f8201601f19908116603f011681019083821181831017156102ef576102ef610220565b8160405282815288602084870101111561030857600080fd5b610319836020830160208801610236565b80955050505050509250929050565b6001600160a01b0391909116815260200190565b6000825161034e818460208701610236565b9190910192915050565b60aa806103666000396000f3fe6080604052600a600c565b005b60186014601a565b6051565b565b6000604c7f360894a13ba1a3210667c828492db98dca3e2076cc3735a920a3ca505d382bbc546001600160a01b031690565b905090565b3660008037600080366000845af43d6000803e808015606f573d6000f35b3d6000fdfea26469706673582212201ef10e92dec03a910ae4d45fed102f26ac93fa6c9d6e3d7e557222fc3db709b064736f6c6343000818003330f3325e23b502dce693b147d37de928d14dd5ab09bbc928fb79867329ac5b83dccfb718b018e1b06f849958baf67b0b252302f06a69871f72c5127ee92f659d349eec46d2c564a125684d1934a6120a70cc341d3a26d362e358a775e07dec176a42249708403f5ed28bf492facd11e85bc1054e6c27c155ed468f6ff4f7ecd0189ab7a9244df0848122154315af71fe140f3db0fe014031783b0946b8c9d2e3360894a13ba1a3210667c828492db98dca3e2076cc3735a920a3ca505d382bbc65d7a28e3265b37a6474929f336521b332c1681b933f6cb9f3376673440d862a819590c814c6d279357359f817d25adb06a7b9f6e493592b7d3b8bb268adb6764f22871c78b70c8896c7119179fc4e9b6f4cf323f8db6eadb7d79007d1e00c3fa26469706673582212207a597281aa6758ffe84413690d5066ccc7464fe1b7b8106412ee65daef736b3464736f6c63430008180033",
  "linkReferences": {},
  "deployedLinkReferences": {}
}