{
  "_format": "hh-sol-artifact-1",
  "contractName": "CMAccount",
  "sourceName": "contracts/account/CMAccount.sol",
  "abi": [
    {
      "inputs": [],
      "stateMutability": "nonpayable",
      "type": "constructor"
    },
    {
      "inputs": [],
      "name": "AccessControlBadConfirmation",
      "type": "error"
    },
    {
      "inputs": [
        {
          "internalType": "address",
          "name": "account",
          "type": "address"
        },
        {
          "internalType": "bytes32",
          "name": "neededRole",
          "type": "bytes32"
        }
      ],
      "name": "AccessControlUnauthorizedAccount",
      "type": "error"
    },
    {
      "inputs": [
        {
          "internalType": "address",
          "name": "target",
          "type": "address"
        }
      ],
      "name": "AddressEmptyCode",
      "type": "error"
    },
    {
      "inputs": [
        {
          "internalType": "address",
          "name": "account",
          "type": "address"
        }
      ],
      "name": "AddressInsufficientBalance",
      "type": "error"
    },
    {
      "inputs": [
        {
          "internalType": "address",
          "name": "latestImplementation",
          "type": "address"
        },
        {
          "internalType": "address",
          "name": "newImplementation",
          "type": "address"
        }
      ],
      "name": "CMAccountImplementationMismatch",
      "type": "error"
    },
    {
      "inputs": [
        {
          "internalType": "address",
          "name": "oldImplementation",
          "type": "address"
        },
        {
          "internalType": "address",
          "name": "newImplementation",
          "type": "address"
        }
      ],
      "name": "CMAccountNoUpgradeNeeded",
      "type": "error"
    },
    {
      "inputs": [
        {
          "internalType": "uint256",
          "name": "expiresAt",
          "type": "uint256"
        }
      ],
      "name": "ChequeExpired",
      "type": "error"
    },
    {
      "inputs": [
        {
          "internalType": "address",
          "name": "sender",
          "type": "address"
        }
      ],
      "name": "DepositorNotAllowed",
      "type": "error"
    },
    {
      "inputs": [],
      "name": "ECDSAInvalidSignature",
      "type": "error"
    },
    {
      "inputs": [
        {
          "internalType": "uint256",
          "name": "length",
          "type": "uint256"
        }
      ],
      "name": "ECDSAInvalidSignatureLength",
      "type": "error"
    },
    {
      "inputs": [
        {
          "internalType": "bytes32",
          "name": "s",
          "type": "bytes32"
        }
      ],
      "name": "ECDSAInvalidSignatureS",
      "type": "error"
    },
    {
      "inputs": [
        {
          "internalType": "address",
          "name": "implementation",
          "type": "address"
        }
      ],
      "name": "ERC1967InvalidImplementation",
      "type": "error"
    },
    {
      "inputs": [],
      "name": "ERC1967NonPayable",
      "type": "error"
    },
    {
      "inputs": [],
      "name": "FailedInnerCall",
      "type": "error"
    },
    {
      "inputs": [
        {
          "internalType": "uint256",
          "name": "chequeAmount",
          "type": "uint256"
        },
        {
          "internalType": "uint256",
          "name": "lastAmount",
          "type": "uint256"
        }
      ],
      "name": "InvalidAmount",
      "type": "error"
    },
    {
      "inputs": [
        {
          "internalType": "uint256",
          "name": "chequeCounter",
          "type": "uint256"
        },
        {
          "internalType": "uint256",
          "name": "lastCounter",
          "type": "uint256"
        }
      ],
      "name": "InvalidCounter",
      "type": "error"
    },
    {
      "inputs": [
        {
          "internalType": "address",
          "name": "fromCMAccount",
          "type": "address"
        }
      ],
      "name": "InvalidFromCMAccount",
      "type": "error"
    },
    {
      "inputs": [],
      "name": "InvalidInitialization",
      "type": "error"
    },
    {
      "inputs": [
        {
          "internalType": "uint8",
          "name": "use",
          "type": "uint8"
        }
      ],
      "name": "InvalidPublicKeyUseType",
      "type": "error"
    },
    {
      "inputs": [
        {
          "internalType": "address",
          "name": "toCMAccount",
          "type": "address"
        }
      ],
      "name": "InvalidToCMAccount",
      "type": "error"
    },
    {
      "inputs": [
        {
          "internalType": "address",
          "name": "signer",
          "type": "address"
        }
      ],
      "name": "NotAllowedToSignCheques",
      "type": "error"
    },
    {
      "inputs": [],
      "name": "NotInitializing",
      "type": "error"
    },
    {
      "inputs": [
        {
          "internalType": "address",
          "name": "token",
          "type": "address"
        }
      ],
      "name": "PaymentTokenAlreadyExists",
      "type": "error"
    },
    {
      "inputs": [
        {
          "internalType": "address",
          "name": "token",
          "type": "address"
        }
      ],
      "name": "PaymentTokenDoesNotExist",
      "type": "error"
    },
    {
      "inputs": [
        {
          "internalType": "uint256",
          "name": "withdrawableAmount",
          "type": "uint256"
        },
        {
          "internalType": "uint256",
          "name": "prefundLeft",
          "type": "uint256"
        },
        {
          "internalType": "uint256",
          "name": "amount",
          "type": "uint256"
        }
      ],
      "name": "PrefundNotSpentYet",
      "type": "error"
    },
    {
      "inputs": [
        {
          "internalType": "address",
          "name": "pubKeyAddress",
          "type": "address"
        }
      ],
      "name": "PublicKeyAlreadyExists",
      "type": "error"
    },
    {
      "inputs": [
        {
          "internalType": "address",
          "name": "pubKeyAddress",
          "type": "address"
        }
      ],
      "name": "PublicKeyDoesNotExist",
      "type": "error"
    },
    {
      "inputs": [],
      "name": "ReentrancyGuardReentrantCall",
      "type": "error"
    },
    {
      "inputs": [
        {
          "internalType": "address",
          "name": "token",
          "type": "address"
        }
      ],
      "name": "SafeERC20FailedOperation",
      "type": "error"
    },
    {
      "inputs": [
        {
          "internalType": "bytes32",
          "name": "serviceHash",
          "type": "bytes32"
        }
      ],
      "name": "ServiceAlreadyExists",
      "type": "error"
    },
    {
      "inputs": [
        {
          "internalType": "bytes32",
          "name": "serviceHash",
          "type": "bytes32"
        }
      ],
      "name": "ServiceDoesNotExist",
      "type": "error"
    },
    {
      "inputs": [],
      "name": "TransferToZeroAddress",
      "type": "error"
    },
    {
      "inputs": [],
      "name": "UUPSUnauthorizedCallContext",
      "type": "error"
    },
    {
      "inputs": [
        {
          "internalType": "bytes32",
          "name": "slot",
          "type": "bytes32"
        }
      ],
      "name": "UUPSUnsupportedProxiableUUID",
      "type": "error"
    },
    {
      "inputs": [
        {
          "internalType": "bytes32",
          "name": "serviceHash",
          "type": "bytes32"
        }
      ],
      "name": "WantedServiceAlreadyExists",
      "type": "error"
    },
    {
      "inputs": [
        {
          "internalType": "bytes32",
          "name": "serviceHash",
          "type": "bytes32"
        }
      ],
      "name": "WantedServiceDoesNotExist",
      "type": "error"
    },
    {
      "inputs": [
        {
          "internalType": "uint256",
          "name": "limit",
          "type": "uint256"
        },
        {
          "internalType": "uint256",
          "name": "amount",
          "type": "uint256"
        }
      ],
      "name": "WithdrawalLimitExceeded",
      "type": "error"
    },
    {
      "inputs": [
        {
          "internalType": "uint256",
          "name": "limit",
          "type": "uint256"
        },
        {
          "internalType": "uint256",
          "name": "amount",
          "type": "uint256"
        }
      ],
      "name": "WithdrawalLimitExceededForPeriod",
      "type": "error"
    },
    {
      "inputs": [
        {
          "internalType": "address",
          "name": "sender",
          "type": "address"
        }
      ],
      "name": "ZeroValueDeposit",
      "type": "error"
    },
    {
      "anonymous": false,
      "inputs": [
        {
          "indexed": true,
          "internalType": "address",
          "name": "oldImplementation",
          "type": "address"
        },
        {
          "indexed": true,
          "internalType": "address",
          "name": "newImplementation",
          "type": "address"
        }
      ],
      "name": "CMAccountUpgraded",
      "type": "event"
    },
    {
      "anonymous": false,
      "inputs": [
        {
          "indexed": true,
          "internalType": "address",
          "name": "fromBot",
          "type": "address"
        },
        {
          "indexed": true,
          "internalType": "address",
          "name": "toBot",
          "type": "address"
        },
        {
          "indexed": false,
          "internalType": "uint256",
          "name": "counter",
          "type": "uint256"
        },
        {
          "indexed": false,
          "internalType": "uint256",
          "name": "paid",
          "type": "uint256"
        },
        {
          "indexed": false,
          "internalType": "uint256",
          "name": "developerFee",
          "type": "uint256"
        }
      ],
      "name": "ChequeCashedIn",
      "type": "event"
    },
    {
      "anonymous": false,
      "inputs": [
        {
          "indexed": true,
          "internalType": "address",
          "name": "fromCMAccount",
          "type": "address"
        },
        {
          "indexed": true,
          "internalType": "address",
          "name": "toCMAccount",
          "type": "address"
        },
        {
          "indexed": false,
          "internalType": "address",
          "name": "fromBot",
          "type": "address"
        },
        {
          "indexed": false,
          "internalType": "address",
          "name": "toBot",
          "type": "address"
        },
        {
          "indexed": false,
          "internalType": "uint256",
          "name": "counter",
          "type": "uint256"
        },
        {
          "indexed": false,
          "internalType": "uint256",
          "name": "amount",
          "type": "uint256"
        },
        {
          "indexed": false,
          "internalType": "uint256",
          "name": "payment",
          "type": "uint256"
        }
      ],
      "name": "ChequeVerified",
      "type": "event"
    },
    {
      "anonymous": false,
      "inputs": [
        {
          "indexed": true,
          "internalType": "address",
          "name": "sender",
          "type": "address"
        },
        {
          "indexed": false,
          "internalType": "uint256",
          "name": "amount",
          "type": "uint256"
        }
      ],
      "name": "Deposit",
      "type": "event"
    },
    {
      "anonymous": false,
      "inputs": [
        {
          "indexed": true,
          "internalType": "address",
          "name": "withdrawer",
          "type": "address"
        },
        {
          "indexed": false,
          "internalType": "uint256",
          "name": "amount",
          "type": "uint256"
        }
      ],
      "name": "GasMoneyWithdrawal",
      "type": "event"
    },
    {
      "anonymous": false,
      "inputs": [
        {
          "indexed": false,
          "internalType": "uint256",
          "name": "limit",
          "type": "uint256"
        },
        {
          "indexed": false,
          "internalType": "uint256",
          "name": "period",
          "type": "uint256"
        }
      ],
      "name": "GasMoneyWithdrawalUpdated",
      "type": "event"
    },
    {
      "anonymous": false,
      "inputs": [
        {
          "indexed": false,
          "internalType": "uint64",
          "name": "version",
          "type": "uint64"
        }
      ],
      "name": "Initialized",
      "type": "event"
    },
    {
      "anonymous": false,
      "inputs": [
        {
          "indexed": true,
          "internalType": "address",
          "name": "bot",
          "type": "address"
        }
      ],
      "name": "MessengerBotAdded",
      "type": "event"
    },
    {
      "anonymous": false,
      "inputs": [
        {
          "indexed": true,
          "internalType": "address",
          "name": "bot",
          "type": "address"
        }
      ],
      "name": "MessengerBotRemoved",
      "type": "event"
    },
    {
      "anonymous": false,
      "inputs": [
        {
          "indexed": false,
          "internalType": "bool",
          "name": "supportsOffChainPayment",
          "type": "bool"
        }
      ],
      "name": "OffChainPaymentSupportUpdated",
      "type": "event"
    },
    {
      "anonymous": false,
      "inputs": [
        {
          "indexed": false,
          "internalType": "address",
          "name": "token",
          "type": "address"
        }
      ],
      "name": "PaymentTokenAdded",
      "type": "event"
    },
    {
      "anonymous": false,
      "inputs": [
        {
          "indexed": false,
          "internalType": "address",
          "name": "token",
          "type": "address"
        }
      ],
      "name": "PaymentTokenRemoved",
      "type": "event"
    },
    {
      "anonymous": false,
      "inputs": [
        {
          "indexed": true,
          "internalType": "address",
          "name": "pubKeyAddress",
          "type": "address"
        }
      ],
      "name": "PublicKeyAdded",
      "type": "event"
    },
    {
      "anonymous": false,
      "inputs": [
        {
          "indexed": true,
          "internalType": "address",
          "name": "pubKeyAddress",
          "type": "address"
        }
      ],
      "name": "PublicKeyRemoved",
      "type": "event"
    },
    {
      "anonymous": false,
      "inputs": [
        {
          "indexed": true,
          "internalType": "bytes32",
          "name": "role",
          "type": "bytes32"
        },
        {
          "indexed": true,
          "internalType": "bytes32",
          "name": "previousAdminRole",
          "type": "bytes32"
        },
        {
          "indexed": true,
          "internalType": "bytes32",
          "name": "newAdminRole",
          "type": "bytes32"
        }
      ],
      "name": "RoleAdminChanged",
      "type": "event"
    },
    {
      "anonymous": false,
      "inputs": [
        {
          "indexed": true,
          "internalType": "bytes32",
          "name": "role",
          "type": "bytes32"
        },
        {
          "indexed": true,
          "internalType": "address",
          "name": "account",
          "type": "address"
        },
        {
          "indexed": true,
          "internalType": "address",
          "name": "sender",
          "type": "address"
        }
      ],
      "name": "RoleGranted",
      "type": "event"
    },
    {
      "anonymous": false,
      "inputs": [
        {
          "indexed": true,
          "internalType": "bytes32",
          "name": "role",
          "type": "bytes32"
        },
        {
          "indexed": true,
          "internalType": "address",
          "name": "account",
          "type": "address"
        },
        {
          "indexed": true,
          "internalType": "address",
          "name": "sender",
          "type": "address"
        }
      ],
      "name": "RoleRevoked",
      "type": "event"
    },
    {
      "anonymous": false,
      "inputs": [
        {
          "indexed": false,
          "internalType": "bytes32",
          "name": "serviceHash",
          "type": "bytes32"
        }
      ],
      "name": "ServiceAdded",
      "type": "event"
    },
    {
      "anonymous": false,
      "inputs": [
        {
          "indexed": false,
          "internalType": "bytes32",
          "name": "serviceHash",
          "type": "bytes32"
        }
      ],
      "name": "ServiceCapabilitiesUpdated",
      "type": "event"
    },
    {
      "anonymous": false,
      "inputs": [
        {
          "indexed": false,
          "internalType": "bytes32",
          "name": "serviceHash",
          "type": "bytes32"
        },
        {
          "indexed": false,
          "internalType": "string",
          "name": "capability",
          "type": "string"
        }
      ],
      "name": "ServiceCapabilityAdded",
      "type": "event"
    },
    {
      "anonymous": false,
      "inputs": [
        {
          "indexed": false,
          "internalType": "bytes32",
          "name": "serviceHash",
          "type": "bytes32"
        },
        {
          "indexed": false,
          "internalType": "string",
          "name": "capability",
          "type": "string"
        }
      ],
      "name": "ServiceCapabilityRemoved",
      "type": "event"
    },
    {
      "anonymous": false,
      "inputs": [
        {
          "indexed": false,
          "internalType": "bytes32",
          "name": "serviceHash",
          "type": "bytes32"
        },
        {
          "indexed": false,
          "internalType": "uint256",
          "name": "fee",
          "type": "uint256"
        }
      ],
      "name": "ServiceFeeUpdated",
      "type": "event"
    },
    {
      "anonymous": false,
      "inputs": [
        {
          "indexed": false,
          "internalType": "bytes32",
          "name": "serviceHash",
          "type": "bytes32"
        }
      ],
      "name": "ServiceRemoved",
      "type": "event"
    },
    {
      "anonymous": false,
      "inputs": [
        {
          "indexed": false,
          "internalType": "bytes32",
          "name": "serviceHash",
          "type": "bytes32"
        },
        {
          "indexed": false,
          "internalType": "bool",
          "name": "restrictedRate",
          "type": "bool"
        }
      ],
      "name": "ServiceRestrictedRateUpdated",
      "type": "event"
    },
    {
      "anonymous": false,
      "inputs": [
        {
          "indexed": true,
          "internalType": "address",
          "name": "implementation",
          "type": "address"
        }
      ],
      "name": "Upgraded",
      "type": "event"
    },
    {
      "anonymous": false,
      "inputs": [
        {
          "indexed": false,
          "internalType": "bytes32",
          "name": "serviceHash",
          "type": "bytes32"
        }
      ],
      "name": "WantedServiceAdded",
      "type": "event"
    },
    {
      "anonymous": false,
      "inputs": [
        {
          "indexed": false,
          "internalType": "bytes32",
          "name": "serviceHash",
          "type": "bytes32"
        }
      ],
      "name": "WantedServiceRemoved",
      "type": "event"
    },
    {
      "anonymous": false,
      "inputs": [
        {
          "indexed": true,
          "internalType": "address",
          "name": "receiver",
          "type": "address"
        },
        {
          "indexed": false,
          "internalType": "uint256",
          "name": "amount",
          "type": "uint256"
        }
      ],
      "name": "Withdraw",
      "type": "event"
    },
    {
      "inputs": [],
      "name": "BOOKING_OPERATOR_ROLE",
      "outputs": [
        {
          "internalType": "bytes32",
          "name": "",
          "type": "bytes32"
        }
      ],
      "stateMutability": "view",
      "type": "function"
    },
    {
      "inputs": [],
      "name": "BOT_ADMIN_ROLE",
      "outputs": [
        {
          "internalType": "bytes32",
          "name": "",
          "type": "bytes32"
        }
      ],
      "stateMutability": "view",
      "type": "function"
    },
    {
      "inputs": [],
      "name": "CHEQUE_OPERATOR_ROLE",
      "outputs": [
        {
          "internalType": "bytes32",
          "name": "",
          "type": "bytes32"
        }
      ],
      "stateMutability": "view",
      "type": "function"
    },
    {
      "inputs": [],
      "name": "DEFAULT_ADMIN_ROLE",
      "outputs": [
        {
          "internalType": "bytes32",
          "name": "",
          "type": "bytes32"
        }
      ],
      "stateMutability": "view",
      "type": "function"
    },
    {
      "inputs": [],
      "name": "DOMAIN_TYPEHASH",
      "outputs": [
        {
          "internalType": "bytes32",
          "name": "",
          "type": "bytes32"
        }
      ],
      "stateMutability": "view",
      "type": "function"
    },
    {
      "inputs": [],
      "name": "GAS_WITHDRAWER_ROLE",
      "outputs": [
        {
          "internalType": "bytes32",
          "name": "",
          "type": "bytes32"
        }
      ],
      "stateMutability": "view",
      "type": "function"
    },
    {
      "inputs": [],
      "name": "MESSENGER_CHEQUE_TYPEHASH",
      "outputs": [
        {
          "internalType": "bytes32",
          "name": "",
          "type": "bytes32"
        }
      ],
      "stateMutability": "view",
      "type": "function"
    },
    {
      "inputs": [],
      "name": "SERVICE_ADMIN_ROLE",
      "outputs": [
        {
          "internalType": "bytes32",
          "name": "",
          "type": "bytes32"
        }
      ],
      "stateMutability": "view",
      "type": "function"
    },
    {
      "inputs": [],
      "name": "UPGRADER_ROLE",
      "outputs": [
        {
          "internalType": "bytes32",
          "name": "",
          "type": "bytes32"
        }
      ],
      "stateMutability": "view",
      "type": "function"
    },
    {
      "inputs": [],
      "name": "UPGRADE_INTERFACE_VERSION",
      "outputs": [
        {
          "internalType": "string",
          "name": "",
          "type": "string"
        }
      ],
      "stateMutability": "view",
      "type": "function"
    },
    {
      "inputs": [],
      "name": "WITHDRAWER_ROLE",
      "outputs": [
        {
          "internalType": "bytes32",
          "name": "",
          "type": "bytes32"
        }
      ],
      "stateMutability": "view",
      "type": "function"
    },
    {
      "inputs": [
        {
          "internalType": "address",
          "name": "bot",
          "type": "address"
        },
        {
          "internalType": "uint256",
          "name": "gasMoney",
          "type": "uint256"
        }
      ],
      "name": "addMessengerBot",
      "outputs": [],
      "stateMutability": "nonpayable",
      "type": "function"
    },
    {
      "inputs": [
        {
          "internalType": "address",
          "name": "pubKeyAddress",
          "type": "address"
        },
        {
          "internalType": "bytes",
          "name": "data",
          "type": "bytes"
        }
      ],
      "name": "addPublicKey",
      "outputs": [],
      "stateMutability": "nonpayable",
      "type": "function"
    },
    {
      "inputs": [
        {
          "internalType": "string",
          "name": "serviceName",
          "type": "string"
        },
        {
          "internalType": "uint256",
          "name": "fee",
          "type": "uint256"
        },
        {
          "internalType": "bool",
          "name": "restrictedRate",
          "type": "bool"
        },
        {
          "internalType": "string[]",
          "name": "capabilities",
          "type": "string[]"
        }
      ],
      "name": "addService",
      "outputs": [],
      "stateMutability": "nonpayable",
      "type": "function"
    },
    {
      "inputs": [
        {
          "internalType": "string",
          "name": "serviceName",
          "type": "string"
        },
        {
          "internalType": "string",
          "name": "capability",
          "type": "string"
        }
      ],
      "name": "addServiceCapability",
      "outputs": [],
      "stateMutability": "nonpayable",
      "type": "function"
    },
    {
      "inputs": [
        {
          "internalType": "address",
          "name": "_supportedToken",
          "type": "address"
        }
      ],
      "name": "addSupportedToken",
      "outputs": [],
      "stateMutability": "nonpayable",
      "type": "function"
    },
    {
      "inputs": [
        {
          "internalType": "string[]",
          "name": "serviceNames",
          "type": "string[]"
        }
      ],
      "name": "addWantedServices",
      "outputs": [],
      "stateMutability": "nonpayable",
      "type": "function"
    },
    {
      "inputs": [
        {
          "internalType": "uint256",
          "name": "tokenId",
          "type": "uint256"
        }
      ],
      "name": "buyBookingToken",
      "outputs": [],
      "stateMutability": "nonpayable",
      "type": "function"
    },
    {
      "inputs": [
        {
          "internalType": "address",
          "name": "fromCMAccount",
          "type": "address"
        },
        {
          "internalType": "address",
          "name": "toCMAccount",
          "type": "address"
        },
        {
          "internalType": "address",
          "name": "toBot",
          "type": "address"
        },
        {
          "internalType": "uint256",
          "name": "counter",
          "type": "uint256"
        },
        {
          "internalType": "uint256",
          "name": "amount",
          "type": "uint256"
        },
        {
          "internalType": "uint256",
          "name": "createdAt",
          "type": "uint256"
        },
        {
          "internalType": "uint256",
          "name": "expiresAt",
          "type": "uint256"
        },
        {
          "internalType": "bytes",
          "name": "signature",
          "type": "bytes"
        }
      ],
      "name": "cashInCheque",
      "outputs": [],
      "stateMutability": "nonpayable",
      "type": "function"
    },
    {
      "inputs": [],
      "name": "getAllServiceHashes",
      "outputs": [
        {
          "internalType": "bytes32[]",
          "name": "serviceHashes",
          "type": "bytes32[]"
        }
      ],
      "stateMutability": "view",
      "type": "function"
    },
    {
      "inputs": [],
      "name": "getBookingTokenAddress",
      "outputs": [
        {
          "internalType": "address",
          "name": "",
          "type": "address"
        }
      ],
      "stateMutability": "view",
      "type": "function"
    },
    {
      "inputs": [],
      "name": "getDomainSeparator",
      "outputs": [
        {
          "internalType": "bytes32",
          "name": "",
          "type": "bytes32"
        }
      ],
      "stateMutability": "view",
      "type": "function"
    },
    {
      "inputs": [],
      "name": "getGasMoneyWithdrawal",
      "outputs": [
        {
          "internalType": "uint256",
          "name": "withdrawalLimit",
          "type": "uint256"
        },
        {
          "internalType": "uint256",
          "name": "withdrawalPeriod",
          "type": "uint256"
        }
      ],
      "stateMutability": "view",
      "type": "function"
    },
    {
      "inputs": [
        {
          "internalType": "address",
          "name": "account",
          "type": "address"
        }
      ],
      "name": "getGasMoneyWithdrawalForAccount",
      "outputs": [
        {
          "internalType": "uint256",
          "name": "periodStart",
          "type": "uint256"
        },
        {
          "internalType": "uint256",
          "name": "withdrawnAmount",
          "type": "uint256"
        }
      ],
      "stateMutability": "view",
      "type": "function"
    },
    {
      "inputs": [
        {
          "internalType": "address",
          "name": "fromBot",
          "type": "address"
        },
        {
          "internalType": "address",
          "name": "toBot",
          "type": "address"
        }
      ],
      "name": "getLastCashIn",
      "outputs": [
        {
          "internalType": "uint256",
          "name": "lastCounter",
          "type": "uint256"
        },
        {
          "internalType": "uint256",
          "name": "lastAmount",
          "type": "uint256"
        },
        {
          "internalType": "uint256",
          "name": "lastCreatedAt",
          "type": "uint256"
        },
        {
          "internalType": "uint256",
          "name": "lastExpiresAt",
          "type": "uint256"
        }
      ],
      "stateMutability": "view",
      "type": "function"
    },
    {
      "inputs": [],
      "name": "getManagerAddress",
      "outputs": [
        {
          "internalType": "address",
          "name": "",
          "type": "address"
        }
      ],
      "stateMutability": "view",
      "type": "function"
    },
    {
      "inputs": [],
      "name": "getPrefundAmount",
      "outputs": [
        {
          "internalType": "uint256",
          "name": "",
          "type": "uint256"
        }
      ],
      "stateMutability": "view",
      "type": "function"
    },
    {
      "inputs": [
        {
          "internalType": "address",
          "name": "pubKeyAddress",
          "type": "address"
        }
      ],
      "name": "getPublicKey",
      "outputs": [
        {
          "internalType": "bytes",
          "name": "data",
          "type": "bytes"
        }
      ],
      "stateMutability": "view",
      "type": "function"
    },
    {
      "inputs": [],
      "name": "getPublicKeysAddresses",
      "outputs": [
        {
          "internalType": "address[]",
          "name": "pubKeyAddresses",
          "type": "address[]"
        }
      ],
      "stateMutability": "view",
      "type": "function"
    },
    {
      "inputs": [
        {
          "internalType": "bytes32",
          "name": "role",
          "type": "bytes32"
        }
      ],
      "name": "getRoleAdmin",
      "outputs": [
        {
          "internalType": "bytes32",
          "name": "",
          "type": "bytes32"
        }
      ],
      "stateMutability": "view",
      "type": "function"
    },
    {
      "inputs": [
        {
          "internalType": "bytes32",
          "name": "role",
          "type": "bytes32"
        },
        {
          "internalType": "uint256",
          "name": "index",
          "type": "uint256"
        }
      ],
      "name": "getRoleMember",
      "outputs": [
        {
          "internalType": "address",
          "name": "",
          "type": "address"
        }
      ],
      "stateMutability": "view",
      "type": "function"
    },
    {
      "inputs": [
        {
          "internalType": "bytes32",
          "name": "role",
          "type": "bytes32"
        }
      ],
      "name": "getRoleMemberCount",
      "outputs": [
        {
          "internalType": "uint256",
          "name": "",
          "type": "uint256"
        }
      ],
      "stateMutability": "view",
      "type": "function"
    },
    {
      "inputs": [
        {
          "internalType": "bytes32",
          "name": "serviceHash",
          "type": "bytes32"
        }
      ],
      "name": "getService",
      "outputs": [
        {
          "components": [
            {
              "internalType": "uint256",
              "name": "_fee",
              "type": "uint256"
            },
            {
              "internalType": "bool",
              "name": "_restrictedRate",
              "type": "bool"
            },
            {
              "internalType": "string[]",
              "name": "_capabilities",
              "type": "string[]"
            }
          ],
          "internalType": "struct PartnerConfiguration.Service",
          "name": "service",
          "type": "tuple"
        }
      ],
      "stateMutability": "view",
      "type": "function"
    },
    {
      "inputs": [
        {
          "internalType": "string",
          "name": "serviceName",
          "type": "string"
        }
      ],
      "name": "getServiceCapabilities",
      "outputs": [
        {
          "internalType": "string[]",
          "name": "capabilities",
          "type": "string[]"
        }
      ],
      "stateMutability": "view",
      "type": "function"
    },
    {
      "inputs": [
        {
          "internalType": "bytes32",
          "name": "serviceHash",
          "type": "bytes32"
        }
      ],
      "name": "getServiceCapabilities",
      "outputs": [
        {
          "internalType": "string[]",
          "name": "capabilities",
          "type": "string[]"
        }
      ],
      "stateMutability": "view",
      "type": "function"
    },
    {
      "inputs": [
        {
          "internalType": "string",
          "name": "serviceName",
          "type": "string"
        }
      ],
      "name": "getServiceFee",
      "outputs": [
        {
          "internalType": "uint256",
          "name": "fee",
          "type": "uint256"
        }
      ],
      "stateMutability": "view",
      "type": "function"
    },
    {
      "inputs": [
        {
          "internalType": "bytes32",
          "name": "serviceHash",
          "type": "bytes32"
        }
      ],
      "name": "getServiceFee",
      "outputs": [
        {
          "internalType": "uint256",
          "name": "fee",
          "type": "uint256"
        }
      ],
      "stateMutability": "view",
      "type": "function"
    },
    {
      "inputs": [
        {
          "internalType": "bytes32",
          "name": "serviceHash",
          "type": "bytes32"
        }
      ],
      "name": "getServiceRestrictedRate",
      "outputs": [
        {
          "internalType": "bool",
          "name": "restrictedRate",
          "type": "bool"
        }
      ],
      "stateMutability": "view",
      "type": "function"
    },
    {
      "inputs": [
        {
          "internalType": "string",
          "name": "serviceName",
          "type": "string"
        }
      ],
      "name": "getServiceRestrictedRate",
      "outputs": [
        {
          "internalType": "bool",
          "name": "restrictedRate",
          "type": "bool"
        }
      ],
      "stateMutability": "view",
      "type": "function"
    },
    {
      "inputs": [],
      "name": "getSupportedServices",
      "outputs": [
        {
          "internalType": "string[]",
          "name": "serviceNames",
          "type": "string[]"
        },
        {
          "components": [
            {
              "internalType": "uint256",
              "name": "_fee",
              "type": "uint256"
            },
            {
              "internalType": "bool",
              "name": "_restrictedRate",
              "type": "bool"
            },
            {
              "internalType": "string[]",
              "name": "_capabilities",
              "type": "string[]"
            }
          ],
          "internalType": "struct PartnerConfiguration.Service[]",
          "name": "services",
          "type": "tuple[]"
        }
      ],
      "stateMutability": "view",
      "type": "function"
    },
    {
      "inputs": [],
      "name": "getSupportedTokens",
      "outputs": [
        {
          "internalType": "address[]",
          "name": "tokens",
          "type": "address[]"
        }
      ],
      "stateMutability": "view",
      "type": "function"
    },
    {
      "inputs": [],
      "name": "getTotalChequePayments",
      "outputs": [
        {
          "internalType": "uint256",
          "name": "",
          "type": "uint256"
        }
      ],
      "stateMutability": "view",
      "type": "function"
    },
    {
      "inputs": [],
      "name": "getWantedServiceHashes",
      "outputs": [
        {
          "internalType": "bytes32[]",
          "name": "serviceHashes",
          "type": "bytes32[]"
        }
      ],
      "stateMutability": "view",
      "type": "function"
    },
    {
      "inputs": [],
      "name": "getWantedServices",
      "outputs": [
        {
          "internalType": "string[]",
          "name": "serviceNames",
          "type": "string[]"
        }
      ],
      "stateMutability": "view",
      "type": "function"
    },
    {
      "inputs": [
        {
          "internalType": "bytes32",
          "name": "role",
          "type": "bytes32"
        },
        {
          "internalType": "address",
          "name": "account",
          "type": "address"
        }
      ],
      "name": "grantRole",
      "outputs": [],
      "stateMutability": "nonpayable",
      "type": "function"
    },
    {
      "inputs": [
        {
          "internalType": "bytes32",
          "name": "role",
          "type": "bytes32"
        },
        {
          "internalType": "address",
          "name": "account",
          "type": "address"
        }
      ],
      "name": "hasRole",
      "outputs": [
        {
          "internalType": "bool",
          "name": "",
          "type": "bool"
        }
      ],
      "stateMutability": "view",
      "type": "function"
    },
    {
      "inputs": [
        {
          "internalType": "address",
          "name": "fromCMAccount",
          "type": "address"
        },
        {
          "internalType": "address",
          "name": "toCMAccount",
          "type": "address"
        },
        {
          "internalType": "address",
          "name": "toBot",
          "type": "address"
        },
        {
          "internalType": "uint256",
          "name": "counter",
          "type": "uint256"
        },
        {
          "internalType": "uint256",
          "name": "amount",
          "type": "uint256"
        },
        {
          "internalType": "uint256",
          "name": "createdAt",
          "type": "uint256"
        },
        {
          "internalType": "uint256",
          "name": "expiresAt",
          "type": "uint256"
        }
      ],
      "name": "hashMessengerCheque",
      "outputs": [
        {
          "internalType": "bytes32",
          "name": "",
          "type": "bytes32"
        }
      ],
      "stateMutability": "pure",
      "type": "function"
    },
    {
      "inputs": [
        {
          "internalType": "address",
          "name": "fromCMAccount",
          "type": "address"
        },
        {
          "internalType": "address",
          "name": "toCMAccount",
          "type": "address"
        },
        {
          "internalType": "address",
          "name": "toBot",
          "type": "address"
        },
        {
          "internalType": "uint256",
          "name": "counter",
          "type": "uint256"
        },
        {
          "internalType": "uint256",
          "name": "amount",
          "type": "uint256"
        },
        {
          "internalType": "uint256",
          "name": "createdAt",
          "type": "uint256"
        },
        {
          "internalType": "uint256",
          "name": "expiresAt",
          "type": "uint256"
        }
      ],
      "name": "hashTypedDataV4",
      "outputs": [
        {
          "internalType": "bytes32",
          "name": "",
          "type": "bytes32"
        }
      ],
      "stateMutability": "view",
      "type": "function"
    },
    {
      "inputs": [
        {
          "internalType": "address",
          "name": "manager",
          "type": "address"
        },
        {
          "internalType": "address",
          "name": "bookingToken",
          "type": "address"
        },
        {
          "internalType": "uint256",
          "name": "prefundAmount",
          "type": "uint256"
        },
        {
          "internalType": "address",
          "name": "defaultAdmin",
          "type": "address"
        },
        {
          "internalType": "address",
          "name": "upgrader",
          "type": "address"
        }
      ],
      "name": "initialize",
      "outputs": [],
      "stateMutability": "nonpayable",
      "type": "function"
    },
    {
      "inputs": [
        {
          "internalType": "address",
          "name": "bot",
          "type": "address"
        }
      ],
      "name": "isBotAllowed",
      "outputs": [
        {
          "internalType": "bool",
          "name": "",
          "type": "bool"
        }
      ],
      "stateMutability": "view",
      "type": "function"
    },
    {
      "inputs": [
        {
          "internalType": "address",
          "name": "reservedFor",
          "type": "address"
        },
        {
          "internalType": "string",
          "name": "uri",
          "type": "string"
        },
        {
          "internalType": "uint256",
          "name": "expirationTimestamp",
          "type": "uint256"
        },
        {
          "internalType": "uint256",
          "name": "price",
          "type": "uint256"
        },
        {
          "internalType": "contract IERC20",
          "name": "paymentToken",
          "type": "address"
        }
      ],
      "name": "mintBookingToken",
      "outputs": [],
      "stateMutability": "nonpayable",
      "type": "function"
    },
    {
      "inputs": [],
      "name": "offChainPaymentSupported",
      "outputs": [
        {
          "internalType": "bool",
          "name": "",
          "type": "bool"
        }
      ],
      "stateMutability": "view",
      "type": "function"
    },
    {
      "inputs": [
        {
          "internalType": "address",
          "name": "",
          "type": "address"
        },
        {
          "internalType": "address",
          "name": "",
          "type": "address"
        },
        {
          "internalType": "uint256",
          "name": "",
          "type": "uint256"
        },
        {
          "internalType": "bytes",
          "name": "",
          "type": "bytes"
        }
      ],
      "name": "onERC721Received",
      "outputs": [
        {
          "internalType": "bytes4",
          "name": "",
          "type": "bytes4"
        }
      ],
      "stateMutability": "nonpayable",
      "type": "function"
    },
    {
      "inputs": [],
      "name": "proxiableUUID",
      "outputs": [
        {
          "internalType": "bytes32",
          "name": "",
          "type": "bytes32"
        }
      ],
      "stateMutability": "view",
      "type": "function"
    },
    {
      "inputs": [
        {
          "internalType": "address",
          "name": "bot",
          "type": "address"
        }
      ],
      "name": "removeMessengerBot",
      "outputs": [],
      "stateMutability": "nonpayable",
      "type": "function"
    },
    {
      "inputs": [
        {
          "internalType": "address",
          "name": "pubKeyAddress",
          "type": "address"
        }
      ],
      "name": "removePublicKey",
      "outputs": [],
      "stateMutability": "nonpayable",
      "type": "function"
    },
    {
      "inputs": [
        {
          "internalType": "string",
          "name": "serviceName",
          "type": "string"
        }
      ],
      "name": "removeService",
      "outputs": [],
      "stateMutability": "nonpayable",
      "type": "function"
    },
    {
      "inputs": [
        {
          "internalType": "string",
          "name": "serviceName",
          "type": "string"
        },
        {
          "internalType": "string",
          "name": "capability",
          "type": "string"
        }
      ],
      "name": "removeServiceCapability",
      "outputs": [],
      "stateMutability": "nonpayable",
      "type": "function"
    },
    {
      "inputs": [
        {
          "internalType": "address",
          "name": "_supportedToken",
          "type": "address"
        }
      ],
      "name": "removeSupportedToken",
      "outputs": [],
      "stateMutability": "nonpayable",
      "type": "function"
    },
    {
      "inputs": [
        {
          "internalType": "string[]",
          "name": "serviceNames",
          "type": "string[]"
        }
      ],
      "name": "removeWantedServices",
      "outputs": [],
      "stateMutability": "nonpayable",
      "type": "function"
    },
    {
      "inputs": [
        {
          "internalType": "bytes32",
          "name": "role",
          "type": "bytes32"
        },
        {
          "internalType": "address",
          "name": "callerConfirmation",
          "type": "address"
        }
      ],
      "name": "renounceRole",
      "outputs": [],
      "stateMutability": "nonpayable",
      "type": "function"
    },
    {
      "inputs": [
        {
          "internalType": "bytes32",
          "name": "role",
          "type": "bytes32"
        },
        {
          "internalType": "address",
          "name": "account",
          "type": "address"
        }
      ],
      "name": "revokeRole",
      "outputs": [],
      "stateMutability": "nonpayable",
      "type": "function"
    },
    {
      "inputs": [
        {
          "internalType": "uint256",
          "name": "limit",
          "type": "uint256"
        },
        {
          "internalType": "uint256",
          "name": "period",
          "type": "uint256"
        }
      ],
      "name": "setGasMoneyWithdrawal",
      "outputs": [],
      "stateMutability": "nonpayable",
      "type": "function"
    },
    {
      "inputs": [
        {
          "internalType": "bool",
          "name": "_isSupported",
          "type": "bool"
        }
      ],
      "name": "setOffChainPaymentSupported",
      "outputs": [],
      "stateMutability": "nonpayable",
      "type": "function"
    },
    {
      "inputs": [
        {
          "internalType": "string",
          "name": "serviceName",
          "type": "string"
        },
        {
          "internalType": "string[]",
          "name": "capabilities",
          "type": "string[]"
        }
      ],
      "name": "setServiceCapabilities",
      "outputs": [],
      "stateMutability": "nonpayable",
      "type": "function"
    },
    {
      "inputs": [
        {
          "internalType": "string",
          "name": "serviceName",
          "type": "string"
        },
        {
          "internalType": "uint256",
          "name": "fee",
          "type": "uint256"
        }
      ],
      "name": "setServiceFee",
      "outputs": [],
      "stateMutability": "nonpayable",
      "type": "function"
    },
    {
      "inputs": [
        {
          "internalType": "string",
          "name": "serviceName",
          "type": "string"
        },
        {
          "internalType": "bool",
          "name": "restrictedRate",
          "type": "bool"
        }
      ],
      "name": "setServiceRestrictedRate",
      "outputs": [],
      "stateMutability": "nonpayable",
      "type": "function"
    },
    {
      "inputs": [
        {
          "internalType": "bytes4",
          "name": "interfaceId",
          "type": "bytes4"
        }
      ],
      "name": "supportsInterface",
      "outputs": [
        {
          "internalType": "bool",
          "name": "",
          "type": "bool"
        }
      ],
      "stateMutability": "view",
      "type": "function"
    },
    {
      "inputs": [
        {
          "internalType": "contract IERC20",
          "name": "token",
          "type": "address"
        },
        {
          "internalType": "address",
          "name": "to",
          "type": "address"
        },
        {
          "internalType": "uint256",
          "name": "amount",
          "type": "uint256"
        }
      ],
      "name": "transferERC20",
      "outputs": [],
      "stateMutability": "nonpayable",
      "type": "function"
    },
    {
      "inputs": [
        {
          "internalType": "contract IERC721",
          "name": "token",
          "type": "address"
        },
        {
          "internalType": "address",
          "name": "to",
          "type": "address"
        },
        {
          "internalType": "uint256",
          "name": "tokenId",
          "type": "uint256"
        }
      ],
      "name": "transferERC721",
      "outputs": [],
      "stateMutability": "nonpayable",
      "type": "function"
    },
    {
      "inputs": [
        {
          "internalType": "address",
          "name": "newImplementation",
          "type": "address"
        },
        {
          "internalType": "bytes",
          "name": "data",
          "type": "bytes"
        }
      ],
      "name": "upgradeToAndCall",
      "outputs": [],
      "stateMutability": "payable",
      "type": "function"
    },
    {
      "inputs": [
        {
          "internalType": "address",
          "name": "fromCMAccount",
          "type": "address"
        },
        {
          "internalType": "address",
          "name": "toCMAccount",
          "type": "address"
        },
        {
          "internalType": "address",
          "name": "toBot",
          "type": "address"
        },
        {
          "internalType": "uint256",
          "name": "counter",
          "type": "uint256"
        },
        {
          "internalType": "uint256",
          "name": "amount",
          "type": "uint256"
        },
        {
          "internalType": "uint256",
          "name": "createdAt",
          "type": "uint256"
        },
        {
          "internalType": "uint256",
          "name": "expiresAt",
          "type": "uint256"
        },
        {
          "internalType": "bytes",
          "name": "signature",
          "type": "bytes"
        }
      ],
      "name": "verifyCheque",
      "outputs": [
        {
          "internalType": "address",
          "name": "signer",
          "type": "address"
        },
        {
          "internalType": "uint256",
          "name": "paymentAmount",
          "type": "uint256"
        }
      ],
      "stateMutability": "nonpayable",
      "type": "function"
    },
    {
      "inputs": [
        {
          "internalType": "address payable",
          "name": "recipient",
          "type": "address"
        },
        {
          "internalType": "uint256",
          "name": "amount",
          "type": "uint256"
        }
      ],
      "name": "withdraw",
      "outputs": [],
      "stateMutability": "nonpayable",
      "type": "function"
    },
    {
      "inputs": [
        {
          "internalType": "uint256",
          "name": "amount",
          "type": "uint256"
        }
      ],
      "name": "withdrawGasMoney",
      "outputs": [],
      "stateMutability": "nonpayable",
      "type": "function"
    },
    {
      "stateMutability": "payable",
      "type": "receive"
    }
  ],
  "bytecode": "0x60a0604052306080523480156200001557600080fd5b506200002062000026565b620000da565b7ff0c57e16840df040f15088dc2f81fe391c3923bec73e23a9662efc9c229c6a00805468010000000000000000900460ff1615620000775760405163f92ee8a960e01b815260040160405180910390fd5b80546001600160401b0390811614620000d75780546001600160401b0319166001600160401b0390811782556040519081527fc7f505b2f371ae2175ee4913f4499e1f2633a7b5936321eed1cdaeb6115181d29060200160405180910390a15b50565b608051614fc9620001046000396000818161295f015281816129880152612cde0152614fc96000f3fe6080604052600436106103455760003560e01c806301ffc9a71461035157806308564c19146103865780630ede80d6146103a8578063136f50ca146103d8578063150b7a02146103fa57806318274da41461043e5780631aca63761461045e5780631c5db99e1461048057806320606b70146104a057806321b9b929146104c2578063241bbbfc146104f0578063248a9ca31461050557806326687c9f146105255780632f2ff15d14610545578063319d13f314610565578063337462741461058557806333e1a223146105a757806336568abe146105c7578063383aba87146105e757806339e4c7051461060957806341bf7c691461062957806342072bbd14610649578063432cf6391461065e5780634781ae531461067e5780634f1ef2861461069e5780634f3f4639146106b157806351889d6b146106d357806352d1902d146106f357806358e5cae0146107085780635c988994146107285780635e07f8691461074857806363e86cc814610768578063647d8f6d1461078a578063658db0af146107aa5780636d69fcaf146107cd5780636fc22cd1146107ed5780637512e55b1461080d578063763191901461082d5780637eec56c71461084d578063852b3ccb14610870578063857cdbb81461089257806385f438c1146108bf5780638c20f574146108e15780638f69347d146109015780639010d07c1461092157806391d1485414610941578063930659eb146109615780639db5dbe414610991578063a217fddf146109b1578063a31aa039146109c6578063a7d022f8146109e6578063ad3cb1cc14610a06578063b512463514610a37578063c162d7da14610a57578063c39409e114610a6c578063c6640e6814610a81578063c7b5914f14610aa1578063ca15c87314610ac1578063ccde65dc14610ae1578063d09445c214610b01578063d3c7c2c714610b23578063d547741f14610b45578063da47d85614610b65578063e0b78add14610b92578063e7bfce9a14610bb2578063e96cf7ad14610bd2578063ea79d07a14610be7578063eb5ea27314610bfc578063ebc20d2014610c1c578063ed24911d14610c3c578063ee3b641f14610c51578063f3fef3a314610c71578063f51acaea14610c91578063f72c0d8b14610cb157600080fd5b3661034c57005b600080fd5b34801561035d57600080fd5b5061037161036c366004613f4a565b610cd3565b60405190151581526020015b60405180910390f35b34801561039257600080fd5b5061039b610cfe565b60405161037d919061401e565b3480156103b457600080fd5b506103ca600080516020614f3483398151915281565b60405190815260200161037d565b3480156103e457600080fd5b506103ed610e28565b60405161037d9190614031565b34801561040657600080fd5b5061042561041536600461414d565b630a85bd0160e11b949350505050565b6040516001600160e01b0319909116815260200161037d565b34801561044a57600080fd5b506103ca6104593660046141b8565b610e48565b34801561046a57600080fd5b5061047e6104793660046141ec565b610e56565b005b34801561048c57600080fd5b5061047e61049b3660046142cb565b610f03565b3480156104ac57600080fd5b506103ca600080516020614f5483398151915281565b3480156104ce57600080fd5b506104e26104dd3660046142ff565b610f64565b60405161037d92919061439a565b3480156104fc57600080fd5b50610371611190565b34801561051157600080fd5b506103ca6105203660046143b3565b6111a8565b34801561053157600080fd5b5061047e6105403660046143b3565b6111c8565b34801561055157600080fd5b5061047e6105603660046143cc565b611264565b34801561057157600080fd5b5061039b6105803660046141b8565b611286565b34801561059157600080fd5b506103ca600080516020614ef483398151915281565b3480156105b357600080fd5b5061047e6105c23660046143fc565b611294565b3480156105d357600080fd5b5061047e6105e23660046143cc565b611450565b3480156105f357600080fd5b506103ca600080516020614e5483398151915281565b34801561061557600080fd5b5061047e6106243660046142cb565b611483565b34801561063557600080fd5b5061047e610644366004614464565b6114d2565b34801561065557600080fd5b506103ed6114fc565b34801561066a57600080fd5b5061047e6106793660046144b6565b611513565b34801561068a57600080fd5b506103ca61069936600461452b565b611546565b61047e6106ac366004614599565b6115c8565b3480156106bd57600080fd5b506106c66115e7565b60405161037d91906145e8565b3480156106df57600080fd5b5061047e6106ee3660046145fc565b611605565b3480156106ff57600080fd5b506103ca6116b8565b34801561071457600080fd5b5061047e610723366004614628565b6116d5565b34801561073457600080fd5b5061047e6107433660046143b3565b611761565b34801561075457600080fd5b5061039b6107633660046143b3565b61179c565b34801561077457600080fd5b506103ca600080516020614e7483398151915281565b34801561079657600080fd5b5061047e6107a53660046142ff565b6118a4565b3480156107b657600080fd5b506107bf611a8d565b60405161037d929190614691565b3480156107d957600080fd5b5061047e6107e836600461469f565b611aaf565b3480156107f957600080fd5b5061047e6108083660046146bc565b611ad0565b34801561081957600080fd5b5061047e6108283660046146de565b611af2565b34801561083957600080fd5b5061047e61084836600461469f565b611b1c565b34801561085957600080fd5b50610862611b3d565b60405161037d9291906147b5565b34801561087c57600080fd5b506103ca600080516020614f7483398151915281565b34801561089e57600080fd5b506108b26108ad36600461469f565b611d02565b60405161037d9190614827565b3480156108cb57600080fd5b506103ca600080516020614f1483398151915281565b3480156108ed57600080fd5b5061047e6108fc3660046146de565b611de7565b34801561090d57600080fd5b5061037161091c3660046143b3565b611e11565b34801561092d57600080fd5b506106c661093c3660046146bc565b611e42565b34801561094d57600080fd5b5061037161095c3660046143cc565b611e70565b34801561096d57600080fd5b5061098161097c36600461483a565b611ea6565b60405161037d9493929190614868565b34801561099d57600080fd5b5061047e6109ac3660046141ec565b611efd565b3480156109bd57600080fd5b506103ca600081565b3480156109d257600080fd5b5061047e6109e1366004614883565b611f50565b3480156109f257600080fd5b5061047e610a013660046148a0565b611f71565b348015610a1257600080fd5b506108b2604051806040016040528060058152602001640352e302e360dc1b81525081565b348015610a4357600080fd5b50610371610a523660046141b8565b611f9b565b348015610a6357600080fd5b506106c6611fa9565b348015610a7857600080fd5b506103ca611fc4565b348015610a8d57600080fd5b5061047e610a9c36600461469f565b611fd9565b348015610aad57600080fd5b506103ca610abc36600461452b565b612074565b348015610acd57600080fd5b506103ca610adc3660046143b3565b6120b0565b348015610aed57600080fd5b5061047e610afc366004614599565b6120dc565b348015610b0d57600080fd5b506103ca600080516020614ed483398151915281565b348015610b2f57600080fd5b50610b386120fe565b60405161037d91906148e6565b348015610b5157600080fd5b5061047e610b603660046143cc565b612118565b348015610b7157600080fd5b50610b85610b803660046143b3565b612134565b60405161037d9190614927565b348015610b9e57600080fd5b50610371610bad36600461469f565b61225d565b348015610bbe57600080fd5b5061047e610bcd36600461469f565b612277565b348015610bde57600080fd5b506103ca612298565b348015610bf357600080fd5b50610b386122ad565b348015610c0857600080fd5b506103ca610c173660046143b3565b6122c7565b348015610c2857600080fd5b5061047e610c3736600461493a565b6122f2565b348015610c4857600080fd5b506103ca61231c565b348015610c5d57600080fd5b506107bf610c6c36600461469f565b612327565b348015610c7d57600080fd5b5061047e610c8c3660046145fc565b612362565b348015610c9d57600080fd5b5061047e610cac3660046141b8565b6123ea565b348015610cbd57600080fd5b506103ca600080516020614e9483398151915281565b60006001600160e01b03198216635a05180f60e01b1480610cf85750610cf882612413565b92915050565b60606000610d0a610e28565b9050600081516001600160401b03811115610d2757610d2761408a565b604051908082528060200260200182016040528015610d5a57816020015b6060815260200190600190039081610d455790505b50905060005b8251811015610e2157610d71611fa9565b6001600160a01b0316635a81a626848381518110610d9157610d91614993565b60200260200101516040518263ffffffff1660e01b8152600401610db791815260200190565b600060405180830381865afa158015610dd4573d6000803e3d6000fd5b505050506040513d6000823e601f3d908101601f19168201604052610dfc91908101906149a9565b828281518110610e0e57610e0e614993565b6020908102919091010152600101610d60565b5092915050565b60606000610e34612448565b9050610e428160090161246c565b91505090565b6000610cf8610c1783612479565b600080516020614f14833981519152610e6e816124ef565b6001600160a01b038316610e9557604051633a954ecd60e21b815260040160405180910390fd5b604051632142170760e11b81523060048201526001600160a01b038481166024830152604482018490528516906342842e0e90606401600060405180830381600087803b158015610ee557600080fd5b505af1158015610ef9573d6000803e3d6000fd5b5050505050505050565b600080516020614ed4833981519152610f1b816124ef565b60005b8251811015610f5f576000610f4b848381518110610f3e57610f3e614993565b6020026020010151612479565b9050610f56816124f9565b50600101610f1e565b505050565b6000806001600160a01b038a163014610f9b5789604051637b7d696f60e01b8152600401610f9291906145e8565b60405180910390fd5b610fa3611fa9565b6001600160a01b03166312b357b58a6040518263ffffffff1660e01b8152600401610fce91906145e8565b602060405180830381865afa158015610feb573d6000803e3d6000fd5b505050506040513d601f19601f8201168201806040525081019061100f9190614a16565b61102e5788604051633f2c64af60e01b8152600401610f9291906145e8565b83421061105157604051636453b2e560e01b815260048101859052602401610f92565b6110618a8a8a8a8a8a8a8a612570565b915061106c8261225d565b61108b578160405163248d101d60e11b8152600401610f9291906145e8565b600061109561259c565b6001600160a01b03808516600090815260208381526040808320938e168352929052206001810154919250908810156110e85760018101546040516307c83fcf60e41b8152610f92918a91600401614691565b8054891161110d578054604051632256490160e11b8152610f92918b91600401614691565b600181015461111c9089614a49565b604080516001600160a01b0387811682528d811660208301529181018c9052606081018b905260808101839052919450808d1691908e16907fb2a9b85887fc8b5583c36b8abdbcee05214634356efab6bd2a49a3e9ed4ba1a59060a00160405180910390a350509850989650505050505050565b60008061119b612448565b6003015460ff1692915050565b6000806111b36125c0565b60009384526020525050604090206001015490565b6111d06125e4565b600080516020614f748339815191526111e8816124ef565b73__$12bd2f62b73a470fe0f6e02c33045f3191$__631b29e1ba61120a6115e7565b846040518363ffffffff1660e01b815260040161122892919061439a565b60006040518083038186803b15801561124057600080fd5b505af4158015611254573d6000803e3d6000fd5b505050505061126161261a565b50565b61126d826111a8565b611276816124ef565b611280838361262b565b50505050565b6060610cf861076383612479565b600061129e61266d565b805490915060ff600160401b82041615906001600160401b03166000811580156112c55750825b90506000826001600160401b031660011480156112e15750303b155b9050811580156112ef575080155b1561130d5760405163f92ee8a960e01b815260040160405180910390fd5b84546001600160401b0319166001178555831561133657845460ff60401b1916600160401b1785555b61133e612691565b611346612691565b61134e61269b565b61135960008861262b565b50611372600080516020614ed48339815191528861262b565b5061138b600080516020614ef48339815191528861262b565b506113a4600080516020614e948339815191528761262b565b5060006113af612735565b80546001600160a01b03808e166001600160a01b0319928316178355600183018054918e1691909216179055600281018a90559050678ac7230489e80000620151806113fb8282612759565b505050831561144457845460ff60401b19168555604051600181527fc7f505b2f371ae2175ee4913f4499e1f2633a7b5936321eed1cdaeb6115181d29060200160405180910390a15b50505050505050505050565b6001600160a01b03811633146114795760405163334bd91960e11b815260040160405180910390fd5b610f5f828261277c565b600080516020614ed483398151915261149b816124ef565b60005b8251811015610f5f5760006114be848381518110610f3e57610f3e614993565b90506114c9816127b5565b5060010161149e565b600080516020614ed48339815191526114ea816124ef565b610f5f6114f684612479565b83612823565b60606000611508612448565b9050610e428161246c565b600080516020614ed483398151915261152b816124ef565b61153f61153786612479565b85848661287e565b5050505050565b60408051600080516020614f3483398151915260208201526001600160a01b03808a16928201929092528188166060820152908616608082015260a0810185905260c0810184905260e081018390526101008101829052600090610120015b604051602081830303815290604052805190602001209050979650505050505050565b6115d0612954565b6115d9826129e2565b6115e38282612b25565b5050565b6000806115f2612735565b600101546001600160a01b031692915050565b600080516020614ef483398151915261161d816124ef565b61162682612bd9565b61163e600080516020614e748339815191528461262b565b50611657600080516020614f748339815191528461262b565b50611670600080516020614e548339815191528461262b565b506040516001600160a01b038416907fdb3e11ba26e83d528bf96a2167061674c1ce7777c61376d852d172594a87399490600090a2610f5f6001600160a01b03841683612c3c565b60006116c2612cd3565b50600080516020614eb483398151915290565b600080516020614f748339815191526116ed816124ef565b73__$12bd2f62b73a470fe0f6e02c33045f3191$__6353ea54c561170f6115e7565b88888888886040518763ffffffff1660e01b815260040161173596959493929190614a5c565b60006040518083038186803b15801561174d57600080fd5b505af4158015611444573d6000803e3d6000fd5b6117696125e4565b600080516020614e54833981519152611781816124ef565b61178a82612bd9565b61179382612d1c565b5061126161261a565b606060006117a8612448565b90506117b48382612e51565b806002016000848152602001908152602001600020600201805480602002602001604051908101604052809291908181526020016000905b8282101561189857838290600052602060002001805461180b90614aa6565b80601f016020809104026020016040519081016040528092919081815260200182805461183790614aa6565b80156118845780601f1061185957610100808354040283529160200191611884565b820191906000526020600020905b81548152906001019060200180831161186757829003601f168201915b5050505050815260200190600101906117ec565b50505050915050919050565b6118ac6125e4565b6000806118bf8a8a8a8a8a8a8a8a610f64565b915091506118d1828989898989612e7b565b60006127106118de611fa9565b6001600160a01b0316633c5559386040518163ffffffff1660e01b8152600401602060405180830381865afa15801561191b573d6000803e3d6000fd5b505050506040513d601f19601f8201168201806040525081019061193f9190614ae0565b6119499084614af9565b6119539190614b10565b905060006119618284614a49565b90508a6001600160a01b03168c6001600160a01b0316146119a357600061198661259c565b90508381600101600082825461199c9190614b32565b9091555050505b611a1f826119af611fa9565b6001600160a01b0316630470d3ac6040518163ffffffff1660e01b8152600401602060405180830381865afa1580156119ec573d6000803e3d6000fd5b505050506040513d601f19601f82011682018060405250810190611a109190614b45565b6001600160a01b031690612c3c565b611a326001600160a01b038c1682612c3c565b896001600160a01b0316846001600160a01b03167f7518bccc58ad7b6eb0ba4b9e696d83bfc6252df80a4e9cf24e64b10be21ecde48b8486604051611a7993929190614b62565b60405180910390a350505050610ef961261a565b6000806000611a9a612ee6565b90508060020154816003015492509250509091565b600080516020614ed4833981519152611ac7816124ef565b6115e382612f0a565b600080516020614ef4833981519152611ae8816124ef565b610f5f8383612f76565b600080516020614ed4833981519152611b0a816124ef565b610f5f611b1684612479565b83612fc3565b600080516020614ed4833981519152611b34816124ef565b6115e382613039565b6060806000611b4a6114fc565b9050600081516001600160401b03811115611b6757611b6761408a565b604051908082528060200260200182016040528015611b9a57816020015b6060815260200190600190039081611b855790505b509050600082516001600160401b03811115611bb857611bb861408a565b604051908082528060200260200182016040528015611bf157816020015b611bde613e4b565b815260200190600190039081611bd65790505b50905060005b8351811015611cf757611c08611fa9565b6001600160a01b0316635a81a626858381518110611c2857611c28614993565b60200260200101516040518263ffffffff1660e01b8152600401611c4e91815260200190565b600060405180830381865afa158015611c6b573d6000803e3d6000fd5b505050506040513d6000823e601f3d908101601f19168201604052611c9391908101906149a9565b838281518110611ca557611ca5614993565b6020026020010181905250611cd2848281518110611cc557611cc5614993565b6020026020010151612134565b828281518110611ce457611ce4614993565b6020908102919091010152600101611bf7565b509094909350915050565b60606000611d0e612448565b9050611d1d60068201846130a5565b611d3c578260405163ba650b5f60e01b8152600401610f9291906145e8565b6001600160a01b038316600090815260088201602052604090208054611d6190614aa6565b80601f0160208091040260200160405190810160405280929190818152602001828054611d8d90614aa6565b8015611dda5780601f10611daf57610100808354040283529160200191611dda565b820191906000526020600020905b815481529060010190602001808311611dbd57829003601f168201915b5050505050915050919050565b600080516020614ed4833981519152611dff816124ef565b610f5f611e0b84612479565b836130ba565b600080611e1c612448565b9050611e288382612e51565b600092835260020160205250604090206001015460ff1690565b600080611e4d613222565b6000858152602082905260409020909150611e689084613246565b949350505050565b600080611e7b6125c0565b6000948552602090815260408086206001600160a01b03959095168652939052505090205460ff1690565b6000806000806000611eb661259c565b6001600160a01b0397881660009081526020918252604080822098909916815296905250505092909120805460018201546002830154600390930154919590945091925090565b600080516020614f14833981519152611f15816124ef565b6001600160a01b038316611f3c57604051633a954ecd60e21b815260040160405180910390fd5b6112806001600160a01b0385168484613252565b600080516020614ed4833981519152611f68816124ef565b6115e3826132aa565b600080516020614ed4833981519152611f89816124ef565b610f5f611f9584612479565b83613301565b6000610cf861091c83612479565b600080611fb4612735565b546001600160a01b031692915050565b600080611fcf612735565b6002015492915050565b600080516020614ef4833981519152611ff1816124ef565b612009600080516020614e748339815191528361277c565b50612022600080516020614f748339815191528361277c565b5061203b600080516020614e548339815191528361277c565b506040516001600160a01b038316907fd124523a9cfa28c5dd01826c4fa56192ec7d56859943082e0ca46c3b9dc6291390600090a25050565b600061207e61231c565b61208d89898989898989611546565b60405161190160f01b6020820152602281019290925260428201526062016115a5565b6000806120bb613222565b60008481526020829052604090209091506120d59061336e565b9392505050565b600080516020614ed48339815191526120f4816124ef565b610f5f8383613378565b6060600061210a612448565b9050610e426004820161246c565b612121826111a8565b61212a816124ef565b611280838361277c565b61213c613e4b565b6000612146612448565b90506121528382612e51565b6000838152600280830160209081526040808420815160608101835281548152600182015460ff161515818501529381018054835181860281018601855281815295969295938701949192909184015b8282101561224e5783829060005260206000200180546121c190614aa6565b80601f01602080910402602001604051908101604052809291908181526020018280546121ed90614aa6565b801561223a5780601f1061220f5761010080835404028352916020019161223a565b820191906000526020600020905b81548152906001019060200180831161221d57829003601f168201915b5050505050815260200190600101906121a2565b50505091525090949350505050565b6000610cf8600080516020614e7483398151915283611e70565b600080516020614ed483398151915261228f816124ef565b6115e382613414565b6000806122a361259c565b6001015492915050565b606060006122b9612448565b9050610e428160060161246c565b6000806122d2612448565b90506122de8382612e51565b600092835260020160205250604090205490565b600080516020614ed483398151915261230a816124ef565b610f5f61231684612479565b836134ad565b600080611fcf61259c565b6000806000612334612ee6565b6001600160a01b03909416600090815260208581526040808320546001909701909152902054939492505050565b61236a6125e4565b600080516020614f14833981519152612382816124ef565b61238b82612bd9565b61239e6001600160a01b03841683612c3c565b826001600160a01b03167f884edad9ce6fa2440d8a54cc123490eb96d2768479d49ff9c7366125a9424364836040516123d991815260200190565b60405180910390a2506115e361261a565b600080516020614ed4833981519152612402816124ef565b6115e361240e83612479565b61351c565b60006001600160e01b03198216637965db0b60e01b1480610cf857506301ffc9a760e01b6001600160e01b0319831614610cf8565b7ff2856e5e1b7689dcde1bb551fd115c3cad8d243ea609d47a46b4d22ee58d300090565b606060006120d5836135b7565b6000612483611fa9565b6001600160a01b031663352af39a836040518263ffffffff1660e01b81526004016124ae9190614827565b602060405180830381865afa1580156124cb573d6000803e3d6000fd5b505050506040513d601f19601f82011682018060405250810190610cf89190614ae0565b6112618133613613565b6000612503612448565b90506000612514600983018461363e565b90508061253757604051631a1e056960e01b815260048101849052602401610f92565b6040518381527f7acacfd576383587962277516962c289d19f807be443f4e303ab45ace24931ac906020015b60405180910390a1505050565b6000806125828a8a8a8a8a8a8a612074565b905061258e818461364a565b9a9950505050505050505050565b7f175f7e400d42af44d9ebd24e9efee8a2c4ed78ddf46a83e51a493ae382c8760090565b7f02dd7bc7dec4dceedda775e58dd541e08a116c6c53815c0bd028192f7b62680090565b60006125ee613674565b80549091506001190161261457604051633ee5aeb560e01b815260040160405180910390fd5b60029055565b6000612624613674565b6001905550565b600080612636613222565b905060006126448585613698565b90508015611e685760008581526020839052604090206126649085613739565b50949350505050565b7ff0c57e16840df040f15088dc2f81fe391c3923bec73e23a9662efc9c229c6a0090565b61269961374e565b565b6126a361374e565b60006126ad61259c565b60405190915061271590600080516020614f54833981519152907f964f47ba1d5dc0d1184a60039dba40abb2d0eee53398392e97308cb5f4a12f94907fc89efdaa54c0f20c7adf612882df0950f5a951637e0307cdcb4c672f298b8bc6904690602001614868565b60408051601f198184030181529190528051602090910120600290910155565b7f0c7b73796c7cc89b9f849b9056a93200eba741881e57a1b03b9bedb2c0e0710090565b61276161374e565b600061276b612ee6565b600281019390935550600390910155565b600080612787613222565b905060006127958585613773565b90508015611e6857600085815260208390526040902061266490856137eb565b60006127bf612448565b905060006127d06009830184613800565b9050806127f357604051637eae59f160e11b815260048101849052602401610f92565b6040518381527ff0dd3de472ddcd75ae2c17728a45801355fb6dd8615a7c53c15504b4279c09be90602001612563565b600061282d612448565b90506128398382612e51565b600083815260028201602052604090819020839055517f8db4dceeae8d620782d356dec6a0148e893ff28620319f10f53dd2232b197897906125639085908590614691565b6000612888612448565b90506000612896828761363e565b9050806128b8576040516221e3bb60e31b815260048101879052602401610f92565b60408051606081018252868152841515602080830191825282840188815260008b81526002888101845295902084518155925160018401805460ff191691151591909117905551805193949293612916938501929190910190613e6e565b50506040518781527f8f531e5ede07d5741fd086bb787ed399a64704eb757b87cc80cf6635b274e5b5915060200160405180910390a1505050505050565b306001600160a01b037f00000000000000000000000000000000000000000000000000000000000000001614806129c457507f00000000000000000000000000000000000000000000000000000000000000006001600160a01b03166129b861380c565b6001600160a01b031614155b156126995760405163703e46dd60e11b815260040160405180910390fd5b600080516020614e948339815191526129fa816124ef565b6000612a04611fa9565b6001600160a01b0316639d825bc56040518163ffffffff1660e01b8152600401602060405180830381865afa158015612a41573d6000803e3d6000fd5b505050506040513d601f19601f82011682018060405250810190612a659190614b45565b90506000612a7161380c565b9050836001600160a01b0316816001600160a01b031603612aa95780846040516382afabc160e01b8152600401610f92929190614b78565b816001600160a01b0316846001600160a01b031614612adf57818460405163699a021f60e11b8152600401610f92929190614b78565b836001600160a01b0316816001600160a01b03167fa3d484f827e1c900ce24494bfdb214bcbad08472a9f0571fb5beac779a682db460405160405180910390a350505050565b816001600160a01b03166352d1902d6040518163ffffffff1660e01b8152600401602060405180830381865afa925050508015612b7f575060408051601f3d908101601f19168201909252612b7c91810190614ae0565b60015b612b9e5781604051634c9c8ce360e01b8152600401610f9291906145e8565b600080516020614eb48339815191528114612bcf57604051632a87526960e21b815260048101829052602401610f92565b610f5f8383613828565b6000612be3611fc4565b90506000612bef612298565b905081811015610f5f576000612c058284614a49565b90506000612c138247614a49565b90508085111561153f578082866040516344c8760560e11b8152600401610f9293929190614b62565b80471015612c5f573060405163cd78605960e01b8152600401610f9291906145e8565b6000826001600160a01b03168260405160006040518083038185875af1925050503d8060008114612cac576040519150601f19603f3d011682016040523d82523d6000602084013e612cb1565b606091505b5050905080610f5f57604051630a12f52160e11b815260040160405180910390fd5b306001600160a01b037f000000000000000000000000000000000000000000000000000000000000000016146126995760405163703e46dd60e11b815260040160405180910390fd5b6000612d26612ee6565b90508060020154821115612d5557806002015482604051631728bc5b60e31b8152600401610f92929190614691565b6003810154336000908152602083905260409020544291612d7591614b32565b811115612d9d5733600090815260018301602090815260408083208390559084905290208190555b6002820154336000908152600184016020526040902054612dbf908590614b32565b1115612de65781600201548360405163d54b188760e01b8152600401610f92929190614691565b33600090815260018301602052604081208054859290612e07908490614b32565b90915550612e1790503384612c3c565b60405183815233907fb9ec638398bbdcd0844ca414d8ce760939fa88b9258b9764b3fc6c12ea2605c29060200160405180910390a2505050565b612e5b818361387e565b6115e357604051631e96f6ed60e21b815260048101839052602401610f92565b6000612e8561259c565b604080516080810182529687526020808801968752878201958652606088019485526001600160a01b03998a166000908152928152818320989099168252969097525093909420915182555160018201559151600283015551600390910155565b7f99a652063088b6badaeb0c7f680676baf720654b4f86f50167944489af637d0090565b6000612f14612448565b90506000612f256004830184613739565b905080612f475782604051632872fbf960e11b8152600401610f9291906145e8565b7fa317c10673baf4f03b3c1041bd5ddbb537d0333a86fec3607c75f9dbb630f48f8360405161256391906145e8565b6000612f80612ee6565b60028101849055600381018390556040519091507f8d4925b196ae6b935035a27ed36c6bd9c7a8fbddc7a3f55f493aa8e230be373e906125639085908590614691565b6000612fcd612448565b9050612fd98382612e51565b6000838152600280830160209081526040832090910180546001810182559083529120016130078382614bf7565b507f1cd139430ed537ab9e8086952076cce01edd5ba6e30907af0ffe3709fd3139e68383604051612563929190614cb0565b6000613043612448565b9050600061305460048301846137eb565b9050806130765782604051631532e67160e21b8152600401610f9291906145e8565b7f85a3e72f8dd6db3794f93109c3c5f5b79d6112f6979431c45f98b26134b42af28360405161256391906145e8565b60006120d5836001600160a01b038416613886565b60006130c4612448565b90506130d08382612e51565b600083815260028083016020526040822001905b815481101561153f57836040516020016130fe9190614cc9565b6040516020818303038152906040528051906020012082828154811061312657613126614993565b906000526020600020016040516020016131409190614ce5565b604051602081830303815290604052805190602001200361321a578154829061316b90600190614a49565b8154811061317b5761317b614993565b9060005260206000200182828154811061319757613197614993565b9060005260206000200190816131ad9190614d5b565b50818054806131be576131be614e27565b6001900381819060005260206000200160006131da9190613ec4565b90557ffc8d82c9e7e7938446da05458183efa5916c443a2bab87f97f94a8d47742b014858560405161320d929190614cb0565b60405180910390a161153f565b6001016130e4565b7fc1f6fe24621ce81ec5827caf0253cadb74709b061630e6b55e8237170593200090565b60006120d5838361389e565b610f5f83846001600160a01b031663a9059cbb858560405160240161327892919061439a565b604051602081830303815290604052915060e01b6020820180516001600160e01b0383818316178352505050506138c8565b60006132b4612448565b60038101805460ff19168415159081179091556040519081529091507fe93ceb76efb130156c6aa39fa4ac986b3f683b6da926496fca3f95ea7fe715e39060200160405180910390a15050565b600061330b612448565b90506133178382612e51565b6000838152600282016020908152604091829020600101805460ff19168515159081179091558251868152918201527f1b76230b39d2d0c1a2a77a90c170190d2280796ed56b280177256ce39df1a6649101612563565b6000610cf8825490565b6000613382612448565b905060006133936006830185613739565b9050806133b55783604051631a6107e360e31b8152600401610f9291906145e8565b6001600160a01b038416600090815260088301602052604090206133d98482614bf7565b506040516001600160a01b038516907f928ec246afda323bc23c2815ca3f516e9fc6a7b7179772235c221e132545fe8290600090a250505050565b600061341e612448565b9050600061342f60068301846137eb565b905080613451578260405163ba650b5f60e01b8152600401610f9291906145e8565b6001600160a01b0383166000908152600883016020526040812061347491613ec4565b6040516001600160a01b038416907fc5a9b8041ef11732e7dd7043167d8c22db5c7ea99dcd38dce401effacf8a29bf90600090a2505050565b60006134b7612448565b90506134c38382612e51565b600083815260028083016020908152604090922084516134eb93919092019190850190613e6e565b506040518381527fa616bfc5bb0e46c6cad727e1b55e3685067e1296d962a7f37017874a27aa009890602001612563565b6000613526612448565b905060006135348284613800565b90508061355757604051631e96f6ed60e21b815260048101849052602401610f92565b600083815260028084016020526040822082815560018101805460ff19169055919061358590830182613efe565b50506040518381527f94da5eeca10d4d6ee8455f99240c10b0c74b0cf5bf754afb81c81e2704b9c42790602001612563565b60608160000180548060200260200160405190810160405280929190818152602001828054801561360757602002820191906000526020600020905b8154815260200190600101908083116135f3575b50505050509050919050565b61361d8282611e70565b6115e357808260405163e2517d3f60e01b8152600401610f9292919061439a565b60006120d58383613922565b60008060008061365a868661396c565b92509250925061366a82826139b9565b5090949350505050565b7f9b779b17422d0df92223018b32b4d1fa46e071723d6817e2486d003becc55f0090565b6000806136a36125c0565b90506136af8484611e70565b61372f576000848152602082815260408083206001600160a01b03871684529091529020805460ff191660011790556136e53390565b6001600160a01b0316836001600160a01b0316857f2f8788117e7eff1d82e926ec794901d17c78024a50270940304540a733656f0d60405160405180910390a46001915050610cf8565b6000915050610cf8565b60006120d5836001600160a01b038416613922565b613756613a72565b61269957604051631afcd79f60e31b815260040160405180910390fd5b60008061377e6125c0565b905061378a8484611e70565b1561372f576000848152602082815260408083206001600160a01b0387168085529252808320805460ff1916905551339287917ff6391f5c32d9c69d2a47ea670b442974b53935d1edc7fd64eb21e047a839171b9190a46001915050610cf8565b60006120d5836001600160a01b038416613a8c565b60006120d58383613a8c565b600080516020614eb4833981519152546001600160a01b031690565b61383182613b75565b6040516001600160a01b038316907fbc7cd75a20ee27fd9adebab32041f755214dbc6bffa90cc0225b39da2e5c2d3b90600090a280511561387657610f5f8282613bd1565b6115e3613c47565b60006120d583835b60009081526001919091016020526040902054151590565b60008260000182815481106138b5576138b5614993565b9060005260206000200154905092915050565b60006138dd6001600160a01b03841683613c66565b905080516000141580156139025750808060200190518101906139009190614a16565b155b15610f5f5782604051635274afe760e01b8152600401610f9291906145e8565b600061392e8383613886565b61396457508154600181810184556000848152602080822090930184905584548482528286019093526040902091909155610cf8565b506000610cf8565b600080600083516041036139a65760208401516040850151606086015160001a61399888828585613c74565b9550955095505050506139b2565b50508151600091506002905b9250925092565b60008260038111156139cd576139cd614e3d565b036139d6575050565b60018260038111156139ea576139ea614e3d565b03613a085760405163f645eedf60e01b815260040160405180910390fd5b6002826003811115613a1c57613a1c614e3d565b03613a3d5760405163fce698f760e01b815260048101829052602401610f92565b6003826003811115613a5157613a51614e3d565b036115e3576040516335e2f38360e21b815260048101829052602401610f92565b6000613a7c61266d565b54600160401b900460ff16919050565b6000818152600183016020526040812054801561372f576000613ab0600183614a49565b8554909150600090613ac490600190614a49565b9050808214613b29576000866000018281548110613ae457613ae4614993565b9060005260206000200154905080876000018481548110613b0757613b07614993565b6000918252602080832090910192909255918252600188019052604090208390555b8554869080613b3a57613b3a614e27565b600190038181906000526020600020016000905590558560010160008681526020019081526020016000206000905560019350505050610cf8565b806001600160a01b03163b600003613ba25780604051634c9c8ce360e01b8152600401610f9291906145e8565b600080516020614eb483398151915280546001600160a01b0319166001600160a01b0392909216919091179055565b6060600080846001600160a01b031684604051613bee9190614cc9565b600060405180830381855af49150503d8060008114613c29576040519150601f19603f3d011682016040523d82523d6000602084013e613c2e565b606091505b5091509150613c3e858383613d39565b95945050505050565b34156126995760405163b398979f60e01b815260040160405180910390fd5b60606120d583836000613d85565b600080806fa2a8918ca85bafe22016d0b997e4df60600160ff1b03841115613ca55750600091506003905082613d2f565b604080516000808252602082018084528a905260ff891692820192909252606081018790526080810186905260019060a0016020604051602081039080840390855afa158015613cf9573d6000803e3d6000fd5b5050604051601f1901519150506001600160a01b038116613d2557506000925060019150829050613d2f565b9250600091508190505b9450945094915050565b606082613d4e57613d4982613e22565b6120d5565b8151158015613d6557506001600160a01b0384163b155b15610e215783604051639996b31560e01b8152600401610f9291906145e8565b606081471015613daa573060405163cd78605960e01b8152600401610f9291906145e8565b600080856001600160a01b03168486604051613dc69190614cc9565b60006040518083038185875af1925050503d8060008114613e03576040519150601f19603f3d011682016040523d82523d6000602084013e613e08565b606091505b5091509150613e18868383613d39565b9695505050505050565b805115613e325780518082602001fd5b604051630a12f52160e11b815260040160405180910390fd5b604051806060016040528060008152602001600015158152602001606081525090565b828054828255906000526020600020908101928215613eb4579160200282015b82811115613eb45782518290613ea49082614bf7565b5091602001919060010190613e8e565b50613ec0929150613f18565b5090565b508054613ed090614aa6565b6000825580601f10613ee0575050565b601f0160209004906000526020600020908101906112619190613f35565b508054600082559060005260206000209081019061126191905b80821115613ec0576000613f2c8282613ec4565b50600101613f18565b5b80821115613ec05760008155600101613f36565b600060208284031215613f5c57600080fd5b81356001600160e01b0319811681146120d557600080fd5b60005b83811015613f8f578181015183820152602001613f77565b50506000910152565b60008151808452613fb0816020860160208601613f74565b601f01601f19169290920160200192915050565b60008282518085526020808601955060208260051b8401016020860160005b8481101561401157601f19868403018952613fff838351613f98565b98840198925090830190600101613fe3565b5090979650505050505050565b6020815260006120d56020830184613fc4565b6020808252825182820181905260009190848201906040850190845b818110156140695783518352928401929184019160010161404d565b50909695505050505050565b6001600160a01b038116811461126157600080fd5b634e487b7160e01b600052604160045260246000fd5b604051601f8201601f191681016001600160401b03811182821017156140c8576140c861408a565b604052919050565b60006001600160401b038211156140e9576140e961408a565b50601f01601f191660200190565b600082601f83011261410857600080fd5b813561411b614116826140d0565b6140a0565b81815284602083860101111561413057600080fd5b816020850160208301376000918101602001919091529392505050565b6000806000806080858703121561416357600080fd5b843561416e81614075565b9350602085013561417e81614075565b92506040850135915060608501356001600160401b038111156141a057600080fd5b6141ac878288016140f7565b91505092959194509250565b6000602082840312156141ca57600080fd5b81356001600160401b038111156141e057600080fd5b611e68848285016140f7565b60008060006060848603121561420157600080fd5b833561420c81614075565b9250602084013561421c81614075565b929592945050506040919091013590565b600082601f83011261423e57600080fd5b813560206001600160401b038083111561425a5761425a61408a565b8260051b6142698382016140a0565b938452858101830193838101908886111561428357600080fd5b84880192505b858310156142bf578235848111156142a15760008081fd5b6142af8a87838c01016140f7565b8352509184019190840190614289565b98975050505050505050565b6000602082840312156142dd57600080fd5b81356001600160401b038111156142f357600080fd5b611e688482850161422d565b600080600080600080600080610100898b03121561431c57600080fd5b883561432781614075565b9750602089013561433781614075565b9650604089013561434781614075565b9550606089013594506080890135935060a0890135925060c0890135915060e08901356001600160401b0381111561437e57600080fd5b61438a8b828c016140f7565b9150509295985092959890939650565b6001600160a01b03929092168252602082015260400190565b6000602082840312156143c557600080fd5b5035919050565b600080604083850312156143df57600080fd5b8235915060208301356143f181614075565b809150509250929050565b600080600080600060a0868803121561441457600080fd5b853561441f81614075565b9450602086013561442f81614075565b935060408601359250606086013561444681614075565b9150608086013561445681614075565b809150509295509295909350565b6000806040838503121561447757600080fd5b82356001600160401b0381111561448d57600080fd5b614499858286016140f7565b95602094909401359450505050565b801515811461126157600080fd5b600080600080608085870312156144cc57600080fd5b84356001600160401b03808211156144e357600080fd5b6144ef888389016140f7565b95506020870135945060408701359150614508826144a8565b9092506060860135908082111561451e57600080fd5b506141ac8782880161422d565b600080600080600080600060e0888a03121561454657600080fd5b873561455181614075565b9650602088013561456181614075565b9550604088013561457181614075565b969995985095966060810135965060808101359560a0820135955060c0909101359350915050565b600080604083850312156145ac57600080fd5b82356145b781614075565b915060208301356001600160401b038111156145d257600080fd5b6145de858286016140f7565b9150509250929050565b6001600160a01b0391909116815260200190565b6000806040838503121561460f57600080fd5b823561461a81614075565b946020939093013593505050565b600080600080600060a0868803121561464057600080fd5b853561464b81614075565b945060208601356001600160401b0381111561466657600080fd5b614672888289016140f7565b9450506040860135925060608601359150608086013561445681614075565b918252602082015260400190565b6000602082840312156146b157600080fd5b81356120d581614075565b600080604083850312156146cf57600080fd5b50508035926020909101359150565b600080604083850312156146f157600080fd5b82356001600160401b038082111561470857600080fd5b614714868387016140f7565b9350602085013591508082111561472a57600080fd5b506145de858286016140f7565b600060608301825184526020808401511515602086015260408401516060604087015282815180855260808801915060808160051b890101945060208301925060005b818110156147a857607f19898703018352614796868551613f98565b9550928401929184019160010161477a565b5093979650505050505050565b6040815260006147c86040830185613fc4565b6020838203818501528185518084528284019150828160051b85010183880160005b8381101561481857601f19878403018552614806838351614737565b948601949250908501906001016147ea565b50909998505050505050505050565b6020815260006120d56020830184613f98565b6000806040838503121561484d57600080fd5b823561485881614075565b915060208301356143f181614075565b93845260208401929092526040830152606082015260800190565b60006020828403121561489557600080fd5b81356120d5816144a8565b600080604083850312156148b357600080fd5b82356001600160401b038111156148c957600080fd5b6148d5858286016140f7565b92505060208301356143f1816144a8565b6020808252825182820181905260009190848201906040850190845b818110156140695783516001600160a01b031683529284019291840191600101614902565b6020815260006120d56020830184614737565b6000806040838503121561494d57600080fd5b82356001600160401b038082111561496457600080fd5b614970868387016140f7565b9350602085013591508082111561498657600080fd5b506145de8582860161422d565b634e487b7160e01b600052603260045260246000fd5b6000602082840312156149bb57600080fd5b81516001600160401b038111156149d157600080fd5b8201601f810184136149e257600080fd5b80516149f0614116826140d0565b818152856020838501011115614a0557600080fd5b613c3e826020830160208601613f74565b600060208284031215614a2857600080fd5b81516120d5816144a8565b634e487b7160e01b600052601160045260246000fd5b81810381811115610cf857610cf8614a33565b600060018060a01b038089168352808816602084015260c06040840152614a8660c0840188613f98565b6060840196909652608083019490945250911660a0909101529392505050565b600181811c90821680614aba57607f821691505b602082108103614ada57634e487b7160e01b600052602260045260246000fd5b50919050565b600060208284031215614af257600080fd5b5051919050565b8082028115828204841417610cf857610cf8614a33565b600082614b2d57634e487b7160e01b600052601260045260246000fd5b500490565b80820180821115610cf857610cf8614a33565b600060208284031215614b5757600080fd5b81516120d581614075565b9283526020830191909152604082015260600190565b6001600160a01b0392831681529116602082015260400190565b601f821115610f5f576000816000526020600020601f850160051c81016020861015614bbb5750805b601f850160051c820191505b81811015614bda57828155600101614bc7565b505050505050565b600019600383901b1c191660019190911b1790565b81516001600160401b03811115614c1057614c1061408a565b614c2481614c1e8454614aa6565b84614b92565b602080601f831160018114614c535760008415614c415750858301515b614c4b8582614be2565b865550614bda565b600085815260208120601f198616915b82811015614c8257888601518255948401946001909101908401614c63565b5085821015614ca05787850151600019600388901b60f8161c191681555b5050505050600190811b01905550565b828152604060208201526000611e686040830184613f98565b60008251614cdb818460208701613f74565b9190910192915050565b6000808354614cf381614aa6565b60018281168015614d0b5760018114614d2057614d4f565b60ff1984168752821515830287019450614d4f565b8760005260208060002060005b85811015614d465781548a820152908401908201614d2d565b50505082870194505b50929695505050505050565b818103614d66575050565b614d708254614aa6565b6001600160401b03811115614d8757614d8761408a565b614d9581614c1e8454614aa6565b6000601f821160018114614dc35760008315614db15750848201545b614dbb8482614be2565b85555061153f565b600085815260209020601f19841690600086815260209020845b83811015614dfd5782860154825560019586019590910190602001614ddd565b5085831015614ca05793015460001960f8600387901b161c19169092555050600190811b01905550565b634e487b7160e01b600052603160045260246000fd5b634e487b7160e01b600052602160045260246000fdfee562760eaa817d85ec1bf58364c4d65adb65d99d113c6785ef9aa66567076c954c1d97560aef1d9626af2ccff8a6ac6e245c44c307e795e9c16f7211c611a315189ab7a9244df0848122154315af71fe140f3db0fe014031783b0946b8c9d2e3360894a13ba1a3210667c828492db98dca3e2076cc3735a920a3ca505d382bbc9a95e87c5af084bf5db8491c3a6515da9dd6da39b24b0eb0af08d7b9cd808d91c6ae66da7afbd0becbe49ddf95a9256901d87f1bb5e3d43236030e5e4a585b6d10dac8c06a04bec0b551627dad28bc00d6516b0caacd1c7b345fcdb5211334e487b38f131334165ac2b361f08966c9fcff3a953fa7d9d9c2861b7f0b50445bcbc2f8787176b8ac6bf7215b4adcc1e069bf4ab82d9ab1df05a57a91d425935b6e3acdf00ba9ef08b5f2c22768276611b9af078bf6c24fa36b34ec5e9f2eb061faa2646970667358221220e626e7a781246d5f89b7593babeeefd9b1d31f579ae89231916d0a3edc63c55464736f6c63430008180033",
  "linkReferences": {
    "contracts/booking-token/BookingTokenOperator.sol": {
      "BookingTokenOperator": [
        {
          "length": 20,
          "start": 4846
        },
        {
          "length": 20,
          "start": 6131
        }
      ]
    }
  },
  "deployedLinkReferences": {
    "contracts/booking-token/BookingTokenOperator.sol": {
      "BookingTokenOperator": [
        {
          "length": 20,
          "start": 4586
        },
        {
          "length": 20,
          "start": 5871
        }
      ]
    }
  }
}