{
  "_format": "hh-sol-artifact-1",
  "contractName": "CMAccount",
  "sourceName": "contracts/account/CMAccount.sol",
  "abi": [
    {
      "inputs": [],
      "stateMutability": "nonpayable",
      "type": "constructor"
    },
    {
      "inputs": [],
      "name": "AccessControlBadConfirmation",
      "type": "error"
    },
    {
      "inputs": [
        {
          "internalType": "address",
          "name": "account",
          "type": "address"
        },
        {
          "internalType": "bytes32",
          "name": "neededRole",
          "type": "bytes32"
        }
      ],
      "name": "AccessControlUnauthorizedAccount",
      "type": "error"
    },
    {
      "inputs": [
        {
          "internalType": "address",
          "name": "target",
          "type": "address"
        }
      ],
      "name": "AddressEmptyCode",
      "type": "error"
    },
    {
      "inputs": [
        {
          "internalType": "address",
          "name": "account",
          "type": "address"
        }
      ],
      "name": "AddressInsufficientBalance",
      "type": "error"
    },
    {
      "inputs": [
        {
          "internalType": "address",
          "name": "latestImplementation",
          "type": "address"
        },
        {
          "internalType": "address",
          "name": "newImplementation",
          "type": "address"
        }
      ],
      "name": "CMAccountImplementationMismatch",
      "type": "error"
    },
    {
      "inputs": [
        {
          "internalType": "address",
          "name": "oldImplementation",
          "type": "address"
        },
        {
          "internalType": "address",
          "name": "newImplementation",
          "type": "address"
        }
      ],
      "name": "CMAccountNoUpgradeNeeded",
      "type": "error"
    },
    {
      "inputs": [
        {
          "internalType": "uint256",
          "name": "expiresAt",
          "type": "uint256"
        }
      ],
      "name": "ChequeExpired",
      "type": "error"
    },
    {
      "inputs": [
        {
          "internalType": "address",
          "name": "sender",
          "type": "address"
        }
      ],
      "name": "DepositorNotAllowed",
      "type": "error"
    },
    {
      "inputs": [],
      "name": "ECDSAInvalidSignature",
      "type": "error"
    },
    {
      "inputs": [
        {
          "internalType": "uint256",
          "name": "length",
          "type": "uint256"
        }
      ],
      "name": "ECDSAInvalidSignatureLength",
      "type": "error"
    },
    {
      "inputs": [
        {
          "internalType": "bytes32",
          "name": "s",
          "type": "bytes32"
        }
      ],
      "name": "ECDSAInvalidSignatureS",
      "type": "error"
    },
    {
      "inputs": [
        {
          "internalType": "address",
          "name": "implementation",
          "type": "address"
        }
      ],
      "name": "ERC1967InvalidImplementation",
      "type": "error"
    },
    {
      "inputs": [],
      "name": "ERC1967NonPayable",
      "type": "error"
    },
    {
      "inputs": [],
      "name": "FailedInnerCall",
      "type": "error"
    },
    {
      "inputs": [
        {
          "internalType": "uint256",
          "name": "chequeAmount",
          "type": "uint256"
        },
        {
          "internalType": "uint256",
          "name": "lastAmount",
          "type": "uint256"
        }
      ],
      "name": "InvalidAmount",
      "type": "error"
    },
    {
      "inputs": [
        {
          "internalType": "uint256",
          "name": "chequeCounter",
          "type": "uint256"
        },
        {
          "internalType": "uint256",
          "name": "lastCounter",
          "type": "uint256"
        }
      ],
      "name": "InvalidCounter",
      "type": "error"
    },
    {
      "inputs": [
        {
          "internalType": "address",
          "name": "fromCMAccount",
          "type": "address"
        }
      ],
      "name": "InvalidFromCMAccount",
      "type": "error"
    },
    {
      "inputs": [],
      "name": "InvalidInitialization",
      "type": "error"
    },
    {
      "inputs": [
        {
          "internalType": "uint8",
          "name": "use",
          "type": "uint8"
        }
      ],
      "name": "InvalidPublicKeyUseType",
      "type": "error"
    },
    {
      "inputs": [
        {
          "internalType": "address",
          "name": "toCMAccount",
          "type": "address"
        }
      ],
      "name": "InvalidToCMAccount",
      "type": "error"
    },
    {
      "inputs": [
        {
          "internalType": "address",
          "name": "signer",
          "type": "address"
        }
      ],
      "name": "NotAllowedToSignCheques",
      "type": "error"
    },
    {
      "inputs": [],
      "name": "NotInitializing",
      "type": "error"
    },
    {
      "inputs": [
        {
          "internalType": "address",
          "name": "token",
          "type": "address"
        }
      ],
      "name": "PaymentTokenAlreadyExists",
      "type": "error"
    },
    {
      "inputs": [
        {
          "internalType": "address",
          "name": "token",
          "type": "address"
        }
      ],
      "name": "PaymentTokenDoesNotExist",
      "type": "error"
    },
    {
      "inputs": [
        {
          "internalType": "uint256",
          "name": "withdrawableAmount",
          "type": "uint256"
        },
        {
          "internalType": "uint256",
          "name": "prefundLeft",
          "type": "uint256"
        },
        {
          "internalType": "uint256",
          "name": "amount",
          "type": "uint256"
        }
      ],
      "name": "PrefundNotSpentYet",
      "type": "error"
    },
    {
      "inputs": [
        {
          "internalType": "address",
          "name": "pubKeyAddress",
          "type": "address"
        }
      ],
      "name": "PublicKeyAlreadyExists",
      "type": "error"
    },
    {
      "inputs": [
        {
          "internalType": "address",
          "name": "pubKeyAddress",
          "type": "address"
        }
      ],
      "name": "PublicKeyDoesNotExist",
      "type": "error"
    },
    {
      "inputs": [],
      "name": "ReentrancyGuardReentrantCall",
      "type": "error"
    },
    {
      "inputs": [
        {
          "internalType": "address",
          "name": "token",
          "type": "address"
        }
      ],
      "name": "SafeERC20FailedOperation",
      "type": "error"
    },
    {
      "inputs": [
        {
          "internalType": "bytes32",
          "name": "serviceHash",
          "type": "bytes32"
        }
      ],
      "name": "ServiceAlreadyExists",
      "type": "error"
    },
    {
      "inputs": [
        {
          "internalType": "bytes32",
          "name": "serviceHash",
          "type": "bytes32"
        }
      ],
      "name": "ServiceDoesNotExist",
      "type": "error"
    },
    {
      "inputs": [],
      "name": "TransferToZeroAddress",
      "type": "error"
    },
    {
      "inputs": [],
      "name": "UUPSUnauthorizedCallContext",
      "type": "error"
    },
    {
      "inputs": [
        {
          "internalType": "bytes32",
          "name": "slot",
          "type": "bytes32"
        }
      ],
      "name": "UUPSUnsupportedProxiableUUID",
      "type": "error"
    },
    {
      "inputs": [
        {
          "internalType": "bytes32",
          "name": "serviceHash",
          "type": "bytes32"
        }
      ],
      "name": "WantedServiceAlreadyExists",
      "type": "error"
    },
    {
      "inputs": [
        {
          "internalType": "bytes32",
          "name": "serviceHash",
          "type": "bytes32"
        }
      ],
      "name": "WantedServiceDoesNotExist",
      "type": "error"
    },
    {
      "inputs": [
        {
          "internalType": "uint256",
          "name": "limit",
          "type": "uint256"
        },
        {
          "internalType": "uint256",
          "name": "amount",
          "type": "uint256"
        }
      ],
      "name": "WithdrawalLimitExceeded",
      "type": "error"
    },
    {
      "inputs": [
        {
          "internalType": "uint256",
          "name": "limit",
          "type": "uint256"
        },
        {
          "internalType": "uint256",
          "name": "amount",
          "type": "uint256"
        }
      ],
      "name": "WithdrawalLimitExceededForPeriod",
      "type": "error"
    },
    {
      "inputs": [
        {
          "internalType": "address",
          "name": "sender",
          "type": "address"
        }
      ],
      "name": "ZeroValueDeposit",
      "type": "error"
    },
    {
      "anonymous": false,
      "inputs": [
        {
          "indexed": true,
          "internalType": "address",
          "name": "oldImplementation",
          "type": "address"
        },
        {
          "indexed": true,
          "internalType": "address",
          "name": "newImplementation",
          "type": "address"
        }
      ],
      "name": "CMAccountUpgraded",
      "type": "event"
    },
    {
      "anonymous": false,
      "inputs": [
        {
          "indexed": true,
          "internalType": "address",
          "name": "fromCMAccount",
          "type": "address"
        },
        {
          "indexed": true,
          "internalType": "address",
          "name": "toCMAccount",
          "type": "address"
        },
        {
          "indexed": false,
          "internalType": "address",
          "name": "fromBot",
          "type": "address"
        },
        {
          "indexed": false,
          "internalType": "address",
          "name": "toBot",
          "type": "address"
        },
        {
          "indexed": false,
          "internalType": "uint256",
          "name": "counter",
          "type": "uint256"
        },
        {
          "indexed": false,
          "internalType": "uint256",
          "name": "amount",
          "type": "uint256"
        },
        {
          "indexed": false,
          "internalType": "uint256",
          "name": "paidChequeAmount",
          "type": "uint256"
        },
        {
          "indexed": false,
          "internalType": "uint256",
          "name": "paidDeveloperFee",
          "type": "uint256"
        }
      ],
      "name": "ChequeCashedIn",
      "type": "event"
    },
    {
      "anonymous": false,
      "inputs": [
        {
          "indexed": true,
          "internalType": "address",
          "name": "sender",
          "type": "address"
        },
        {
          "indexed": false,
          "internalType": "uint256",
          "name": "amount",
          "type": "uint256"
        }
      ],
      "name": "Deposit",
      "type": "event"
    },
    {
      "anonymous": false,
      "inputs": [
        {
          "indexed": true,
          "internalType": "address",
          "name": "withdrawer",
          "type": "address"
        },
        {
          "indexed": false,
          "internalType": "uint256",
          "name": "amount",
          "type": "uint256"
        }
      ],
      "name": "GasMoneyWithdrawal",
      "type": "event"
    },
    {
      "anonymous": false,
      "inputs": [
        {
          "indexed": false,
          "internalType": "uint256",
          "name": "limit",
          "type": "uint256"
        },
        {
          "indexed": false,
          "internalType": "uint256",
          "name": "period",
          "type": "uint256"
        }
      ],
      "name": "GasMoneyWithdrawalUpdated",
      "type": "event"
    },
    {
      "anonymous": false,
      "inputs": [
        {
          "indexed": false,
          "internalType": "uint64",
          "name": "version",
          "type": "uint64"
        }
      ],
      "name": "Initialized",
      "type": "event"
    },
    {
      "anonymous": false,
      "inputs": [
        {
          "indexed": true,
          "internalType": "address",
          "name": "bot",
          "type": "address"
        }
      ],
      "name": "MessengerBotAdded",
      "type": "event"
    },
    {
      "anonymous": false,
      "inputs": [
        {
          "indexed": true,
          "internalType": "address",
          "name": "bot",
          "type": "address"
        }
      ],
      "name": "MessengerBotRemoved",
      "type": "event"
    },
    {
      "anonymous": false,
      "inputs": [
        {
          "indexed": false,
          "internalType": "bool",
          "name": "supportsOffChainPayment",
          "type": "bool"
        }
      ],
      "name": "OffChainPaymentSupportUpdated",
      "type": "event"
    },
    {
      "anonymous": false,
      "inputs": [
        {
          "indexed": true,
          "internalType": "address",
          "name": "token",
          "type": "address"
        }
      ],
      "name": "PaymentTokenAdded",
      "type": "event"
    },
    {
      "anonymous": false,
      "inputs": [
        {
          "indexed": true,
          "internalType": "address",
          "name": "token",
          "type": "address"
        }
      ],
      "name": "PaymentTokenRemoved",
      "type": "event"
    },
    {
      "anonymous": false,
      "inputs": [
        {
          "indexed": true,
          "internalType": "address",
          "name": "pubKeyAddress",
          "type": "address"
        }
      ],
      "name": "PublicKeyAdded",
      "type": "event"
    },
    {
      "anonymous": false,
      "inputs": [
        {
          "indexed": true,
          "internalType": "address",
          "name": "pubKeyAddress",
          "type": "address"
        }
      ],
      "name": "PublicKeyRemoved",
      "type": "event"
    },
    {
      "anonymous": false,
      "inputs": [
        {
          "indexed": true,
          "internalType": "bytes32",
          "name": "role",
          "type": "bytes32"
        },
        {
          "indexed": true,
          "internalType": "bytes32",
          "name": "previousAdminRole",
          "type": "bytes32"
        },
        {
          "indexed": true,
          "internalType": "bytes32",
          "name": "newAdminRole",
          "type": "bytes32"
        }
      ],
      "name": "RoleAdminChanged",
      "type": "event"
    },
    {
      "anonymous": false,
      "inputs": [
        {
          "indexed": true,
          "internalType": "bytes32",
          "name": "role",
          "type": "bytes32"
        },
        {
          "indexed": true,
          "internalType": "address",
          "name": "account",
          "type": "address"
        },
        {
          "indexed": true,
          "internalType": "address",
          "name": "sender",
          "type": "address"
        }
      ],
      "name": "RoleGranted",
      "type": "event"
    },
    {
      "anonymous": false,
      "inputs": [
        {
          "indexed": true,
          "internalType": "bytes32",
          "name": "role",
          "type": "bytes32"
        },
        {
          "indexed": true,
          "internalType": "address",
          "name": "account",
          "type": "address"
        },
        {
          "indexed": true,
          "internalType": "address",
          "name": "sender",
          "type": "address"
        }
      ],
      "name": "RoleRevoked",
      "type": "event"
    },
    {
      "anonymous": false,
      "inputs": [
        {
          "indexed": true,
          "internalType": "string",
          "name": "serviceName",
          "type": "string"
        }
      ],
      "name": "ServiceAdded",
      "type": "event"
    },
    {
      "anonymous": false,
      "inputs": [
        {
          "indexed": true,
          "internalType": "string",
          "name": "serviceName",
          "type": "string"
        }
      ],
      "name": "ServiceCapabilitiesUpdated",
      "type": "event"
    },
    {
      "anonymous": false,
      "inputs": [
        {
          "indexed": true,
          "internalType": "string",
          "name": "serviceName",
          "type": "string"
        },
        {
          "indexed": false,
          "internalType": "string",
          "name": "capability",
          "type": "string"
        }
      ],
      "name": "ServiceCapabilityAdded",
      "type": "event"
    },
    {
      "anonymous": false,
      "inputs": [
        {
          "indexed": true,
          "internalType": "string",
          "name": "serviceName",
          "type": "string"
        },
        {
          "indexed": false,
          "internalType": "string",
          "name": "capability",
          "type": "string"
        }
      ],
      "name": "ServiceCapabilityRemoved",
      "type": "event"
    },
    {
      "anonymous": false,
      "inputs": [
        {
          "indexed": true,
          "internalType": "string",
          "name": "serviceName",
          "type": "string"
        },
        {
          "indexed": false,
          "internalType": "uint256",
          "name": "fee",
          "type": "uint256"
        }
      ],
      "name": "ServiceFeeUpdated",
      "type": "event"
    },
    {
      "anonymous": false,
      "inputs": [
        {
          "indexed": true,
          "internalType": "string",
          "name": "serviceName",
          "type": "string"
        }
      ],
      "name": "ServiceRemoved",
      "type": "event"
    },
    {
      "anonymous": false,
      "inputs": [
        {
          "indexed": true,
          "internalType": "string",
          "name": "serviceName",
          "type": "string"
        },
        {
          "indexed": false,
          "internalType": "bool",
          "name": "restrictedRate",
          "type": "bool"
        }
      ],
      "name": "ServiceRestrictedRateUpdated",
      "type": "event"
    },
    {
      "anonymous": false,
      "inputs": [
        {
          "indexed": true,
          "internalType": "address",
          "name": "implementation",
          "type": "address"
        }
      ],
      "name": "Upgraded",
      "type": "event"
    },
    {
      "anonymous": false,
      "inputs": [
        {
          "indexed": true,
          "internalType": "string",
          "name": "serviceName",
          "type": "string"
        }
      ],
      "name": "WantedServiceAdded",
      "type": "event"
    },
    {
      "anonymous": false,
      "inputs": [
        {
          "indexed": true,
          "internalType": "string",
          "name": "serviceName",
          "type": "string"
        }
      ],
      "name": "WantedServiceRemoved",
      "type": "event"
    },
    {
      "anonymous": false,
      "inputs": [
        {
          "indexed": true,
          "internalType": "address",
          "name": "receiver",
          "type": "address"
        },
        {
          "indexed": false,
          "internalType": "uint256",
          "name": "amount",
          "type": "uint256"
        }
      ],
      "name": "Withdraw",
      "type": "event"
    },
    {
      "inputs": [],
      "name": "BOOKING_OPERATOR_ROLE",
      "outputs": [
        {
          "internalType": "bytes32",
          "name": "",
          "type": "bytes32"
        }
      ],
      "stateMutability": "view",
      "type": "function"
    },
    {
      "inputs": [],
      "name": "BOT_ADMIN_ROLE",
      "outputs": [
        {
          "internalType": "bytes32",
          "name": "",
          "type": "bytes32"
        }
      ],
      "stateMutability": "view",
      "type": "function"
    },
    {
      "inputs": [],
      "name": "CHEQUE_OPERATOR_ROLE",
      "outputs": [
        {
          "internalType": "bytes32",
          "name": "",
          "type": "bytes32"
        }
      ],
      "stateMutability": "view",
      "type": "function"
    },
    {
      "inputs": [],
      "name": "DEFAULT_ADMIN_ROLE",
      "outputs": [
        {
          "internalType": "bytes32",
          "name": "",
          "type": "bytes32"
        }
      ],
      "stateMutability": "view",
      "type": "function"
    },
    {
      "inputs": [],
      "name": "DOMAIN_TYPEHASH",
      "outputs": [
        {
          "internalType": "bytes32",
          "name": "",
          "type": "bytes32"
        }
      ],
      "stateMutability": "view",
      "type": "function"
    },
    {
      "inputs": [],
      "name": "GAS_WITHDRAWER_ROLE",
      "outputs": [
        {
          "internalType": "bytes32",
          "name": "",
          "type": "bytes32"
        }
      ],
      "stateMutability": "view",
      "type": "function"
    },
    {
      "inputs": [],
      "name": "MESSENGER_CHEQUE_TYPEHASH",
      "outputs": [
        {
          "internalType": "bytes32",
          "name": "",
          "type": "bytes32"
        }
      ],
      "stateMutability": "view",
      "type": "function"
    },
    {
      "inputs": [],
      "name": "SERVICE_ADMIN_ROLE",
      "outputs": [
        {
          "internalType": "bytes32",
          "name": "",
          "type": "bytes32"
        }
      ],
      "stateMutability": "view",
      "type": "function"
    },
    {
      "inputs": [],
      "name": "UPGRADER_ROLE",
      "outputs": [
        {
          "internalType": "bytes32",
          "name": "",
          "type": "bytes32"
        }
      ],
      "stateMutability": "view",
      "type": "function"
    },
    {
      "inputs": [],
      "name": "UPGRADE_INTERFACE_VERSION",
      "outputs": [
        {
          "internalType": "string",
          "name": "",
          "type": "string"
        }
      ],
      "stateMutability": "view",
      "type": "function"
    },
    {
      "inputs": [],
      "name": "WITHDRAWER_ROLE",
      "outputs": [
        {
          "internalType": "bytes32",
          "name": "",
          "type": "bytes32"
        }
      ],
      "stateMutability": "view",
      "type": "function"
    },
    {
      "inputs": [
        {
          "internalType": "uint256",
          "name": "tokenId",
          "type": "uint256"
        },
        {
          "internalType": "uint256",
          "name": "checkRefundAmount",
          "type": "uint256"
        }
      ],
      "name": "acceptCancellationProposal",
      "outputs": [],
      "stateMutability": "nonpayable",
      "type": "function"
    },
    {
      "inputs": [
        {
          "internalType": "uint256",
          "name": "tokenId",
          "type": "uint256"
        },
        {
          "internalType": "uint256",
          "name": "refundAmount",
          "type": "uint256"
        }
      ],
      "name": "acceptCounteredCancellationProposal",
      "outputs": [],
      "stateMutability": "nonpayable",
      "type": "function"
    },
    {
      "inputs": [
        {
          "internalType": "address",
          "name": "bot",
          "type": "address"
        },
        {
          "internalType": "uint256",
          "name": "gasMoney",
          "type": "uint256"
        }
      ],
      "name": "addMessengerBot",
      "outputs": [],
      "stateMutability": "nonpayable",
      "type": "function"
    },
    {
      "inputs": [
        {
          "internalType": "address",
          "name": "pubKeyAddress",
          "type": "address"
        },
        {
          "internalType": "bytes",
          "name": "data",
          "type": "bytes"
        }
      ],
      "name": "addPublicKey",
      "outputs": [],
      "stateMutability": "nonpayable",
      "type": "function"
    },
    {
      "inputs": [
        {
          "internalType": "string",
          "name": "serviceName",
          "type": "string"
        },
        {
          "internalType": "uint256",
          "name": "fee",
          "type": "uint256"
        },
        {
          "internalType": "bool",
          "name": "restrictedRate",
          "type": "bool"
        },
        {
          "internalType": "string[]",
          "name": "capabilities",
          "type": "string[]"
        }
      ],
      "name": "addService",
      "outputs": [],
      "stateMutability": "nonpayable",
      "type": "function"
    },
    {
      "inputs": [
        {
          "internalType": "string",
          "name": "serviceName",
          "type": "string"
        },
        {
          "internalType": "string",
          "name": "capability",
          "type": "string"
        }
      ],
      "name": "addServiceCapability",
      "outputs": [],
      "stateMutability": "nonpayable",
      "type": "function"
    },
    {
      "inputs": [
        {
          "internalType": "address",
          "name": "_supportedToken",
          "type": "address"
        }
      ],
      "name": "addSupportedToken",
      "outputs": [],
      "stateMutability": "nonpayable",
      "type": "function"
    },
    {
      "inputs": [
        {
          "internalType": "string[]",
          "name": "serviceNames",
          "type": "string[]"
        }
      ],
      "name": "addWantedServices",
      "outputs": [],
      "stateMutability": "nonpayable",
      "type": "function"
    },
    {
      "inputs": [
        {
          "internalType": "uint256",
          "name": "tokenId",
          "type": "uint256"
        }
      ],
      "name": "buyBookingToken",
      "outputs": [],
      "stateMutability": "nonpayable",
      "type": "function"
    },
    {
      "inputs": [
        {
          "internalType": "uint256",
          "name": "tokenId",
          "type": "uint256"
        }
      ],
      "name": "cancelCancellationProposal",
      "outputs": [],
      "stateMutability": "nonpayable",
      "type": "function"
    },
    {
      "inputs": [
        {
          "internalType": "address",
          "name": "fromCMAccount",
          "type": "address"
        },
        {
          "internalType": "address",
          "name": "toCMAccount",
          "type": "address"
        },
        {
          "internalType": "address",
          "name": "toBot",
          "type": "address"
        },
        {
          "internalType": "uint256",
          "name": "counter",
          "type": "uint256"
        },
        {
          "internalType": "uint256",
          "name": "amount",
          "type": "uint256"
        },
        {
          "internalType": "uint256",
          "name": "createdAt",
          "type": "uint256"
        },
        {
          "internalType": "uint256",
          "name": "expiresAt",
          "type": "uint256"
        },
        {
          "internalType": "bytes",
          "name": "signature",
          "type": "bytes"
        }
      ],
      "name": "cashInCheque",
      "outputs": [],
      "stateMutability": "nonpayable",
      "type": "function"
    },
    {
      "inputs": [
        {
          "internalType": "uint256",
          "name": "tokenId",
          "type": "uint256"
        },
        {
          "internalType": "uint256",
          "name": "refundAmount",
          "type": "uint256"
        }
      ],
      "name": "counterCancellationProposal",
      "outputs": [],
      "stateMutability": "nonpayable",
      "type": "function"
    },
    {
      "inputs": [],
      "name": "getAllServiceHashes",
      "outputs": [
        {
          "internalType": "bytes32[]",
          "name": "serviceHashes",
          "type": "bytes32[]"
        }
      ],
      "stateMutability": "view",
      "type": "function"
    },
    {
      "inputs": [],
      "name": "getBookingTokenAddress",
      "outputs": [
        {
          "internalType": "address",
          "name": "",
          "type": "address"
        }
      ],
      "stateMutability": "view",
      "type": "function"
    },
    {
      "inputs": [],
      "name": "getDomainSeparator",
      "outputs": [
        {
          "internalType": "bytes32",
          "name": "",
          "type": "bytes32"
        }
      ],
      "stateMutability": "view",
      "type": "function"
    },
    {
      "inputs": [],
      "name": "getGasMoneyWithdrawal",
      "outputs": [
        {
          "internalType": "uint256",
          "name": "withdrawalLimit",
          "type": "uint256"
        },
        {
          "internalType": "uint256",
          "name": "withdrawalPeriod",
          "type": "uint256"
        }
      ],
      "stateMutability": "view",
      "type": "function"
    },
    {
      "inputs": [
        {
          "internalType": "address",
          "name": "account",
          "type": "address"
        }
      ],
      "name": "getGasMoneyWithdrawalForAccount",
      "outputs": [
        {
          "internalType": "uint256",
          "name": "periodStart",
          "type": "uint256"
        },
        {
          "internalType": "uint256",
          "name": "withdrawnAmount",
          "type": "uint256"
        }
      ],
      "stateMutability": "view",
      "type": "function"
    },
    {
      "inputs": [
        {
          "internalType": "address",
          "name": "fromBot",
          "type": "address"
        },
        {
          "internalType": "address",
          "name": "toBot",
          "type": "address"
        }
      ],
      "name": "getLastCashIn",
      "outputs": [
        {
          "internalType": "uint256",
          "name": "lastCounter",
          "type": "uint256"
        },
        {
          "internalType": "uint256",
          "name": "lastAmount",
          "type": "uint256"
        },
        {
          "internalType": "uint256",
          "name": "lastCreatedAt",
          "type": "uint256"
        },
        {
          "internalType": "uint256",
          "name": "lastExpiresAt",
          "type": "uint256"
        }
      ],
      "stateMutability": "view",
      "type": "function"
    },
    {
      "inputs": [],
      "name": "getManagerAddress",
      "outputs": [
        {
          "internalType": "address",
          "name": "",
          "type": "address"
        }
      ],
      "stateMutability": "view",
      "type": "function"
    },
    {
      "inputs": [],
      "name": "getPrefundAmount",
      "outputs": [
        {
          "internalType": "uint256",
          "name": "",
          "type": "uint256"
        }
      ],
      "stateMutability": "view",
      "type": "function"
    },
    {
      "inputs": [
        {
          "internalType": "address",
          "name": "pubKeyAddress",
          "type": "address"
        }
      ],
      "name": "getPublicKey",
      "outputs": [
        {
          "internalType": "bytes",
          "name": "data",
          "type": "bytes"
        }
      ],
      "stateMutability": "view",
      "type": "function"
    },
    {
      "inputs": [],
      "name": "getPublicKeysAddresses",
      "outputs": [
        {
          "internalType": "address[]",
          "name": "pubKeyAddresses",
          "type": "address[]"
        }
      ],
      "stateMutability": "view",
      "type": "function"
    },
    {
      "inputs": [
        {
          "internalType": "bytes32",
          "name": "role",
          "type": "bytes32"
        }
      ],
      "name": "getRoleAdmin",
      "outputs": [
        {
          "internalType": "bytes32",
          "name": "",
          "type": "bytes32"
        }
      ],
      "stateMutability": "view",
      "type": "function"
    },
    {
      "inputs": [
        {
          "internalType": "bytes32",
          "name": "role",
          "type": "bytes32"
        },
        {
          "internalType": "uint256",
          "name": "index",
          "type": "uint256"
        }
      ],
      "name": "getRoleMember",
      "outputs": [
        {
          "internalType": "address",
          "name": "",
          "type": "address"
        }
      ],
      "stateMutability": "view",
      "type": "function"
    },
    {
      "inputs": [
        {
          "internalType": "bytes32",
          "name": "role",
          "type": "bytes32"
        }
      ],
      "name": "getRoleMemberCount",
      "outputs": [
        {
          "internalType": "uint256",
          "name": "",
          "type": "uint256"
        }
      ],
      "stateMutability": "view",
      "type": "function"
    },
    {
      "inputs": [
        {
          "internalType": "bytes32",
          "name": "serviceHash",
          "type": "bytes32"
        }
      ],
      "name": "getService",
      "outputs": [
        {
          "components": [
            {
              "internalType": "uint256",
              "name": "_fee",
              "type": "uint256"
            },
            {
              "internalType": "bool",
              "name": "_restrictedRate",
              "type": "bool"
            },
            {
              "internalType": "string[]",
              "name": "_capabilities",
              "type": "string[]"
            }
          ],
          "internalType": "struct PartnerConfiguration.Service",
          "name": "service",
          "type": "tuple"
        }
      ],
      "stateMutability": "view",
      "type": "function"
    },
    {
      "inputs": [
        {
          "internalType": "string",
          "name": "serviceName",
          "type": "string"
        }
      ],
      "name": "getServiceCapabilities",
      "outputs": [
        {
          "internalType": "string[]",
          "name": "capabilities",
          "type": "string[]"
        }
      ],
      "stateMutability": "view",
      "type": "function"
    },
    {
      "inputs": [
        {
          "internalType": "bytes32",
          "name": "serviceHash",
          "type": "bytes32"
        }
      ],
      "name": "getServiceCapabilities",
      "outputs": [
        {
          "internalType": "string[]",
          "name": "capabilities",
          "type": "string[]"
        }
      ],
      "stateMutability": "view",
      "type": "function"
    },
    {
      "inputs": [
        {
          "internalType": "string",
          "name": "serviceName",
          "type": "string"
        }
      ],
      "name": "getServiceFee",
      "outputs": [
        {
          "internalType": "uint256",
          "name": "fee",
          "type": "uint256"
        }
      ],
      "stateMutability": "view",
      "type": "function"
    },
    {
      "inputs": [
        {
          "internalType": "bytes32",
          "name": "serviceHash",
          "type": "bytes32"
        }
      ],
      "name": "getServiceFee",
      "outputs": [
        {
          "internalType": "uint256",
          "name": "fee",
          "type": "uint256"
        }
      ],
      "stateMutability": "view",
      "type": "function"
    },
    {
      "inputs": [
        {
          "internalType": "bytes32",
          "name": "serviceHash",
          "type": "bytes32"
        }
      ],
      "name": "getServiceRestrictedRate",
      "outputs": [
        {
          "internalType": "bool",
          "name": "restrictedRate",
          "type": "bool"
        }
      ],
      "stateMutability": "view",
      "type": "function"
    },
    {
      "inputs": [
        {
          "internalType": "string",
          "name": "serviceName",
          "type": "string"
        }
      ],
      "name": "getServiceRestrictedRate",
      "outputs": [
        {
          "internalType": "bool",
          "name": "restrictedRate",
          "type": "bool"
        }
      ],
      "stateMutability": "view",
      "type": "function"
    },
    {
      "inputs": [],
      "name": "getSupportedServices",
      "outputs": [
        {
          "internalType": "string[]",
          "name": "serviceNames",
          "type": "string[]"
        },
        {
          "components": [
            {
              "internalType": "uint256",
              "name": "_fee",
              "type": "uint256"
            },
            {
              "internalType": "bool",
              "name": "_restrictedRate",
              "type": "bool"
            },
            {
              "internalType": "string[]",
              "name": "_capabilities",
              "type": "string[]"
            }
          ],
          "internalType": "struct PartnerConfiguration.Service[]",
          "name": "services",
          "type": "tuple[]"
        }
      ],
      "stateMutability": "view",
      "type": "function"
    },
    {
      "inputs": [],
      "name": "getSupportedTokens",
      "outputs": [
        {
          "internalType": "address[]",
          "name": "tokens",
          "type": "address[]"
        }
      ],
      "stateMutability": "view",
      "type": "function"
    },
    {
      "inputs": [],
      "name": "getTotalChequePayments",
      "outputs": [
        {
          "internalType": "uint256",
          "name": "",
          "type": "uint256"
        }
      ],
      "stateMutability": "view",
      "type": "function"
    },
    {
      "inputs": [],
      "name": "getWantedServiceHashes",
      "outputs": [
        {
          "internalType": "bytes32[]",
          "name": "serviceHashes",
          "type": "bytes32[]"
        }
      ],
      "stateMutability": "view",
      "type": "function"
    },
    {
      "inputs": [],
      "name": "getWantedServices",
      "outputs": [
        {
          "internalType": "string[]",
          "name": "serviceNames",
          "type": "string[]"
        }
      ],
      "stateMutability": "view",
      "type": "function"
    },
    {
      "inputs": [
        {
          "internalType": "bytes32",
          "name": "role",
          "type": "bytes32"
        },
        {
          "internalType": "address",
          "name": "account",
          "type": "address"
        }
      ],
      "name": "grantRole",
      "outputs": [],
      "stateMutability": "nonpayable",
      "type": "function"
    },
    {
      "inputs": [
        {
          "internalType": "bytes32",
          "name": "role",
          "type": "bytes32"
        },
        {
          "internalType": "address",
          "name": "account",
          "type": "address"
        }
      ],
      "name": "hasRole",
      "outputs": [
        {
          "internalType": "bool",
          "name": "",
          "type": "bool"
        }
      ],
      "stateMutability": "view",
      "type": "function"
    },
    {
      "inputs": [
        {
          "internalType": "address",
          "name": "fromCMAccount",
          "type": "address"
        },
        {
          "internalType": "address",
          "name": "toCMAccount",
          "type": "address"
        },
        {
          "internalType": "address",
          "name": "toBot",
          "type": "address"
        },
        {
          "internalType": "uint256",
          "name": "counter",
          "type": "uint256"
        },
        {
          "internalType": "uint256",
          "name": "amount",
          "type": "uint256"
        },
        {
          "internalType": "uint256",
          "name": "createdAt",
          "type": "uint256"
        },
        {
          "internalType": "uint256",
          "name": "expiresAt",
          "type": "uint256"
        }
      ],
      "name": "hashMessengerCheque",
      "outputs": [
        {
          "internalType": "bytes32",
          "name": "",
          "type": "bytes32"
        }
      ],
      "stateMutability": "pure",
      "type": "function"
    },
    {
      "inputs": [
        {
          "internalType": "address",
          "name": "fromCMAccount",
          "type": "address"
        },
        {
          "internalType": "address",
          "name": "toCMAccount",
          "type": "address"
        },
        {
          "internalType": "address",
          "name": "toBot",
          "type": "address"
        },
        {
          "internalType": "uint256",
          "name": "counter",
          "type": "uint256"
        },
        {
          "internalType": "uint256",
          "name": "amount",
          "type": "uint256"
        },
        {
          "internalType": "uint256",
          "name": "createdAt",
          "type": "uint256"
        },
        {
          "internalType": "uint256",
          "name": "expiresAt",
          "type": "uint256"
        }
      ],
      "name": "hashTypedDataV4",
      "outputs": [
        {
          "internalType": "bytes32",
          "name": "",
          "type": "bytes32"
        }
      ],
      "stateMutability": "view",
      "type": "function"
    },
    {
      "inputs": [
        {
          "internalType": "address",
          "name": "manager",
          "type": "address"
        },
        {
          "internalType": "address",
          "name": "bookingToken",
          "type": "address"
        },
        {
          "internalType": "uint256",
          "name": "prefundAmount",
          "type": "uint256"
        },
        {
          "internalType": "address",
          "name": "defaultAdmin",
          "type": "address"
        },
        {
          "internalType": "address",
          "name": "upgrader",
          "type": "address"
        }
      ],
      "name": "initialize",
      "outputs": [],
      "stateMutability": "nonpayable",
      "type": "function"
    },
    {
      "inputs": [
        {
          "internalType": "uint256",
          "name": "tokenId",
          "type": "uint256"
        },
        {
          "internalType": "uint256",
          "name": "refundAmount",
          "type": "uint256"
        }
      ],
      "name": "initiateCancellationProposal",
      "outputs": [],
      "stateMutability": "nonpayable",
      "type": "function"
    },
    {
      "inputs": [
        {
          "internalType": "address",
          "name": "bot",
          "type": "address"
        }
      ],
      "name": "isBotAllowed",
      "outputs": [
        {
          "internalType": "bool",
          "name": "",
          "type": "bool"
        }
      ],
      "stateMutability": "view",
      "type": "function"
    },
    {
      "inputs": [
        {
          "internalType": "address",
          "name": "reservedFor",
          "type": "address"
        },
        {
          "internalType": "string",
          "name": "uri",
          "type": "string"
        },
        {
          "internalType": "uint256",
          "name": "expirationTimestamp",
          "type": "uint256"
        },
        {
          "internalType": "uint256",
          "name": "price",
          "type": "uint256"
        },
        {
          "internalType": "contract IERC20",
          "name": "paymentToken",
          "type": "address"
        },
        {
          "internalType": "bool",
          "name": "_isCancellable",
          "type": "bool"
        }
      ],
      "name": "mintBookingToken",
      "outputs": [],
      "stateMutability": "nonpayable",
      "type": "function"
    },
    {
      "inputs": [],
      "name": "offChainPaymentSupported",
      "outputs": [
        {
          "internalType": "bool",
          "name": "",
          "type": "bool"
        }
      ],
      "stateMutability": "view",
      "type": "function"
    },
    {
      "inputs": [
        {
          "internalType": "address",
          "name": "",
          "type": "address"
        },
        {
          "internalType": "address",
          "name": "",
          "type": "address"
        },
        {
          "internalType": "uint256",
          "name": "",
          "type": "uint256"
        },
        {
          "internalType": "bytes",
          "name": "",
          "type": "bytes"
        }
      ],
      "name": "onERC721Received",
      "outputs": [
        {
          "internalType": "bytes4",
          "name": "",
          "type": "bytes4"
        }
      ],
      "stateMutability": "nonpayable",
      "type": "function"
    },
    {
      "inputs": [],
      "name": "proxiableUUID",
      "outputs": [
        {
          "internalType": "bytes32",
          "name": "",
          "type": "bytes32"
        }
      ],
      "stateMutability": "view",
      "type": "function"
    },
    {
      "inputs": [
        {
          "internalType": "uint256",
          "name": "tokenId",
          "type": "uint256"
        }
      ],
      "name": "recordExpiration",
      "outputs": [],
      "stateMutability": "nonpayable",
      "type": "function"
    },
    {
      "inputs": [
        {
          "internalType": "uint256",
          "name": "tokenId",
          "type": "uint256"
        },
        {
          "internalType": "uint256",
          "name": "reason",
          "type": "uint256"
        }
      ],
      "name": "rejectCancellationProposal",
      "outputs": [],
      "stateMutability": "nonpayable",
      "type": "function"
    },
    {
      "inputs": [
        {
          "internalType": "address",
          "name": "bot",
          "type": "address"
        }
      ],
      "name": "removeMessengerBot",
      "outputs": [],
      "stateMutability": "nonpayable",
      "type": "function"
    },
    {
      "inputs": [
        {
          "internalType": "address",
          "name": "pubKeyAddress",
          "type": "address"
        }
      ],
      "name": "removePublicKey",
      "outputs": [],
      "stateMutability": "nonpayable",
      "type": "function"
    },
    {
      "inputs": [
        {
          "internalType": "string",
          "name": "serviceName",
          "type": "string"
        }
      ],
      "name": "removeService",
      "outputs": [],
      "stateMutability": "nonpayable",
      "type": "function"
    },
    {
      "inputs": [
        {
          "internalType": "string",
          "name": "serviceName",
          "type": "string"
        },
        {
          "internalType": "string",
          "name": "capability",
          "type": "string"
        }
      ],
      "name": "removeServiceCapability",
      "outputs": [],
      "stateMutability": "nonpayable",
      "type": "function"
    },
    {
      "inputs": [
        {
          "internalType": "address",
          "name": "_supportedToken",
          "type": "address"
        }
      ],
      "name": "removeSupportedToken",
      "outputs": [],
      "stateMutability": "nonpayable",
      "type": "function"
    },
    {
      "inputs": [
        {
          "internalType": "string[]",
          "name": "serviceNames",
          "type": "string[]"
        }
      ],
      "name": "removeWantedServices",
      "outputs": [],
      "stateMutability": "nonpayable",
      "type": "function"
    },
    {
      "inputs": [
        {
          "internalType": "bytes32",
          "name": "role",
          "type": "bytes32"
        },
        {
          "internalType": "address",
          "name": "callerConfirmation",
          "type": "address"
        }
      ],
      "name": "renounceRole",
      "outputs": [],
      "stateMutability": "nonpayable",
      "type": "function"
    },
    {
      "inputs": [
        {
          "internalType": "bytes32",
          "name": "role",
          "type": "bytes32"
        },
        {
          "internalType": "address",
          "name": "account",
          "type": "address"
        }
      ],
      "name": "revokeRole",
      "outputs": [],
      "stateMutability": "nonpayable",
      "type": "function"
    },
    {
      "inputs": [
        {
          "internalType": "uint256",
          "name": "tokenId",
          "type": "uint256"
        },
        {
          "internalType": "bool",
          "name": "cancellable",
          "type": "bool"
        }
      ],
      "name": "setCancellable",
      "outputs": [],
      "stateMutability": "nonpayable",
      "type": "function"
    },
    {
      "inputs": [
        {
          "internalType": "uint256",
          "name": "limit",
          "type": "uint256"
        },
        {
          "internalType": "uint256",
          "name": "period",
          "type": "uint256"
        }
      ],
      "name": "setGasMoneyWithdrawal",
      "outputs": [],
      "stateMutability": "nonpayable",
      "type": "function"
    },
    {
      "inputs": [
        {
          "internalType": "bool",
          "name": "_isSupported",
          "type": "bool"
        }
      ],
      "name": "setOffChainPaymentSupported",
      "outputs": [],
      "stateMutability": "nonpayable",
      "type": "function"
    },
    {
      "inputs": [
        {
          "internalType": "string",
          "name": "serviceName",
          "type": "string"
        },
        {
          "internalType": "string[]",
          "name": "capabilities",
          "type": "string[]"
        }
      ],
      "name": "setServiceCapabilities",
      "outputs": [],
      "stateMutability": "nonpayable",
      "type": "function"
    },
    {
      "inputs": [
        {
          "internalType": "string",
          "name": "serviceName",
          "type": "string"
        },
        {
          "internalType": "uint256",
          "name": "fee",
          "type": "uint256"
        }
      ],
      "name": "setServiceFee",
      "outputs": [],
      "stateMutability": "nonpayable",
      "type": "function"
    },
    {
      "inputs": [
        {
          "internalType": "string",
          "name": "serviceName",
          "type": "string"
        },
        {
          "internalType": "bool",
          "name": "restrictedRate",
          "type": "bool"
        }
      ],
      "name": "setServiceRestrictedRate",
      "outputs": [],
      "stateMutability": "nonpayable",
      "type": "function"
    },
    {
      "inputs": [
        {
          "internalType": "bytes4",
          "name": "interfaceId",
          "type": "bytes4"
        }
      ],
      "name": "supportsInterface",
      "outputs": [
        {
          "internalType": "bool",
          "name": "",
          "type": "bool"
        }
      ],
      "stateMutability": "view",
      "type": "function"
    },
    {
      "inputs": [
        {
          "internalType": "contract IERC20",
          "name": "token",
          "type": "address"
        },
        {
          "internalType": "address",
          "name": "to",
          "type": "address"
        },
        {
          "internalType": "uint256",
          "name": "amount",
          "type": "uint256"
        }
      ],
      "name": "transferERC20",
      "outputs": [],
      "stateMutability": "nonpayable",
      "type": "function"
    },
    {
      "inputs": [
        {
          "internalType": "contract IERC721",
          "name": "token",
          "type": "address"
        },
        {
          "internalType": "address",
          "name": "to",
          "type": "address"
        },
        {
          "internalType": "uint256",
          "name": "tokenId",
          "type": "uint256"
        }
      ],
      "name": "transferERC721",
      "outputs": [],
      "stateMutability": "nonpayable",
      "type": "function"
    },
    {
      "inputs": [
        {
          "internalType": "address",
          "name": "newImplementation",
          "type": "address"
        },
        {
          "internalType": "bytes",
          "name": "data",
          "type": "bytes"
        }
      ],
      "name": "upgradeToAndCall",
      "outputs": [],
      "stateMutability": "payable",
      "type": "function"
    },
    {
      "inputs": [
        {
          "internalType": "address",
          "name": "fromCMAccount",
          "type": "address"
        },
        {
          "internalType": "address",
          "name": "toCMAccount",
          "type": "address"
        },
        {
          "internalType": "address",
          "name": "toBot",
          "type": "address"
        },
        {
          "internalType": "uint256",
          "name": "counter",
          "type": "uint256"
        },
        {
          "internalType": "uint256",
          "name": "amount",
          "type": "uint256"
        },
        {
          "internalType": "uint256",
          "name": "createdAt",
          "type": "uint256"
        },
        {
          "internalType": "uint256",
          "name": "expiresAt",
          "type": "uint256"
        },
        {
          "internalType": "bytes",
          "name": "signature",
          "type": "bytes"
        }
      ],
      "name": "verifyCheque",
      "outputs": [
        {
          "internalType": "address",
          "name": "signer",
          "type": "address"
        },
        {
          "internalType": "uint256",
          "name": "paymentAmount",
          "type": "uint256"
        }
      ],
      "stateMutability": "view",
      "type": "function"
    },
    {
      "inputs": [
        {
          "internalType": "address payable",
          "name": "recipient",
          "type": "address"
        },
        {
          "internalType": "uint256",
          "name": "amount",
          "type": "uint256"
        }
      ],
      "name": "withdraw",
      "outputs": [],
      "stateMutability": "nonpayable",
      "type": "function"
    },
    {
      "inputs": [
        {
          "internalType": "uint256",
          "name": "amount",
          "type": "uint256"
        }
      ],
      "name": "withdrawGasMoney",
      "outputs": [],
      "stateMutability": "nonpayable",
      "type": "function"
    },
    {
      "stateMutability": "payable",
      "type": "receive"
    }
  ],
  "bytecode": "0x60a0604052306080523480156200001557600080fd5b506200002062000026565b620000da565b7ff0c57e16840df040f15088dc2f81fe391c3923bec73e23a9662efc9c229c6a00805468010000000000000000900460ff1615620000775760405163f92ee8a960e01b815260040160405180910390fd5b80546001600160401b0390811614620000d75780546001600160401b0319166001600160401b0390811782556040519081527fc7f505b2f371ae2175ee4913f4499e1f2633a7b5936321eed1cdaeb6115181d29060200160405180910390a15b50565b6080516154b16200010460003960008181612f0601528181612f2f015261329701526154b16000f3fe60806040526004361061039d5760003560e01c806301ffc9a7146103a957806308564c19146103de57806309b35e00146104005780630ede80d6146104225780631329fc9414610452578063136f50ca14610472578063150b7a021461049457806318274da4146104d85780631aca6376146104f85780631c5db99e1461051857806320606b701461053857806321b9b9291461055a578063241bbbfc14610588578063248a9ca31461059d57806326687c9f146105bd5780632e0258a0146105dd5780632f2ff15d146105fd578063319d13f31461061d578063337462741461063d57806333e1a2231461065f57806336568abe1461067f578063383aba871461069f57806339e4c705146106c157806341bf7c69146106e157806342072bbd14610701578063432cf639146107165780634781ae53146107365780634a0b8c50146107565780634f1ef286146107765780634f3f46391461078957806351889d6b146107ab57806352d1902d146107cb5780635c988994146107e05780635e07f869146108005780636088f4fd1461082057806363e86cc814610840578063647d8f6d14610862578063658db0af146108825780636d69fcaf146108a55780636fc22cd1146108c55780637512e55b146108e557806376319190146109055780637eec56c71461092557806381a7df5414610948578063852b3ccb14610968578063857cdbb81461098a57806385f438c1146109b75780638c20f574146109d95780638f69347d146109f95780639010d07c14610a1957806391d1485414610a39578063930659eb14610a595780639db5dbe414610a89578063a217fddf14610aa9578063a31aa03914610abe578063a7d022f814610ade578063ad3cb1cc14610afe578063b512463514610b2f578063c162d7da14610b4f578063c39409e114610b64578063c6640e6814610b79578063c7b5914f14610b99578063ca15c87314610bb9578063ccde65dc14610bd9578063d09445c214610bf9578063d3c7c2c714610c1b578063d547741f14610c3d578063da47d85614610c5d578063de62fe4d14610c8a578063e0b78add14610caa578063e5a6725c14610cca578063e7bfce9a14610cea578063e96cf7ad14610d0a578063ea79d07a14610d1f578063eb5ea27314610d34578063ebc20d2014610d54578063ed24911d14610d74578063ee3b641f14610d89578063f024df2014610da9578063f3fef3a314610dc9578063f51acaea14610de9578063f72c0d8b14610e0957600080fd5b366103a457005b600080fd5b3480156103b557600080fd5b506103c96103c436600461441b565b610e2b565b60405190151581526020015b60405180910390f35b3480156103ea57600080fd5b506103f3610e56565b6040516103d591906144ef565b34801561040c57600080fd5b5061042061041b366004614502565b610f80565b005b34801561042e57600080fd5b5061044460008051602061541c83398151915281565b6040519081526020016103d5565b34801561045e57600080fd5b5061042061046d36600461460a565b611025565b34801561047e57600080fd5b506104876110c0565b6040516103d59190614692565b3480156104a057600080fd5b506104bf6104af3660046146d6565b630a85bd0160e11b949350505050565b6040516001600160e01b031990911681526020016103d5565b3480156104e457600080fd5b506104446104f3366004614741565b6110e0565b34801561050457600080fd5b50610420610513366004614775565b6110ee565b34801561052457600080fd5b50610420610533366004614854565b61119b565b34801561054457600080fd5b5061044460008051602061543c83398151915281565b34801561056657600080fd5b5061057a610575366004614888565b611253565b6040516103d5929190614923565b34801561059457600080fd5b506103c961141c565b3480156105a957600080fd5b506104446105b836600461493c565b611434565b3480156105c957600080fd5b506104206105d836600461493c565b611454565b3480156105e957600080fd5b506104206105f8366004614502565b6114f0565b34801561060957600080fd5b50610420610618366004614955565b61152a565b34801561062957600080fd5b506103f3610638366004614741565b61154c565b34801561064957600080fd5b506104446000805160206153dc83398151915281565b34801561066b57600080fd5b5061042061067a366004614985565b61155a565b34801561068b57600080fd5b5061042061069a366004614955565b611716565b3480156106ab57600080fd5b5061044460008051602061533c83398151915281565b3480156106cd57600080fd5b506104206106dc366004614854565b611749565b3480156106ed57600080fd5b506104206106fc3660046149ed565b6117ef565b34801561070d57600080fd5b50610487611867565b34801561072257600080fd5b50610420610731366004614a31565b61187e565b34801561074257600080fd5b50610444610751366004614aa6565b6118ef565b34801561076257600080fd5b50610420610771366004614b14565b611971565b610420610784366004614b39565b6119e6565b34801561079557600080fd5b5061079e611a05565b6040516103d59190614b88565b3480156107b757600080fd5b506104206107c6366004614b9c565b611a23565b3480156107d757600080fd5b50610444611ad6565b3480156107ec57600080fd5b506104206107fb36600461493c565b611af3565b34801561080c57600080fd5b506103f361081b36600461493c565b611b2e565b34801561082c57600080fd5b5061042061083b36600461493c565b611c36565b34801561084c57600080fd5b5061044460008051602061535c83398151915281565b34801561086e57600080fd5b5061042061087d366004614888565b611cc2565b34801561088e57600080fd5b50610897611ec4565b6040516103d5929190614bc8565b3480156108b157600080fd5b506104206108c0366004614bd6565b611ee6565b3480156108d157600080fd5b506104206108e0366004614502565b611f07565b3480156108f157600080fd5b50610420610900366004614bf3565b611f29565b34801561091157600080fd5b50610420610920366004614bd6565b611f98565b34801561093157600080fd5b5061093a611fb9565b6040516103d5929190614cca565b34801561095457600080fd5b50610420610963366004614502565b61217e565b34801561097457600080fd5b5061044460008051602061545c83398151915281565b34801561099657600080fd5b506109aa6109a5366004614bd6565b6121b8565b6040516103d59190614d3c565b3480156109c357600080fd5b506104446000805160206153fc83398151915281565b3480156109e557600080fd5b506104206109f4366004614bf3565b61229d565b348015610a0557600080fd5b506103c9610a1436600461493c565b61230c565b348015610a2557600080fd5b5061079e610a34366004614502565b61233d565b348015610a4557600080fd5b506103c9610a54366004614955565b61236b565b348015610a6557600080fd5b50610a79610a74366004614d4f565b6123a1565b6040516103d59493929190614d7d565b348015610a9557600080fd5b50610420610aa4366004614775565b6123f8565b348015610ab557600080fd5b50610444600081565b348015610aca57600080fd5b50610420610ad9366004614d98565b61244b565b348015610aea57600080fd5b50610420610af9366004614db5565b61246c565b348015610b0a57600080fd5b506109aa604051806040016040528060058152602001640352e302e360dc1b81525081565b348015610b3b57600080fd5b506103c9610b4a366004614741565b6124dd565b348015610b5b57600080fd5b5061079e6124eb565b348015610b7057600080fd5b50610444612506565b348015610b8557600080fd5b50610420610b94366004614bd6565b61251b565b348015610ba557600080fd5b50610444610bb4366004614aa6565b6125b6565b348015610bc557600080fd5b50610444610bd436600461493c565b6125f2565b348015610be557600080fd5b50610420610bf4366004614b39565b61261e565b348015610c0557600080fd5b506104446000805160206153bc83398151915281565b348015610c2757600080fd5b50610c30612640565b6040516103d59190614dfb565b348015610c4957600080fd5b50610420610c58366004614955565b61265a565b348015610c6957600080fd5b50610c7d610c7836600461493c565b612676565b6040516103d59190614e3c565b348015610c9657600080fd5b50610420610ca5366004614502565b61279f565b348015610cb657600080fd5b506103c9610cc5366004614bd6565b6127d9565b348015610cd657600080fd5b50610420610ce536600461493c565b6127f3565b348015610cf657600080fd5b50610420610d05366004614bd6565b61282d565b348015610d1657600080fd5b5061044461284e565b348015610d2b57600080fd5b50610c30612863565b348015610d4057600080fd5b50610444610d4f36600461493c565b61287d565b348015610d6057600080fd5b50610420610d6f366004614e4f565b6128a8565b348015610d8057600080fd5b50610444612915565b348015610d9557600080fd5b50610897610da4366004614bd6565b612920565b348015610db557600080fd5b50610420610dc4366004614502565b61295b565b348015610dd557600080fd5b50610420610de4366004614b9c565b612995565b348015610df557600080fd5b50610420610e04366004614741565b612a1d565b348015610e1557600080fd5b5061044460008051602061537c83398151915281565b60006001600160e01b03198216635a05180f60e01b1480610e505750610e5082612a88565b92915050565b60606000610e626110c0565b9050600081516001600160401b03811115610e7f57610e7f614539565b604051908082528060200260200182016040528015610eb257816020015b6060815260200190600190039081610e9d5790505b50905060005b8251811015610f7957610ec96124eb565b6001600160a01b0316635a81a626848381518110610ee957610ee9614ea8565b60200260200101516040518263ffffffff1660e01b8152600401610f0f91815260200190565b600060405180830381865afa158015610f2c573d6000803e3d6000fd5b505050506040513d6000823e601f3d908101601f19168201604052610f549190810190614ebe565b828281518110610f6657610f66614ea8565b6020908102919091010152600101610eb8565b5092915050565b60008051602061545c833981519152610f9881612abd565b73__$12bd2f62b73a470fe0f6e02c33045f3191$__63dd5c28eb610fba611a05565b6040516001600160e01b031960e084901b1681526001600160a01b03909116600482015260248101869052604481018590526064015b60006040518083038186803b15801561100857600080fd5b505af415801561101c573d6000803e3d6000fd5b50505050505050565b60008051602061545c83398151915261103d81612abd565b73__$12bd2f62b73a470fe0f6e02c33045f3191$__63d1d1473661105f611a05565b8989898989896040518863ffffffff1660e01b81526004016110879796959493929190614f2b565b60006040518083038186803b15801561109f57600080fd5b505af41580156110b3573d6000803e3d6000fd5b5050505050505050505050565b606060006110cc612ac7565b90506110da81600901612aeb565b91505090565b6000610e50610d4f83612af8565b6000805160206153fc83398151915261110681612abd565b6001600160a01b03831661112d57604051633a954ecd60e21b815260040160405180910390fd5b604051632142170760e11b81523060048201526001600160a01b038481166024830152604482018490528516906342842e0e90606401600060405180830381600087803b15801561117d57600080fd5b505af1158015611191573d6000803e3d6000fd5b5050505050505050565b6000805160206153bc8339815191526111b381612abd565b60005b825181101561124e5760006111e38483815181106111d6576111d6614ea8565b6020026020010151612af8565b90506111ee81612b6e565b83828151811061120057611200614ea8565b60200260200101516040516112159190614f7f565b604051908190038120907f50cc5f9d56177aa0de269c136f2d2ffd45d7b66c82f0a82f8f840db54d9801f890600090a2506001016111b6565b505050565b6000806001600160a01b038a16301461128a5789604051637b7d696f60e01b81526004016112819190614b88565b60405180910390fd5b6112926124eb565b6001600160a01b03166312b357b58a6040518263ffffffff1660e01b81526004016112bd9190614b88565b602060405180830381865afa1580156112da573d6000803e3d6000fd5b505050506040513d601f19601f820116820180604052508101906112fe9190614f9b565b61131d5788604051633f2c64af60e01b81526004016112819190614b88565b83421061134057604051636453b2e560e01b815260048101859052602401611281565b6113508a8a8a8a8a8a8a8a612bac565b915061135b826127d9565b61137a578160405163248d101d60e11b81526004016112819190614b88565b6000611384612bd8565b6001600160a01b03808516600090815260208381526040808320938e168352929052206001810154919250908810156113d75760018101546040516307c83fcf60e41b8152611281918a91600401614bc8565b805489116113fc578054604051632256490160e11b8152611281918b91600401614bc8565b600181015461140b9089614fce565b925050509850989650505050505050565b600080611427612ac7565b6003015460ff1692915050565b60008061143f612bfc565b60009384526020525050604090206001015490565b61145c612c20565b60008051602061545c83398151915261147481612abd565b73__$12bd2f62b73a470fe0f6e02c33045f3191$__631b29e1ba611496611a05565b846040518363ffffffff1660e01b81526004016114b4929190614923565b60006040518083038186803b1580156114cc57600080fd5b505af41580156114e0573d6000803e3d6000fd5b50505050506114ed612c56565b50565b60008051602061545c83398151915261150881612abd565b73__$12bd2f62b73a470fe0f6e02c33045f3191$__63b0160c68610fba611a05565b61153382611434565b61153c81612abd565b6115468383612c67565b50505050565b6060610e5061081b83612af8565b6000611564612ca9565b805490915060ff600160401b82041615906001600160401b031660008115801561158b5750825b90506000826001600160401b031660011480156115a75750303b155b9050811580156115b5575080155b156115d35760405163f92ee8a960e01b815260040160405180910390fd5b84546001600160401b031916600117855583156115fc57845460ff60401b1916600160401b1785555b611604612ccd565b61160c612ccd565b611614612cd7565b61161f600088612c67565b506116386000805160206153bc83398151915288612c67565b506116516000805160206153dc83398151915288612c67565b5061166a60008051602061537c83398151915287612c67565b506000611675612d71565b80546001600160a01b03808e166001600160a01b0319928316178355600183018054918e1691909216179055600281018a90559050678ac7230489e80000620151806116c18282612d95565b505050831561170a57845460ff60401b19168555604051600181527fc7f505b2f371ae2175ee4913f4499e1f2633a7b5936321eed1cdaeb6115181d29060200160405180910390a15b50505050505050505050565b6001600160a01b038116331461173f5760405163334bd91960e11b815260040160405180910390fd5b61124e8282612db8565b6000805160206153bc83398151915261176181612abd565b60005b825181101561124e5760006117848483815181106111d6576111d6614ea8565b905061178f81612df1565b8382815181106117a1576117a1614ea8565b60200260200101516040516117b69190614f7f565b604051908190038120907f0edb7a081e6ff720ad9e97b837c352ef0548c4d09ec421b9b930b1e0c708e39e90600090a250600101611764565b6000805160206153bc83398151915261180781612abd565b61181961181384612af8565b83612e2f565b826040516118279190614f7f565b604051908190038120838252907fdd6c54a4503e1d8a1e75d73648f77d8fe66234b437ce30e20edd51563116ec41906020015b60405180910390a2505050565b60606000611873612ac7565b90506110da81612aeb565b6000805160206153bc83398151915261189681612abd565b6118aa6118a286612af8565b858486612e58565b846040516118b89190614f7f565b604051908190038120907f763f2f41e0c407dd0a7067f44e5468a0db74da9fdb6cd1cb20c7b6dae937527990600090a25050505050565b6040805160008051602061541c83398151915260208201526001600160a01b03808a16928201929092528188166060820152908616608082015260a0810185905260c0810184905260e081018390526101008101829052600090610120015b604051602081830303815290604052805190602001209050979650505050505050565b60008051602061545c83398151915261198981612abd565b73__$12bd2f62b73a470fe0f6e02c33045f3191$__63e68b6eaa6119ab611a05565b6040516001600160e01b031960e084901b1681526001600160a01b039091166004820152602481018690528415156044820152606401610ff0565b6119ee612efb565b6119f782612f89565b611a0182826130cc565b5050565b600080611a10612d71565b600101546001600160a01b031692915050565b6000805160206153dc833981519152611a3b81612abd565b611a4482613180565b611a5c60008051602061535c83398151915284612c67565b50611a7560008051602061545c83398151915284612c67565b50611a8e60008051602061533c83398151915284612c67565b506040516001600160a01b038416907fdb3e11ba26e83d528bf96a2167061674c1ce7777c61376d852d172594a87399490600090a261124e6001600160a01b038416836131f5565b6000611ae061328c565b5060008051602061539c83398151915290565b611afb612c20565b60008051602061533c833981519152611b1381612abd565b611b1c82613180565b611b25826132d5565b506114ed612c56565b60606000611b3a612ac7565b9050611b468382613402565b806002016000848152602001908152602001600020600201805480602002602001604051908101604052809291908181526020016000905b82821015611c2a578382906000526020600020018054611b9d90614fe1565b80601f0160208091040260200160405190810160405280929190818152602001828054611bc990614fe1565b8015611c165780601f10611beb57610100808354040283529160200191611c16565b820191906000526020600020905b815481529060010190602001808311611bf957829003601f168201915b505050505081526020019060010190611b7e565b50505050915050919050565b60008051602061545c833981519152611c4e81612abd565b73__$12bd2f62b73a470fe0f6e02c33045f3191$__634d36feb5611c70611a05565b846040518363ffffffff1660e01b8152600401611c8e929190614923565b60006040518083038186803b158015611ca657600080fd5b505af4158015611cba573d6000803e3d6000fd5b505050505050565b611cca612c20565b600080611cdd8a8a8a8a8a8a8a8a611253565b91509150611cef82898989898961342c565b6000612710611cfc6124eb565b6001600160a01b0316633c5559386040518163ffffffff1660e01b8152600401602060405180830381865afa158015611d39573d6000803e3d6000fd5b505050506040513d601f19601f82011682018060405250810190611d5d919061501b565b611d679084615034565b611d71919061504b565b90506000611d7f8284614fce565b90508a6001600160a01b03168c6001600160a01b031614611dc1576000611da4612bd8565b905083816001016000828254611dba919061506d565b9091555050505b611e3d82611dcd6124eb565b6001600160a01b0316630470d3ac6040518163ffffffff1660e01b8152600401602060405180830381865afa158015611e0a573d6000803e3d6000fd5b505050506040513d601f19601f82011682018060405250810190611e2e9190615080565b6001600160a01b0316906131f5565b611e506001600160a01b038c16826131f5565b604080516001600160a01b0386811682528c811660208301529181018b9052606081018a90526080810183905260a08101849052818d16918e16907f4ebd6343a4ae90ea9a2add4327d0439de765f4b8bbb691caaf0875ef36c54e819060c00160405180910390a350505050611191612c56565b6000806000611ed1613497565b90508060020154816003015492509250509091565b6000805160206153bc833981519152611efe81612abd565b611a01826134bb565b6000805160206153dc833981519152611f1f81612abd565b61124e8383613531565b6000805160206153bc833981519152611f4181612abd565b611f53611f4d84612af8565b8361358b565b82604051611f619190614f7f565b60405180910390207f498a5f4e6f3921f63e6863032989bdb7bb41e5cf5cbde5437c7322c5c8dc46bf8360405161185a9190614d3c565b6000805160206153bc833981519152611fb081612abd565b611a01826135cf565b6060806000611fc6611867565b9050600081516001600160401b03811115611fe357611fe3614539565b60405190808252806020026020018201604052801561201657816020015b60608152602001906001900390816120015790505b509050600082516001600160401b0381111561203457612034614539565b60405190808252806020026020018201604052801561206d57816020015b61205a61431c565b8152602001906001900390816120525790505b50905060005b8351811015612173576120846124eb565b6001600160a01b0316635a81a6268583815181106120a4576120a4614ea8565b60200260200101516040518263ffffffff1660e01b81526004016120ca91815260200190565b600060405180830381865afa1580156120e7573d6000803e3d6000fd5b505050506040513d6000823e601f3d908101601f1916820160405261210f9190810190614ebe565b83828151811061212157612121614ea8565b602002602001018190525061214e84828151811061214157612141614ea8565b6020026020010151612676565b82828151811061216057612160614ea8565b6020908102919091010152600101612073565b509094909350915050565b60008051602061545c83398151915261219681612abd565b73__$12bd2f62b73a470fe0f6e02c33045f3191$__635f4fe3a4610fba611a05565b606060006121c4612ac7565b90506121d36006820184613645565b6121f2578260405163ba650b5f60e01b81526004016112819190614b88565b6001600160a01b03831660009081526008820160205260409020805461221790614fe1565b80601f016020809104026020016040519081016040528092919081815260200182805461224390614fe1565b80156122905780601f1061226557610100808354040283529160200191612290565b820191906000526020600020905b81548152906001019060200180831161227357829003601f168201915b5050505050915050919050565b6000805160206153bc8339815191526122b581612abd565b6122c76122c184612af8565b8361365a565b826040516122d59190614f7f565b60405180910390207fba851faec9e30a9961f0adb49fe025cda6c8d7d0fb9bad99f89c37d0570232648360405161185a9190614d3c565b600080612317612ac7565b90506123238382613402565b600092835260020160205250604090206001015460ff1690565b600080612348613789565b600085815260208290526040902090915061236390846137ad565b949350505050565b600080612376612bfc565b6000948552602090815260408086206001600160a01b03959095168652939052505090205460ff1690565b60008060008060006123b1612bd8565b6001600160a01b0397881660009081526020918252604080822098909916815296905250505092909120805460018201546002830154600390930154919590945091925090565b6000805160206153fc83398151915261241081612abd565b6001600160a01b03831661243757604051633a954ecd60e21b815260040160405180910390fd5b6115466001600160a01b03851684846137b9565b6000805160206153bc83398151915261246381612abd565b611a0182613811565b6000805160206153bc83398151915261248481612abd565b61249661249084612af8565b83613868565b826040516124a49190614f7f565b6040519081900381208315158252907f23960b931eb4b63e2e47d040f51cc0de6eef2e865639eb674fbb1890ece3a0ab9060200161185a565b6000610e50610a1483612af8565b6000806124f6612d71565b546001600160a01b031692915050565b600080612511612d71565b6002015492915050565b6000805160206153dc83398151915261253381612abd565b61254b60008051602061535c83398151915283612db8565b5061256460008051602061545c83398151915283612db8565b5061257d60008051602061533c83398151915283612db8565b506040516001600160a01b038316907fd124523a9cfa28c5dd01826c4fa56192ec7d56859943082e0ca46c3b9dc6291390600090a25050565b60006125c0612915565b6125cf898989898989896118ef565b60405161190160f01b60208201526022810192909252604282015260620161194e565b6000806125fd613789565b6000848152602082905260409020909150612617906138a2565b9392505050565b6000805160206153bc83398151915261263681612abd565b61124e83836138ac565b6060600061264c612ac7565b90506110da60048201612aeb565b61266382611434565b61266c81612abd565b6115468383612db8565b61267e61431c565b6000612688612ac7565b90506126948382613402565b6000838152600280830160209081526040808420815160608101835281548152600182015460ff161515818501529381018054835181860281018601855281815295969295938701949192909184015b8282101561279057838290600052602060002001805461270390614fe1565b80601f016020809104026020016040519081016040528092919081815260200182805461272f90614fe1565b801561277c5780601f106127515761010080835404028352916020019161277c565b820191906000526020600020905b81548152906001019060200180831161275f57829003601f168201915b5050505050815260200190600101906126e4565b50505091525090949350505050565b60008051602061545c8339815191526127b781612abd565b73__$12bd2f62b73a470fe0f6e02c33045f3191$__637767d516610fba611a05565b6000610e5060008051602061535c8339815191528361236b565b60008051602061545c83398151915261280b81612abd565b73__$12bd2f62b73a470fe0f6e02c33045f3191$__63c7bffa96611c70611a05565b6000805160206153bc83398151915261284581612abd565b611a0182613948565b600080612859612bd8565b6001015492915050565b6060600061286f612ac7565b90506110da81600601612aeb565b600080612888612ac7565b90506128948382613402565b600092835260020160205250604090205490565b6000805160206153bc8339815191526128c081612abd565b6128d26128cc84612af8565b836139e1565b826040516128e09190614f7f565b604051908190038120907fd52aef6010d6b6303240865274298b7c5784b14ebf9df788047b34c69c53137190600090a2505050565b600080612511612bd8565b600080600061292d613497565b6001600160a01b03909416600090815260208581526040808320546001909701909152902054939492505050565b60008051602061545c83398151915261297381612abd565b73__$12bd2f62b73a470fe0f6e02c33045f3191$__6317a1da30610fba611a05565b61299d612c20565b6000805160206153fc8339815191526129b581612abd565b6129be82613180565b6129d16001600160a01b038416836131f5565b826001600160a01b03167f884edad9ce6fa2440d8a54cc123490eb96d2768479d49ff9c7366125a942436483604051612a0c91815260200190565b60405180910390a250611a01612c56565b6000805160206153bc833981519152612a3581612abd565b612a46612a4183612af8565b613a1f565b81604051612a549190614f7f565b604051908190038120907f52f6e0779195109314dfb8cf301d33491c63f136afac4c5d4f35aa934b25481390600090a25050565b60006001600160e01b03198216637965db0b60e01b1480610e5057506301ffc9a760e01b6001600160e01b0319831614610e50565b6114ed8133613a88565b7ff2856e5e1b7689dcde1bb551fd115c3cad8d243ea609d47a46b4d22ee58d300090565b6060600061261783613ab3565b6000612b026124eb565b6001600160a01b031663352af39a836040518263ffffffff1660e01b8152600401612b2d9190614d3c565b602060405180830381865afa158015612b4a573d6000803e3d6000fd5b505050506040513d601f19601f82011682018060405250810190610e50919061501b565b6000612b78612ac7565b90506000612b896009830184613b0f565b90508061124e57604051631a1e056960e01b815260048101849052602401611281565b600080612bbe8a8a8a8a8a8a8a6125b6565b9050612bca8184613b1b565b9a9950505050505050505050565b7f175f7e400d42af44d9ebd24e9efee8a2c4ed78ddf46a83e51a493ae382c8760090565b7f02dd7bc7dec4dceedda775e58dd541e08a116c6c53815c0bd028192f7b62680090565b6000612c2a613b45565b805490915060011901612c5057604051633ee5aeb560e01b815260040160405180910390fd5b60029055565b6000612c60613b45565b6001905550565b600080612c72613789565b90506000612c808585613b69565b90508015612363576000858152602083905260409020612ca09085613c0a565b50949350505050565b7ff0c57e16840df040f15088dc2f81fe391c3923bec73e23a9662efc9c229c6a0090565b612cd5613c1f565b565b612cdf613c1f565b6000612ce9612bd8565b604051909150612d519060008051602061543c833981519152907f964f47ba1d5dc0d1184a60039dba40abb2d0eee53398392e97308cb5f4a12f94907fc89efdaa54c0f20c7adf612882df0950f5a951637e0307cdcb4c672f298b8bc6904690602001614d7d565b60408051601f198184030181529190528051602090910120600290910155565b7f0c7b73796c7cc89b9f849b9056a93200eba741881e57a1b03b9bedb2c0e0710090565b612d9d613c1f565b6000612da7613497565b600281019390935550600390910155565b600080612dc3613789565b90506000612dd18585613c44565b90508015612363576000858152602083905260409020612ca09085613cbc565b6000612dfb612ac7565b90506000612e0c6009830184613cd1565b90508061124e57604051637eae59f160e11b815260048101849052602401611281565b6000612e39612ac7565b9050612e458382613402565b6000928352600201602052604090912055565b6000612e62612ac7565b90506000612e708287613b0f565b905080612e92576040516221e3bb60e31b815260048101879052602401611281565b60408051606081018252868152841515602080830191825282840188815260008b81526002888101845295902084518155925160018401805460ff191691151591909117905551805193949293612ef093850192919091019061433f565b505050505050505050565b306001600160a01b037f0000000000000000000000000000000000000000000000000000000000000000161480612f6b57507f00000000000000000000000000000000000000000000000000000000000000006001600160a01b0316612f5f613cdd565b6001600160a01b031614155b15612cd55760405163703e46dd60e11b815260040160405180910390fd5b60008051602061537c833981519152612fa181612abd565b6000612fab6124eb565b6001600160a01b0316639d825bc56040518163ffffffff1660e01b8152600401602060405180830381865afa158015612fe8573d6000803e3d6000fd5b505050506040513d601f19601f8201168201806040525081019061300c9190615080565b90506000613018613cdd565b9050836001600160a01b0316816001600160a01b0316036130505780846040516382afabc160e01b815260040161128192919061509d565b816001600160a01b0316846001600160a01b03161461308657818460405163699a021f60e11b815260040161128192919061509d565b836001600160a01b0316816001600160a01b03167fa3d484f827e1c900ce24494bfdb214bcbad08472a9f0571fb5beac779a682db460405160405180910390a350505050565b816001600160a01b03166352d1902d6040518163ffffffff1660e01b8152600401602060405180830381865afa925050508015613126575060408051601f3d908101601f191682019092526131239181019061501b565b60015b6131455781604051634c9c8ce360e01b81526004016112819190614b88565b60008051602061539c833981519152811461317657604051632a87526960e21b815260048101829052602401611281565b61124e8383613cf9565b600061318a612506565b9050600061319661284e565b90508181101561124e5760006131ac8284614fce565b905060006131ba8247614fce565b9050808511156131ee576040516344c8760560e11b8152600481018290526024810183905260448101869052606401611281565b5050505050565b80471015613218573060405163cd78605960e01b81526004016112819190614b88565b6000826001600160a01b03168260405160006040518083038185875af1925050503d8060008114613265576040519150601f19603f3d011682016040523d82523d6000602084013e61326a565b606091505b505090508061124e57604051630a12f52160e11b815260040160405180910390fd5b306001600160a01b037f00000000000000000000000000000000000000000000000000000000000000001614612cd55760405163703e46dd60e11b815260040160405180910390fd5b60006132df613497565b9050806002015482111561330e57806002015482604051631728bc5b60e31b8152600401611281929190614bc8565b600381015433600090815260208390526040902054429161332e9161506d565b8111156133565733600090815260018301602090815260408083208390559084905290208190555b600282015433600090815260018401602052604090205461337890859061506d565b111561339f5781600201548360405163d54b188760e01b8152600401611281929190614bc8565b336000908152600183016020526040812080548592906133c090849061506d565b909155506133d0905033846131f5565b60405183815233907fb9ec638398bbdcd0844ca414d8ce760939fa88b9258b9764b3fc6c12ea2605c29060200161185a565b61340c8183613d4f565b611a0157604051631e96f6ed60e21b815260048101839052602401611281565b6000613436612bd8565b604080516080810182529687526020808801968752878201958652606088019485526001600160a01b03998a166000908152928152818320989099168252969097525093909420915182555160018201559151600283015551600390910155565b7f99a652063088b6badaeb0c7f680676baf720654b4f86f50167944489af637d0090565b60006134c5612ac7565b905060006134d66004830184613c0a565b9050806134f85782604051632872fbf960e11b81526004016112819190614b88565b6040516001600160a01b038416907fa317c10673baf4f03b3c1041bd5ddbb537d0333a86fec3607c75f9dbb630f48f90600090a2505050565b600061353b613497565b60028101849055600381018390556040519091507f8d4925b196ae6b935035a27ed36c6bd9c7a8fbddc7a3f55f493aa8e230be373e9061357e9085908590614bc8565b60405180910390a1505050565b6000613595612ac7565b90506135a18382613402565b6000838152600280830160209081526040832090910180546001810182559083529120016115468382615114565b60006135d9612ac7565b905060006135ea6004830184613cbc565b90508061360c5782604051631532e67160e21b81526004016112819190614b88565b6040516001600160a01b038416907f85a3e72f8dd6db3794f93109c3c5f5b79d6112f6979431c45f98b26134b42af290600090a2505050565b6000612617836001600160a01b038416613d57565b6000613664612ac7565b90506136708382613402565b600083815260028083016020526040822001905b81548110156131ee578360405160200161369e9190614f7f565b604051602081830303815290604052805190602001208282815481106136c6576136c6614ea8565b906000526020600020016040516020016136e091906151cd565b6040516020818303038152906040528051906020012003613781578154829061370b90600190614fce565b8154811061371b5761371b614ea8565b9060005260206000200182828154811061373757613737614ea8565b90600052602060002001908161374d9190615243565b508180548061375e5761375e61530f565b60019003818190600052602060002001600061377a9190614395565b90556131ee565b600101613684565b7fc1f6fe24621ce81ec5827caf0253cadb74709b061630e6b55e8237170593200090565b60006126178383613d6f565b61124e83846001600160a01b031663a9059cbb85856040516024016137df929190614923565b604051602081830303815290604052915060e01b6020820180516001600160e01b038381831617835250505050613d99565b600061381b612ac7565b60038101805460ff19168415159081179091556040519081529091507fe93ceb76efb130156c6aa39fa4ac986b3f683b6da926496fca3f95ea7fe715e39060200160405180910390a15050565b6000613872612ac7565b905061387e8382613402565b60009283526002016020526040909120600101805460ff1916911515919091179055565b6000610e50825490565b60006138b6612ac7565b905060006138c76006830185613c0a565b9050806138e95783604051631a6107e360e31b81526004016112819190614b88565b6001600160a01b0384166000908152600883016020526040902061390d8482615114565b506040516001600160a01b038516907f928ec246afda323bc23c2815ca3f516e9fc6a7b7179772235c221e132545fe8290600090a250505050565b6000613952612ac7565b905060006139636006830184613cbc565b905080613985578260405163ba650b5f60e01b81526004016112819190614b88565b6001600160a01b038316600090815260088301602052604081206139a891614395565b6040516001600160a01b038416907fc5a9b8041ef11732e7dd7043167d8c22db5c7ea99dcd38dce401effacf8a29bf90600090a2505050565b60006139eb612ac7565b90506139f78382613402565b600083815260028083016020908152604090922084516115469391909201919085019061433f565b6000613a29612ac7565b90506000613a378284613cd1565b905080613a5a57604051631e96f6ed60e21b815260048101849052602401611281565b600083815260028084016020526040822082815560018101805460ff1916905591906131ee908301826143cf565b613a92828261236b565b611a0157808260405163e2517d3f60e01b8152600401611281929190614923565b606081600001805480602002602001604051908101604052809291908181526020018280548015613b0357602002820191906000526020600020905b815481526020019060010190808311613aef575b50505050509050919050565b60006126178383613df3565b600080600080613b2b8686613e3d565b925092509250613b3b8282613e8a565b5090949350505050565b7f9b779b17422d0df92223018b32b4d1fa46e071723d6817e2486d003becc55f0090565b600080613b74612bfc565b9050613b80848461236b565b613c00576000848152602082815260408083206001600160a01b03871684529091529020805460ff19166001179055613bb63390565b6001600160a01b0316836001600160a01b0316857f2f8788117e7eff1d82e926ec794901d17c78024a50270940304540a733656f0d60405160405180910390a46001915050610e50565b6000915050610e50565b6000612617836001600160a01b038416613df3565b613c27613f43565b612cd557604051631afcd79f60e31b815260040160405180910390fd5b600080613c4f612bfc565b9050613c5b848461236b565b15613c00576000848152602082815260408083206001600160a01b0387168085529252808320805460ff1916905551339287917ff6391f5c32d9c69d2a47ea670b442974b53935d1edc7fd64eb21e047a839171b9190a46001915050610e50565b6000612617836001600160a01b038416613f5d565b60006126178383613f5d565b60008051602061539c833981519152546001600160a01b031690565b613d0282614046565b6040516001600160a01b038316907fbc7cd75a20ee27fd9adebab32041f755214dbc6bffa90cc0225b39da2e5c2d3b90600090a2805115613d475761124e82826140a2565b611a01614118565b600061261783835b60009081526001919091016020526040902054151590565b6000826000018281548110613d8657613d86614ea8565b9060005260206000200154905092915050565b6000613dae6001600160a01b03841683614137565b90508051600014158015613dd3575080806020019051810190613dd19190614f9b565b155b1561124e5782604051635274afe760e01b81526004016112819190614b88565b6000613dff8383613d57565b613e3557508154600181810184556000848152602080822090930184905584548482528286019093526040902091909155610e50565b506000610e50565b60008060008351604103613e775760208401516040850151606086015160001a613e6988828585614145565b955095509550505050613e83565b50508151600091506002905b9250925092565b6000826003811115613e9e57613e9e615325565b03613ea7575050565b6001826003811115613ebb57613ebb615325565b03613ed95760405163f645eedf60e01b815260040160405180910390fd5b6002826003811115613eed57613eed615325565b03613f0e5760405163fce698f760e01b815260048101829052602401611281565b6003826003811115613f2257613f22615325565b03611a01576040516335e2f38360e21b815260048101829052602401611281565b6000613f4d612ca9565b54600160401b900460ff16919050565b60008181526001830160205260408120548015613c00576000613f81600183614fce565b8554909150600090613f9590600190614fce565b9050808214613ffa576000866000018281548110613fb557613fb5614ea8565b9060005260206000200154905080876000018481548110613fd857613fd8614ea8565b6000918252602080832090910192909255918252600188019052604090208390555b855486908061400b5761400b61530f565b600190038181906000526020600020016000905590558560010160008681526020019081526020016000206000905560019350505050610e50565b806001600160a01b03163b6000036140735780604051634c9c8ce360e01b81526004016112819190614b88565b60008051602061539c83398151915280546001600160a01b0319166001600160a01b0392909216919091179055565b6060600080846001600160a01b0316846040516140bf9190614f7f565b600060405180830381855af49150503d80600081146140fa576040519150601f19603f3d011682016040523d82523d6000602084013e6140ff565b606091505b509150915061410f85838361420a565b95945050505050565b3415612cd55760405163b398979f60e01b815260040160405180910390fd5b606061261783836000614256565b600080806fa2a8918ca85bafe22016d0b997e4df60600160ff1b038411156141765750600091506003905082614200565b604080516000808252602082018084528a905260ff891692820192909252606081018790526080810186905260019060a0016020604051602081039080840390855afa1580156141ca573d6000803e3d6000fd5b5050604051601f1901519150506001600160a01b0381166141f657506000925060019150829050614200565b9250600091508190505b9450945094915050565b60608261421f5761421a826142f3565b612617565b815115801561423657506001600160a01b0384163b155b15610f795783604051639996b31560e01b81526004016112819190614b88565b60608147101561427b573060405163cd78605960e01b81526004016112819190614b88565b600080856001600160a01b031684866040516142979190614f7f565b60006040518083038185875af1925050503d80600081146142d4576040519150601f19603f3d011682016040523d82523d6000602084013e6142d9565b606091505b50915091506142e986838361420a565b9695505050505050565b8051156143035780518082602001fd5b604051630a12f52160e11b815260040160405180910390fd5b604051806060016040528060008152602001600015158152602001606081525090565b828054828255906000526020600020908101928215614385579160200282015b8281111561438557825182906143759082615114565b509160200191906001019061435f565b506143919291506143e9565b5090565b5080546143a190614fe1565b6000825580601f106143b1575050565b601f0160209004906000526020600020908101906114ed9190614406565b50805460008255906000526020600020908101906114ed91905b808211156143915760006143fd8282614395565b506001016143e9565b5b808211156143915760008155600101614407565b60006020828403121561442d57600080fd5b81356001600160e01b03198116811461261757600080fd5b60005b83811015614460578181015183820152602001614448565b50506000910152565b60008151808452614481816020860160208601614445565b601f01601f19169290920160200192915050565b60008282518085526020808601955060208260051b8401016020860160005b848110156144e257601f198684030189526144d0838351614469565b988401989250908301906001016144b4565b5090979650505050505050565b6020815260006126176020830184614495565b6000806040838503121561451557600080fd5b50508035926020909101359150565b6001600160a01b03811681146114ed57600080fd5b634e487b7160e01b600052604160045260246000fd5b604051601f8201601f191681016001600160401b038111828210171561457757614577614539565b604052919050565b60006001600160401b0382111561459857614598614539565b50601f01601f191660200190565b600082601f8301126145b757600080fd5b81356145ca6145c58261457f565b61454f565b8181528460208386010111156145df57600080fd5b816020850160208301376000918101602001919091529392505050565b80151581146114ed57600080fd5b60008060008060008060c0878903121561462357600080fd5b863561462e81614524565b955060208701356001600160401b0381111561464957600080fd5b61465589828a016145a6565b9550506040870135935060608701359250608087013561467481614524565b915060a0870135614684816145fc565b809150509295509295509295565b6020808252825182820181905260009190848201906040850190845b818110156146ca578351835292840192918401916001016146ae565b50909695505050505050565b600080600080608085870312156146ec57600080fd5b84356146f781614524565b9350602085013561470781614524565b92506040850135915060608501356001600160401b0381111561472957600080fd5b614735878288016145a6565b91505092959194509250565b60006020828403121561475357600080fd5b81356001600160401b0381111561476957600080fd5b612363848285016145a6565b60008060006060848603121561478a57600080fd5b833561479581614524565b925060208401356147a581614524565b929592945050506040919091013590565b600082601f8301126147c757600080fd5b813560206001600160401b03808311156147e3576147e3614539565b8260051b6147f283820161454f565b938452858101830193838101908886111561480c57600080fd5b84880192505b858310156148485782358481111561482a5760008081fd5b6148388a87838c01016145a6565b8352509184019190840190614812565b98975050505050505050565b60006020828403121561486657600080fd5b81356001600160401b0381111561487c57600080fd5b612363848285016147b6565b600080600080600080600080610100898b0312156148a557600080fd5b88356148b081614524565b975060208901356148c081614524565b965060408901356148d081614524565b9550606089013594506080890135935060a0890135925060c0890135915060e08901356001600160401b0381111561490757600080fd5b6149138b828c016145a6565b9150509295985092959890939650565b6001600160a01b03929092168252602082015260400190565b60006020828403121561494e57600080fd5b5035919050565b6000806040838503121561496857600080fd5b82359150602083013561497a81614524565b809150509250929050565b600080600080600060a0868803121561499d57600080fd5b85356149a881614524565b945060208601356149b881614524565b93506040860135925060608601356149cf81614524565b915060808601356149df81614524565b809150509295509295909350565b60008060408385031215614a0057600080fd5b82356001600160401b03811115614a1657600080fd5b614a22858286016145a6565b95602094909401359450505050565b60008060008060808587031215614a4757600080fd5b84356001600160401b0380821115614a5e57600080fd5b614a6a888389016145a6565b95506020870135945060408701359150614a83826145fc565b90925060608601359080821115614a9957600080fd5b50614735878288016147b6565b600080600080600080600060e0888a031215614ac157600080fd5b8735614acc81614524565b96506020880135614adc81614524565b95506040880135614aec81614524565b969995985095966060810135965060808101359560a0820135955060c0909101359350915050565b60008060408385031215614b2757600080fd5b82359150602083013561497a816145fc565b60008060408385031215614b4c57600080fd5b8235614b5781614524565b915060208301356001600160401b03811115614b7257600080fd5b614b7e858286016145a6565b9150509250929050565b6001600160a01b0391909116815260200190565b60008060408385031215614baf57600080fd5b8235614bba81614524565b946020939093013593505050565b918252602082015260400190565b600060208284031215614be857600080fd5b813561261781614524565b60008060408385031215614c0657600080fd5b82356001600160401b0380821115614c1d57600080fd5b614c29868387016145a6565b93506020850135915080821115614c3f57600080fd5b50614b7e858286016145a6565b600060608301825184526020808401511515602086015260408401516060604087015282815180855260808801915060808160051b890101945060208301925060005b81811015614cbd57607f19898703018352614cab868551614469565b95509284019291840191600101614c8f565b5093979650505050505050565b604081526000614cdd6040830185614495565b6020838203818501528185518084528284019150828160051b85010183880160005b83811015614d2d57601f19878403018552614d1b838351614c4c565b94860194925090850190600101614cff565b50909998505050505050505050565b6020815260006126176020830184614469565b60008060408385031215614d6257600080fd5b8235614d6d81614524565b9150602083013561497a81614524565b93845260208401929092526040830152606082015260800190565b600060208284031215614daa57600080fd5b8135612617816145fc565b60008060408385031215614dc857600080fd5b82356001600160401b03811115614dde57600080fd5b614dea858286016145a6565b925050602083013561497a816145fc565b6020808252825182820181905260009190848201906040850190845b818110156146ca5783516001600160a01b031683529284019291840191600101614e17565b6020815260006126176020830184614c4c565b60008060408385031215614e6257600080fd5b82356001600160401b0380821115614e7957600080fd5b614e85868387016145a6565b93506020850135915080821115614e9b57600080fd5b50614b7e858286016147b6565b634e487b7160e01b600052603260045260246000fd5b600060208284031215614ed057600080fd5b81516001600160401b03811115614ee657600080fd5b8201601f81018413614ef757600080fd5b8051614f056145c58261457f565b818152856020838501011115614f1a57600080fd5b61410f826020830160208601614445565b600060018060a01b03808a168352808916602084015260e06040840152614f5560e0840189614469565b60608401979097526080830195909552509190921660a082015290151560c0909101529392505050565b60008251614f91818460208701614445565b9190910192915050565b600060208284031215614fad57600080fd5b8151612617816145fc565b634e487b7160e01b600052601160045260246000fd5b81810381811115610e5057610e50614fb8565b600181811c90821680614ff557607f821691505b60208210810361501557634e487b7160e01b600052602260045260246000fd5b50919050565b60006020828403121561502d57600080fd5b5051919050565b8082028115828204841417610e5057610e50614fb8565b60008261506857634e487b7160e01b600052601260045260246000fd5b500490565b80820180821115610e5057610e50614fb8565b60006020828403121561509257600080fd5b815161261781614524565b6001600160a01b0392831681529116602082015260400190565b601f82111561124e576000816000526020600020601f850160051c810160208610156150e05750805b601f850160051c820191505b81811015611cba578281556001016150ec565b600019600383901b1c191660019190911b1790565b81516001600160401b0381111561512d5761512d614539565b6151418161513b8454614fe1565b846150b7565b602080601f831160018114615170576000841561515e5750858301515b61516885826150ff565b865550611cba565b600085815260208120601f198616915b8281101561519f57888601518255948401946001909101908401615180565b50858210156151bd5787850151600019600388901b60f8161c191681555b5050505050600190811b01905550565b60008083546151db81614fe1565b600182811680156151f3576001811461520857615237565b60ff1984168752821515830287019450615237565b8760005260208060002060005b8581101561522e5781548a820152908401908201615215565b50505082870194505b50929695505050505050565b81810361524e575050565b6152588254614fe1565b6001600160401b0381111561526f5761526f614539565b61527d8161513b8454614fe1565b6000601f8211600181146152ab57600083156152995750848201545b6152a384826150ff565b8555506131ee565b600085815260209020601f19841690600086815260209020845b838110156152e557828601548255600195860195909101906020016152c5565b50858310156151bd5793015460001960f8600387901b161c19169092555050600190811b01905550565b634e487b7160e01b600052603160045260246000fd5b634e487b7160e01b600052602160045260246000fdfee562760eaa817d85ec1bf58364c4d65adb65d99d113c6785ef9aa66567076c954c1d97560aef1d9626af2ccff8a6ac6e245c44c307e795e9c16f7211c611a315189ab7a9244df0848122154315af71fe140f3db0fe014031783b0946b8c9d2e3360894a13ba1a3210667c828492db98dca3e2076cc3735a920a3ca505d382bbc9a95e87c5af084bf5db8491c3a6515da9dd6da39b24b0eb0af08d7b9cd808d91c6ae66da7afbd0becbe49ddf95a9256901d87f1bb5e3d43236030e5e4a585b6d10dac8c06a04bec0b551627dad28bc00d6516b0caacd1c7b345fcdb5211334e487b38f131334165ac2b361f08966c9fcff3a953fa7d9d9c2861b7f0b50445bcbc2f8787176b8ac6bf7215b4adcc1e069bf4ab82d9ab1df05a57a91d425935b6e3acdf00ba9ef08b5f2c22768276611b9af078bf6c24fa36b34ec5e9f2eb061faa2646970667358221220ba84388ed8d7cff3b3a77cb1a4f514a00126c13558c5826f7c8373492ae33e3b64736f6c63430008180033",
  "linkReferences": {
    "contracts/booking-token/BookingTokenOperator.sol": {
      "BookingTokenOperator": [
        {
          "length": 20,
          "start": 4254
        },
        {
          "length": 20,
          "start": 4419
        },
        {
          "length": 20,
          "start": 5498
        },
        {
          "length": 20,
          "start": 5646
        },
        {
          "length": 20,
          "start": 6799
        },
        {
          "length": 20,
          "start": 7508
        },
        {
          "length": 20,
          "start": 8860
        },
        {
          "length": 20,
          "start": 10429
        },
        {
          "length": 20,
          "start": 10513
        },
        {
          "length": 20,
          "start": 10873
        }
      ]
    }
  },
  "deployedLinkReferences": {
    "contracts/booking-token/BookingTokenOperator.sol": {
      "BookingTokenOperator": [
        {
          "length": 20,
          "start": 3994
        },
        {
          "length": 20,
          "start": 4159
        },
        {
          "length": 20,
          "start": 5238
        },
        {
          "length": 20,
          "start": 5386
        },
        {
          "length": 20,
          "start": 6539
        },
        {
          "length": 20,
          "start": 7248
        },
        {
          "length": 20,
          "start": 8600
        },
        {
          "length": 20,
          "start": 10169
        },
        {
          "length": 20,
          "start": 10253
        },
        {
          "length": 20,
          "start": 10613
        }
      ]
    }
  }
}