{
  "_format": "hh-sol-artifact-1",
  "contractName": "BookingTokenV2",
  "sourceName": "contracts/booking-token/BookingTokenV2.sol",
  "abi": [
    {
      "inputs": [],
      "name": "AccessControlBadConfirmation",
      "type": "error"
    },
    {
      "inputs": [
        {
          "internalType": "address",
          "name": "account",
          "type": "address"
        },
        {
          "internalType": "bytes32",
          "name": "neededRole",
          "type": "bytes32"
        }
      ],
      "name": "AccessControlUnauthorizedAccount",
      "type": "error"
    },
    {
      "inputs": [
        {
          "internalType": "address",
          "name": "target",
          "type": "address"
        }
      ],
      "name": "AddressEmptyCode",
      "type": "error"
    },
    {
      "inputs": [
        {
          "internalType": "address",
          "name": "account",
          "type": "address"
        }
      ],
      "name": "AddressInsufficientBalance",
      "type": "error"
    },
    {
      "inputs": [
        {
          "internalType": "address",
          "name": "implementation",
          "type": "address"
        }
      ],
      "name": "ERC1967InvalidImplementation",
      "type": "error"
    },
    {
      "inputs": [],
      "name": "ERC1967NonPayable",
      "type": "error"
    },
    {
      "inputs": [],
      "name": "ERC721EnumerableForbiddenBatchMint",
      "type": "error"
    },
    {
      "inputs": [
        {
          "internalType": "address",
          "name": "sender",
          "type": "address"
        },
        {
          "internalType": "uint256",
          "name": "tokenId",
          "type": "uint256"
        },
        {
          "internalType": "address",
          "name": "owner",
          "type": "address"
        }
      ],
      "name": "ERC721IncorrectOwner",
      "type": "error"
    },
    {
      "inputs": [
        {
          "internalType": "address",
          "name": "operator",
          "type": "address"
        },
        {
          "internalType": "uint256",
          "name": "tokenId",
          "type": "uint256"
        }
      ],
      "name": "ERC721InsufficientApproval",
      "type": "error"
    },
    {
      "inputs": [
        {
          "internalType": "address",
          "name": "approver",
          "type": "address"
        }
      ],
      "name": "ERC721InvalidApprover",
      "type": "error"
    },
    {
      "inputs": [
        {
          "internalType": "address",
          "name": "operator",
          "type": "address"
        }
      ],
      "name": "ERC721InvalidOperator",
      "type": "error"
    },
    {
      "inputs": [
        {
          "internalType": "address",
          "name": "owner",
          "type": "address"
        }
      ],
      "name": "ERC721InvalidOwner",
      "type": "error"
    },
    {
      "inputs": [
        {
          "internalType": "address",
          "name": "receiver",
          "type": "address"
        }
      ],
      "name": "ERC721InvalidReceiver",
      "type": "error"
    },
    {
      "inputs": [
        {
          "internalType": "address",
          "name": "sender",
          "type": "address"
        }
      ],
      "name": "ERC721InvalidSender",
      "type": "error"
    },
    {
      "inputs": [
        {
          "internalType": "uint256",
          "name": "tokenId",
          "type": "uint256"
        }
      ],
      "name": "ERC721NonexistentToken",
      "type": "error"
    },
    {
      "inputs": [
        {
          "internalType": "address",
          "name": "owner",
          "type": "address"
        },
        {
          "internalType": "uint256",
          "name": "index",
          "type": "uint256"
        }
      ],
      "name": "ERC721OutOfBoundsIndex",
      "type": "error"
    },
    {
      "inputs": [
        {
          "internalType": "uint256",
          "name": "expirationTimestamp",
          "type": "uint256"
        },
        {
          "internalType": "uint256",
          "name": "minExpirationTimestampDiff",
          "type": "uint256"
        }
      ],
      "name": "ExpirationTimestampTooSoon",
      "type": "error"
    },
    {
      "inputs": [],
      "name": "FailedInnerCall",
      "type": "error"
    },
    {
      "inputs": [
        {
          "internalType": "uint256",
          "name": "actual",
          "type": "uint256"
        },
        {
          "internalType": "uint256",
          "name": "expected",
          "type": "uint256"
        }
      ],
      "name": "IncorrectAmount",
      "type": "error"
    },
    {
      "inputs": [
        {
          "internalType": "uint256",
          "name": "price",
          "type": "uint256"
        },
        {
          "internalType": "uint256",
          "name": "reservationPrice",
          "type": "uint256"
        }
      ],
      "name": "IncorrectPrice",
      "type": "error"
    },
    {
      "inputs": [
        {
          "internalType": "address",
          "name": "sender",
          "type": "address"
        },
        {
          "internalType": "contract IERC20",
          "name": "paymentToken",
          "type": "address"
        },
        {
          "internalType": "uint256",
          "name": "price",
          "type": "uint256"
        },
        {
          "internalType": "uint256",
          "name": "allowance",
          "type": "uint256"
        }
      ],
      "name": "InsufficientAllowance",
      "type": "error"
    },
    {
      "inputs": [],
      "name": "InvalidInitialization",
      "type": "error"
    },
    {
      "inputs": [
        {
          "internalType": "uint256",
          "name": "tokenId",
          "type": "uint256"
        },
        {
          "internalType": "enum BookingToken.BookingStatus",
          "name": "status",
          "type": "uint8"
        }
      ],
      "name": "InvalidTokenStatus",
      "type": "error"
    },
    {
      "inputs": [
        {
          "internalType": "uint256",
          "name": "tokenId",
          "type": "uint256"
        }
      ],
      "name": "NoCounteredCancellationProposal",
      "type": "error"
    },
    {
      "inputs": [
        {
          "internalType": "uint256",
          "name": "tokenId",
          "type": "uint256"
        }
      ],
      "name": "NoPendingCancellationProposal",
      "type": "error"
    },
    {
      "inputs": [
        {
          "internalType": "uint256",
          "name": "tokenId",
          "type": "uint256"
        },
        {
          "internalType": "address",
          "name": "caller",
          "type": "address"
        }
      ],
      "name": "NotAuthorizedToAcceptCancellation",
      "type": "error"
    },
    {
      "inputs": [
        {
          "internalType": "uint256",
          "name": "tokenId",
          "type": "uint256"
        },
        {
          "internalType": "address",
          "name": "caller",
          "type": "address"
        }
      ],
      "name": "NotAuthorizedToAcceptCounterProposal",
      "type": "error"
    },
    {
      "inputs": [
        {
          "internalType": "uint256",
          "name": "tokenId",
          "type": "uint256"
        },
        {
          "internalType": "address",
          "name": "caller",
          "type": "address"
        }
      ],
      "name": "NotAuthorizedToCancelProposal",
      "type": "error"
    },
    {
      "inputs": [
        {
          "internalType": "uint256",
          "name": "tokenId",
          "type": "uint256"
        },
        {
          "internalType": "address",
          "name": "caller",
          "type": "address"
        }
      ],
      "name": "NotAuthorizedToCounterCancellation",
      "type": "error"
    },
    {
      "inputs": [
        {
          "internalType": "address",
          "name": "caller",
          "type": "address"
        }
      ],
      "name": "NotAuthorizedToInitiateCancellation",
      "type": "error"
    },
    {
      "inputs": [
        {
          "internalType": "uint256",
          "name": "tokenId",
          "type": "uint256"
        },
        {
          "internalType": "address",
          "name": "caller",
          "type": "address"
        }
      ],
      "name": "NotAuthorizedToRejectCancellation",
      "type": "error"
    },
    {
      "inputs": [
        {
          "internalType": "uint256",
          "name": "tokenId",
          "type": "uint256"
        },
        {
          "internalType": "address",
          "name": "caller",
          "type": "address"
        }
      ],
      "name": "NotAuthorizedToSetCancellable",
      "type": "error"
    },
    {
      "inputs": [
        {
          "internalType": "address",
          "name": "account",
          "type": "address"
        }
      ],
      "name": "NotCMAccount",
      "type": "error"
    },
    {
      "inputs": [],
      "name": "NotInitializing",
      "type": "error"
    },
    {
      "inputs": [],
      "name": "ReentrancyGuardReentrantCall",
      "type": "error"
    },
    {
      "inputs": [
        {
          "internalType": "uint256",
          "name": "tokenId",
          "type": "uint256"
        },
        {
          "internalType": "uint256",
          "name": "expirationTimestamp",
          "type": "uint256"
        }
      ],
      "name": "ReservationExpired",
      "type": "error"
    },
    {
      "inputs": [
        {
          "internalType": "address",
          "name": "reservedFor",
          "type": "address"
        },
        {
          "internalType": "address",
          "name": "buyer",
          "type": "address"
        }
      ],
      "name": "ReservationMismatch",
      "type": "error"
    },
    {
      "inputs": [
        {
          "internalType": "address",
          "name": "token",
          "type": "address"
        }
      ],
      "name": "SafeERC20FailedOperation",
      "type": "error"
    },
    {
      "inputs": [
        {
          "internalType": "uint256",
          "name": "tokenId",
          "type": "uint256"
        },
        {
          "internalType": "address",
          "name": "supplier",
          "type": "address"
        }
      ],
      "name": "SupplierIsNotOwner",
      "type": "error"
    },
    {
      "inputs": [
        {
          "internalType": "uint256",
          "name": "tokenId",
          "type": "uint256"
        }
      ],
      "name": "TokenHasActiveCancellationProposalOrCancelled",
      "type": "error"
    },
    {
      "inputs": [
        {
          "internalType": "uint256",
          "name": "tokenId",
          "type": "uint256"
        },
        {
          "internalType": "address",
          "name": "reservedFor",
          "type": "address"
        }
      ],
      "name": "TokenIsReserved",
      "type": "error"
    },
    {
      "inputs": [],
      "name": "UUPSUnauthorizedCallContext",
      "type": "error"
    },
    {
      "inputs": [
        {
          "internalType": "bytes32",
          "name": "slot",
          "type": "bytes32"
        }
      ],
      "name": "UUPSUnsupportedProxiableUUID",
      "type": "error"
    },
    {
      "anonymous": false,
      "inputs": [
        {
          "indexed": true,
          "internalType": "address",
          "name": "owner",
          "type": "address"
        },
        {
          "indexed": true,
          "internalType": "address",
          "name": "approved",
          "type": "address"
        },
        {
          "indexed": true,
          "internalType": "uint256",
          "name": "tokenId",
          "type": "uint256"
        }
      ],
      "name": "Approval",
      "type": "event"
    },
    {
      "anonymous": false,
      "inputs": [
        {
          "indexed": true,
          "internalType": "address",
          "name": "owner",
          "type": "address"
        },
        {
          "indexed": true,
          "internalType": "address",
          "name": "operator",
          "type": "address"
        },
        {
          "indexed": false,
          "internalType": "bool",
          "name": "approved",
          "type": "bool"
        }
      ],
      "name": "ApprovalForAll",
      "type": "event"
    },
    {
      "anonymous": false,
      "inputs": [
        {
          "indexed": false,
          "internalType": "uint256",
          "name": "_fromTokenId",
          "type": "uint256"
        },
        {
          "indexed": false,
          "internalType": "uint256",
          "name": "_toTokenId",
          "type": "uint256"
        }
      ],
      "name": "BatchMetadataUpdate",
      "type": "event"
    },
    {
      "anonymous": false,
      "inputs": [
        {
          "indexed": true,
          "internalType": "uint256",
          "name": "tokenId",
          "type": "uint256"
        },
        {
          "indexed": true,
          "internalType": "address",
          "name": "acceptedBy",
          "type": "address"
        },
        {
          "indexed": false,
          "internalType": "uint256",
          "name": "refundAmount",
          "type": "uint256"
        }
      ],
      "name": "CancellationAccepted",
      "type": "event"
    },
    {
      "anonymous": false,
      "inputs": [
        {
          "indexed": true,
          "internalType": "uint256",
          "name": "tokenId",
          "type": "uint256"
        },
        {
          "indexed": true,
          "internalType": "address",
          "name": "counteredBy",
          "type": "address"
        },
        {
          "indexed": false,
          "internalType": "uint256",
          "name": "newRefundAmount",
          "type": "uint256"
        }
      ],
      "name": "CancellationCountered",
      "type": "event"
    },
    {
      "anonymous": false,
      "inputs": [
        {
          "indexed": true,
          "internalType": "uint256",
          "name": "tokenId",
          "type": "uint256"
        },
        {
          "indexed": true,
          "internalType": "address",
          "name": "proposedBy",
          "type": "address"
        },
        {
          "indexed": false,
          "internalType": "uint256",
          "name": "refundAmount",
          "type": "uint256"
        }
      ],
      "name": "CancellationPending",
      "type": "event"
    },
    {
      "anonymous": false,
      "inputs": [
        {
          "indexed": true,
          "internalType": "uint256",
          "name": "tokenId",
          "type": "uint256"
        },
        {
          "indexed": true,
          "internalType": "address",
          "name": "acceptedBy",
          "type": "address"
        },
        {
          "indexed": false,
          "internalType": "uint256",
          "name": "refundAmount",
          "type": "uint256"
        }
      ],
      "name": "CancellationProposalAcceptedByTheOwner",
      "type": "event"
    },
    {
      "anonymous": false,
      "inputs": [
        {
          "indexed": true,
          "internalType": "uint256",
          "name": "tokenId",
          "type": "uint256"
        },
        {
          "indexed": true,
          "internalType": "address",
          "name": "cancelledBy",
          "type": "address"
        }
      ],
      "name": "CancellationProposalCancelled",
      "type": "event"
    },
    {
      "anonymous": false,
      "inputs": [
        {
          "indexed": true,
          "internalType": "uint256",
          "name": "tokenId",
          "type": "uint256"
        },
        {
          "indexed": true,
          "internalType": "address",
          "name": "rejectedBy",
          "type": "address"
        },
        {
          "indexed": false,
          "internalType": "enum CancellationRejectionReason",
          "name": "reason",
          "type": "uint8"
        }
      ],
      "name": "CancellationRejected",
      "type": "event"
    },
    {
      "anonymous": false,
      "inputs": [
        {
          "indexed": false,
          "internalType": "uint64",
          "name": "version",
          "type": "uint64"
        }
      ],
      "name": "Initialized",
      "type": "event"
    },
    {
      "anonymous": false,
      "inputs": [
        {
          "indexed": false,
          "internalType": "uint256",
          "name": "_tokenId",
          "type": "uint256"
        }
      ],
      "name": "MetadataUpdate",
      "type": "event"
    },
    {
      "anonymous": false,
      "inputs": [
        {
          "indexed": true,
          "internalType": "bytes32",
          "name": "role",
          "type": "bytes32"
        },
        {
          "indexed": true,
          "internalType": "bytes32",
          "name": "previousAdminRole",
          "type": "bytes32"
        },
        {
          "indexed": true,
          "internalType": "bytes32",
          "name": "newAdminRole",
          "type": "bytes32"
        }
      ],
      "name": "RoleAdminChanged",
      "type": "event"
    },
    {
      "anonymous": false,
      "inputs": [
        {
          "indexed": true,
          "internalType": "bytes32",
          "name": "role",
          "type": "bytes32"
        },
        {
          "indexed": true,
          "internalType": "address",
          "name": "account",
          "type": "address"
        },
        {
          "indexed": true,
          "internalType": "address",
          "name": "sender",
          "type": "address"
        }
      ],
      "name": "RoleGranted",
      "type": "event"
    },
    {
      "anonymous": false,
      "inputs": [
        {
          "indexed": true,
          "internalType": "bytes32",
          "name": "role",
          "type": "bytes32"
        },
        {
          "indexed": true,
          "internalType": "address",
          "name": "account",
          "type": "address"
        },
        {
          "indexed": true,
          "internalType": "address",
          "name": "sender",
          "type": "address"
        }
      ],
      "name": "RoleRevoked",
      "type": "event"
    },
    {
      "anonymous": false,
      "inputs": [
        {
          "indexed": true,
          "internalType": "uint256",
          "name": "tokenId",
          "type": "uint256"
        },
        {
          "indexed": true,
          "internalType": "address",
          "name": "buyer",
          "type": "address"
        }
      ],
      "name": "TokenBought",
      "type": "event"
    },
    {
      "anonymous": false,
      "inputs": [
        {
          "indexed": true,
          "internalType": "uint256",
          "name": "tokenId",
          "type": "uint256"
        },
        {
          "indexed": false,
          "internalType": "bool",
          "name": "isCancellable",
          "type": "bool"
        }
      ],
      "name": "TokenCancellableUpdated",
      "type": "event"
    },
    {
      "anonymous": false,
      "inputs": [
        {
          "indexed": true,
          "internalType": "uint256",
          "name": "tokenId",
          "type": "uint256"
        }
      ],
      "name": "TokenExpired",
      "type": "event"
    },
    {
      "anonymous": false,
      "inputs": [
        {
          "indexed": true,
          "internalType": "uint256",
          "name": "tokenId",
          "type": "uint256"
        },
        {
          "indexed": true,
          "internalType": "address",
          "name": "reservedFor",
          "type": "address"
        },
        {
          "indexed": true,
          "internalType": "address",
          "name": "supplier",
          "type": "address"
        },
        {
          "indexed": false,
          "internalType": "uint256",
          "name": "expirationTimestamp",
          "type": "uint256"
        },
        {
          "indexed": false,
          "internalType": "uint256",
          "name": "price",
          "type": "uint256"
        },
        {
          "indexed": false,
          "internalType": "contract IERC20",
          "name": "paymentToken",
          "type": "address"
        },
        {
          "indexed": false,
          "internalType": "bool",
          "name": "isCancellable",
          "type": "bool"
        }
      ],
      "name": "TokenReserved",
      "type": "event"
    },
    {
      "anonymous": false,
      "inputs": [
        {
          "indexed": true,
          "internalType": "address",
          "name": "from",
          "type": "address"
        },
        {
          "indexed": true,
          "internalType": "address",
          "name": "to",
          "type": "address"
        },
        {
          "indexed": true,
          "internalType": "uint256",
          "name": "tokenId",
          "type": "uint256"
        }
      ],
      "name": "Transfer",
      "type": "event"
    },
    {
      "anonymous": false,
      "inputs": [
        {
          "indexed": true,
          "internalType": "address",
          "name": "implementation",
          "type": "address"
        }
      ],
      "name": "Upgraded",
      "type": "event"
    },
    {
      "inputs": [],
      "name": "DEFAULT_ADMIN_ROLE",
      "outputs": [
        {
          "internalType": "bytes32",
          "name": "",
          "type": "bytes32"
        }
      ],
      "stateMutability": "view",
      "type": "function"
    },
    {
      "inputs": [],
      "name": "MIN_EXPIRATION_ADMIN_ROLE",
      "outputs": [
        {
          "internalType": "bytes32",
          "name": "",
          "type": "bytes32"
        }
      ],
      "stateMutability": "view",
      "type": "function"
    },
    {
      "inputs": [],
      "name": "UPGRADER_ROLE",
      "outputs": [
        {
          "internalType": "bytes32",
          "name": "",
          "type": "bytes32"
        }
      ],
      "stateMutability": "view",
      "type": "function"
    },
    {
      "inputs": [],
      "name": "UPGRADE_INTERFACE_VERSION",
      "outputs": [
        {
          "internalType": "string",
          "name": "",
          "type": "string"
        }
      ],
      "stateMutability": "view",
      "type": "function"
    },
    {
      "inputs": [
        {
          "internalType": "uint256",
          "name": "tokenId",
          "type": "uint256"
        },
        {
          "internalType": "uint256",
          "name": "checkRefundAmount",
          "type": "uint256"
        }
      ],
      "name": "acceptCancellationProposal",
      "outputs": [],
      "stateMutability": "payable",
      "type": "function"
    },
    {
      "inputs": [
        {
          "internalType": "uint256",
          "name": "tokenId",
          "type": "uint256"
        },
        {
          "internalType": "uint256",
          "name": "checkRefundAmount",
          "type": "uint256"
        }
      ],
      "name": "acceptCounteredCancellationProposal",
      "outputs": [],
      "stateMutability": "nonpayable",
      "type": "function"
    },
    {
      "inputs": [
        {
          "internalType": "address",
          "name": "to",
          "type": "address"
        },
        {
          "internalType": "uint256",
          "name": "tokenId",
          "type": "uint256"
        }
      ],
      "name": "approve",
      "outputs": [],
      "stateMutability": "nonpayable",
      "type": "function"
    },
    {
      "inputs": [
        {
          "internalType": "address",
          "name": "owner",
          "type": "address"
        }
      ],
      "name": "balanceOf",
      "outputs": [
        {
          "internalType": "uint256",
          "name": "",
          "type": "uint256"
        }
      ],
      "stateMutability": "view",
      "type": "function"
    },
    {
      "inputs": [
        {
          "internalType": "uint256",
          "name": "tokenId",
          "type": "uint256"
        }
      ],
      "name": "buyReservedToken",
      "outputs": [],
      "stateMutability": "payable",
      "type": "function"
    },
    {
      "inputs": [
        {
          "internalType": "uint256",
          "name": "tokenId",
          "type": "uint256"
        }
      ],
      "name": "cancelCancellationProposal",
      "outputs": [],
      "stateMutability": "nonpayable",
      "type": "function"
    },
    {
      "inputs": [
        {
          "internalType": "uint256",
          "name": "tokenId",
          "type": "uint256"
        },
        {
          "internalType": "uint256",
          "name": "newRefundAmount",
          "type": "uint256"
        }
      ],
      "name": "counterCancellationProposal",
      "outputs": [],
      "stateMutability": "nonpayable",
      "type": "function"
    },
    {
      "inputs": [
        {
          "internalType": "uint256",
          "name": "tokenId",
          "type": "uint256"
        }
      ],
      "name": "getApproved",
      "outputs": [
        {
          "internalType": "address",
          "name": "",
          "type": "address"
        }
      ],
      "stateMutability": "view",
      "type": "function"
    },
    {
      "inputs": [
        {
          "internalType": "uint256",
          "name": "tokenId",
          "type": "uint256"
        }
      ],
      "name": "getBookingStatus",
      "outputs": [
        {
          "internalType": "enum BookingToken.BookingStatus",
          "name": "",
          "type": "uint8"
        }
      ],
      "stateMutability": "view",
      "type": "function"
    },
    {
      "inputs": [
        {
          "internalType": "uint256",
          "name": "tokenId",
          "type": "uint256"
        }
      ],
      "name": "getCancellationProposalRefundAmount",
      "outputs": [
        {
          "internalType": "uint256",
          "name": "refundAmount",
          "type": "uint256"
        }
      ],
      "stateMutability": "view",
      "type": "function"
    },
    {
      "inputs": [
        {
          "internalType": "uint256",
          "name": "tokenId",
          "type": "uint256"
        }
      ],
      "name": "getCancellationProposalStatus",
      "outputs": [
        {
          "internalType": "uint256",
          "name": "refundAmount",
          "type": "uint256"
        },
        {
          "internalType": "address",
          "name": "proposedBy",
          "type": "address"
        },
        {
          "internalType": "enum CancellationProposalStatus",
          "name": "status",
          "type": "uint8"
        },
        {
          "internalType": "enum CancellationRejectionReason",
          "name": "rejectionReason",
          "type": "uint8"
        }
      ],
      "stateMutability": "view",
      "type": "function"
    },
    {
      "inputs": [],
      "name": "getManagerAddress",
      "outputs": [
        {
          "internalType": "address",
          "name": "",
          "type": "address"
        }
      ],
      "stateMutability": "view",
      "type": "function"
    },
    {
      "inputs": [],
      "name": "getMinExpirationTimestampDiff",
      "outputs": [
        {
          "internalType": "uint256",
          "name": "",
          "type": "uint256"
        }
      ],
      "stateMutability": "view",
      "type": "function"
    },
    {
      "inputs": [
        {
          "internalType": "uint256",
          "name": "tokenId",
          "type": "uint256"
        }
      ],
      "name": "getReservationPaymentToken",
      "outputs": [
        {
          "internalType": "contract IERC20",
          "name": "paymentToken",
          "type": "address"
        }
      ],
      "stateMutability": "view",
      "type": "function"
    },
    {
      "inputs": [
        {
          "internalType": "uint256",
          "name": "tokenId",
          "type": "uint256"
        }
      ],
      "name": "getReservationPrice",
      "outputs": [
        {
          "internalType": "uint256",
          "name": "price",
          "type": "uint256"
        },
        {
          "internalType": "contract IERC20",
          "name": "paymentToken",
          "type": "address"
        }
      ],
      "stateMutability": "view",
      "type": "function"
    },
    {
      "inputs": [
        {
          "internalType": "bytes32",
          "name": "role",
          "type": "bytes32"
        }
      ],
      "name": "getRoleAdmin",
      "outputs": [
        {
          "internalType": "bytes32",
          "name": "",
          "type": "bytes32"
        }
      ],
      "stateMutability": "view",
      "type": "function"
    },
    {
      "inputs": [
        {
          "internalType": "bytes32",
          "name": "role",
          "type": "bytes32"
        },
        {
          "internalType": "address",
          "name": "account",
          "type": "address"
        }
      ],
      "name": "grantRole",
      "outputs": [],
      "stateMutability": "nonpayable",
      "type": "function"
    },
    {
      "inputs": [
        {
          "internalType": "bytes32",
          "name": "role",
          "type": "bytes32"
        },
        {
          "internalType": "address",
          "name": "account",
          "type": "address"
        }
      ],
      "name": "hasRole",
      "outputs": [
        {
          "internalType": "bool",
          "name": "",
          "type": "bool"
        }
      ],
      "stateMutability": "view",
      "type": "function"
    },
    {
      "inputs": [
        {
          "internalType": "address",
          "name": "manager",
          "type": "address"
        },
        {
          "internalType": "address",
          "name": "defaultAdmin",
          "type": "address"
        },
        {
          "internalType": "address",
          "name": "upgrader",
          "type": "address"
        }
      ],
      "name": "initialize",
      "outputs": [],
      "stateMutability": "nonpayable",
      "type": "function"
    },
    {
      "inputs": [
        {
          "internalType": "uint256",
          "name": "tokenId",
          "type": "uint256"
        },
        {
          "internalType": "uint256",
          "name": "refundAmount",
          "type": "uint256"
        }
      ],
      "name": "initiateCancellationProposal",
      "outputs": [],
      "stateMutability": "nonpayable",
      "type": "function"
    },
    {
      "inputs": [
        {
          "internalType": "address",
          "name": "owner",
          "type": "address"
        },
        {
          "internalType": "address",
          "name": "operator",
          "type": "address"
        }
      ],
      "name": "isApprovedForAll",
      "outputs": [
        {
          "internalType": "bool",
          "name": "",
          "type": "bool"
        }
      ],
      "stateMutability": "view",
      "type": "function"
    },
    {
      "inputs": [
        {
          "internalType": "address",
          "name": "account",
          "type": "address"
        }
      ],
      "name": "isCMAccount",
      "outputs": [
        {
          "internalType": "bool",
          "name": "",
          "type": "bool"
        }
      ],
      "stateMutability": "view",
      "type": "function"
    },
    {
      "inputs": [
        {
          "internalType": "uint256",
          "name": "tokenId",
          "type": "uint256"
        }
      ],
      "name": "isCancellable",
      "outputs": [
        {
          "internalType": "bool",
          "name": "",
          "type": "bool"
        }
      ],
      "stateMutability": "view",
      "type": "function"
    },
    {
      "inputs": [],
      "name": "name",
      "outputs": [
        {
          "internalType": "string",
          "name": "",
          "type": "string"
        }
      ],
      "stateMutability": "view",
      "type": "function"
    },
    {
      "inputs": [
        {
          "internalType": "uint256",
          "name": "tokenId",
          "type": "uint256"
        }
      ],
      "name": "ownerOf",
      "outputs": [
        {
          "internalType": "address",
          "name": "",
          "type": "address"
        }
      ],
      "stateMutability": "view",
      "type": "function"
    },
    {
      "inputs": [],
      "name": "proxiableUUID",
      "outputs": [
        {
          "internalType": "bytes32",
          "name": "",
          "type": "bytes32"
        }
      ],
      "stateMutability": "view",
      "type": "function"
    },
    {
      "inputs": [
        {
          "internalType": "uint256",
          "name": "tokenId",
          "type": "uint256"
        }
      ],
      "name": "recordExpiration",
      "outputs": [],
      "stateMutability": "nonpayable",
      "type": "function"
    },
    {
      "inputs": [
        {
          "internalType": "string",
          "name": "newName",
          "type": "string"
        },
        {
          "internalType": "string",
          "name": "newSymbol",
          "type": "string"
        }
      ],
      "name": "reinitializeV2",
      "outputs": [],
      "stateMutability": "nonpayable",
      "type": "function"
    },
    {
      "inputs": [
        {
          "internalType": "uint256",
          "name": "tokenId",
          "type": "uint256"
        },
        {
          "internalType": "enum CancellationRejectionReason",
          "name": "reason",
          "type": "uint8"
        }
      ],
      "name": "rejectCancellationProposal",
      "outputs": [],
      "stateMutability": "nonpayable",
      "type": "function"
    },
    {
      "inputs": [
        {
          "internalType": "bytes32",
          "name": "role",
          "type": "bytes32"
        },
        {
          "internalType": "address",
          "name": "callerConfirmation",
          "type": "address"
        }
      ],
      "name": "renounceRole",
      "outputs": [],
      "stateMutability": "nonpayable",
      "type": "function"
    },
    {
      "inputs": [
        {
          "internalType": "bytes32",
          "name": "role",
          "type": "bytes32"
        },
        {
          "internalType": "address",
          "name": "account",
          "type": "address"
        }
      ],
      "name": "revokeRole",
      "outputs": [],
      "stateMutability": "nonpayable",
      "type": "function"
    },
    {
      "inputs": [
        {
          "internalType": "address",
          "name": "reservedFor",
          "type": "address"
        },
        {
          "internalType": "string",
          "name": "uri",
          "type": "string"
        },
        {
          "internalType": "uint256",
          "name": "expirationTimestamp",
          "type": "uint256"
        },
        {
          "internalType": "uint256",
          "name": "price",
          "type": "uint256"
        },
        {
          "internalType": "contract IERC20",
          "name": "paymentToken",
          "type": "address"
        }
      ],
      "name": "safeMintWithReservation",
      "outputs": [],
      "stateMutability": "nonpayable",
      "type": "function"
    },
    {
      "inputs": [
        {
          "internalType": "address",
          "name": "reservedFor",
          "type": "address"
        },
        {
          "internalType": "string",
          "name": "uri",
          "type": "string"
        },
        {
          "internalType": "uint256",
          "name": "expirationTimestamp",
          "type": "uint256"
        },
        {
          "internalType": "uint256",
          "name": "price",
          "type": "uint256"
        },
        {
          "internalType": "contract IERC20",
          "name": "paymentToken",
          "type": "address"
        },
        {
          "internalType": "bool",
          "name": "_isCancellable",
          "type": "bool"
        }
      ],
      "name": "safeMintWithReservation",
      "outputs": [],
      "stateMutability": "nonpayable",
      "type": "function"
    },
    {
      "inputs": [
        {
          "internalType": "address",
          "name": "from",
          "type": "address"
        },
        {
          "internalType": "address",
          "name": "to",
          "type": "address"
        },
        {
          "internalType": "uint256",
          "name": "tokenId",
          "type": "uint256"
        }
      ],
      "name": "safeTransferFrom",
      "outputs": [],
      "stateMutability": "nonpayable",
      "type": "function"
    },
    {
      "inputs": [
        {
          "internalType": "address",
          "name": "from",
          "type": "address"
        },
        {
          "internalType": "address",
          "name": "to",
          "type": "address"
        },
        {
          "internalType": "uint256",
          "name": "tokenId",
          "type": "uint256"
        },
        {
          "internalType": "bytes",
          "name": "data",
          "type": "bytes"
        }
      ],
      "name": "safeTransferFrom",
      "outputs": [],
      "stateMutability": "nonpayable",
      "type": "function"
    },
    {
      "inputs": [
        {
          "internalType": "address",
          "name": "operator",
          "type": "address"
        },
        {
          "internalType": "bool",
          "name": "approved",
          "type": "bool"
        }
      ],
      "name": "setApprovalForAll",
      "outputs": [],
      "stateMutability": "nonpayable",
      "type": "function"
    },
    {
      "inputs": [
        {
          "internalType": "address",
          "name": "manager",
          "type": "address"
        }
      ],
      "name": "setManagerAddress",
      "outputs": [],
      "stateMutability": "nonpayable",
      "type": "function"
    },
    {
      "inputs": [
        {
          "internalType": "uint256",
          "name": "minExpirationTimestampDiff",
          "type": "uint256"
        }
      ],
      "name": "setMinExpirationTimestampDiff",
      "outputs": [],
      "stateMutability": "nonpayable",
      "type": "function"
    },
    {
      "inputs": [
        {
          "internalType": "bytes4",
          "name": "interfaceId",
          "type": "bytes4"
        }
      ],
      "name": "supportsInterface",
      "outputs": [
        {
          "internalType": "bool",
          "name": "",
          "type": "bool"
        }
      ],
      "stateMutability": "view",
      "type": "function"
    },
    {
      "inputs": [],
      "name": "symbol",
      "outputs": [
        {
          "internalType": "string",
          "name": "",
          "type": "string"
        }
      ],
      "stateMutability": "view",
      "type": "function"
    },
    {
      "inputs": [
        {
          "internalType": "uint256",
          "name": "index",
          "type": "uint256"
        }
      ],
      "name": "tokenByIndex",
      "outputs": [
        {
          "internalType": "uint256",
          "name": "",
          "type": "uint256"
        }
      ],
      "stateMutability": "view",
      "type": "function"
    },
    {
      "inputs": [
        {
          "internalType": "address",
          "name": "owner",
          "type": "address"
        },
        {
          "internalType": "uint256",
          "name": "index",
          "type": "uint256"
        }
      ],
      "name": "tokenOfOwnerByIndex",
      "outputs": [
        {
          "internalType": "uint256",
          "name": "",
          "type": "uint256"
        }
      ],
      "stateMutability": "view",
      "type": "function"
    },
    {
      "inputs": [
        {
          "internalType": "uint256",
          "name": "tokenId",
          "type": "uint256"
        }
      ],
      "name": "tokenURI",
      "outputs": [
        {
          "internalType": "string",
          "name": "",
          "type": "string"
        }
      ],
      "stateMutability": "view",
      "type": "function"
    },
    {
      "inputs": [],
      "name": "totalSupply",
      "outputs": [
        {
          "internalType": "uint256",
          "name": "",
          "type": "uint256"
        }
      ],
      "stateMutability": "view",
      "type": "function"
    },
    {
      "inputs": [
        {
          "internalType": "address",
          "name": "from",
          "type": "address"
        },
        {
          "internalType": "address",
          "name": "to",
          "type": "address"
        },
        {
          "internalType": "uint256",
          "name": "tokenId",
          "type": "uint256"
        }
      ],
      "name": "transferFrom",
      "outputs": [],
      "stateMutability": "nonpayable",
      "type": "function"
    },
    {
      "inputs": [
        {
          "internalType": "address",
          "name": "newImplementation",
          "type": "address"
        },
        {
          "internalType": "bytes",
          "name": "data",
          "type": "bytes"
        }
      ],
      "name": "upgradeToAndCall",
      "outputs": [],
      "stateMutability": "payable",
      "type": "function"
    }
  ],
  "bytecode": "0x60a06040523060805234801561001457600080fd5b506080516145b661003e6000396000818161261f01528181612648015261279201526145b66000f3fe6080604052600436106102385760003560e01c80624fdd3c1461023d57806301ffc9a71461027457806306fdde03146102a4578063081812fc146102c6578063095ea7b3146102f357806309b35e00146103155780630e75c1a81461033557806312b357b51461035857806318160ddd1461037857806323b872dd1461038d578063248a9ca3146103ad5780632d3a6329146103cd5780632e0258a0146103ed5780632edf5e2c1461040d5780632f2ff15d1461042f5780632f745c591461044f57806336568abe1461046f5780633c15b31c1461048f57806341431908146104bc57806342842e0e146104dc578063454d0db9146104fc5780634f1ef2861461052c5780634f6ccce71461053f578063516a82b81461055f57806352d1902d1461057f5780635d4badb2146105945780636088f4fd146105b45780636352211e146105d457806370a08231146105f45780638c9c3c121461061457806391d148541461063457806391da124c1461065457806395d89b411461067457806396591edd14610689578063a101c67e1461069c578063a217fddf146106bc578063a22cb465146106d1578063ad3cb1cc146106f1578063b191d09214610722578063b88d4fde14610742578063c0c53b8b14610762578063c14239f114610782578063c162d7da146107a2578063c87b56dd146107b7578063d547741f146107d7578063de62fe4d146107f7578063e5a6725c1461080a578063e985e9c51461082a578063f024df201461084a578063f72c0d8b1461086a575b600080fd5b34801561024957600080fd5b5061025d610258366004613b7d565b61088c565b60405161026b929190613b96565b60405180910390f35b34801561028057600080fd5b5061029461028f366004613bc3565b6108c9565b604051901515815260200161026b565b3480156102b057600080fd5b506102b96108da565b60405161026b9190613c30565b3480156102d257600080fd5b506102e66102e1366004613b7d565b61097b565b60405161026b9190613c43565b3480156102ff57600080fd5b5061031361030e366004613c6c565b610990565b005b34801561032157600080fd5b50610313610330366004613c98565b61099f565b34801561034157600080fd5b5061034a610bbb565b60405190815260200161026b565b34801561036457600080fd5b50610294610373366004613cba565b610bd0565b34801561038457600080fd5b5061034a610c46565b34801561039957600080fd5b506103136103a8366004613cd7565b610c51565b3480156103b957600080fd5b5061034a6103c8366004613b7d565b610c6a565b3480156103d957600080fd5b506102946103e8366004613b7d565b610c8a565b3480156103f957600080fd5b50610313610408366004613c98565b610cab565b34801561041957600080fd5b5061034a60008051602061454183398151915281565b34801561043b57600080fd5b5061031361044a366004613d18565b610e1e565b34801561045b57600080fd5b5061034a61046a366004613c6c565b610e40565b34801561047b57600080fd5b5061031361048a366004613d18565b610ea2565b34801561049b57600080fd5b506104af6104aa366004613b7d565b610ed5565b60405161026b9190613d6e565b3480156104c857600080fd5b506103136104d7366004613cba565b610ef8565b3480156104e857600080fd5b506103136104f7366004613cd7565b610f30565b34801561050857600080fd5b5061051c610517366004613b7d565b610f4b565b60405161026b9493929190613d95565b61031361053a366004613e69565b611022565b34801561054b57600080fd5b5061034a61055a366004613b7d565b61103d565b34801561056b57600080fd5b5061031361057a366004613b7d565b61109e565b34801561058b57600080fd5b5061034a6110cb565b3480156105a057600080fd5b506103136105af366004613eb8565b6110e8565b3480156105c057600080fd5b506103136105cf366004613b7d565b6110fe565b3480156105e057600080fd5b506102e66105ef366004613b7d565b61120c565b34801561060057600080fd5b5061034a61060f366004613cba565b611217565b34801561062057600080fd5b5061031361062f366004613f3d565b61126f565b34801561064057600080fd5b5061029461064f366004613d18565b6113a9565b34801561066057600080fd5b5061031361066f366004613fc5565b6113df565b34801561068057600080fd5b506102b961149c565b610313610697366004613b7d565b6114b9565b3480156106a857600080fd5b5061034a6106b7366004613b7d565b611779565b3480156106c857600080fd5b5061034a600081565b3480156106dd57600080fd5b506103136106ec36600461401e565b611794565b3480156106fd57600080fd5b506102b9604051806040016040528060058152602001640352e302e360dc1b81525081565b34801561072e57600080fd5b506102e661073d366004613b7d565b61179f565b34801561074e57600080fd5b5061031361075d36600461404c565b6117c9565b34801561076e57600080fd5b5061031361077d3660046140b7565b6117de565b34801561078e57600080fd5b5061031361079d366004614102565b61197e565b3480156107ae57600080fd5b506102e6611bbc565b3480156107c357600080fd5b506102b96107d2366004613b7d565b611bd7565b3480156107e357600080fd5b506103136107f2366004613d18565b611be2565b610313610805366004613c98565b611bfe565b34801561081657600080fd5b50610313610825366004613b7d565b612043565b34801561083657600080fd5b5061029461084536600461412b565b61214b565b34801561085657600080fd5b50610313610865366004613c98565b61218a565b34801561087657600080fd5b5061034a60008051602061450183398151915281565b60008060006108996122a6565b6000948552600390810160205260409094209384015460049094015493946001600160a01b039094169392505050565b60006108d4826122ca565b92915050565b606060006108e66122ef565b90508060000180546108f790614159565b80601f016020809104026020016040519081016040528092919081815260200182805461092390614159565b80156109705780601f1061094557610100808354040283529160200191610970565b820191906000526020600020905b81548152906001019060200180831161095357829003601f168201915b505050505091505090565b600061098682612313565b506108d48261234b565b61099b828233612374565b5050565b60006109a96122a6565b905060036000848152600480840160205260409091205460ff16908111156109d3576109d3613d48565b14610a13576000838152600480830160205260409182902054915163e4e3b53b60e01b8152610a0a92869260ff9091169101614193565b60405180910390fd5b6000610a1e84612313565b60008581526003840160205260409020600101549091506001600160a01b039081169082163314801590610a5b5750336001600160a01b03821614155b15610a7b57336040516343d11b6760e11b8152600401610a0a9190613c43565b6000610a85612381565b905060008087815260208390526040902060010154600160a01b900460ff166004811115610ab557610ab5613d48565b14610ad6576040516333cba99b60e21b815260048101879052602401610a0a565b6040805160808101825286815233602082015290810160018152602001600090526000878152602083815260409182902083518155908301516001820180546001600160a01b039092166001600160a01b031983168117825593850151929390916001600160a81b03191617600160a01b836004811115610b5957610b59613d48565b0217905550606082015160018201805460ff60a81b1916600160a81b836009811115610b8757610b87613d48565b02179055505060405186815233915087906000805160206145618339815191529060200160405180910390a3505050505050565b600080610bc66122a6565b6002015492915050565b6000610bda611bbc565b6001600160a01b03166312b357b5836040518263ffffffff1660e01b8152600401610c059190613c43565b602060405180830381865afa158015610c22573d6000803e3d6000fd5b505050506040513d601f19601f820116820180604052508101906108d491906141b0565b600080610bc66123a5565b610c5a816123c9565b610c6583838361245c565b505050565b600080610c756124cd565b60009384526020525050604090206001015490565b6000610c94612381565b600092835260010160205250604090205460ff1690565b6000610cb5612381565b6000848152602082905260409020909150600180820154600160a01b900460ff166004811115610ce757610ce7613d48565b14158015610d15575060026001820154600160a01b900460ff166004811115610d1257610d12613d48565b14155b15610d365760405163a45a187b60e01b815260048101859052602401610a0a565b6000610d406122a6565b60008681526003820160205260408120600101549192506001600160a01b0390911690610d6c87612313565b9050336001600160a01b038316141580610d96575060018401546001600160a01b03828116911614155b15610db8578633604051639259da7360e01b8152600401610a0a929190613b96565b60008781526020868152604091829020888155600101805461ffff60a01b1916600360a01b1790559051878152339189917f7b6cf4b0eeba58e59d225cabf115102b6f1f5af0515f5f6bb6ec9709bc854d0991015b60405180910390a350505050505050565b610e2782610c6a565b610e30816124f1565b610e3a83836124fb565b50505050565b600080610e4b6123a5565b9050610e5684611217565b8310610e7957838360405163295f44f760e21b8152600401610a0a9291906141cd565b6001600160a01b0384166000908152602091825260408082208583529092522054905092915050565b6001600160a01b0381163314610ecb5760405163334bd91960e11b815260040160405180910390fd5b610c65828261259c565b600080610ee06122a6565b60009384526004016020525050604090205460ff1690565b6000610f03816124f1565b6000610f0d6122a6565b80546001600160a01b0319166001600160a01b0394909416939093179092555050565b610c65838383604051806020016040528060008152506117c9565b6000806000806000610f5b612381565b60008781526020828152604080832081516080810183528154815260018201546001600160a01b038116948201949094529495509293929190830190600160a01b900460ff166004811115610fb257610fb2613d48565b6004811115610fc357610fc3613d48565b81526020016001820160159054906101000a900460ff166009811115610feb57610feb613d48565b6009811115610ffc57610ffc613d48565b905250805160208201516040830151606090930151919a90995091975095509350505050565b61102a612614565b611033826126bb565b61099b82826126d3565b6000806110486123a5565b9050611052610c46565b83106110765760008360405163295f44f760e21b8152600401610a0a9291906141cd565b80600201838154811061108b5761108b6141e6565b9060005260206000200154915050919050565b6000805160206145418339815191526110b6816124f1565b60006110c06122a6565b600201929092555050565b60006110d5612787565b5060008051602061452183398151915290565b6110f78585858585600061126f565b5050505050565b6000611108612381565b60008381526020829052604090206001810154919250906001600160a01b0316331461114b57823360405163a97065df60e01b8152600401610a0a929190613b96565b600180820154600160a01b900460ff16600481111561116c5761116c613d48565b1415801561119a575060036001820154600160a01b900460ff16600481111561119757611197613d48565b14155b156111bb5760405163a45a187b60e01b815260048101849052602401610a0a565b60008381526020839052604080822082815560010180546001600160b01b031916905551339185917f76733a4d6a5b40818eb25829d380052f1de6913f3b4b77517363fc38bf23b8979190a3505050565b60006108d482612313565b6000806112226122ef565b90506001600160a01b03831661124e5760006040516322718ad960e21b8152600401610a0a9190613c43565b6001600160a01b039092166000908152600390920160205250604090205490565b33611279816127d0565b611282876127d0565b600061128c6122a6565b600281015490915061129e8142614212565b87116112c1578681604051630999f7d760e41b8152600401610a0a929190614225565b600182018054600091826112d483614233565b9190505590506112e433826127f8565b6112ee818a612812565b6112fc818b338b8b8b612870565b60008181526004840160205260409020805460ff1916600117905584611320612381565b60008381526001919091016020908152604091829020805460ff19169315159390931790925580518a81529182018990526001600160a01b0388811683830152871515606084015290513392918d169184917f458ab0460080169903d98b67072b89a34af76e5da8a99d1046a66de159966086916080908290030190a450505050505050505050565b6000806113b46124cd565b6000948552602090815260408086206001600160a01b03959095168652939052505090205460ff1690565b600260006113eb612911565b8054909150600160401b900460ff1680611412575080546001600160401b03808416911610155b156114305760405163f92ee8a960e01b815260040160405180910390fd5b80546001600160481b0319166001600160401b03831617600160401b178155600061145a816124f1565b6114648585612935565b50805460ff60401b191681556040516000805160206144e18339815191529061148e90849061424c565b60405180910390a150505050565b606060006114a86122ef565b90508060010180546108f790614159565b6114c1612947565b336114cb816127d0565b60006114d56122a6565b600084815260038083016020908152604092839020835160a08101855281546001600160a01b0390811680835260018401548216948301949094526002830154958201959095529281015460608401526004015490921660808201529192503314611558578051604051632663a9c560e11b8152610a0a91903390600401614260565b80604001514211156115855783816040015160405163293d73b760e11b8152600401610a0a929190614225565b60006115908561120c565b905081602001516001600160a01b0316816001600160a01b0316146115cf57602082015160405163103d145960e31b8152610a0a918791600401613b96565b6115de8260200151338761297d565b60808201516001600160a01b0316158015906115fe575060008260600151115b156116e2576080820151604051636eb1769f60e11b81526000916001600160a01b03169063dd62ed3e906116389033903090600401614260565b602060405180830381865afa158015611655573d6000803e3d6000fd5b505050506040513d601f19601f82011682018060405250810190611679919061427a565b905082606001518110156116b05733836080015184606001518360405163246fb68960e21b8152600401610a0a9493929190614293565b6116dc338460200151856060015186608001516001600160a01b0316612a19909392919063ffffffff16565b50611725565b8160600151341461170d576060820151604051630145611560e21b8152610a0a913491600401614225565b6020820151611725906001600160a01b031634612a73565b6000858152600484016020526040808220805460ff1916600317905551339187917fa751fb02c318279a22135a408663ae08ea45eafa950a4351c14ae543cbb950409190a350505050611776612b0a565b50565b6000611783612381565b600092835260205250604090205490565b61099b338383612b1b565b60006117a96122a6565b60009283526003016020525060409020600401546001600160a01b031690565b6117d2826123c9565b610e3a84848484612bc0565b60006117e8612911565b805490915060ff600160401b82041615906001600160401b031660008115801561180f5750825b90506000826001600160401b0316600114801561182b5750303b155b905081158015611839575080155b156118575760405163f92ee8a960e01b815260040160405180910390fd5b84546001600160401b0319166001178555831561188057845460ff60401b1916600160401b1785555b6118ca6040518060400160405280600c81526020016b2137b7b5b4b733aa37b5b2b760a11b815250604051806040016040528060048152602001630545249560e41b815250612935565b6118d2612bd7565b6118da612bd7565b6118e2612bd7565b6118ea612bd7565b6118f56000886124fb565b5061190e600080516020614501833981519152876124fb565b5060006119196122a6565b80546001600160a01b0319166001600160a01b038b16178155603c60029091015550831561197457845460ff60401b191685556040516000805160206144e18339815191529061196b9060019061424c565b60405180910390a15b5050505050505050565b6000611988612381565b60008481526020828152604080832081516080810183528154815260018201546001600160a01b038116948201949094529495509293929190830190600160a01b900460ff1660048111156119df576119df613d48565b60048111156119f0576119f0613d48565b81526020016001820160159054906101000a900460ff166009811115611a1857611a18613d48565b6009811115611a2957611a29613d48565b9052509050600181604001516004811115611a4657611a46613d48565b14611a675760405163a45a187b60e01b815260048101859052602401610a0a565b6000611a716122a6565b6000868152600380830160209081526040808420815160a08101835281546001600160a01b0390811682526001830154811694820194909452600282015492810192909252928301546060820152600490920154166080820152919250611ad787612313565b905081602001516001600160a01b0316336001600160a01b0316141580611b145750806001600160a01b031684602001516001600160a01b031614155b15611b3657863360405163765a32d760e11b8152600401610a0a929190613b96565b60008781526020869052604090206001018054600160a11b60ff60a01b1982168117835588929161ffff60a01b191617600160a81b836009811115611b7d57611b7d613d48565b0217905550336001600160a01b0316877f378d7694f95db72d4f3dadbeef7aa7254d740e8f9a8382a0895848b87677738b88604051610e0d91906142bc565b600080611bc76122a6565b546001600160a01b031692915050565b60606108d482612bdf565b611beb82610c6a565b611bf4816124f1565b610e3a838361259c565b611c06612947565b33611c10816127d0565b6000611c1a612381565b60008581526020828152604080832081516080810183528154815260018201546001600160a01b038116948201949094529495509293929190830190600160a01b900460ff166004811115611c7157611c71613d48565b6004811115611c8257611c82613d48565b81526020016001820160159054906101000a900460ff166009811115611caa57611caa613d48565b6009811115611cbb57611cbb613d48565b90525080519091508414611ce6578051604051630f81919b60e21b8152610a0a918691600401614225565b600181604001516004811115611cfe57611cfe613d48565b14611d1f5760405163a45a187b60e01b815260048101869052602401610a0a565b6000611d296122a6565b6000878152600380830160209081526040808420815160a08101835281546001600160a01b0390811682526001830154811694820194909452600282015492810192909252928301546060820152600490920154166080820152919250611d8f88612313565b905081602001516001600160a01b031684602001516001600160a01b0316148015611dc25750336001600160a01b038216145b15611e35576000888152602086815260409182902060010180546001600160a01b0319166001600160a01b03851690811790915586519251928352918a917f8262f1b4e879bd89552bbc702dc20d0b0552f0a5fe8292e9bf4a3700492e9d98910160405180910390a3505050505061203a565b81602001516001600160a01b0316336001600160a01b0316141580611e705750806001600160a01b031684602001516001600160a01b031614155b15611e9257873360405163e363bce560e01b8152600401610a0a929190613b96565b6000888152600484810160209081526040808420805460ff19169093179092558790529020600101805460ff60a01b1916600160a21b179055611ed488612cff565b8351604051908152339089907fdf11499efc7ab0feb9befa7a615c79d3df759d9930b41f31c1f0723cfd9b10f99060200160405180910390a360808201516001600160a01b031615801590611f295750835115155b15611ffc576080820151604051636eb1769f60e11b81526000916001600160a01b03169063dd62ed3e90611f639033903090600401614260565b602060405180830381865afa158015611f80573d6000803e3d6000fd5b505050506040513d601f19601f82011682018060405250810190611fa4919061427a565b8551909150811015611fd6576080830151855160405163246fb68960e21b8152610a0a92339290918590600401614293565b84516080840151611ff6916001600160a01b039091169033908590612a19565b50612034565b83513414612021578351604051630f81919b60e21b8152610a0a913491600401614225565b6120346001600160a01b03821634612a73565b50505050505b5061099b612b0a565b600061204d6122a6565b6000838152600382016020908152604080832060048501909252909120549192509060ff16600281600481111561208657612086613d48565b14806120a3575060038160048111156120a1576120a1613d48565b145b806120bf575060048160048111156120bd576120bd613d48565b145b156120e157838160405163e4e3b53b60e01b8152600401610a0a929190614193565b8160020154421115612122576000848152600484016020526040808220805460ff191660021790555185916000805160206144c183398151915291a2610e3a565b815460405163d4cde2af60e01b8152610a0a9186916001600160a01b0390911690600401613b96565b6000806121566122ef565b6001600160a01b03948516600090815260059190910160209081526040808320959096168252939093525050205460ff1690565b600061219583612313565b9050336001600160a01b038216146121c457823360405163d699eeab60e01b8152600401610a0a929190613b96565b60006121ce612381565b60008581526020829052604090208054919250908414612205578054604051630f81919b60e21b8152610a0a918691600401614225565b60036001820154600160a01b900460ff16600481111561222757612227613d48565b1461224857604051632070575960e01b815260048101869052602401610a0a565b6000858152602083815260409182902060019081018054600160a01b60ff60a01b19909116179055830154835492519283526001600160a01b0316918791600080516020614561833981519152910160405180910390a35050505050565b7f9db9d405bf15683ce835607b1f0b423dc1484d44bb9d5af64a483fa4afd8290090565b60006001600160e01b03198216637965db0b60e01b14806108d457506108d482612d3a565b7f80bb2b638cc20bc4d0a60d66940f3ab4a00c1d7b313497ca82fb0b4ab007930090565b60008061231f83612d5f565b90506001600160a01b0381166108d457604051637e27328960e01b815260048101849052602401610a0a565b6000806123566122ef565b6000938452600401602052505060409020546001600160a01b031690565b610c658383836001612d88565b7f56ee42015b616c256a09657decaf7aa5d877decbe489a4b4b22f8bb47660050090565b7f645e039705490088daad89bae25049a34f4a9072d398537b1ab2425f24cbed0090565b6123d281612e92565b60006123dc612381565b600083815260208290526040902090915060026001820154600160a01b900460ff16600481111561240f5761240f613d48565b0361241957505050565b60006001820154600160a01b900460ff16600481111561243b5761243b613d48565b14610c65576040516333cba99b60e21b815260048101849052602401610a0a565b6001600160a01b038216612486576000604051633250574960e11b8152600401610a0a9190613c43565b6000612493838333612f9f565b9050836001600160a01b0316816001600160a01b031614610e3a578382826040516364283d7b60e01b8152600401610a0a939291906142ca565b7f02dd7bc7dec4dceedda775e58dd541e08a116c6c53815c0bd028192f7b62680090565b6117768133612fb6565b6000806125066124cd565b905061251284846113a9565b612592576000848152602082815260408083206001600160a01b03871684529091529020805460ff191660011790556125483390565b6001600160a01b0316836001600160a01b0316857f2f8788117e7eff1d82e926ec794901d17c78024a50270940304540a733656f0d60405160405180910390a460019150506108d4565b60009150506108d4565b6000806125a76124cd565b90506125b384846113a9565b15612592576000848152602082815260408083206001600160a01b0387168085529252808320805460ff1916905551339287917ff6391f5c32d9c69d2a47ea670b442974b53935d1edc7fd64eb21e047a839171b9190a460019150506108d4565b306001600160a01b037f000000000000000000000000000000000000000000000000000000000000000016148061269b57507f00000000000000000000000000000000000000000000000000000000000000006001600160a01b031661268f600080516020614521833981519152546001600160a01b031690565b6001600160a01b031614155b156126b95760405163703e46dd60e11b815260040160405180910390fd5b565b60008051602061450183398151915261099b816124f1565b816001600160a01b03166352d1902d6040518163ffffffff1660e01b8152600401602060405180830381865afa92505050801561272d575060408051601f3d908101601f1916820190925261272a9181019061427a565b60015b61274c5781604051634c9c8ce360e01b8152600401610a0a9190613c43565b600080516020614521833981519152811461277d57604051632a87526960e21b815260048101829052602401610a0a565b610c658383612fe1565b306001600160a01b037f000000000000000000000000000000000000000000000000000000000000000016146126b95760405163703e46dd60e11b815260040160405180910390fd5b6127d981610bd0565b6117765780604051638014575360e01b8152600401610a0a9190613c43565b61099b828260405180602001604052806000815250613037565b600061281c61304e565b6000848152602082905260409020909150612837838261433d565b506040518381527ff8e1a15aba9398e019f0b49df1a4fde98ee17ae345cb5f6b5e2c27f5033e8ce79060200160405180910390a1505050565b600061287a6122a6565b6040805160a0810182526001600160a01b0398891681529688166020808901918252888301978852606089019687529489166080890190815260009a8b5260039384019095529820955186546001600160a01b031990811691891691909117875597516001870180548a16918916919091179055935160028601555090519183019190915551600490910180549093169116179055565b7ff0c57e16840df040f15088dc2f81fe391c3923bec73e23a9662efc9c229c6a0090565b61293d613072565b61099b8282613097565b60006129516130c5565b80549091506001190161297757604051633ee5aeb560e01b815260040160405180910390fd5b60029055565b6001600160a01b0382166129a7576000604051633250574960e11b8152600401610a0a9190613c43565b60006129b583836000612f9f565b90506001600160a01b0381166129e157604051637e27328960e01b815260048101839052602401610a0a565b836001600160a01b0316816001600160a01b031614610e3a578382826040516364283d7b60e01b8152600401610a0a939291906142ca565b604080516001600160a01b0385811660248301528416604482015260648082018490528251808303909101815260849091019091526020810180516001600160e01b03166323b872dd60e01b179052610e3a9085906130e9565b80471015612a96573060405163cd78605960e01b8152600401610a0a9190613c43565b6000826001600160a01b03168260405160006040518083038185875af1925050503d8060008114612ae3576040519150601f19603f3d011682016040523d82523d6000602084013e612ae8565b606091505b5050905080610c6557604051630a12f52160e11b815260040160405180910390fd5b6000612b146130c5565b6001905550565b6000612b256122ef565b90506001600160a01b038316612b505782604051630b61174360e31b8152600401610a0a9190613c43565b6001600160a01b038481166000818152600584016020908152604080832094881680845294825291829020805460ff191687151590811790915591519182527f17307eab39ab6107e8899845ad3d59bd9653f200f220920489ca2b5937696c31910160405180910390a350505050565b612bcb848484610c51565b610e3a84848484613143565b6126b9613072565b60606000612beb61304e565b9050612bf683612313565b5060008381526020829052604081208054612c1090614159565b80601f0160208091040260200160405190810160405280929190818152602001828054612c3c90614159565b8015612c895780601f10612c5e57610100808354040283529160200191612c89565b820191906000526020600020905b815481529060010190602001808311612c6c57829003601f168201915b505050505090506000612ca760408051602081019091526000815290565b90508051600003612cba57509392505050565b815115612ced578082604051602001612cd49291906143fc565b6040516020818303038152906040529350505050919050565b612cf685613253565b95945050505050565b6000612d0e6000836000612f9f565b90506001600160a01b03811661099b57604051637e27328960e01b815260048101839052602401610a0a565b60006001600160e01b03198216632483248360e11b14806108d457506108d4826132c7565b600080612d6a6122ef565b6000938452600201602052505060409020546001600160a01b031690565b6000612d926122ef565b90508180612da857506001600160a01b03831615155b15612e61576000612db885612313565b90506001600160a01b03841615801590612de45750836001600160a01b0316816001600160a01b031614155b8015612df75750612df5818561214b565b155b15612e17578360405163a9fbf51f60e01b8152600401610a0a9190613c43565b8215612e5f5784866001600160a01b0316826001600160a01b03167f8c5be1e5ebec7d5bd14f71427d1e84f3dd0314c0f7b2291e5b200ac8c7c3b92560405160405180910390a45b505b600093845260040160205250506040902080546001600160a01b0319166001600160a01b0392909216919091179055565b6000612e9c6122a6565b600083815260048201602052604090205490915060ff166003816004811115612ec757612ec7613d48565b1480612ee457506002816004811115612ee257612ee2613d48565b145b15612eee57505050565b6004816004811115612f0257612f02613d48565b03612f2457828160405163e4e3b53b60e01b8152600401610a0a929190614193565b600083815260038301602052604090206002810154421115612f76576000848152600484016020526040808220805460ff191660021790555185916000805160206144c183398151915291a250505050565b805460405163d4cde2af60e01b8152610a0a9186916001600160a01b0390911690600401613b96565b6000612fac8484846132ec565b90505b9392505050565b612fc082826113a9565b61099b57808260405163e2517d3f60e01b8152600401610a0a9291906141cd565b612fea8261337a565b6040516001600160a01b038316907fbc7cd75a20ee27fd9adebab32041f755214dbc6bffa90cc0225b39da2e5c2d3b90600090a280511561302f57610c6582826133d6565b61099b613443565b6130418383613462565b610c656000848484613143565b7f0542a41881ee128a365a727b282c86fa859579490b9bb45aab8503648c8e790090565b61307a6134c7565b6126b957604051631afcd79f60e31b815260040160405180910390fd5b61309f613072565b60006130a96122ef565b9050806130b6848261433d565b5060018101610e3a838261433d565b7f9b779b17422d0df92223018b32b4d1fa46e071723d6817e2486d003becc55f0090565b60006130fe6001600160a01b038416836134e1565b9050805160001415801561312357508080602001905181019061312191906141b0565b155b15610c655782604051635274afe760e01b8152600401610a0a9190613c43565b6001600160a01b0383163b15610e3a57604051630a85bd0160e11b81526001600160a01b0384169063150b7a029061318590339088908790879060040161442b565b6020604051808303816000875af19250505080156131c0575060408051601f3d908101601f191682019092526131bd9181019061445e565b60015b613220573d8080156131ee576040519150601f19603f3d011682016040523d82523d6000602084013e6131f3565b606091505b5080516000036132185783604051633250574960e11b8152600401610a0a9190613c43565b805181602001fd5b6001600160e01b03198116630a85bd0160e11b146110f75783604051633250574960e11b8152600401610a0a9190613c43565b606061325e82612313565b50600061327660408051602081019091526000815290565b905060008151116132965760405180602001604052806000815250612faf565b806132a0846134ef565b6040516020016132b19291906143fc565b6040516020818303038152906040529392505050565b60006001600160e01b0319821663780e9d6360e01b14806108d457506108d482613581565b6000806132fa8585856135d1565b90506001600160a01b03811661331857613313846136d8565b61333b565b846001600160a01b0316816001600160a01b03161461333b5761333b8185613711565b6001600160a01b03851661335757613352846137b2565b612fac565b846001600160a01b0316816001600160a01b031614612fac57612fac858561387b565b806001600160a01b03163b6000036133a75780604051634c9c8ce360e01b8152600401610a0a9190613c43565b60008051602061452183398151915280546001600160a01b0319166001600160a01b0392909216919091179055565b6060600080846001600160a01b0316846040516133f3919061447b565b600060405180830381855af49150503d806000811461342e576040519150601f19603f3d011682016040523d82523d6000602084013e613433565b606091505b5091509150612cf68583836138d3565b34156126b95760405163b398979f60e01b815260040160405180910390fd5b6001600160a01b03821661348c576000604051633250574960e11b8152600401610a0a9190613c43565b600061349a83836000612f9f565b90506001600160a01b03811615610c655760006040516339e3563760e11b8152600401610a0a9190613c43565b60006134d1612911565b54600160401b900460ff16919050565b6060612faf83836000613926565b606060006134fc836139c3565b60010190506000816001600160401b0381111561351b5761351b613dc7565b6040519080825280601f01601f191660200182016040528015613545576020820181803683370190505b5090508181016020015b600019016f181899199a1a9b1b9c1cb0b131b232b360811b600a86061a8153600a850494508461354f57509392505050565b60006001600160e01b031982166380ac58cd60e01b14806135b257506001600160e01b03198216635b5e139f60e01b145b806108d457506301ffc9a760e01b6001600160e01b03198316146108d4565b6000806135dc6122ef565b905060006135e985612d5f565b90506001600160a01b0384161561360557613605818587613a99565b6001600160a01b0381161561364557613622600086600080612d88565b6001600160a01b0381166000908152600383016020526040902080546000190190555b6001600160a01b03861615613676576001600160a01b03861660009081526003830160205260409020805460010190555b600085815260028301602052604080822080546001600160a01b0319166001600160a01b038a811691821790925591518893918516917fddf252ad1be2c89b69c2b068fc378daa952ba7f163c4a11628f55a4df523b3ef91a495945050505050565b60006136e26123a5565b600281018054600085815260039093016020908152604084208290556001820183559183529120019190915550565b600061371b6123a5565b9050600061372884611217565b600084815260018401602052604090205490915080821461377d576001600160a01b03851660009081526020848152604080832085845282528083205484845281842081905583526001860190915290208190555b50600092835260018201602090815260408085208590556001600160a01b039095168452918252838320908352905290812055565b60006137bc6123a5565b60028101549091506000906137d390600190614497565b60008481526003840160205260408120546002850180549394509092849081106137ff576137ff6141e6565b9060005260206000200154905080846002018381548110613822576138226141e6565b60009182526020808320909101929092558281526003860190915260408082208490558682528120556002840180548061385e5761385e6144aa565b600190038181906000526020600020016000905590555050505050565b60006138856123a5565b90506000600161389485611217565b61389e9190614497565b6001600160a01b0390941660009081526020838152604080832087845282528083208690559482526001909301909252502055565b6060826138e8576138e382613aef565b612faf565b81511580156138ff57506001600160a01b0384163b155b1561391f5783604051639996b31560e01b8152600401610a0a9190613c43565b5080612faf565b60608147101561394b573060405163cd78605960e01b8152600401610a0a9190613c43565b600080856001600160a01b03168486604051613967919061447b565b60006040518083038185875af1925050503d80600081146139a4576040519150601f19603f3d011682016040523d82523d6000602084013e6139a9565b606091505b50915091506139b98683836138d3565b9695505050505050565b60008072184f03e93ff9f4daa797ed6e38ed64bf6a1f0160401b8310613a025772184f03e93ff9f4daa797ed6e38ed64bf6a1f0160401b830492506040015b6904ee2d6d415b85acef8160201b8310613a2c576904ee2d6d415b85acef8160201b830492506020015b662386f26fc100008310613a4a57662386f26fc10000830492506010015b6305f5e1008310613a62576305f5e100830492506008015b6127108310613a7657612710830492506004015b60648310613a88576064830492506002015b600a83106108d45760010192915050565b613aa4838383613b18565b610c65576001600160a01b038316613ad257604051637e27328960e01b815260048101829052602401610a0a565b818160405163177e802f60e01b8152600401610a0a9291906141cd565b805115613aff5780518082602001fd5b604051630a12f52160e11b815260040160405180910390fd5b60006001600160a01b03831615801590612fac5750826001600160a01b0316846001600160a01b03161480613b525750613b52848461214b565b80612fac5750826001600160a01b0316613b6b8361234b565b6001600160a01b031614949350505050565b600060208284031215613b8f57600080fd5b5035919050565b9182526001600160a01b0316602082015260400190565b6001600160e01b03198116811461177657600080fd5b600060208284031215613bd557600080fd5b8135612faf81613bad565b60005b83811015613bfb578181015183820152602001613be3565b50506000910152565b60008151808452613c1c816020860160208601613be0565b601f01601f19169290920160200192915050565b602081526000612faf6020830184613c04565b6001600160a01b0391909116815260200190565b6001600160a01b038116811461177657600080fd5b60008060408385031215613c7f57600080fd5b8235613c8a81613c57565b946020939093013593505050565b60008060408385031215613cab57600080fd5b50508035926020909101359150565b600060208284031215613ccc57600080fd5b8135612faf81613c57565b600080600060608486031215613cec57600080fd5b8335613cf781613c57565b92506020840135613d0781613c57565b929592945050506040919091013590565b60008060408385031215613d2b57600080fd5b823591506020830135613d3d81613c57565b809150509250929050565b634e487b7160e01b600052602160045260246000fd5b6005811061177657611776613d48565b60208101613d7b83613d5e565b91905290565b600a8110613d9157613d91613d48565b9052565b8481526001600160a01b038416602082015260808101613db484613d5e565b836040830152612cf66060830184613d81565b634e487b7160e01b600052604160045260246000fd5b600082601f830112613dee57600080fd5b81356001600160401b0380821115613e0857613e08613dc7565b604051601f8301601f19908116603f01168101908282118183101715613e3057613e30613dc7565b81604052838152866020858801011115613e4957600080fd5b836020870160208301376000602085830101528094505050505092915050565b60008060408385031215613e7c57600080fd5b8235613e8781613c57565b915060208301356001600160401b03811115613ea257600080fd5b613eae85828601613ddd565b9150509250929050565b600080600080600060a08688031215613ed057600080fd5b8535613edb81613c57565b945060208601356001600160401b03811115613ef657600080fd5b613f0288828901613ddd565b94505060408601359250606086013591506080860135613f2181613c57565b809150509295509295909350565b801515811461177657600080fd5b60008060008060008060c08789031215613f5657600080fd5b8635613f6181613c57565b955060208701356001600160401b03811115613f7c57600080fd5b613f8889828a01613ddd565b95505060408701359350606087013592506080870135613fa781613c57565b915060a0870135613fb781613f2f565b809150509295509295509295565b60008060408385031215613fd857600080fd5b82356001600160401b0380821115613fef57600080fd5b613ffb86838701613ddd565b9350602085013591508082111561401157600080fd5b50613eae85828601613ddd565b6000806040838503121561403157600080fd5b823561403c81613c57565b91506020830135613d3d81613f2f565b6000806000806080858703121561406257600080fd5b843561406d81613c57565b9350602085013561407d81613c57565b92506040850135915060608501356001600160401b0381111561409f57600080fd5b6140ab87828801613ddd565b91505092959194509250565b6000806000606084860312156140cc57600080fd5b83356140d781613c57565b925060208401356140e781613c57565b915060408401356140f781613c57565b809150509250925092565b6000806040838503121561411557600080fd5b823591506020830135600a8110613d3d57600080fd5b6000806040838503121561413e57600080fd5b823561414981613c57565b91506020830135613d3d81613c57565b600181811c9082168061416d57607f821691505b60208210810361418d57634e487b7160e01b600052602260045260246000fd5b50919050565b828152604081016141a383613d5e565b8260208301529392505050565b6000602082840312156141c257600080fd5b8151612faf81613f2f565b6001600160a01b03929092168252602082015260400190565b634e487b7160e01b600052603260045260246000fd5b634e487b7160e01b600052601160045260246000fd5b808201808211156108d4576108d46141fc565b918252602082015260400190565b600060018201614245576142456141fc565b5060010190565b6001600160401b0391909116815260200190565b6001600160a01b0392831681529116602082015260400190565b60006020828403121561428c57600080fd5b5051919050565b6001600160a01b0394851681529290931660208301526040820152606081019190915260800190565b602081016108d48284613d81565b6001600160a01b0393841681526020810192909252909116604082015260600190565b601f821115610c65576000816000526020600020601f850160051c810160208610156143165750805b601f850160051c820191505b8181101561433557828155600101614322565b505050505050565b81516001600160401b0381111561435657614356613dc7565b61436a816143648454614159565b846142ed565b602080601f83116001811461439f57600084156143875750858301515b600019600386901b1c1916600185901b178555614335565b600085815260208120601f198616915b828110156143ce578886015182559484019460019091019084016143af565b50858210156143ec5787850151600019600388901b60f8161c191681555b5050505050600190811b01905550565b6000835161440e818460208801613be0565b835190830190614422818360208801613be0565b01949350505050565b6001600160a01b03858116825284166020820152604081018390526080606082018190526000906139b990830184613c04565b60006020828403121561447057600080fd5b8151612faf81613bad565b6000825161448d818460208701613be0565b9190910192915050565b818103818111156108d4576108d46141fc565b634e487b7160e01b600052603160045260246000fdfe492531370c4d9936ebe217e769581e72fb2a02b10df161cd9ccd358f1aa45f9ac7f505b2f371ae2175ee4913f4499e1f2633a7b5936321eed1cdaeb6115181d2189ab7a9244df0848122154315af71fe140f3db0fe014031783b0946b8c9d2e3360894a13ba1a3210667c828492db98dca3e2076cc3735a920a3ca505d382bbc3ae8648b97d3fd425d26286fc6bb1d50724a93a6a5763921dd2b90405a83b4a453c665da5aadaba077915db08a54c7222d7b72603f945ccf87ace2212772e1dfa2646970667358221220a0d21d4e27cbfbe4fdaa0e997e7f41031640952a0f0086f060acfbcf31ae1fd664736f6c63430008180033",
  "linkReferences": {},
  "deployedLinkReferences": {}
}