{
  "_format": "hh-sol-artifact-1",
  "contractName": "BookingToken",
  "sourceName": "contracts/booking-token/BookingToken.sol",
  "abi": [
    {
      "inputs": [],
      "name": "AccessControlBadConfirmation",
      "type": "error"
    },
    {
      "inputs": [
        {
          "internalType": "address",
          "name": "account",
          "type": "address"
        },
        {
          "internalType": "bytes32",
          "name": "neededRole",
          "type": "bytes32"
        }
      ],
      "name": "AccessControlUnauthorizedAccount",
      "type": "error"
    },
    {
      "inputs": [
        {
          "internalType": "address",
          "name": "target",
          "type": "address"
        }
      ],
      "name": "AddressEmptyCode",
      "type": "error"
    },
    {
      "inputs": [
        {
          "internalType": "address",
          "name": "account",
          "type": "address"
        }
      ],
      "name": "AddressInsufficientBalance",
      "type": "error"
    },
    {
      "inputs": [
        {
          "internalType": "address",
          "name": "implementation",
          "type": "address"
        }
      ],
      "name": "ERC1967InvalidImplementation",
      "type": "error"
    },
    {
      "inputs": [],
      "name": "ERC1967NonPayable",
      "type": "error"
    },
    {
      "inputs": [],
      "name": "ERC721EnumerableForbiddenBatchMint",
      "type": "error"
    },
    {
      "inputs": [
        {
          "internalType": "address",
          "name": "sender",
          "type": "address"
        },
        {
          "internalType": "uint256",
          "name": "tokenId",
          "type": "uint256"
        },
        {
          "internalType": "address",
          "name": "owner",
          "type": "address"
        }
      ],
      "name": "ERC721IncorrectOwner",
      "type": "error"
    },
    {
      "inputs": [
        {
          "internalType": "address",
          "name": "operator",
          "type": "address"
        },
        {
          "internalType": "uint256",
          "name": "tokenId",
          "type": "uint256"
        }
      ],
      "name": "ERC721InsufficientApproval",
      "type": "error"
    },
    {
      "inputs": [
        {
          "internalType": "address",
          "name": "approver",
          "type": "address"
        }
      ],
      "name": "ERC721InvalidApprover",
      "type": "error"
    },
    {
      "inputs": [
        {
          "internalType": "address",
          "name": "operator",
          "type": "address"
        }
      ],
      "name": "ERC721InvalidOperator",
      "type": "error"
    },
    {
      "inputs": [
        {
          "internalType": "address",
          "name": "owner",
          "type": "address"
        }
      ],
      "name": "ERC721InvalidOwner",
      "type": "error"
    },
    {
      "inputs": [
        {
          "internalType": "address",
          "name": "receiver",
          "type": "address"
        }
      ],
      "name": "ERC721InvalidReceiver",
      "type": "error"
    },
    {
      "inputs": [
        {
          "internalType": "address",
          "name": "sender",
          "type": "address"
        }
      ],
      "name": "ERC721InvalidSender",
      "type": "error"
    },
    {
      "inputs": [
        {
          "internalType": "uint256",
          "name": "tokenId",
          "type": "uint256"
        }
      ],
      "name": "ERC721NonexistentToken",
      "type": "error"
    },
    {
      "inputs": [
        {
          "internalType": "address",
          "name": "owner",
          "type": "address"
        },
        {
          "internalType": "uint256",
          "name": "index",
          "type": "uint256"
        }
      ],
      "name": "ERC721OutOfBoundsIndex",
      "type": "error"
    },
    {
      "inputs": [
        {
          "internalType": "uint256",
          "name": "expirationTimestamp",
          "type": "uint256"
        },
        {
          "internalType": "uint256",
          "name": "minExpirationTimestampDiff",
          "type": "uint256"
        }
      ],
      "name": "ExpirationTimestampTooSoon",
      "type": "error"
    },
    {
      "inputs": [],
      "name": "FailedInnerCall",
      "type": "error"
    },
    {
      "inputs": [
        {
          "internalType": "uint256",
          "name": "price",
          "type": "uint256"
        },
        {
          "internalType": "uint256",
          "name": "reservationPrice",
          "type": "uint256"
        }
      ],
      "name": "IncorrectPrice",
      "type": "error"
    },
    {
      "inputs": [
        {
          "internalType": "address",
          "name": "sender",
          "type": "address"
        },
        {
          "internalType": "contract IERC20",
          "name": "paymentToken",
          "type": "address"
        },
        {
          "internalType": "uint256",
          "name": "price",
          "type": "uint256"
        },
        {
          "internalType": "uint256",
          "name": "allowance",
          "type": "uint256"
        }
      ],
      "name": "InsufficientAllowance",
      "type": "error"
    },
    {
      "inputs": [],
      "name": "InvalidInitialization",
      "type": "error"
    },
    {
      "inputs": [
        {
          "internalType": "uint256",
          "name": "tokenId",
          "type": "uint256"
        },
        {
          "internalType": "enum BookingToken.BookingStatus",
          "name": "status",
          "type": "uint8"
        }
      ],
      "name": "InvalidTokenStatus",
      "type": "error"
    },
    {
      "inputs": [
        {
          "internalType": "address",
          "name": "account",
          "type": "address"
        }
      ],
      "name": "NotCMAccount",
      "type": "error"
    },
    {
      "inputs": [],
      "name": "NotInitializing",
      "type": "error"
    },
    {
      "inputs": [],
      "name": "ReentrancyGuardReentrantCall",
      "type": "error"
    },
    {
      "inputs": [
        {
          "internalType": "uint256",
          "name": "tokenId",
          "type": "uint256"
        },
        {
          "internalType": "uint256",
          "name": "expirationTimestamp",
          "type": "uint256"
        }
      ],
      "name": "ReservationExpired",
      "type": "error"
    },
    {
      "inputs": [
        {
          "internalType": "address",
          "name": "reservedFor",
          "type": "address"
        },
        {
          "internalType": "address",
          "name": "buyer",
          "type": "address"
        }
      ],
      "name": "ReservationMismatch",
      "type": "error"
    },
    {
      "inputs": [
        {
          "internalType": "address",
          "name": "token",
          "type": "address"
        }
      ],
      "name": "SafeERC20FailedOperation",
      "type": "error"
    },
    {
      "inputs": [
        {
          "internalType": "uint256",
          "name": "tokenId",
          "type": "uint256"
        },
        {
          "internalType": "address",
          "name": "supplier",
          "type": "address"
        }
      ],
      "name": "SupplierIsNotOwner",
      "type": "error"
    },
    {
      "inputs": [
        {
          "internalType": "uint256",
          "name": "tokenId",
          "type": "uint256"
        },
        {
          "internalType": "address",
          "name": "reservedFor",
          "type": "address"
        }
      ],
      "name": "TokenIsReserved",
      "type": "error"
    },
    {
      "inputs": [],
      "name": "UUPSUnauthorizedCallContext",
      "type": "error"
    },
    {
      "inputs": [
        {
          "internalType": "bytes32",
          "name": "slot",
          "type": "bytes32"
        }
      ],
      "name": "UUPSUnsupportedProxiableUUID",
      "type": "error"
    },
    {
      "anonymous": false,
      "inputs": [
        {
          "indexed": true,
          "internalType": "address",
          "name": "owner",
          "type": "address"
        },
        {
          "indexed": true,
          "internalType": "address",
          "name": "approved",
          "type": "address"
        },
        {
          "indexed": true,
          "internalType": "uint256",
          "name": "tokenId",
          "type": "uint256"
        }
      ],
      "name": "Approval",
      "type": "event"
    },
    {
      "anonymous": false,
      "inputs": [
        {
          "indexed": true,
          "internalType": "address",
          "name": "owner",
          "type": "address"
        },
        {
          "indexed": true,
          "internalType": "address",
          "name": "operator",
          "type": "address"
        },
        {
          "indexed": false,
          "internalType": "bool",
          "name": "approved",
          "type": "bool"
        }
      ],
      "name": "ApprovalForAll",
      "type": "event"
    },
    {
      "anonymous": false,
      "inputs": [
        {
          "indexed": false,
          "internalType": "uint256",
          "name": "_fromTokenId",
          "type": "uint256"
        },
        {
          "indexed": false,
          "internalType": "uint256",
          "name": "_toTokenId",
          "type": "uint256"
        }
      ],
      "name": "BatchMetadataUpdate",
      "type": "event"
    },
    {
      "anonymous": false,
      "inputs": [
        {
          "indexed": false,
          "internalType": "uint64",
          "name": "version",
          "type": "uint64"
        }
      ],
      "name": "Initialized",
      "type": "event"
    },
    {
      "anonymous": false,
      "inputs": [
        {
          "indexed": false,
          "internalType": "uint256",
          "name": "_tokenId",
          "type": "uint256"
        }
      ],
      "name": "MetadataUpdate",
      "type": "event"
    },
    {
      "anonymous": false,
      "inputs": [
        {
          "indexed": true,
          "internalType": "bytes32",
          "name": "role",
          "type": "bytes32"
        },
        {
          "indexed": true,
          "internalType": "bytes32",
          "name": "previousAdminRole",
          "type": "bytes32"
        },
        {
          "indexed": true,
          "internalType": "bytes32",
          "name": "newAdminRole",
          "type": "bytes32"
        }
      ],
      "name": "RoleAdminChanged",
      "type": "event"
    },
    {
      "anonymous": false,
      "inputs": [
        {
          "indexed": true,
          "internalType": "bytes32",
          "name": "role",
          "type": "bytes32"
        },
        {
          "indexed": true,
          "internalType": "address",
          "name": "account",
          "type": "address"
        },
        {
          "indexed": true,
          "internalType": "address",
          "name": "sender",
          "type": "address"
        }
      ],
      "name": "RoleGranted",
      "type": "event"
    },
    {
      "anonymous": false,
      "inputs": [
        {
          "indexed": true,
          "internalType": "bytes32",
          "name": "role",
          "type": "bytes32"
        },
        {
          "indexed": true,
          "internalType": "address",
          "name": "account",
          "type": "address"
        },
        {
          "indexed": true,
          "internalType": "address",
          "name": "sender",
          "type": "address"
        }
      ],
      "name": "RoleRevoked",
      "type": "event"
    },
    {
      "anonymous": false,
      "inputs": [
        {
          "indexed": true,
          "internalType": "uint256",
          "name": "tokenId",
          "type": "uint256"
        },
        {
          "indexed": true,
          "internalType": "address",
          "name": "buyer",
          "type": "address"
        }
      ],
      "name": "TokenBought",
      "type": "event"
    },
    {
      "anonymous": false,
      "inputs": [
        {
          "indexed": true,
          "internalType": "uint256",
          "name": "tokenId",
          "type": "uint256"
        }
      ],
      "name": "TokenExpired",
      "type": "event"
    },
    {
      "anonymous": false,
      "inputs": [
        {
          "indexed": true,
          "internalType": "address",
          "name": "from",
          "type": "address"
        },
        {
          "indexed": true,
          "internalType": "address",
          "name": "to",
          "type": "address"
        },
        {
          "indexed": true,
          "internalType": "uint256",
          "name": "tokenId",
          "type": "uint256"
        }
      ],
      "name": "Transfer",
      "type": "event"
    },
    {
      "anonymous": false,
      "inputs": [
        {
          "indexed": true,
          "internalType": "address",
          "name": "implementation",
          "type": "address"
        }
      ],
      "name": "Upgraded",
      "type": "event"
    },
    {
      "inputs": [],
      "name": "DEFAULT_ADMIN_ROLE",
      "outputs": [
        {
          "internalType": "bytes32",
          "name": "",
          "type": "bytes32"
        }
      ],
      "stateMutability": "view",
      "type": "function"
    },
    {
      "inputs": [],
      "name": "MIN_EXPIRATION_ADMIN_ROLE",
      "outputs": [
        {
          "internalType": "bytes32",
          "name": "",
          "type": "bytes32"
        }
      ],
      "stateMutability": "view",
      "type": "function"
    },
    {
      "inputs": [],
      "name": "UPGRADER_ROLE",
      "outputs": [
        {
          "internalType": "bytes32",
          "name": "",
          "type": "bytes32"
        }
      ],
      "stateMutability": "view",
      "type": "function"
    },
    {
      "inputs": [],
      "name": "UPGRADE_INTERFACE_VERSION",
      "outputs": [
        {
          "internalType": "string",
          "name": "",
          "type": "string"
        }
      ],
      "stateMutability": "view",
      "type": "function"
    },
    {
      "inputs": [
        {
          "internalType": "address",
          "name": "to",
          "type": "address"
        },
        {
          "internalType": "uint256",
          "name": "tokenId",
          "type": "uint256"
        }
      ],
      "name": "approve",
      "outputs": [],
      "stateMutability": "nonpayable",
      "type": "function"
    },
    {
      "inputs": [
        {
          "internalType": "address",
          "name": "owner",
          "type": "address"
        }
      ],
      "name": "balanceOf",
      "outputs": [
        {
          "internalType": "uint256",
          "name": "",
          "type": "uint256"
        }
      ],
      "stateMutability": "view",
      "type": "function"
    },
    {
      "inputs": [
        {
          "internalType": "uint256",
          "name": "tokenId",
          "type": "uint256"
        }
      ],
      "name": "buyReservedToken",
      "outputs": [],
      "stateMutability": "payable",
      "type": "function"
    },
    {
      "inputs": [
        {
          "internalType": "uint256",
          "name": "tokenId",
          "type": "uint256"
        }
      ],
      "name": "getApproved",
      "outputs": [
        {
          "internalType": "address",
          "name": "",
          "type": "address"
        }
      ],
      "stateMutability": "view",
      "type": "function"
    },
    {
      "inputs": [
        {
          "internalType": "uint256",
          "name": "tokenId",
          "type": "uint256"
        }
      ],
      "name": "getBookingStatus",
      "outputs": [
        {
          "internalType": "enum BookingToken.BookingStatus",
          "name": "",
          "type": "uint8"
        }
      ],
      "stateMutability": "view",
      "type": "function"
    },
    {
      "inputs": [],
      "name": "getManagerAddress",
      "outputs": [
        {
          "internalType": "address",
          "name": "",
          "type": "address"
        }
      ],
      "stateMutability": "view",
      "type": "function"
    },
    {
      "inputs": [],
      "name": "getMinExpirationTimestampDiff",
      "outputs": [
        {
          "internalType": "uint256",
          "name": "",
          "type": "uint256"
        }
      ],
      "stateMutability": "view",
      "type": "function"
    },
    {
      "inputs": [
        {
          "internalType": "uint256",
          "name": "tokenId",
          "type": "uint256"
        }
      ],
      "name": "getReservationPrice",
      "outputs": [
        {
          "internalType": "uint256",
          "name": "price",
          "type": "uint256"
        },
        {
          "internalType": "contract IERC20",
          "name": "paymentToken",
          "type": "address"
        }
      ],
      "stateMutability": "view",
      "type": "function"
    },
    {
      "inputs": [
        {
          "internalType": "bytes32",
          "name": "role",
          "type": "bytes32"
        }
      ],
      "name": "getRoleAdmin",
      "outputs": [
        {
          "internalType": "bytes32",
          "name": "",
          "type": "bytes32"
        }
      ],
      "stateMutability": "view",
      "type": "function"
    },
    {
      "inputs": [
        {
          "internalType": "bytes32",
          "name": "role",
          "type": "bytes32"
        },
        {
          "internalType": "address",
          "name": "account",
          "type": "address"
        }
      ],
      "name": "grantRole",
      "outputs": [],
      "stateMutability": "nonpayable",
      "type": "function"
    },
    {
      "inputs": [
        {
          "internalType": "bytes32",
          "name": "role",
          "type": "bytes32"
        },
        {
          "internalType": "address",
          "name": "account",
          "type": "address"
        }
      ],
      "name": "hasRole",
      "outputs": [
        {
          "internalType": "bool",
          "name": "",
          "type": "bool"
        }
      ],
      "stateMutability": "view",
      "type": "function"
    },
    {
      "inputs": [
        {
          "internalType": "address",
          "name": "manager",
          "type": "address"
        },
        {
          "internalType": "address",
          "name": "defaultAdmin",
          "type": "address"
        },
        {
          "internalType": "address",
          "name": "upgrader",
          "type": "address"
        }
      ],
      "name": "initialize",
      "outputs": [],
      "stateMutability": "nonpayable",
      "type": "function"
    },
    {
      "inputs": [
        {
          "internalType": "address",
          "name": "owner",
          "type": "address"
        },
        {
          "internalType": "address",
          "name": "operator",
          "type": "address"
        }
      ],
      "name": "isApprovedForAll",
      "outputs": [
        {
          "internalType": "bool",
          "name": "",
          "type": "bool"
        }
      ],
      "stateMutability": "view",
      "type": "function"
    },
    {
      "inputs": [
        {
          "internalType": "address",
          "name": "account",
          "type": "address"
        }
      ],
      "name": "isCMAccount",
      "outputs": [
        {
          "internalType": "bool",
          "name": "",
          "type": "bool"
        }
      ],
      "stateMutability": "view",
      "type": "function"
    },
    {
      "inputs": [],
      "name": "name",
      "outputs": [
        {
          "internalType": "string",
          "name": "",
          "type": "string"
        }
      ],
      "stateMutability": "view",
      "type": "function"
    },
    {
      "inputs": [
        {
          "internalType": "uint256",
          "name": "tokenId",
          "type": "uint256"
        }
      ],
      "name": "ownerOf",
      "outputs": [
        {
          "internalType": "address",
          "name": "",
          "type": "address"
        }
      ],
      "stateMutability": "view",
      "type": "function"
    },
    {
      "inputs": [],
      "name": "proxiableUUID",
      "outputs": [
        {
          "internalType": "bytes32",
          "name": "",
          "type": "bytes32"
        }
      ],
      "stateMutability": "view",
      "type": "function"
    },
    {
      "inputs": [
        {
          "internalType": "uint256",
          "name": "tokenId",
          "type": "uint256"
        }
      ],
      "name": "recordExpiration",
      "outputs": [],
      "stateMutability": "nonpayable",
      "type": "function"
    },
    {
      "inputs": [
        {
          "internalType": "bytes32",
          "name": "role",
          "type": "bytes32"
        },
        {
          "internalType": "address",
          "name": "callerConfirmation",
          "type": "address"
        }
      ],
      "name": "renounceRole",
      "outputs": [],
      "stateMutability": "nonpayable",
      "type": "function"
    },
    {
      "inputs": [
        {
          "internalType": "bytes32",
          "name": "role",
          "type": "bytes32"
        },
        {
          "internalType": "address",
          "name": "account",
          "type": "address"
        }
      ],
      "name": "revokeRole",
      "outputs": [],
      "stateMutability": "nonpayable",
      "type": "function"
    },
    {
      "inputs": [
        {
          "internalType": "address",
          "name": "from",
          "type": "address"
        },
        {
          "internalType": "address",
          "name": "to",
          "type": "address"
        },
        {
          "internalType": "uint256",
          "name": "tokenId",
          "type": "uint256"
        }
      ],
      "name": "safeTransferFrom",
      "outputs": [],
      "stateMutability": "nonpayable",
      "type": "function"
    },
    {
      "inputs": [
        {
          "internalType": "address",
          "name": "from",
          "type": "address"
        },
        {
          "internalType": "address",
          "name": "to",
          "type": "address"
        },
        {
          "internalType": "uint256",
          "name": "tokenId",
          "type": "uint256"
        },
        {
          "internalType": "bytes",
          "name": "data",
          "type": "bytes"
        }
      ],
      "name": "safeTransferFrom",
      "outputs": [],
      "stateMutability": "nonpayable",
      "type": "function"
    },
    {
      "inputs": [
        {
          "internalType": "address",
          "name": "operator",
          "type": "address"
        },
        {
          "internalType": "bool",
          "name": "approved",
          "type": "bool"
        }
      ],
      "name": "setApprovalForAll",
      "outputs": [],
      "stateMutability": "nonpayable",
      "type": "function"
    },
    {
      "inputs": [
        {
          "internalType": "address",
          "name": "manager",
          "type": "address"
        }
      ],
      "name": "setManagerAddress",
      "outputs": [],
      "stateMutability": "nonpayable",
      "type": "function"
    },
    {
      "inputs": [
        {
          "internalType": "uint256",
          "name": "minExpirationTimestampDiff",
          "type": "uint256"
        }
      ],
      "name": "setMinExpirationTimestampDiff",
      "outputs": [],
      "stateMutability": "nonpayable",
      "type": "function"
    },
    {
      "inputs": [
        {
          "internalType": "bytes4",
          "name": "interfaceId",
          "type": "bytes4"
        }
      ],
      "name": "supportsInterface",
      "outputs": [
        {
          "internalType": "bool",
          "name": "",
          "type": "bool"
        }
      ],
      "stateMutability": "view",
      "type": "function"
    },
    {
      "inputs": [],
      "name": "symbol",
      "outputs": [
        {
          "internalType": "string",
          "name": "",
          "type": "string"
        }
      ],
      "stateMutability": "view",
      "type": "function"
    },
    {
      "inputs": [
        {
          "internalType": "uint256",
          "name": "index",
          "type": "uint256"
        }
      ],
      "name": "tokenByIndex",
      "outputs": [
        {
          "internalType": "uint256",
          "name": "",
          "type": "uint256"
        }
      ],
      "stateMutability": "view",
      "type": "function"
    },
    {
      "inputs": [
        {
          "internalType": "address",
          "name": "owner",
          "type": "address"
        },
        {
          "internalType": "uint256",
          "name": "index",
          "type": "uint256"
        }
      ],
      "name": "tokenOfOwnerByIndex",
      "outputs": [
        {
          "internalType": "uint256",
          "name": "",
          "type": "uint256"
        }
      ],
      "stateMutability": "view",
      "type": "function"
    },
    {
      "inputs": [
        {
          "internalType": "uint256",
          "name": "tokenId",
          "type": "uint256"
        }
      ],
      "name": "tokenURI",
      "outputs": [
        {
          "internalType": "string",
          "name": "",
          "type": "string"
        }
      ],
      "stateMutability": "view",
      "type": "function"
    },
    {
      "inputs": [],
      "name": "totalSupply",
      "outputs": [
        {
          "internalType": "uint256",
          "name": "",
          "type": "uint256"
        }
      ],
      "stateMutability": "view",
      "type": "function"
    },
    {
      "inputs": [
        {
          "internalType": "address",
          "name": "from",
          "type": "address"
        },
        {
          "internalType": "address",
          "name": "to",
          "type": "address"
        },
        {
          "internalType": "uint256",
          "name": "tokenId",
          "type": "uint256"
        }
      ],
      "name": "transferFrom",
      "outputs": [],
      "stateMutability": "nonpayable",
      "type": "function"
    },
    {
      "inputs": [
        {
          "internalType": "address",
          "name": "newImplementation",
          "type": "address"
        },
        {
          "internalType": "bytes",
          "name": "data",
          "type": "bytes"
        }
      ],
      "name": "upgradeToAndCall",
      "outputs": [],
      "stateMutability": "payable",
      "type": "function"
    }
  ],
  "bytecode": "0x60a06040523060805234801561001457600080fd5b50608051612eed61003e600039600081816114fc01528181611525015261166f0152612eed6000f3fe6080604052600436106101a95760003560e01c80624fdd3c146101ae57806301ffc9a7146101e557806306fdde0314610215578063081812fc14610237578063095ea7b3146102645780630e75c1a81461028657806312b357b5146102a957806318160ddd146102c957806323b872dd146102de578063248a9ca3146102fe5780632edf5e2c1461031e5780632f2ff15d146103405780632f745c591461036057806336568abe146103805780633c15b31c146103a057806341431908146103cd57806342842e0e146103ed5780634f1ef2861461040d5780634f6ccce714610420578063516a82b81461044057806352d1902d146104605780636352211e1461047557806370a082311461049557806391d14854146104b557806395d89b41146104d557806396591edd146104ea578063a217fddf146104fd578063a22cb46514610512578063ad3cb1cc14610532578063b88d4fde14610563578063c0c53b8b14610583578063c162d7da146105a3578063c87b56dd146105b8578063d547741f146105d8578063e5a6725c146105f8578063e985e9c514610618578063f72c0d8b14610638575b600080fd5b3480156101ba57600080fd5b506101ce6101c9366004612775565b61065a565b6040516101dc92919061278e565b60405180910390f35b3480156101f157600080fd5b506102056102003660046127bb565b610697565b60405190151581526020016101dc565b34801561022157600080fd5b5061022a6106a8565b6040516101dc9190612828565b34801561024357600080fd5b50610257610252366004612775565b610749565b6040516101dc919061283b565b34801561027057600080fd5b5061028461027f36600461286b565b61075e565b005b34801561029257600080fd5b5061029b61076d565b6040519081526020016101dc565b3480156102b557600080fd5b506102056102c4366004612895565b610782565b3480156102d557600080fd5b5061029b6107f8565b3480156102ea57600080fd5b506102846102f93660046128b0565b610803565b34801561030a57600080fd5b5061029b610319366004612775565b61081c565b34801561032a57600080fd5b5061029b600080516020612e9883398151915281565b34801561034c57600080fd5b5061028461035b3660046128ec565b61083c565b34801561036c57600080fd5b5061029b61037b36600461286b565b61085e565b34801561038c57600080fd5b5061028461039b3660046128ec565b6108c9565b3480156103ac57600080fd5b506103c06103bb366004612775565b6108fc565b6040516101dc9190612950565b3480156103d957600080fd5b506102846103e8366004612895565b61091f565b3480156103f957600080fd5b506102846104083660046128b0565b610957565b61028461041b366004612a00565b610972565b34801561042c57600080fd5b5061029b61043b366004612775565b61098d565b34801561044c57600080fd5b5061028461045b366004612775565b6109ee565b34801561046c57600080fd5b5061029b610a1b565b34801561048157600080fd5b50610257610490366004612775565b610a38565b3480156104a157600080fd5b5061029b6104b0366004612895565b610a43565b3480156104c157600080fd5b506102056104d03660046128ec565b610a9b565b3480156104e157600080fd5b5061022a610ad1565b6102846104f8366004612775565b610aee565b34801561050957600080fd5b5061029b600081565b34801561051e57600080fd5b5061028461052d366004612a5b565b610dd7565b34801561053e57600080fd5b5061022a604051806040016040528060058152602001640352e302e360dc1b81525081565b34801561056f57600080fd5b5061028461057e366004612a92565b610de2565b34801561058f57600080fd5b5061028461059e366004612af9565b610df7565b3480156105af57600080fd5b50610257610fa4565b3480156105c457600080fd5b5061022a6105d3366004612775565b610fbf565b3480156105e457600080fd5b506102846105f33660046128ec565b610fca565b34801561060457600080fd5b50610284610613366004612775565b610fe6565b34801561062457600080fd5b50610205610633366004612b3c565b6110ee565b34801561064457600080fd5b5061029b600080516020612e5883398151915281565b600080600061066761112d565b6000948552600390810160205260409094209384015460049094015493946001600160a01b039094169392505050565b60006106a282611151565b92915050565b606060006106b4611176565b90508060000180546106c590612b66565b80601f01602080910402602001604051908101604052809291908181526020018280546106f190612b66565b801561073e5780601f106107135761010080835404028352916020019161073e565b820191906000526020600020905b81548152906001019060200180831161072157829003601f168201915b505050505091505090565b60006107548261119a565b506106a2826111d2565b6107698282336111fb565b5050565b60008061077861112d565b6002015492915050565b600061078c610fa4565b6001600160a01b03166312b357b5836040518263ffffffff1660e01b81526004016107b7919061283b565b602060405180830381865afa1580156107d4573d6000803e3d6000fd5b505050506040513d601f19601f820116820180604052508101906106a29190612ba0565b600080610778611208565b61080c8161122c565b610817838383611339565b505050565b6000806108276113aa565b60009384526020525050604090206001015490565b6108458261081c565b61084e816113ce565b61085883836113d8565b50505050565b600080610869611208565b905061087484610a43565b83106108a057838360405163295f44f760e21b8152600401610897929190612bbd565b60405180910390fd5b6001600160a01b0384166000908152602091825260408082208583529092522054905092915050565b6001600160a01b03811633146108f25760405163334bd91960e11b815260040160405180910390fd5b6108178282611479565b60008061090761112d565b60009384526004016020525050604090205460ff1690565b600061092a816113ce565b600061093461112d565b80546001600160a01b0319166001600160a01b0394909416939093179092555050565b61081783838360405180602001604052806000815250610de2565b61097a6114f1565b61098382611598565b61076982826115b0565b600080610998611208565b90506109a26107f8565b83106109c65760008360405163295f44f760e21b8152600401610897929190612bbd565b8060020183815481106109db576109db612bd6565b9060005260206000200154915050919050565b600080516020612e98833981519152610a06816113ce565b6000610a1061112d565b600201929092555050565b6000610a25611664565b50600080516020612e7883398151915290565b60006106a28261119a565b600080610a4e611176565b90506001600160a01b038316610a7a5760006040516322718ad960e21b8152600401610897919061283b565b6001600160a01b039092166000908152600390920160205250604090205490565b600080610aa66113aa565b6000948552602090815260408086206001600160a01b03959095168652939052505090205460ff1690565b60606000610add611176565b90508060010180546106c590612b66565b610af66116ad565b33610b00816116e3565b6000610b0a61112d565b600084815260038083016020908152604092839020835160a08101855281546001600160a01b0390811680835260018401548216948301949094526002830154958201959095529281015460608401526004015490921660808201529192503314610b8d578051604051632663a9c560e11b815261089791903390600401612bec565b8060400151421115610bc35783816040015160405163293d73b760e11b8152600401610897929190918252602082015260400190565b6000610bce85610a38565b905081602001516001600160a01b0316816001600160a01b031614610c0d57602082015160405163103d145960e31b815261089791879160040161278e565b610c1c8260200151338761170b565b60808201516001600160a01b031615801590610c3c575060008260600151115b15610d38576080820151604051636eb1769f60e11b81526000916001600160a01b03169063dd62ed3e90610c769033903090600401612bec565b602060405180830381865afa158015610c93573d6000803e3d6000fd5b505050506040513d601f19601f82011682018060405250810190610cb79190612c06565b90508260600151811015610d06576080830151606084015160405163246fb68960e21b81523360048201526001600160a01b039092166024830152604482015260648101829052608401610897565b610d32338460200151856060015186608001516001600160a01b03166117a7909392919063ffffffff16565b50610d83565b81606001513414610d6b576060820151604051630145611560e21b81523460048201526024810191909152604401610897565b6020820151610d83906001600160a01b031634611801565b6000858152600484016020526040808220805460ff1916600317905551339187917fa751fb02c318279a22135a408663ae08ea45eafa950a4351c14ae543cbb950409190a350505050610dd4611898565b50565b6107693383836118a9565b610deb8261122c565b6108588484848461194e565b6000610e01611965565b805490915060ff600160401b82041615906001600160401b0316600081158015610e285750825b90506000826001600160401b03166001148015610e445750303b155b905081158015610e52575080155b15610e705760405163f92ee8a960e01b815260040160405180910390fd5b84546001600160401b03191660011785558315610e9957845460ff60401b1916600160401b1785555b610ee36040518060400160405280600c81526020016b2137b7b5b4b733aa37b5b2b760a11b815250604051806040016040528060048152602001630545249560e41b815250611989565b610eeb61199b565b610ef361199b565b610efb61199b565b610f0361199b565b610f0e6000886113d8565b50610f27600080516020612e58833981519152876113d8565b506000610f3261112d565b80546001600160a01b0319166001600160a01b038b16178155603c600290910155508315610f9a57845460ff60401b19168555604051600181527fc7f505b2f371ae2175ee4913f4499e1f2633a7b5936321eed1cdaeb6115181d29060200160405180910390a15b5050505050505050565b600080610faf61112d565b546001600160a01b031692915050565b60606106a2826119a3565b610fd38261081c565b610fdc816113ce565b6108588383611479565b6000610ff061112d565b6000838152600382016020908152604080832060048501909252909120549192509060ff16600281600481111561102957611029612918565b14806110465750600381600481111561104457611044612918565b145b806110625750600481600481111561106057611060612918565b145b1561108457838160405163e4e3b53b60e01b8152600401610897929190612c1f565b81600201544211156110c5576000848152600484016020526040808220805460ff19166002179055518591600080516020612e3883398151915291a2610858565b815460405163d4cde2af60e01b81526108979186916001600160a01b039091169060040161278e565b6000806110f9611176565b6001600160a01b03948516600090815260059190910160209081526040808320959096168252939093525050205460ff1690565b7f9db9d405bf15683ce835607b1f0b423dc1484d44bb9d5af64a483fa4afd8290090565b60006001600160e01b03198216637965db0b60e01b14806106a257506106a282611ad8565b7f80bb2b638cc20bc4d0a60d66940f3ab4a00c1d7b313497ca82fb0b4ab007930090565b6000806111a683611afd565b90506001600160a01b0381166106a257604051637e27328960e01b815260048101849052602401610897565b6000806111dd611176565b6000938452600401602052505060409020546001600160a01b031690565b6108178383836001611b26565b7f645e039705490088daad89bae25049a34f4a9072d398537b1ab2425f24cbed0090565b600061123661112d565b600083815260048201602052604090205490915060ff16600381600481111561126157611261612918565b148061127e5750600281600481111561127c5761127c612918565b145b1561128857505050565b600481600481111561129c5761129c612918565b036112be57828160405163e4e3b53b60e01b8152600401610897929190612c1f565b600083815260038301602052604090206002810154421115611310576000848152600484016020526040808220805460ff19166002179055518591600080516020612e3883398151915291a250505050565b805460405163d4cde2af60e01b81526108979186916001600160a01b039091169060040161278e565b6001600160a01b038216611363576000604051633250574960e11b8152600401610897919061283b565b6000611370838333611c30565b9050836001600160a01b0316816001600160a01b031614610858578382826040516364283d7b60e01b815260040161089793929190612c33565b7f02dd7bc7dec4dceedda775e58dd541e08a116c6c53815c0bd028192f7b62680090565b610dd48133611c47565b6000806113e36113aa565b90506113ef8484610a9b565b61146f576000848152602082815260408083206001600160a01b03871684529091529020805460ff191660011790556114253390565b6001600160a01b0316836001600160a01b0316857f2f8788117e7eff1d82e926ec794901d17c78024a50270940304540a733656f0d60405160405180910390a460019150506106a2565b60009150506106a2565b6000806114846113aa565b90506114908484610a9b565b1561146f576000848152602082815260408083206001600160a01b0387168085529252808320805460ff1916905551339287917ff6391f5c32d9c69d2a47ea670b442974b53935d1edc7fd64eb21e047a839171b9190a460019150506106a2565b306001600160a01b037f000000000000000000000000000000000000000000000000000000000000000016148061157857507f00000000000000000000000000000000000000000000000000000000000000006001600160a01b031661156c600080516020612e78833981519152546001600160a01b031690565b6001600160a01b031614155b156115965760405163703e46dd60e11b815260040160405180910390fd5b565b600080516020612e58833981519152610769816113ce565b816001600160a01b03166352d1902d6040518163ffffffff1660e01b8152600401602060405180830381865afa92505050801561160a575060408051601f3d908101601f1916820190925261160791810190612c06565b60015b6116295781604051634c9c8ce360e01b8152600401610897919061283b565b600080516020612e78833981519152811461165a57604051632a87526960e21b815260048101829052602401610897565b6108178383611c72565b306001600160a01b037f000000000000000000000000000000000000000000000000000000000000000016146115965760405163703e46dd60e11b815260040160405180910390fd5b60006116b7611cc8565b8054909150600119016116dd57604051633ee5aeb560e01b815260040160405180910390fd5b60029055565b6116ec81610782565b610dd45780604051638014575360e01b8152600401610897919061283b565b6001600160a01b038216611735576000604051633250574960e11b8152600401610897919061283b565b600061174383836000611c30565b90506001600160a01b03811661176f57604051637e27328960e01b815260048101839052602401610897565b836001600160a01b0316816001600160a01b031614610858578382826040516364283d7b60e01b815260040161089793929190612c33565b604080516001600160a01b0385811660248301528416604482015260648082018490528251808303909101815260849091019091526020810180516001600160e01b03166323b872dd60e01b179052610858908590611cec565b80471015611824573060405163cd78605960e01b8152600401610897919061283b565b6000826001600160a01b03168260405160006040518083038185875af1925050503d8060008114611871576040519150601f19603f3d011682016040523d82523d6000602084013e611876565b606091505b505090508061081757604051630a12f52160e11b815260040160405180910390fd5b60006118a2611cc8565b6001905550565b60006118b3611176565b90506001600160a01b0383166118de5782604051630b61174360e31b8152600401610897919061283b565b6001600160a01b038481166000818152600584016020908152604080832094881680845294825291829020805460ff191687151590811790915591519182527f17307eab39ab6107e8899845ad3d59bd9653f200f220920489ca2b5937696c31910160405180910390a350505050565b611959848484610803565b61085884848484611d46565b7ff0c57e16840df040f15088dc2f81fe391c3923bec73e23a9662efc9c229c6a0090565b611991611e5d565b6107698282611e82565b611596611e5d565b60607f0542a41881ee128a365a727b282c86fa859579490b9bb45aab8503648c8e79006119cf8361119a565b50600083815260208290526040812080546119e990612b66565b80601f0160208091040260200160405190810160405280929190818152602001828054611a1590612b66565b8015611a625780601f10611a3757610100808354040283529160200191611a62565b820191906000526020600020905b815481529060010190602001808311611a4557829003601f168201915b505050505090506000611a8060408051602081019091526000815290565b90508051600003611a9357509392505050565b815115611ac6578082604051602001611aad929190612c56565b6040516020818303038152906040529350505050919050565b611acf85611eb0565b95945050505050565b60006001600160e01b03198216632483248360e11b14806106a257506106a282611f24565b600080611b08611176565b6000938452600201602052505060409020546001600160a01b031690565b6000611b30611176565b90508180611b4657506001600160a01b03831615155b15611bff576000611b568561119a565b90506001600160a01b03841615801590611b825750836001600160a01b0316816001600160a01b031614155b8015611b955750611b9381856110ee565b155b15611bb5578360405163a9fbf51f60e01b8152600401610897919061283b565b8215611bfd5784866001600160a01b0316826001600160a01b03167f8c5be1e5ebec7d5bd14f71427d1e84f3dd0314c0f7b2291e5b200ac8c7c3b92560405160405180910390a45b505b600093845260040160205250506040902080546001600160a01b0319166001600160a01b0392909216919091179055565b6000611c3d848484611f49565b90505b9392505050565b611c518282610a9b565b61076957808260405163e2517d3f60e01b8152600401610897929190612bbd565b611c7b82611fd7565b6040516001600160a01b038316907fbc7cd75a20ee27fd9adebab32041f755214dbc6bffa90cc0225b39da2e5c2d3b90600090a2805115611cc0576108178282612033565b6107696120a0565b7f9b779b17422d0df92223018b32b4d1fa46e071723d6817e2486d003becc55f0090565b6000611d016001600160a01b038416836120bf565b90508051600014158015611d26575080806020019051810190611d249190612ba0565b155b156108175782604051635274afe760e01b8152600401610897919061283b565b6001600160a01b0383163b1561085857604051630a85bd0160e11b81526001600160a01b0384169063150b7a0290611d88903390889087908790600401612c85565b6020604051808303816000875af1925050508015611dc3575060408051601f3d908101601f19168201909252611dc091810190612cb8565b60015b611e23573d808015611df1576040519150601f19603f3d011682016040523d82523d6000602084013e611df6565b606091505b508051600003611e1b5783604051633250574960e11b8152600401610897919061283b565b805181602001fd5b6001600160e01b03198116630a85bd0160e11b14611e565783604051633250574960e11b8152600401610897919061283b565b5050505050565b611e656120cd565b61159657604051631afcd79f60e31b815260040160405180910390fd5b611e8a611e5d565b6000611e94611176565b905080611ea18482612d25565b50600181016108588382612d25565b6060611ebb8261119a565b506000611ed360408051602081019091526000815290565b90506000815111611ef35760405180602001604052806000815250611c40565b80611efd846120e7565b604051602001611f0e929190612c56565b6040516020818303038152906040529392505050565b60006001600160e01b0319821663780e9d6360e01b14806106a257506106a282612179565b600080611f578585856121c9565b90506001600160a01b038116611f7557611f70846122d0565b611f98565b846001600160a01b0316816001600160a01b031614611f9857611f988185612309565b6001600160a01b038516611fb457611faf846123aa565b611c3d565b846001600160a01b0316816001600160a01b031614611c3d57611c3d8585612473565b806001600160a01b03163b6000036120045780604051634c9c8ce360e01b8152600401610897919061283b565b600080516020612e7883398151915280546001600160a01b0319166001600160a01b0392909216919091179055565b6060600080846001600160a01b0316846040516120509190612de4565b600060405180830381855af49150503d806000811461208b576040519150601f19603f3d011682016040523d82523d6000602084013e612090565b606091505b5091509150611acf8583836124cb565b34156115965760405163b398979f60e01b815260040160405180910390fd5b6060611c408383600061251e565b60006120d7611965565b54600160401b900460ff16919050565b606060006120f4836125bb565b60010190506000816001600160401b038111156121135761211361295e565b6040519080825280601f01601f19166020018201604052801561213d576020820181803683370190505b5090508181016020015b600019016f181899199a1a9b1b9c1cb0b131b232b360811b600a86061a8153600a850494508461214757509392505050565b60006001600160e01b031982166380ac58cd60e01b14806121aa57506001600160e01b03198216635b5e139f60e01b145b806106a257506301ffc9a760e01b6001600160e01b03198316146106a2565b6000806121d4611176565b905060006121e185611afd565b90506001600160a01b038416156121fd576121fd818587612691565b6001600160a01b0381161561223d5761221a600086600080611b26565b6001600160a01b0381166000908152600383016020526040902080546000190190555b6001600160a01b0386161561226e576001600160a01b03861660009081526003830160205260409020805460010190555b600085815260028301602052604080822080546001600160a01b0319166001600160a01b038a811691821790925591518893918516917fddf252ad1be2c89b69c2b068fc378daa952ba7f163c4a11628f55a4df523b3ef91a495945050505050565b60006122da611208565b600281018054600085815260039093016020908152604084208290556001820183559183529120019190915550565b6000612313611208565b9050600061232084610a43565b6000848152600184016020526040902054909150808214612375576001600160a01b03851660009081526020848152604080832085845282528083205484845281842081905583526001860190915290208190555b50600092835260018201602090815260408085208590556001600160a01b039095168452918252838320908352905290812055565b60006123b4611208565b60028101549091506000906123cb90600190612e00565b60008481526003840160205260408120546002850180549394509092849081106123f7576123f7612bd6565b906000526020600020015490508084600201838154811061241a5761241a612bd6565b60009182526020808320909101929092558281526003860190915260408082208490558682528120556002840180548061245657612456612e21565b600190038181906000526020600020016000905590555050505050565b600061247d611208565b90506000600161248c85610a43565b6124969190612e00565b6001600160a01b0390941660009081526020838152604080832087845282528083208690559482526001909301909252502055565b6060826124e0576124db826126e7565b611c40565b81511580156124f757506001600160a01b0384163b155b156125175783604051639996b31560e01b8152600401610897919061283b565b5080611c40565b606081471015612543573060405163cd78605960e01b8152600401610897919061283b565b600080856001600160a01b0316848660405161255f9190612de4565b60006040518083038185875af1925050503d806000811461259c576040519150601f19603f3d011682016040523d82523d6000602084013e6125a1565b606091505b50915091506125b18683836124cb565b9695505050505050565b60008072184f03e93ff9f4daa797ed6e38ed64bf6a1f0160401b83106125fa5772184f03e93ff9f4daa797ed6e38ed64bf6a1f0160401b830492506040015b6904ee2d6d415b85acef8160201b8310612624576904ee2d6d415b85acef8160201b830492506020015b662386f26fc10000831061264257662386f26fc10000830492506010015b6305f5e100831061265a576305f5e100830492506008015b612710831061266e57612710830492506004015b60648310612680576064830492506002015b600a83106106a25760010192915050565b61269c838383612710565b610817576001600160a01b0383166126ca57604051637e27328960e01b815260048101829052602401610897565b818160405163177e802f60e01b8152600401610897929190612bbd565b8051156126f75780518082602001fd5b604051630a12f52160e11b815260040160405180910390fd5b60006001600160a01b03831615801590611c3d5750826001600160a01b0316846001600160a01b0316148061274a575061274a84846110ee565b80611c3d5750826001600160a01b0316612763836111d2565b6001600160a01b031614949350505050565b60006020828403121561278757600080fd5b5035919050565b9182526001600160a01b0316602082015260400190565b6001600160e01b031981168114610dd457600080fd5b6000602082840312156127cd57600080fd5b8135611c40816127a5565b60005b838110156127f35781810151838201526020016127db565b50506000910152565b600081518084526128148160208601602086016127d8565b601f01601f19169290920160200192915050565b602081526000611c4060208301846127fc565b6001600160a01b0391909116815260200190565b80356001600160a01b038116811461286657600080fd5b919050565b6000806040838503121561287e57600080fd5b6128878361284f565b946020939093013593505050565b6000602082840312156128a757600080fd5b611c408261284f565b6000806000606084860312156128c557600080fd5b6128ce8461284f565b92506128dc6020850161284f565b9150604084013590509250925092565b600080604083850312156128ff57600080fd5b8235915061290f6020840161284f565b90509250929050565b634e487b7160e01b600052602160045260246000fd5b6005811061294c57634e487b7160e01b600052602160045260246000fd5b9052565b602081016106a2828461292e565b634e487b7160e01b600052604160045260246000fd5b600082601f83011261298557600080fd5b81356001600160401b038082111561299f5761299f61295e565b604051601f8301601f19908116603f011681019082821181831017156129c7576129c761295e565b816040528381528660208588010111156129e057600080fd5b836020870160208301376000602085830101528094505050505092915050565b60008060408385031215612a1357600080fd5b612a1c8361284f565b915060208301356001600160401b03811115612a3757600080fd5b612a4385828601612974565b9150509250929050565b8015158114610dd457600080fd5b60008060408385031215612a6e57600080fd5b612a778361284f565b91506020830135612a8781612a4d565b809150509250929050565b60008060008060808587031215612aa857600080fd5b612ab18561284f565b9350612abf6020860161284f565b92506040850135915060608501356001600160401b03811115612ae157600080fd5b612aed87828801612974565b91505092959194509250565b600080600060608486031215612b0e57600080fd5b612b178461284f565b9250612b256020850161284f565b9150612b336040850161284f565b90509250925092565b60008060408385031215612b4f57600080fd5b612b588361284f565b915061290f6020840161284f565b600181811c90821680612b7a57607f821691505b602082108103612b9a57634e487b7160e01b600052602260045260246000fd5b50919050565b600060208284031215612bb257600080fd5b8151611c4081612a4d565b6001600160a01b03929092168252602082015260400190565b634e487b7160e01b600052603260045260246000fd5b6001600160a01b0392831681529116602082015260400190565b600060208284031215612c1857600080fd5b5051919050565b82815260408101611c40602083018461292e565b6001600160a01b0393841681526020810192909252909116604082015260600190565b60008351612c688184602088016127d8565b835190830190612c7c8183602088016127d8565b01949350505050565b6001600160a01b03858116825284166020820152604081018390526080606082018190526000906125b1908301846127fc565b600060208284031215612cca57600080fd5b8151611c40816127a5565b601f821115610817576000816000526020600020601f850160051c81016020861015612cfe5750805b601f850160051c820191505b81811015612d1d57828155600101612d0a565b505050505050565b81516001600160401b03811115612d3e57612d3e61295e565b612d5281612d4c8454612b66565b84612cd5565b602080601f831160018114612d875760008415612d6f5750858301515b600019600386901b1c1916600185901b178555612d1d565b600085815260208120601f198616915b82811015612db657888601518255948401946001909101908401612d97565b5085821015612dd45787850151600019600388901b60f8161c191681555b5050505050600190811b01905550565b60008251612df68184602087016127d8565b9190910192915050565b818103818111156106a257634e487b7160e01b600052601160045260246000fd5b634e487b7160e01b600052603160045260246000fdfe492531370c4d9936ebe217e769581e72fb2a02b10df161cd9ccd358f1aa45f9a189ab7a9244df0848122154315af71fe140f3db0fe014031783b0946b8c9d2e3360894a13ba1a3210667c828492db98dca3e2076cc3735a920a3ca505d382bbc3ae8648b97d3fd425d26286fc6bb1d50724a93a6a5763921dd2b90405a83b4a4a2646970667358221220fa1cc6bbb661e8d53392d04a5f5ba23ca088bb659daa91fe6807a9e54216df2f64736f6c63430008180033",
  "linkReferences": {},
  "deployedLinkReferences": {}
}