{
  "_format": "hh-sol-artifact-1",
  "contractName": "CMAccount",
  "sourceName": "contracts/account/CMAccount.sol",
  "abi": [
    {
      "inputs": [],
      "stateMutability": "nonpayable",
      "type": "constructor"
    },
    {
      "inputs": [],
      "name": "AccessControlBadConfirmation",
      "type": "error"
    },
    {
      "inputs": [
        {
          "internalType": "address",
          "name": "account",
          "type": "address"
        },
        {
          "internalType": "bytes32",
          "name": "neededRole",
          "type": "bytes32"
        }
      ],
      "name": "AccessControlUnauthorizedAccount",
      "type": "error"
    },
    {
      "inputs": [
        {
          "internalType": "address",
          "name": "target",
          "type": "address"
        }
      ],
      "name": "AddressEmptyCode",
      "type": "error"
    },
    {
      "inputs": [
        {
          "internalType": "address",
          "name": "account",
          "type": "address"
        }
      ],
      "name": "AddressInsufficientBalance",
      "type": "error"
    },
    {
      "inputs": [
        {
          "internalType": "address",
          "name": "latestImplementation",
          "type": "address"
        },
        {
          "internalType": "address",
          "name": "newImplementation",
          "type": "address"
        }
      ],
      "name": "CMAccountImplementationMismatch",
      "type": "error"
    },
    {
      "inputs": [
        {
          "internalType": "address",
          "name": "oldImplementation",
          "type": "address"
        },
        {
          "internalType": "address",
          "name": "newImplementation",
          "type": "address"
        }
      ],
      "name": "CMAccountNoUpgradeNeeded",
      "type": "error"
    },
    {
      "inputs": [
        {
          "internalType": "uint256",
          "name": "expiresAt",
          "type": "uint256"
        }
      ],
      "name": "ChequeExpired",
      "type": "error"
    },
    {
      "inputs": [
        {
          "internalType": "address",
          "name": "sender",
          "type": "address"
        }
      ],
      "name": "DepositorNotAllowed",
      "type": "error"
    },
    {
      "inputs": [],
      "name": "ECDSAInvalidSignature",
      "type": "error"
    },
    {
      "inputs": [
        {
          "internalType": "uint256",
          "name": "length",
          "type": "uint256"
        }
      ],
      "name": "ECDSAInvalidSignatureLength",
      "type": "error"
    },
    {
      "inputs": [
        {
          "internalType": "bytes32",
          "name": "s",
          "type": "bytes32"
        }
      ],
      "name": "ECDSAInvalidSignatureS",
      "type": "error"
    },
    {
      "inputs": [
        {
          "internalType": "address",
          "name": "implementation",
          "type": "address"
        }
      ],
      "name": "ERC1967InvalidImplementation",
      "type": "error"
    },
    {
      "inputs": [],
      "name": "ERC1967NonPayable",
      "type": "error"
    },
    {
      "inputs": [],
      "name": "FailedInnerCall",
      "type": "error"
    },
    {
      "inputs": [
        {
          "internalType": "uint256",
          "name": "chequeAmount",
          "type": "uint256"
        },
        {
          "internalType": "uint256",
          "name": "lastAmount",
          "type": "uint256"
        }
      ],
      "name": "InvalidAmount",
      "type": "error"
    },
    {
      "inputs": [
        {
          "internalType": "uint256",
          "name": "chequeCounter",
          "type": "uint256"
        },
        {
          "internalType": "uint256",
          "name": "lastCounter",
          "type": "uint256"
        }
      ],
      "name": "InvalidCounter",
      "type": "error"
    },
    {
      "inputs": [
        {
          "internalType": "address",
          "name": "fromCMAccount",
          "type": "address"
        }
      ],
      "name": "InvalidFromCMAccount",
      "type": "error"
    },
    {
      "inputs": [],
      "name": "InvalidInitialization",
      "type": "error"
    },
    {
      "inputs": [
        {
          "internalType": "uint8",
          "name": "use",
          "type": "uint8"
        }
      ],
      "name": "InvalidPublicKeyUseType",
      "type": "error"
    },
    {
      "inputs": [
        {
          "internalType": "address",
          "name": "toCMAccount",
          "type": "address"
        }
      ],
      "name": "InvalidToCMAccount",
      "type": "error"
    },
    {
      "inputs": [
        {
          "internalType": "address",
          "name": "signer",
          "type": "address"
        }
      ],
      "name": "NotAllowedToSignCheques",
      "type": "error"
    },
    {
      "inputs": [],
      "name": "NotInitializing",
      "type": "error"
    },
    {
      "inputs": [
        {
          "internalType": "address",
          "name": "token",
          "type": "address"
        }
      ],
      "name": "PaymentTokenAlreadyExists",
      "type": "error"
    },
    {
      "inputs": [
        {
          "internalType": "address",
          "name": "token",
          "type": "address"
        }
      ],
      "name": "PaymentTokenDoesNotExist",
      "type": "error"
    },
    {
      "inputs": [
        {
          "internalType": "uint256",
          "name": "withdrawableAmount",
          "type": "uint256"
        },
        {
          "internalType": "uint256",
          "name": "prefundLeft",
          "type": "uint256"
        },
        {
          "internalType": "uint256",
          "name": "amount",
          "type": "uint256"
        }
      ],
      "name": "PrefundNotSpentYet",
      "type": "error"
    },
    {
      "inputs": [
        {
          "internalType": "address",
          "name": "pubKeyAddress",
          "type": "address"
        }
      ],
      "name": "PublicKeyAlreadyExists",
      "type": "error"
    },
    {
      "inputs": [
        {
          "internalType": "address",
          "name": "pubKeyAddress",
          "type": "address"
        }
      ],
      "name": "PublicKeyDoesNotExist",
      "type": "error"
    },
    {
      "inputs": [],
      "name": "ReentrancyGuardReentrantCall",
      "type": "error"
    },
    {
      "inputs": [
        {
          "internalType": "address",
          "name": "token",
          "type": "address"
        }
      ],
      "name": "SafeERC20FailedOperation",
      "type": "error"
    },
    {
      "inputs": [
        {
          "internalType": "bytes32",
          "name": "serviceHash",
          "type": "bytes32"
        }
      ],
      "name": "ServiceAlreadyExists",
      "type": "error"
    },
    {
      "inputs": [
        {
          "internalType": "bytes32",
          "name": "serviceHash",
          "type": "bytes32"
        }
      ],
      "name": "ServiceDoesNotExist",
      "type": "error"
    },
    {
      "inputs": [],
      "name": "TransferToZeroAddress",
      "type": "error"
    },
    {
      "inputs": [],
      "name": "UUPSUnauthorizedCallContext",
      "type": "error"
    },
    {
      "inputs": [
        {
          "internalType": "bytes32",
          "name": "slot",
          "type": "bytes32"
        }
      ],
      "name": "UUPSUnsupportedProxiableUUID",
      "type": "error"
    },
    {
      "inputs": [
        {
          "internalType": "bytes32",
          "name": "serviceHash",
          "type": "bytes32"
        }
      ],
      "name": "WantedServiceAlreadyExists",
      "type": "error"
    },
    {
      "inputs": [
        {
          "internalType": "bytes32",
          "name": "serviceHash",
          "type": "bytes32"
        }
      ],
      "name": "WantedServiceDoesNotExist",
      "type": "error"
    },
    {
      "inputs": [
        {
          "internalType": "uint256",
          "name": "limit",
          "type": "uint256"
        },
        {
          "internalType": "uint256",
          "name": "amount",
          "type": "uint256"
        }
      ],
      "name": "WithdrawalLimitExceeded",
      "type": "error"
    },
    {
      "inputs": [
        {
          "internalType": "uint256",
          "name": "limit",
          "type": "uint256"
        },
        {
          "internalType": "uint256",
          "name": "amount",
          "type": "uint256"
        }
      ],
      "name": "WithdrawalLimitExceededForPeriod",
      "type": "error"
    },
    {
      "inputs": [
        {
          "internalType": "address",
          "name": "sender",
          "type": "address"
        }
      ],
      "name": "ZeroValueDeposit",
      "type": "error"
    },
    {
      "anonymous": false,
      "inputs": [
        {
          "indexed": true,
          "internalType": "address",
          "name": "oldImplementation",
          "type": "address"
        },
        {
          "indexed": true,
          "internalType": "address",
          "name": "newImplementation",
          "type": "address"
        }
      ],
      "name": "CMAccountUpgraded",
      "type": "event"
    },
    {
      "anonymous": false,
      "inputs": [
        {
          "indexed": true,
          "internalType": "address",
          "name": "fromCMAccount",
          "type": "address"
        },
        {
          "indexed": true,
          "internalType": "address",
          "name": "toCMAccount",
          "type": "address"
        },
        {
          "indexed": false,
          "internalType": "address",
          "name": "fromBot",
          "type": "address"
        },
        {
          "indexed": false,
          "internalType": "address",
          "name": "toBot",
          "type": "address"
        },
        {
          "indexed": false,
          "internalType": "uint256",
          "name": "counter",
          "type": "uint256"
        },
        {
          "indexed": false,
          "internalType": "uint256",
          "name": "amount",
          "type": "uint256"
        },
        {
          "indexed": false,
          "internalType": "uint256",
          "name": "paidChequeAmount",
          "type": "uint256"
        },
        {
          "indexed": false,
          "internalType": "uint256",
          "name": "paidDeveloperFee",
          "type": "uint256"
        }
      ],
      "name": "ChequeCashedIn",
      "type": "event"
    },
    {
      "anonymous": false,
      "inputs": [
        {
          "indexed": true,
          "internalType": "address",
          "name": "sender",
          "type": "address"
        },
        {
          "indexed": false,
          "internalType": "uint256",
          "name": "amount",
          "type": "uint256"
        }
      ],
      "name": "Deposit",
      "type": "event"
    },
    {
      "anonymous": false,
      "inputs": [
        {
          "indexed": true,
          "internalType": "address",
          "name": "withdrawer",
          "type": "address"
        },
        {
          "indexed": false,
          "internalType": "uint256",
          "name": "amount",
          "type": "uint256"
        }
      ],
      "name": "GasMoneyWithdrawal",
      "type": "event"
    },
    {
      "anonymous": false,
      "inputs": [
        {
          "indexed": false,
          "internalType": "uint256",
          "name": "limit",
          "type": "uint256"
        },
        {
          "indexed": false,
          "internalType": "uint256",
          "name": "period",
          "type": "uint256"
        }
      ],
      "name": "GasMoneyWithdrawalUpdated",
      "type": "event"
    },
    {
      "anonymous": false,
      "inputs": [
        {
          "indexed": false,
          "internalType": "uint64",
          "name": "version",
          "type": "uint64"
        }
      ],
      "name": "Initialized",
      "type": "event"
    },
    {
      "anonymous": false,
      "inputs": [
        {
          "indexed": true,
          "internalType": "address",
          "name": "bot",
          "type": "address"
        }
      ],
      "name": "MessengerBotAdded",
      "type": "event"
    },
    {
      "anonymous": false,
      "inputs": [
        {
          "indexed": true,
          "internalType": "address",
          "name": "bot",
          "type": "address"
        }
      ],
      "name": "MessengerBotRemoved",
      "type": "event"
    },
    {
      "anonymous": false,
      "inputs": [
        {
          "indexed": false,
          "internalType": "bool",
          "name": "supportsOffChainPayment",
          "type": "bool"
        }
      ],
      "name": "OffChainPaymentSupportUpdated",
      "type": "event"
    },
    {
      "anonymous": false,
      "inputs": [
        {
          "indexed": false,
          "internalType": "address",
          "name": "token",
          "type": "address"
        }
      ],
      "name": "PaymentTokenAdded",
      "type": "event"
    },
    {
      "anonymous": false,
      "inputs": [
        {
          "indexed": false,
          "internalType": "address",
          "name": "token",
          "type": "address"
        }
      ],
      "name": "PaymentTokenRemoved",
      "type": "event"
    },
    {
      "anonymous": false,
      "inputs": [
        {
          "indexed": true,
          "internalType": "address",
          "name": "pubKeyAddress",
          "type": "address"
        }
      ],
      "name": "PublicKeyAdded",
      "type": "event"
    },
    {
      "anonymous": false,
      "inputs": [
        {
          "indexed": true,
          "internalType": "address",
          "name": "pubKeyAddress",
          "type": "address"
        }
      ],
      "name": "PublicKeyRemoved",
      "type": "event"
    },
    {
      "anonymous": false,
      "inputs": [
        {
          "indexed": true,
          "internalType": "bytes32",
          "name": "role",
          "type": "bytes32"
        },
        {
          "indexed": true,
          "internalType": "bytes32",
          "name": "previousAdminRole",
          "type": "bytes32"
        },
        {
          "indexed": true,
          "internalType": "bytes32",
          "name": "newAdminRole",
          "type": "bytes32"
        }
      ],
      "name": "RoleAdminChanged",
      "type": "event"
    },
    {
      "anonymous": false,
      "inputs": [
        {
          "indexed": true,
          "internalType": "bytes32",
          "name": "role",
          "type": "bytes32"
        },
        {
          "indexed": true,
          "internalType": "address",
          "name": "account",
          "type": "address"
        },
        {
          "indexed": true,
          "internalType": "address",
          "name": "sender",
          "type": "address"
        }
      ],
      "name": "RoleGranted",
      "type": "event"
    },
    {
      "anonymous": false,
      "inputs": [
        {
          "indexed": true,
          "internalType": "bytes32",
          "name": "role",
          "type": "bytes32"
        },
        {
          "indexed": true,
          "internalType": "address",
          "name": "account",
          "type": "address"
        },
        {
          "indexed": true,
          "internalType": "address",
          "name": "sender",
          "type": "address"
        }
      ],
      "name": "RoleRevoked",
      "type": "event"
    },
    {
      "anonymous": false,
      "inputs": [
        {
          "indexed": false,
          "internalType": "bytes32",
          "name": "serviceHash",
          "type": "bytes32"
        }
      ],
      "name": "ServiceAdded",
      "type": "event"
    },
    {
      "anonymous": false,
      "inputs": [
        {
          "indexed": false,
          "internalType": "bytes32",
          "name": "serviceHash",
          "type": "bytes32"
        }
      ],
      "name": "ServiceCapabilitiesUpdated",
      "type": "event"
    },
    {
      "anonymous": false,
      "inputs": [
        {
          "indexed": false,
          "internalType": "bytes32",
          "name": "serviceHash",
          "type": "bytes32"
        },
        {
          "indexed": false,
          "internalType": "string",
          "name": "capability",
          "type": "string"
        }
      ],
      "name": "ServiceCapabilityAdded",
      "type": "event"
    },
    {
      "anonymous": false,
      "inputs": [
        {
          "indexed": false,
          "internalType": "bytes32",
          "name": "serviceHash",
          "type": "bytes32"
        },
        {
          "indexed": false,
          "internalType": "string",
          "name": "capability",
          "type": "string"
        }
      ],
      "name": "ServiceCapabilityRemoved",
      "type": "event"
    },
    {
      "anonymous": false,
      "inputs": [
        {
          "indexed": false,
          "internalType": "bytes32",
          "name": "serviceHash",
          "type": "bytes32"
        },
        {
          "indexed": false,
          "internalType": "uint256",
          "name": "fee",
          "type": "uint256"
        }
      ],
      "name": "ServiceFeeUpdated",
      "type": "event"
    },
    {
      "anonymous": false,
      "inputs": [
        {
          "indexed": false,
          "internalType": "bytes32",
          "name": "serviceHash",
          "type": "bytes32"
        }
      ],
      "name": "ServiceRemoved",
      "type": "event"
    },
    {
      "anonymous": false,
      "inputs": [
        {
          "indexed": false,
          "internalType": "bytes32",
          "name": "serviceHash",
          "type": "bytes32"
        },
        {
          "indexed": false,
          "internalType": "bool",
          "name": "restrictedRate",
          "type": "bool"
        }
      ],
      "name": "ServiceRestrictedRateUpdated",
      "type": "event"
    },
    {
      "anonymous": false,
      "inputs": [
        {
          "indexed": true,
          "internalType": "address",
          "name": "implementation",
          "type": "address"
        }
      ],
      "name": "Upgraded",
      "type": "event"
    },
    {
      "anonymous": false,
      "inputs": [
        {
          "indexed": false,
          "internalType": "bytes32",
          "name": "serviceHash",
          "type": "bytes32"
        }
      ],
      "name": "WantedServiceAdded",
      "type": "event"
    },
    {
      "anonymous": false,
      "inputs": [
        {
          "indexed": false,
          "internalType": "bytes32",
          "name": "serviceHash",
          "type": "bytes32"
        }
      ],
      "name": "WantedServiceRemoved",
      "type": "event"
    },
    {
      "anonymous": false,
      "inputs": [
        {
          "indexed": true,
          "internalType": "address",
          "name": "receiver",
          "type": "address"
        },
        {
          "indexed": false,
          "internalType": "uint256",
          "name": "amount",
          "type": "uint256"
        }
      ],
      "name": "Withdraw",
      "type": "event"
    },
    {
      "inputs": [],
      "name": "BOOKING_OPERATOR_ROLE",
      "outputs": [
        {
          "internalType": "bytes32",
          "name": "",
          "type": "bytes32"
        }
      ],
      "stateMutability": "view",
      "type": "function"
    },
    {
      "inputs": [],
      "name": "BOT_ADMIN_ROLE",
      "outputs": [
        {
          "internalType": "bytes32",
          "name": "",
          "type": "bytes32"
        }
      ],
      "stateMutability": "view",
      "type": "function"
    },
    {
      "inputs": [],
      "name": "CHEQUE_OPERATOR_ROLE",
      "outputs": [
        {
          "internalType": "bytes32",
          "name": "",
          "type": "bytes32"
        }
      ],
      "stateMutability": "view",
      "type": "function"
    },
    {
      "inputs": [],
      "name": "DEFAULT_ADMIN_ROLE",
      "outputs": [
        {
          "internalType": "bytes32",
          "name": "",
          "type": "bytes32"
        }
      ],
      "stateMutability": "view",
      "type": "function"
    },
    {
      "inputs": [],
      "name": "DOMAIN_TYPEHASH",
      "outputs": [
        {
          "internalType": "bytes32",
          "name": "",
          "type": "bytes32"
        }
      ],
      "stateMutability": "view",
      "type": "function"
    },
    {
      "inputs": [],
      "name": "GAS_WITHDRAWER_ROLE",
      "outputs": [
        {
          "internalType": "bytes32",
          "name": "",
          "type": "bytes32"
        }
      ],
      "stateMutability": "view",
      "type": "function"
    },
    {
      "inputs": [],
      "name": "MESSENGER_CHEQUE_TYPEHASH",
      "outputs": [
        {
          "internalType": "bytes32",
          "name": "",
          "type": "bytes32"
        }
      ],
      "stateMutability": "view",
      "type": "function"
    },
    {
      "inputs": [],
      "name": "SERVICE_ADMIN_ROLE",
      "outputs": [
        {
          "internalType": "bytes32",
          "name": "",
          "type": "bytes32"
        }
      ],
      "stateMutability": "view",
      "type": "function"
    },
    {
      "inputs": [],
      "name": "UPGRADER_ROLE",
      "outputs": [
        {
          "internalType": "bytes32",
          "name": "",
          "type": "bytes32"
        }
      ],
      "stateMutability": "view",
      "type": "function"
    },
    {
      "inputs": [],
      "name": "UPGRADE_INTERFACE_VERSION",
      "outputs": [
        {
          "internalType": "string",
          "name": "",
          "type": "string"
        }
      ],
      "stateMutability": "view",
      "type": "function"
    },
    {
      "inputs": [],
      "name": "WITHDRAWER_ROLE",
      "outputs": [
        {
          "internalType": "bytes32",
          "name": "",
          "type": "bytes32"
        }
      ],
      "stateMutability": "view",
      "type": "function"
    },
    {
      "inputs": [
        {
          "internalType": "address",
          "name": "bot",
          "type": "address"
        },
        {
          "internalType": "uint256",
          "name": "gasMoney",
          "type": "uint256"
        }
      ],
      "name": "addMessengerBot",
      "outputs": [],
      "stateMutability": "nonpayable",
      "type": "function"
    },
    {
      "inputs": [
        {
          "internalType": "address",
          "name": "pubKeyAddress",
          "type": "address"
        },
        {
          "internalType": "bytes",
          "name": "data",
          "type": "bytes"
        }
      ],
      "name": "addPublicKey",
      "outputs": [],
      "stateMutability": "nonpayable",
      "type": "function"
    },
    {
      "inputs": [
        {
          "internalType": "string",
          "name": "serviceName",
          "type": "string"
        },
        {
          "internalType": "uint256",
          "name": "fee",
          "type": "uint256"
        },
        {
          "internalType": "bool",
          "name": "restrictedRate",
          "type": "bool"
        },
        {
          "internalType": "string[]",
          "name": "capabilities",
          "type": "string[]"
        }
      ],
      "name": "addService",
      "outputs": [],
      "stateMutability": "nonpayable",
      "type": "function"
    },
    {
      "inputs": [
        {
          "internalType": "string",
          "name": "serviceName",
          "type": "string"
        },
        {
          "internalType": "string",
          "name": "capability",
          "type": "string"
        }
      ],
      "name": "addServiceCapability",
      "outputs": [],
      "stateMutability": "nonpayable",
      "type": "function"
    },
    {
      "inputs": [
        {
          "internalType": "address",
          "name": "_supportedToken",
          "type": "address"
        }
      ],
      "name": "addSupportedToken",
      "outputs": [],
      "stateMutability": "nonpayable",
      "type": "function"
    },
    {
      "inputs": [
        {
          "internalType": "string[]",
          "name": "serviceNames",
          "type": "string[]"
        }
      ],
      "name": "addWantedServices",
      "outputs": [],
      "stateMutability": "nonpayable",
      "type": "function"
    },
    {
      "inputs": [
        {
          "internalType": "uint256",
          "name": "tokenId",
          "type": "uint256"
        }
      ],
      "name": "buyBookingToken",
      "outputs": [],
      "stateMutability": "nonpayable",
      "type": "function"
    },
    {
      "inputs": [
        {
          "internalType": "address",
          "name": "fromCMAccount",
          "type": "address"
        },
        {
          "internalType": "address",
          "name": "toCMAccount",
          "type": "address"
        },
        {
          "internalType": "address",
          "name": "toBot",
          "type": "address"
        },
        {
          "internalType": "uint256",
          "name": "counter",
          "type": "uint256"
        },
        {
          "internalType": "uint256",
          "name": "amount",
          "type": "uint256"
        },
        {
          "internalType": "uint256",
          "name": "createdAt",
          "type": "uint256"
        },
        {
          "internalType": "uint256",
          "name": "expiresAt",
          "type": "uint256"
        },
        {
          "internalType": "bytes",
          "name": "signature",
          "type": "bytes"
        }
      ],
      "name": "cashInCheque",
      "outputs": [],
      "stateMutability": "nonpayable",
      "type": "function"
    },
    {
      "inputs": [],
      "name": "getAllServiceHashes",
      "outputs": [
        {
          "internalType": "bytes32[]",
          "name": "serviceHashes",
          "type": "bytes32[]"
        }
      ],
      "stateMutability": "view",
      "type": "function"
    },
    {
      "inputs": [],
      "name": "getBookingTokenAddress",
      "outputs": [
        {
          "internalType": "address",
          "name": "",
          "type": "address"
        }
      ],
      "stateMutability": "view",
      "type": "function"
    },
    {
      "inputs": [],
      "name": "getDomainSeparator",
      "outputs": [
        {
          "internalType": "bytes32",
          "name": "",
          "type": "bytes32"
        }
      ],
      "stateMutability": "view",
      "type": "function"
    },
    {
      "inputs": [],
      "name": "getGasMoneyWithdrawal",
      "outputs": [
        {
          "internalType": "uint256",
          "name": "withdrawalLimit",
          "type": "uint256"
        },
        {
          "internalType": "uint256",
          "name": "withdrawalPeriod",
          "type": "uint256"
        }
      ],
      "stateMutability": "view",
      "type": "function"
    },
    {
      "inputs": [
        {
          "internalType": "address",
          "name": "account",
          "type": "address"
        }
      ],
      "name": "getGasMoneyWithdrawalForAccount",
      "outputs": [
        {
          "internalType": "uint256",
          "name": "periodStart",
          "type": "uint256"
        },
        {
          "internalType": "uint256",
          "name": "withdrawnAmount",
          "type": "uint256"
        }
      ],
      "stateMutability": "view",
      "type": "function"
    },
    {
      "inputs": [
        {
          "internalType": "address",
          "name": "fromBot",
          "type": "address"
        },
        {
          "internalType": "address",
          "name": "toBot",
          "type": "address"
        }
      ],
      "name": "getLastCashIn",
      "outputs": [
        {
          "internalType": "uint256",
          "name": "lastCounter",
          "type": "uint256"
        },
        {
          "internalType": "uint256",
          "name": "lastAmount",
          "type": "uint256"
        },
        {
          "internalType": "uint256",
          "name": "lastCreatedAt",
          "type": "uint256"
        },
        {
          "internalType": "uint256",
          "name": "lastExpiresAt",
          "type": "uint256"
        }
      ],
      "stateMutability": "view",
      "type": "function"
    },
    {
      "inputs": [],
      "name": "getManagerAddress",
      "outputs": [
        {
          "internalType": "address",
          "name": "",
          "type": "address"
        }
      ],
      "stateMutability": "view",
      "type": "function"
    },
    {
      "inputs": [],
      "name": "getPrefundAmount",
      "outputs": [
        {
          "internalType": "uint256",
          "name": "",
          "type": "uint256"
        }
      ],
      "stateMutability": "view",
      "type": "function"
    },
    {
      "inputs": [
        {
          "internalType": "address",
          "name": "pubKeyAddress",
          "type": "address"
        }
      ],
      "name": "getPublicKey",
      "outputs": [
        {
          "internalType": "bytes",
          "name": "data",
          "type": "bytes"
        }
      ],
      "stateMutability": "view",
      "type": "function"
    },
    {
      "inputs": [],
      "name": "getPublicKeysAddresses",
      "outputs": [
        {
          "internalType": "address[]",
          "name": "pubKeyAddresses",
          "type": "address[]"
        }
      ],
      "stateMutability": "view",
      "type": "function"
    },
    {
      "inputs": [
        {
          "internalType": "bytes32",
          "name": "role",
          "type": "bytes32"
        }
      ],
      "name": "getRoleAdmin",
      "outputs": [
        {
          "internalType": "bytes32",
          "name": "",
          "type": "bytes32"
        }
      ],
      "stateMutability": "view",
      "type": "function"
    },
    {
      "inputs": [
        {
          "internalType": "bytes32",
          "name": "role",
          "type": "bytes32"
        },
        {
          "internalType": "uint256",
          "name": "index",
          "type": "uint256"
        }
      ],
      "name": "getRoleMember",
      "outputs": [
        {
          "internalType": "address",
          "name": "",
          "type": "address"
        }
      ],
      "stateMutability": "view",
      "type": "function"
    },
    {
      "inputs": [
        {
          "internalType": "bytes32",
          "name": "role",
          "type": "bytes32"
        }
      ],
      "name": "getRoleMemberCount",
      "outputs": [
        {
          "internalType": "uint256",
          "name": "",
          "type": "uint256"
        }
      ],
      "stateMutability": "view",
      "type": "function"
    },
    {
      "inputs": [
        {
          "internalType": "bytes32",
          "name": "serviceHash",
          "type": "bytes32"
        }
      ],
      "name": "getService",
      "outputs": [
        {
          "components": [
            {
              "internalType": "uint256",
              "name": "_fee",
              "type": "uint256"
            },
            {
              "internalType": "bool",
              "name": "_restrictedRate",
              "type": "bool"
            },
            {
              "internalType": "string[]",
              "name": "_capabilities",
              "type": "string[]"
            }
          ],
          "internalType": "struct PartnerConfiguration.Service",
          "name": "service",
          "type": "tuple"
        }
      ],
      "stateMutability": "view",
      "type": "function"
    },
    {
      "inputs": [
        {
          "internalType": "string",
          "name": "serviceName",
          "type": "string"
        }
      ],
      "name": "getServiceCapabilities",
      "outputs": [
        {
          "internalType": "string[]",
          "name": "capabilities",
          "type": "string[]"
        }
      ],
      "stateMutability": "view",
      "type": "function"
    },
    {
      "inputs": [
        {
          "internalType": "bytes32",
          "name": "serviceHash",
          "type": "bytes32"
        }
      ],
      "name": "getServiceCapabilities",
      "outputs": [
        {
          "internalType": "string[]",
          "name": "capabilities",
          "type": "string[]"
        }
      ],
      "stateMutability": "view",
      "type": "function"
    },
    {
      "inputs": [
        {
          "internalType": "string",
          "name": "serviceName",
          "type": "string"
        }
      ],
      "name": "getServiceFee",
      "outputs": [
        {
          "internalType": "uint256",
          "name": "fee",
          "type": "uint256"
        }
      ],
      "stateMutability": "view",
      "type": "function"
    },
    {
      "inputs": [
        {
          "internalType": "bytes32",
          "name": "serviceHash",
          "type": "bytes32"
        }
      ],
      "name": "getServiceFee",
      "outputs": [
        {
          "internalType": "uint256",
          "name": "fee",
          "type": "uint256"
        }
      ],
      "stateMutability": "view",
      "type": "function"
    },
    {
      "inputs": [
        {
          "internalType": "bytes32",
          "name": "serviceHash",
          "type": "bytes32"
        }
      ],
      "name": "getServiceRestrictedRate",
      "outputs": [
        {
          "internalType": "bool",
          "name": "restrictedRate",
          "type": "bool"
        }
      ],
      "stateMutability": "view",
      "type": "function"
    },
    {
      "inputs": [
        {
          "internalType": "string",
          "name": "serviceName",
          "type": "string"
        }
      ],
      "name": "getServiceRestrictedRate",
      "outputs": [
        {
          "internalType": "bool",
          "name": "restrictedRate",
          "type": "bool"
        }
      ],
      "stateMutability": "view",
      "type": "function"
    },
    {
      "inputs": [],
      "name": "getSupportedServices",
      "outputs": [
        {
          "internalType": "string[]",
          "name": "serviceNames",
          "type": "string[]"
        },
        {
          "components": [
            {
              "internalType": "uint256",
              "name": "_fee",
              "type": "uint256"
            },
            {
              "internalType": "bool",
              "name": "_restrictedRate",
              "type": "bool"
            },
            {
              "internalType": "string[]",
              "name": "_capabilities",
              "type": "string[]"
            }
          ],
          "internalType": "struct PartnerConfiguration.Service[]",
          "name": "services",
          "type": "tuple[]"
        }
      ],
      "stateMutability": "view",
      "type": "function"
    },
    {
      "inputs": [],
      "name": "getSupportedTokens",
      "outputs": [
        {
          "internalType": "address[]",
          "name": "tokens",
          "type": "address[]"
        }
      ],
      "stateMutability": "view",
      "type": "function"
    },
    {
      "inputs": [],
      "name": "getTotalChequePayments",
      "outputs": [
        {
          "internalType": "uint256",
          "name": "",
          "type": "uint256"
        }
      ],
      "stateMutability": "view",
      "type": "function"
    },
    {
      "inputs": [],
      "name": "getWantedServiceHashes",
      "outputs": [
        {
          "internalType": "bytes32[]",
          "name": "serviceHashes",
          "type": "bytes32[]"
        }
      ],
      "stateMutability": "view",
      "type": "function"
    },
    {
      "inputs": [],
      "name": "getWantedServices",
      "outputs": [
        {
          "internalType": "string[]",
          "name": "serviceNames",
          "type": "string[]"
        }
      ],
      "stateMutability": "view",
      "type": "function"
    },
    {
      "inputs": [
        {
          "internalType": "bytes32",
          "name": "role",
          "type": "bytes32"
        },
        {
          "internalType": "address",
          "name": "account",
          "type": "address"
        }
      ],
      "name": "grantRole",
      "outputs": [],
      "stateMutability": "nonpayable",
      "type": "function"
    },
    {
      "inputs": [
        {
          "internalType": "bytes32",
          "name": "role",
          "type": "bytes32"
        },
        {
          "internalType": "address",
          "name": "account",
          "type": "address"
        }
      ],
      "name": "hasRole",
      "outputs": [
        {
          "internalType": "bool",
          "name": "",
          "type": "bool"
        }
      ],
      "stateMutability": "view",
      "type": "function"
    },
    {
      "inputs": [
        {
          "internalType": "address",
          "name": "fromCMAccount",
          "type": "address"
        },
        {
          "internalType": "address",
          "name": "toCMAccount",
          "type": "address"
        },
        {
          "internalType": "address",
          "name": "toBot",
          "type": "address"
        },
        {
          "internalType": "uint256",
          "name": "counter",
          "type": "uint256"
        },
        {
          "internalType": "uint256",
          "name": "amount",
          "type": "uint256"
        },
        {
          "internalType": "uint256",
          "name": "createdAt",
          "type": "uint256"
        },
        {
          "internalType": "uint256",
          "name": "expiresAt",
          "type": "uint256"
        }
      ],
      "name": "hashMessengerCheque",
      "outputs": [
        {
          "internalType": "bytes32",
          "name": "",
          "type": "bytes32"
        }
      ],
      "stateMutability": "pure",
      "type": "function"
    },
    {
      "inputs": [
        {
          "internalType": "address",
          "name": "fromCMAccount",
          "type": "address"
        },
        {
          "internalType": "address",
          "name": "toCMAccount",
          "type": "address"
        },
        {
          "internalType": "address",
          "name": "toBot",
          "type": "address"
        },
        {
          "internalType": "uint256",
          "name": "counter",
          "type": "uint256"
        },
        {
          "internalType": "uint256",
          "name": "amount",
          "type": "uint256"
        },
        {
          "internalType": "uint256",
          "name": "createdAt",
          "type": "uint256"
        },
        {
          "internalType": "uint256",
          "name": "expiresAt",
          "type": "uint256"
        }
      ],
      "name": "hashTypedDataV4",
      "outputs": [
        {
          "internalType": "bytes32",
          "name": "",
          "type": "bytes32"
        }
      ],
      "stateMutability": "view",
      "type": "function"
    },
    {
      "inputs": [
        {
          "internalType": "address",
          "name": "manager",
          "type": "address"
        },
        {
          "internalType": "address",
          "name": "bookingToken",
          "type": "address"
        },
        {
          "internalType": "uint256",
          "name": "prefundAmount",
          "type": "uint256"
        },
        {
          "internalType": "address",
          "name": "defaultAdmin",
          "type": "address"
        },
        {
          "internalType": "address",
          "name": "upgrader",
          "type": "address"
        }
      ],
      "name": "initialize",
      "outputs": [],
      "stateMutability": "nonpayable",
      "type": "function"
    },
    {
      "inputs": [
        {
          "internalType": "address",
          "name": "bot",
          "type": "address"
        }
      ],
      "name": "isBotAllowed",
      "outputs": [
        {
          "internalType": "bool",
          "name": "",
          "type": "bool"
        }
      ],
      "stateMutability": "view",
      "type": "function"
    },
    {
      "inputs": [
        {
          "internalType": "address",
          "name": "reservedFor",
          "type": "address"
        },
        {
          "internalType": "string",
          "name": "uri",
          "type": "string"
        },
        {
          "internalType": "uint256",
          "name": "expirationTimestamp",
          "type": "uint256"
        },
        {
          "internalType": "uint256",
          "name": "price",
          "type": "uint256"
        },
        {
          "internalType": "contract IERC20",
          "name": "paymentToken",
          "type": "address"
        }
      ],
      "name": "mintBookingToken",
      "outputs": [],
      "stateMutability": "nonpayable",
      "type": "function"
    },
    {
      "inputs": [],
      "name": "offChainPaymentSupported",
      "outputs": [
        {
          "internalType": "bool",
          "name": "",
          "type": "bool"
        }
      ],
      "stateMutability": "view",
      "type": "function"
    },
    {
      "inputs": [
        {
          "internalType": "address",
          "name": "",
          "type": "address"
        },
        {
          "internalType": "address",
          "name": "",
          "type": "address"
        },
        {
          "internalType": "uint256",
          "name": "",
          "type": "uint256"
        },
        {
          "internalType": "bytes",
          "name": "",
          "type": "bytes"
        }
      ],
      "name": "onERC721Received",
      "outputs": [
        {
          "internalType": "bytes4",
          "name": "",
          "type": "bytes4"
        }
      ],
      "stateMutability": "nonpayable",
      "type": "function"
    },
    {
      "inputs": [],
      "name": "proxiableUUID",
      "outputs": [
        {
          "internalType": "bytes32",
          "name": "",
          "type": "bytes32"
        }
      ],
      "stateMutability": "view",
      "type": "function"
    },
    {
      "inputs": [
        {
          "internalType": "address",
          "name": "bot",
          "type": "address"
        }
      ],
      "name": "removeMessengerBot",
      "outputs": [],
      "stateMutability": "nonpayable",
      "type": "function"
    },
    {
      "inputs": [
        {
          "internalType": "address",
          "name": "pubKeyAddress",
          "type": "address"
        }
      ],
      "name": "removePublicKey",
      "outputs": [],
      "stateMutability": "nonpayable",
      "type": "function"
    },
    {
      "inputs": [
        {
          "internalType": "string",
          "name": "serviceName",
          "type": "string"
        }
      ],
      "name": "removeService",
      "outputs": [],
      "stateMutability": "nonpayable",
      "type": "function"
    },
    {
      "inputs": [
        {
          "internalType": "string",
          "name": "serviceName",
          "type": "string"
        },
        {
          "internalType": "string",
          "name": "capability",
          "type": "string"
        }
      ],
      "name": "removeServiceCapability",
      "outputs": [],
      "stateMutability": "nonpayable",
      "type": "function"
    },
    {
      "inputs": [
        {
          "internalType": "address",
          "name": "_supportedToken",
          "type": "address"
        }
      ],
      "name": "removeSupportedToken",
      "outputs": [],
      "stateMutability": "nonpayable",
      "type": "function"
    },
    {
      "inputs": [
        {
          "internalType": "string[]",
          "name": "serviceNames",
          "type": "string[]"
        }
      ],
      "name": "removeWantedServices",
      "outputs": [],
      "stateMutability": "nonpayable",
      "type": "function"
    },
    {
      "inputs": [
        {
          "internalType": "bytes32",
          "name": "role",
          "type": "bytes32"
        },
        {
          "internalType": "address",
          "name": "callerConfirmation",
          "type": "address"
        }
      ],
      "name": "renounceRole",
      "outputs": [],
      "stateMutability": "nonpayable",
      "type": "function"
    },
    {
      "inputs": [
        {
          "internalType": "bytes32",
          "name": "role",
          "type": "bytes32"
        },
        {
          "internalType": "address",
          "name": "account",
          "type": "address"
        }
      ],
      "name": "revokeRole",
      "outputs": [],
      "stateMutability": "nonpayable",
      "type": "function"
    },
    {
      "inputs": [
        {
          "internalType": "uint256",
          "name": "limit",
          "type": "uint256"
        },
        {
          "internalType": "uint256",
          "name": "period",
          "type": "uint256"
        }
      ],
      "name": "setGasMoneyWithdrawal",
      "outputs": [],
      "stateMutability": "nonpayable",
      "type": "function"
    },
    {
      "inputs": [
        {
          "internalType": "bool",
          "name": "_isSupported",
          "type": "bool"
        }
      ],
      "name": "setOffChainPaymentSupported",
      "outputs": [],
      "stateMutability": "nonpayable",
      "type": "function"
    },
    {
      "inputs": [
        {
          "internalType": "string",
          "name": "serviceName",
          "type": "string"
        },
        {
          "internalType": "string[]",
          "name": "capabilities",
          "type": "string[]"
        }
      ],
      "name": "setServiceCapabilities",
      "outputs": [],
      "stateMutability": "nonpayable",
      "type": "function"
    },
    {
      "inputs": [
        {
          "internalType": "string",
          "name": "serviceName",
          "type": "string"
        },
        {
          "internalType": "uint256",
          "name": "fee",
          "type": "uint256"
        }
      ],
      "name": "setServiceFee",
      "outputs": [],
      "stateMutability": "nonpayable",
      "type": "function"
    },
    {
      "inputs": [
        {
          "internalType": "string",
          "name": "serviceName",
          "type": "string"
        },
        {
          "internalType": "bool",
          "name": "restrictedRate",
          "type": "bool"
        }
      ],
      "name": "setServiceRestrictedRate",
      "outputs": [],
      "stateMutability": "nonpayable",
      "type": "function"
    },
    {
      "inputs": [
        {
          "internalType": "bytes4",
          "name": "interfaceId",
          "type": "bytes4"
        }
      ],
      "name": "supportsInterface",
      "outputs": [
        {
          "internalType": "bool",
          "name": "",
          "type": "bool"
        }
      ],
      "stateMutability": "view",
      "type": "function"
    },
    {
      "inputs": [
        {
          "internalType": "contract IERC20",
          "name": "token",
          "type": "address"
        },
        {
          "internalType": "address",
          "name": "to",
          "type": "address"
        },
        {
          "internalType": "uint256",
          "name": "amount",
          "type": "uint256"
        }
      ],
      "name": "transferERC20",
      "outputs": [],
      "stateMutability": "nonpayable",
      "type": "function"
    },
    {
      "inputs": [
        {
          "internalType": "contract IERC721",
          "name": "token",
          "type": "address"
        },
        {
          "internalType": "address",
          "name": "to",
          "type": "address"
        },
        {
          "internalType": "uint256",
          "name": "tokenId",
          "type": "uint256"
        }
      ],
      "name": "transferERC721",
      "outputs": [],
      "stateMutability": "nonpayable",
      "type": "function"
    },
    {
      "inputs": [
        {
          "internalType": "address",
          "name": "newImplementation",
          "type": "address"
        },
        {
          "internalType": "bytes",
          "name": "data",
          "type": "bytes"
        }
      ],
      "name": "upgradeToAndCall",
      "outputs": [],
      "stateMutability": "payable",
      "type": "function"
    },
    {
      "inputs": [
        {
          "internalType": "address",
          "name": "fromCMAccount",
          "type": "address"
        },
        {
          "internalType": "address",
          "name": "toCMAccount",
          "type": "address"
        },
        {
          "internalType": "address",
          "name": "toBot",
          "type": "address"
        },
        {
          "internalType": "uint256",
          "name": "counter",
          "type": "uint256"
        },
        {
          "internalType": "uint256",
          "name": "amount",
          "type": "uint256"
        },
        {
          "internalType": "uint256",
          "name": "createdAt",
          "type": "uint256"
        },
        {
          "internalType": "uint256",
          "name": "expiresAt",
          "type": "uint256"
        },
        {
          "internalType": "bytes",
          "name": "signature",
          "type": "bytes"
        }
      ],
      "name": "verifyCheque",
      "outputs": [
        {
          "internalType": "address",
          "name": "signer",
          "type": "address"
        },
        {
          "internalType": "uint256",
          "name": "paymentAmount",
          "type": "uint256"
        }
      ],
      "stateMutability": "view",
      "type": "function"
    },
    {
      "inputs": [
        {
          "internalType": "address payable",
          "name": "recipient",
          "type": "address"
        },
        {
          "internalType": "uint256",
          "name": "amount",
          "type": "uint256"
        }
      ],
      "name": "withdraw",
      "outputs": [],
      "stateMutability": "nonpayable",
      "type": "function"
    },
    {
      "inputs": [
        {
          "internalType": "uint256",
          "name": "amount",
          "type": "uint256"
        }
      ],
      "name": "withdrawGasMoney",
      "outputs": [],
      "stateMutability": "nonpayable",
      "type": "function"
    },
    {
      "stateMutability": "payable",
      "type": "receive"
    }
  ],
  "bytecode": "0x60a0604052306080523480156200001557600080fd5b506200002062000026565b620000da565b7ff0c57e16840df040f15088dc2f81fe391c3923bec73e23a9662efc9c229c6a00805468010000000000000000900460ff1615620000775760405163f92ee8a960e01b815260040160405180910390fd5b80546001600160401b0390811614620000d75780546001600160401b0319166001600160401b0390811782556040519081527fc7f505b2f371ae2175ee4913f4499e1f2633a7b5936321eed1cdaeb6115181d29060200160405180910390a15b50565b608051614f7462000104600039600081816129150152818161293e0152612c9f0152614f746000f3fe6080604052600436106103455760003560e01c806301ffc9a71461035157806308564c19146103865780630ede80d6146103a8578063136f50ca146103d8578063150b7a02146103fa57806318274da41461043e5780631aca63761461045e5780631c5db99e1461048057806320606b70146104a057806321b9b929146104c2578063241bbbfc146104f0578063248a9ca31461050557806326687c9f146105255780632f2ff15d14610545578063319d13f314610565578063337462741461058557806333e1a223146105a757806336568abe146105c7578063383aba87146105e757806339e4c7051461060957806341bf7c691461062957806342072bbd14610649578063432cf6391461065e5780634781ae531461067e5780634f1ef2861461069e5780634f3f4639146106b157806351889d6b146106d357806352d1902d146106f357806358e5cae0146107085780635c988994146107285780635e07f8691461074857806363e86cc814610768578063647d8f6d1461078a578063658db0af146107aa5780636d69fcaf146107cd5780636fc22cd1146107ed5780637512e55b1461080d578063763191901461082d5780637eec56c71461084d578063852b3ccb14610870578063857cdbb81461089257806385f438c1146108bf5780638c20f574146108e15780638f69347d146109015780639010d07c1461092157806391d1485414610941578063930659eb146109615780639db5dbe414610991578063a217fddf146109b1578063a31aa039146109c6578063a7d022f8146109e6578063ad3cb1cc14610a06578063b512463514610a37578063c162d7da14610a57578063c39409e114610a6c578063c6640e6814610a81578063c7b5914f14610aa1578063ca15c87314610ac1578063ccde65dc14610ae1578063d09445c214610b01578063d3c7c2c714610b23578063d547741f14610b45578063da47d85614610b65578063e0b78add14610b92578063e7bfce9a14610bb2578063e96cf7ad14610bd2578063ea79d07a14610be7578063eb5ea27314610bfc578063ebc20d2014610c1c578063ed24911d14610c3c578063ee3b641f14610c51578063f3fef3a314610c71578063f51acaea14610c91578063f72c0d8b14610cb157600080fd5b3661034c57005b600080fd5b34801561035d57600080fd5b5061037161036c366004613f0b565b610cd3565b60405190151581526020015b60405180910390f35b34801561039257600080fd5b5061039b610cfe565b60405161037d9190613fdf565b3480156103b457600080fd5b506103ca600080516020614edf83398151915281565b60405190815260200161037d565b3480156103e457600080fd5b506103ed610e28565b60405161037d9190613ff2565b34801561040657600080fd5b5061042561041536600461410e565b630a85bd0160e11b949350505050565b6040516001600160e01b0319909116815260200161037d565b34801561044a57600080fd5b506103ca610459366004614179565b610e48565b34801561046a57600080fd5b5061047e6104793660046141ad565b610e56565b005b34801561048c57600080fd5b5061047e61049b36600461428c565b610f03565b3480156104ac57600080fd5b506103ca600080516020614eff83398151915281565b3480156104ce57600080fd5b506104e26104dd3660046142c0565b610f64565b60405161037d92919061435b565b3480156104fc57600080fd5b5061037161112d565b34801561051157600080fd5b506103ca610520366004614374565b611145565b34801561053157600080fd5b5061047e610540366004614374565b611165565b34801561055157600080fd5b5061047e61056036600461438d565b611201565b34801561057157600080fd5b5061039b610580366004614179565b611223565b34801561059157600080fd5b506103ca600080516020614e9f83398151915281565b3480156105b357600080fd5b5061047e6105c23660046143bd565b611231565b3480156105d357600080fd5b5061047e6105e236600461438d565b6113ed565b3480156105f357600080fd5b506103ca600080516020614dff83398151915281565b34801561061557600080fd5b5061047e61062436600461428c565b611420565b34801561063557600080fd5b5061047e610644366004614425565b61146f565b34801561065557600080fd5b506103ed611499565b34801561066a57600080fd5b5061047e610679366004614477565b6114b0565b34801561068a57600080fd5b506103ca6106993660046144ec565b6114e3565b61047e6106ac36600461455a565b611565565b3480156106bd57600080fd5b506106c6611584565b60405161037d91906145a9565b3480156106df57600080fd5b5061047e6106ee3660046145bd565b6115a2565b3480156106ff57600080fd5b506103ca611655565b34801561071457600080fd5b5061047e6107233660046145e9565b611672565b34801561073457600080fd5b5061047e610743366004614374565b6116fe565b34801561075457600080fd5b5061039b610763366004614374565b611739565b34801561077457600080fd5b506103ca600080516020614e1f83398151915281565b34801561079657600080fd5b5061047e6107a53660046142c0565b611841565b3480156107b657600080fd5b506107bf611a43565b60405161037d929190614652565b3480156107d957600080fd5b5061047e6107e8366004614660565b611a65565b3480156107f957600080fd5b5061047e61080836600461467d565b611a86565b34801561081957600080fd5b5061047e61082836600461469f565b611aa8565b34801561083957600080fd5b5061047e610848366004614660565b611ad2565b34801561085957600080fd5b50610862611af3565b60405161037d929190614776565b34801561087c57600080fd5b506103ca600080516020614f1f83398151915281565b34801561089e57600080fd5b506108b26108ad366004614660565b611cb8565b60405161037d91906147e8565b3480156108cb57600080fd5b506103ca600080516020614ebf83398151915281565b3480156108ed57600080fd5b5061047e6108fc36600461469f565b611d9d565b34801561090d57600080fd5b5061037161091c366004614374565b611dc7565b34801561092d57600080fd5b506106c661093c36600461467d565b611df8565b34801561094d57600080fd5b5061037161095c36600461438d565b611e26565b34801561096d57600080fd5b5061098161097c3660046147fb565b611e5c565b60405161037d9493929190614829565b34801561099d57600080fd5b5061047e6109ac3660046141ad565b611eb3565b3480156109bd57600080fd5b506103ca600081565b3480156109d257600080fd5b5061047e6109e1366004614844565b611f06565b3480156109f257600080fd5b5061047e610a01366004614861565b611f27565b348015610a1257600080fd5b506108b2604051806040016040528060058152602001640352e302e360dc1b81525081565b348015610a4357600080fd5b50610371610a52366004614179565b611f51565b348015610a6357600080fd5b506106c6611f5f565b348015610a7857600080fd5b506103ca611f7a565b348015610a8d57600080fd5b5061047e610a9c366004614660565b611f8f565b348015610aad57600080fd5b506103ca610abc3660046144ec565b61202a565b348015610acd57600080fd5b506103ca610adc366004614374565b612066565b348015610aed57600080fd5b5061047e610afc36600461455a565b612092565b348015610b0d57600080fd5b506103ca600080516020614e7f83398151915281565b348015610b2f57600080fd5b50610b386120b4565b60405161037d91906148a7565b348015610b5157600080fd5b5061047e610b6036600461438d565b6120ce565b348015610b7157600080fd5b50610b85610b80366004614374565b6120ea565b60405161037d91906148e8565b348015610b9e57600080fd5b50610371610bad366004614660565b612213565b348015610bbe57600080fd5b5061047e610bcd366004614660565b61222d565b348015610bde57600080fd5b506103ca61224e565b348015610bf357600080fd5b50610b38612263565b348015610c0857600080fd5b506103ca610c17366004614374565b61227d565b348015610c2857600080fd5b5061047e610c373660046148fb565b6122a8565b348015610c4857600080fd5b506103ca6122d2565b348015610c5d57600080fd5b506107bf610c6c366004614660565b6122dd565b348015610c7d57600080fd5b5061047e610c8c3660046145bd565b612318565b348015610c9d57600080fd5b5061047e610cac366004614179565b6123a0565b348015610cbd57600080fd5b506103ca600080516020614e3f83398151915281565b60006001600160e01b03198216635a05180f60e01b1480610cf85750610cf8826123c9565b92915050565b60606000610d0a610e28565b9050600081516001600160401b03811115610d2757610d2761404b565b604051908082528060200260200182016040528015610d5a57816020015b6060815260200190600190039081610d455790505b50905060005b8251811015610e2157610d71611f5f565b6001600160a01b0316635a81a626848381518110610d9157610d91614954565b60200260200101516040518263ffffffff1660e01b8152600401610db791815260200190565b600060405180830381865afa158015610dd4573d6000803e3d6000fd5b505050506040513d6000823e601f3d908101601f19168201604052610dfc919081019061496a565b828281518110610e0e57610e0e614954565b6020908102919091010152600101610d60565b5092915050565b60606000610e346123fe565b9050610e4281600901612422565b91505090565b6000610cf8610c178361242f565b600080516020614ebf833981519152610e6e816124a5565b6001600160a01b038316610e9557604051633a954ecd60e21b815260040160405180910390fd5b604051632142170760e11b81523060048201526001600160a01b038481166024830152604482018490528516906342842e0e90606401600060405180830381600087803b158015610ee557600080fd5b505af1158015610ef9573d6000803e3d6000fd5b5050505050505050565b600080516020614e7f833981519152610f1b816124a5565b60005b8251811015610f5f576000610f4b848381518110610f3e57610f3e614954565b602002602001015161242f565b9050610f56816124af565b50600101610f1e565b505050565b6000806001600160a01b038a163014610f9b5789604051637b7d696f60e01b8152600401610f9291906145a9565b60405180910390fd5b610fa3611f5f565b6001600160a01b03166312b357b58a6040518263ffffffff1660e01b8152600401610fce91906145a9565b602060405180830381865afa158015610feb573d6000803e3d6000fd5b505050506040513d601f19601f8201168201806040525081019061100f91906149d7565b61102e5788604051633f2c64af60e01b8152600401610f9291906145a9565b83421061105157604051636453b2e560e01b815260048101859052602401610f92565b6110618a8a8a8a8a8a8a8a612526565b915061106c82612213565b61108b578160405163248d101d60e11b8152600401610f9291906145a9565b6000611095612552565b6001600160a01b03808516600090815260208381526040808320938e168352929052206001810154919250908810156110e85760018101546040516307c83fcf60e41b8152610f92918a91600401614652565b8054891161110d578054604051632256490160e11b8152610f92918b91600401614652565b600181015461111c9089614a0a565b925050509850989650505050505050565b6000806111386123fe565b6003015460ff1692915050565b600080611150612576565b60009384526020525050604090206001015490565b61116d61259a565b600080516020614f1f833981519152611185816124a5565b73__$12bd2f62b73a470fe0f6e02c33045f3191$__631b29e1ba6111a7611584565b846040518363ffffffff1660e01b81526004016111c592919061435b565b60006040518083038186803b1580156111dd57600080fd5b505af41580156111f1573d6000803e3d6000fd5b50505050506111fe6125d0565b50565b61120a82611145565b611213816124a5565b61121d83836125e1565b50505050565b6060610cf86107638361242f565b600061123b612623565b805490915060ff600160401b82041615906001600160401b03166000811580156112625750825b90506000826001600160401b0316600114801561127e5750303b155b90508115801561128c575080155b156112aa5760405163f92ee8a960e01b815260040160405180910390fd5b84546001600160401b031916600117855583156112d357845460ff60401b1916600160401b1785555b6112db612647565b6112e3612647565b6112eb612651565b6112f66000886125e1565b5061130f600080516020614e7f833981519152886125e1565b50611328600080516020614e9f833981519152886125e1565b50611341600080516020614e3f833981519152876125e1565b50600061134c6126eb565b80546001600160a01b03808e166001600160a01b0319928316178355600183018054918e1691909216179055600281018a90559050678ac7230489e8000062015180611398828261270f565b50505083156113e157845460ff60401b19168555604051600181527fc7f505b2f371ae2175ee4913f4499e1f2633a7b5936321eed1cdaeb6115181d29060200160405180910390a15b50505050505050505050565b6001600160a01b03811633146114165760405163334bd91960e11b815260040160405180910390fd5b610f5f8282612732565b600080516020614e7f833981519152611438816124a5565b60005b8251811015610f5f57600061145b848381518110610f3e57610f3e614954565b90506114668161276b565b5060010161143b565b600080516020614e7f833981519152611487816124a5565b610f5f6114938461242f565b836127d9565b606060006114a56123fe565b9050610e4281612422565b600080516020614e7f8339815191526114c8816124a5565b6114dc6114d48661242f565b858486612834565b5050505050565b60408051600080516020614edf83398151915260208201526001600160a01b03808a16928201929092528188166060820152908616608082015260a0810185905260c0810184905260e081018390526101008101829052600090610120015b604051602081830303815290604052805190602001209050979650505050505050565b61156d61290a565b61157682612998565b6115808282612adb565b5050565b60008061158f6126eb565b600101546001600160a01b031692915050565b600080516020614e9f8339815191526115ba816124a5565b6115c382612b8f565b6115db600080516020614e1f833981519152846125e1565b506115f4600080516020614f1f833981519152846125e1565b5061160d600080516020614dff833981519152846125e1565b506040516001600160a01b038416907fdb3e11ba26e83d528bf96a2167061674c1ce7777c61376d852d172594a87399490600090a2610f5f6001600160a01b03841683612bfd565b600061165f612c94565b50600080516020614e5f83398151915290565b600080516020614f1f83398151915261168a816124a5565b73__$12bd2f62b73a470fe0f6e02c33045f3191$__6353ea54c56116ac611584565b88888888886040518763ffffffff1660e01b81526004016116d296959493929190614a1d565b60006040518083038186803b1580156116ea57600080fd5b505af41580156113e1573d6000803e3d6000fd5b61170661259a565b600080516020614dff83398151915261171e816124a5565b61172782612b8f565b61173082612cdd565b506111fe6125d0565b606060006117456123fe565b90506117518382612e12565b806002016000848152602001908152602001600020600201805480602002602001604051908101604052809291908181526020016000905b828210156118355783829060005260206000200180546117a890614a67565b80601f01602080910402602001604051908101604052809291908181526020018280546117d490614a67565b80156118215780601f106117f657610100808354040283529160200191611821565b820191906000526020600020905b81548152906001019060200180831161180457829003601f168201915b505050505081526020019060010190611789565b50505050915050919050565b61184961259a565b60008061185c8a8a8a8a8a8a8a8a610f64565b9150915061186e828989898989612e3c565b600061271061187b611f5f565b6001600160a01b0316633c5559386040518163ffffffff1660e01b8152600401602060405180830381865afa1580156118b8573d6000803e3d6000fd5b505050506040513d601f19601f820116820180604052508101906118dc9190614aa1565b6118e69084614aba565b6118f09190614ad1565b905060006118fe8284614a0a565b90508a6001600160a01b03168c6001600160a01b031614611940576000611923612552565b9050838160010160008282546119399190614af3565b9091555050505b6119bc8261194c611f5f565b6001600160a01b0316630470d3ac6040518163ffffffff1660e01b8152600401602060405180830381865afa158015611989573d6000803e3d6000fd5b505050506040513d601f19601f820116820180604052508101906119ad9190614b06565b6001600160a01b031690612bfd565b6119cf6001600160a01b038c1682612bfd565b604080516001600160a01b0386811682528c811660208301529181018b9052606081018a90526080810183905260a08101849052818d16918e16907f4ebd6343a4ae90ea9a2add4327d0439de765f4b8bbb691caaf0875ef36c54e819060c00160405180910390a350505050610ef96125d0565b6000806000611a50612ea7565b90508060020154816003015492509250509091565b600080516020614e7f833981519152611a7d816124a5565b61158082612ecb565b600080516020614e9f833981519152611a9e816124a5565b610f5f8383612f37565b600080516020614e7f833981519152611ac0816124a5565b610f5f611acc8461242f565b83612f84565b600080516020614e7f833981519152611aea816124a5565b61158082612ffa565b6060806000611b00611499565b9050600081516001600160401b03811115611b1d57611b1d61404b565b604051908082528060200260200182016040528015611b5057816020015b6060815260200190600190039081611b3b5790505b509050600082516001600160401b03811115611b6e57611b6e61404b565b604051908082528060200260200182016040528015611ba757816020015b611b94613e0c565b815260200190600190039081611b8c5790505b50905060005b8351811015611cad57611bbe611f5f565b6001600160a01b0316635a81a626858381518110611bde57611bde614954565b60200260200101516040518263ffffffff1660e01b8152600401611c0491815260200190565b600060405180830381865afa158015611c21573d6000803e3d6000fd5b505050506040513d6000823e601f3d908101601f19168201604052611c49919081019061496a565b838281518110611c5b57611c5b614954565b6020026020010181905250611c88848281518110611c7b57611c7b614954565b60200260200101516120ea565b828281518110611c9a57611c9a614954565b6020908102919091010152600101611bad565b509094909350915050565b60606000611cc46123fe565b9050611cd36006820184613066565b611cf2578260405163ba650b5f60e01b8152600401610f9291906145a9565b6001600160a01b038316600090815260088201602052604090208054611d1790614a67565b80601f0160208091040260200160405190810160405280929190818152602001828054611d4390614a67565b8015611d905780601f10611d6557610100808354040283529160200191611d90565b820191906000526020600020905b815481529060010190602001808311611d7357829003601f168201915b5050505050915050919050565b600080516020614e7f833981519152611db5816124a5565b610f5f611dc18461242f565b8361307b565b600080611dd26123fe565b9050611dde8382612e12565b600092835260020160205250604090206001015460ff1690565b600080611e036131e3565b6000858152602082905260409020909150611e1e9084613207565b949350505050565b600080611e31612576565b6000948552602090815260408086206001600160a01b03959095168652939052505090205460ff1690565b6000806000806000611e6c612552565b6001600160a01b0397881660009081526020918252604080822098909916815296905250505092909120805460018201546002830154600390930154919590945091925090565b600080516020614ebf833981519152611ecb816124a5565b6001600160a01b038316611ef257604051633a954ecd60e21b815260040160405180910390fd5b61121d6001600160a01b0385168484613213565b600080516020614e7f833981519152611f1e816124a5565b6115808261326b565b600080516020614e7f833981519152611f3f816124a5565b610f5f611f4b8461242f565b836132c2565b6000610cf861091c8361242f565b600080611f6a6126eb565b546001600160a01b031692915050565b600080611f856126eb565b6002015492915050565b600080516020614e9f833981519152611fa7816124a5565b611fbf600080516020614e1f83398151915283612732565b50611fd8600080516020614f1f83398151915283612732565b50611ff1600080516020614dff83398151915283612732565b506040516001600160a01b038316907fd124523a9cfa28c5dd01826c4fa56192ec7d56859943082e0ca46c3b9dc6291390600090a25050565b60006120346122d2565b612043898989898989896114e3565b60405161190160f01b602082015260228101929092526042820152606201611542565b6000806120716131e3565b600084815260208290526040902090915061208b9061332f565b9392505050565b600080516020614e7f8339815191526120aa816124a5565b610f5f8383613339565b606060006120c06123fe565b9050610e4260048201612422565b6120d782611145565b6120e0816124a5565b61121d8383612732565b6120f2613e0c565b60006120fc6123fe565b90506121088382612e12565b6000838152600280830160209081526040808420815160608101835281548152600182015460ff161515818501529381018054835181860281018601855281815295969295938701949192909184015b8282101561220457838290600052602060002001805461217790614a67565b80601f01602080910402602001604051908101604052809291908181526020018280546121a390614a67565b80156121f05780601f106121c5576101008083540402835291602001916121f0565b820191906000526020600020905b8154815290600101906020018083116121d357829003601f168201915b505050505081526020019060010190612158565b50505091525090949350505050565b6000610cf8600080516020614e1f83398151915283611e26565b600080516020614e7f833981519152612245816124a5565b611580826133d5565b600080612259612552565b6001015492915050565b6060600061226f6123fe565b9050610e4281600601612422565b6000806122886123fe565b90506122948382612e12565b600092835260020160205250604090205490565b600080516020614e7f8339815191526122c0816124a5565b610f5f6122cc8461242f565b8361346e565b600080611f85612552565b60008060006122ea612ea7565b6001600160a01b03909416600090815260208581526040808320546001909701909152902054939492505050565b61232061259a565b600080516020614ebf833981519152612338816124a5565b61234182612b8f565b6123546001600160a01b03841683612bfd565b826001600160a01b03167f884edad9ce6fa2440d8a54cc123490eb96d2768479d49ff9c7366125a94243648360405161238f91815260200190565b60405180910390a2506115806125d0565b600080516020614e7f8339815191526123b8816124a5565b6115806123c48361242f565b6134dd565b60006001600160e01b03198216637965db0b60e01b1480610cf857506301ffc9a760e01b6001600160e01b0319831614610cf8565b7ff2856e5e1b7689dcde1bb551fd115c3cad8d243ea609d47a46b4d22ee58d300090565b6060600061208b83613578565b6000612439611f5f565b6001600160a01b031663352af39a836040518263ffffffff1660e01b815260040161246491906147e8565b602060405180830381865afa158015612481573d6000803e3d6000fd5b505050506040513d601f19601f82011682018060405250810190610cf89190614aa1565b6111fe81336135d4565b60006124b96123fe565b905060006124ca60098301846135ff565b9050806124ed57604051631a1e056960e01b815260048101849052602401610f92565b6040518381527f7acacfd576383587962277516962c289d19f807be443f4e303ab45ace24931ac906020015b60405180910390a1505050565b6000806125388a8a8a8a8a8a8a61202a565b9050612544818461360b565b9a9950505050505050505050565b7f175f7e400d42af44d9ebd24e9efee8a2c4ed78ddf46a83e51a493ae382c8760090565b7f02dd7bc7dec4dceedda775e58dd541e08a116c6c53815c0bd028192f7b62680090565b60006125a4613635565b8054909150600119016125ca57604051633ee5aeb560e01b815260040160405180910390fd5b60029055565b60006125da613635565b6001905550565b6000806125ec6131e3565b905060006125fa8585613659565b90508015611e1e57600085815260208390526040902061261a90856136fa565b50949350505050565b7ff0c57e16840df040f15088dc2f81fe391c3923bec73e23a9662efc9c229c6a0090565b61264f61370f565b565b61265961370f565b6000612663612552565b6040519091506126cb90600080516020614eff833981519152907f964f47ba1d5dc0d1184a60039dba40abb2d0eee53398392e97308cb5f4a12f94907fc89efdaa54c0f20c7adf612882df0950f5a951637e0307cdcb4c672f298b8bc6904690602001614829565b60408051601f198184030181529190528051602090910120600290910155565b7f0c7b73796c7cc89b9f849b9056a93200eba741881e57a1b03b9bedb2c0e0710090565b61271761370f565b6000612721612ea7565b600281019390935550600390910155565b60008061273d6131e3565b9050600061274b8585613734565b90508015611e1e57600085815260208390526040902061261a90856137ac565b60006127756123fe565b9050600061278660098301846137c1565b9050806127a957604051637eae59f160e11b815260048101849052602401610f92565b6040518381527ff0dd3de472ddcd75ae2c17728a45801355fb6dd8615a7c53c15504b4279c09be90602001612519565b60006127e36123fe565b90506127ef8382612e12565b600083815260028201602052604090819020839055517f8db4dceeae8d620782d356dec6a0148e893ff28620319f10f53dd2232b197897906125199085908590614652565b600061283e6123fe565b9050600061284c82876135ff565b90508061286e576040516221e3bb60e31b815260048101879052602401610f92565b60408051606081018252868152841515602080830191825282840188815260008b81526002888101845295902084518155925160018401805460ff1916911515919091179055518051939492936128cc938501929190910190613e2f565b50506040518781527f8f531e5ede07d5741fd086bb787ed399a64704eb757b87cc80cf6635b274e5b5915060200160405180910390a1505050505050565b306001600160a01b037f000000000000000000000000000000000000000000000000000000000000000016148061297a57507f00000000000000000000000000000000000000000000000000000000000000006001600160a01b031661296e6137cd565b6001600160a01b031614155b1561264f5760405163703e46dd60e11b815260040160405180910390fd5b600080516020614e3f8339815191526129b0816124a5565b60006129ba611f5f565b6001600160a01b0316639d825bc56040518163ffffffff1660e01b8152600401602060405180830381865afa1580156129f7573d6000803e3d6000fd5b505050506040513d601f19601f82011682018060405250810190612a1b9190614b06565b90506000612a276137cd565b9050836001600160a01b0316816001600160a01b031603612a5f5780846040516382afabc160e01b8152600401610f92929190614b23565b816001600160a01b0316846001600160a01b031614612a9557818460405163699a021f60e11b8152600401610f92929190614b23565b836001600160a01b0316816001600160a01b03167fa3d484f827e1c900ce24494bfdb214bcbad08472a9f0571fb5beac779a682db460405160405180910390a350505050565b816001600160a01b03166352d1902d6040518163ffffffff1660e01b8152600401602060405180830381865afa925050508015612b35575060408051601f3d908101601f19168201909252612b3291810190614aa1565b60015b612b545781604051634c9c8ce360e01b8152600401610f9291906145a9565b600080516020614e5f8339815191528114612b8557604051632a87526960e21b815260048101829052602401610f92565b610f5f83836137e9565b6000612b99611f7a565b90506000612ba561224e565b905081811015610f5f576000612bbb8284614a0a565b90506000612bc98247614a0a565b9050808511156114dc576040516344c8760560e11b8152600481018290526024810183905260448101869052606401610f92565b80471015612c20573060405163cd78605960e01b8152600401610f9291906145a9565b6000826001600160a01b03168260405160006040518083038185875af1925050503d8060008114612c6d576040519150601f19603f3d011682016040523d82523d6000602084013e612c72565b606091505b5050905080610f5f57604051630a12f52160e11b815260040160405180910390fd5b306001600160a01b037f0000000000000000000000000000000000000000000000000000000000000000161461264f5760405163703e46dd60e11b815260040160405180910390fd5b6000612ce7612ea7565b90508060020154821115612d1657806002015482604051631728bc5b60e31b8152600401610f92929190614652565b6003810154336000908152602083905260409020544291612d3691614af3565b811115612d5e5733600090815260018301602090815260408083208390559084905290208190555b6002820154336000908152600184016020526040902054612d80908590614af3565b1115612da75781600201548360405163d54b188760e01b8152600401610f92929190614652565b33600090815260018301602052604081208054859290612dc8908490614af3565b90915550612dd890503384612bfd565b60405183815233907fb9ec638398bbdcd0844ca414d8ce760939fa88b9258b9764b3fc6c12ea2605c29060200160405180910390a2505050565b612e1c818361383f565b61158057604051631e96f6ed60e21b815260048101839052602401610f92565b6000612e46612552565b604080516080810182529687526020808801968752878201958652606088019485526001600160a01b03998a166000908152928152818320989099168252969097525093909420915182555160018201559151600283015551600390910155565b7f99a652063088b6badaeb0c7f680676baf720654b4f86f50167944489af637d0090565b6000612ed56123fe565b90506000612ee660048301846136fa565b905080612f085782604051632872fbf960e11b8152600401610f9291906145a9565b7fa317c10673baf4f03b3c1041bd5ddbb537d0333a86fec3607c75f9dbb630f48f8360405161251991906145a9565b6000612f41612ea7565b60028101849055600381018390556040519091507f8d4925b196ae6b935035a27ed36c6bd9c7a8fbddc7a3f55f493aa8e230be373e906125199085908590614652565b6000612f8e6123fe565b9050612f9a8382612e12565b600083815260028083016020908152604083209091018054600181018255908352912001612fc88382614ba2565b507f1cd139430ed537ab9e8086952076cce01edd5ba6e30907af0ffe3709fd3139e68383604051612519929190614c5b565b60006130046123fe565b9050600061301560048301846137ac565b9050806130375782604051631532e67160e21b8152600401610f9291906145a9565b7f85a3e72f8dd6db3794f93109c3c5f5b79d6112f6979431c45f98b26134b42af28360405161251991906145a9565b600061208b836001600160a01b038416613847565b60006130856123fe565b90506130918382612e12565b600083815260028083016020526040822001905b81548110156114dc57836040516020016130bf9190614c74565b604051602081830303815290604052805190602001208282815481106130e7576130e7614954565b906000526020600020016040516020016131019190614c90565b60405160208183030381529060405280519060200120036131db578154829061312c90600190614a0a565b8154811061313c5761313c614954565b9060005260206000200182828154811061315857613158614954565b90600052602060002001908161316e9190614d06565b508180548061317f5761317f614dd2565b60019003818190600052602060002001600061319b9190613e85565b90557ffc8d82c9e7e7938446da05458183efa5916c443a2bab87f97f94a8d47742b01485856040516131ce929190614c5b565b60405180910390a16114dc565b6001016130a5565b7fc1f6fe24621ce81ec5827caf0253cadb74709b061630e6b55e8237170593200090565b600061208b838361385f565b610f5f83846001600160a01b031663a9059cbb858560405160240161323992919061435b565b604051602081830303815290604052915060e01b6020820180516001600160e01b038381831617835250505050613889565b60006132756123fe565b60038101805460ff19168415159081179091556040519081529091507fe93ceb76efb130156c6aa39fa4ac986b3f683b6da926496fca3f95ea7fe715e39060200160405180910390a15050565b60006132cc6123fe565b90506132d88382612e12565b6000838152600282016020908152604091829020600101805460ff19168515159081179091558251868152918201527f1b76230b39d2d0c1a2a77a90c170190d2280796ed56b280177256ce39df1a6649101612519565b6000610cf8825490565b60006133436123fe565b9050600061335460068301856136fa565b9050806133765783604051631a6107e360e31b8152600401610f9291906145a9565b6001600160a01b0384166000908152600883016020526040902061339a8482614ba2565b506040516001600160a01b038516907f928ec246afda323bc23c2815ca3f516e9fc6a7b7179772235c221e132545fe8290600090a250505050565b60006133df6123fe565b905060006133f060068301846137ac565b905080613412578260405163ba650b5f60e01b8152600401610f9291906145a9565b6001600160a01b0383166000908152600883016020526040812061343591613e85565b6040516001600160a01b038416907fc5a9b8041ef11732e7dd7043167d8c22db5c7ea99dcd38dce401effacf8a29bf90600090a2505050565b60006134786123fe565b90506134848382612e12565b600083815260028083016020908152604090922084516134ac93919092019190850190613e2f565b506040518381527fa616bfc5bb0e46c6cad727e1b55e3685067e1296d962a7f37017874a27aa009890602001612519565b60006134e76123fe565b905060006134f582846137c1565b90508061351857604051631e96f6ed60e21b815260048101849052602401610f92565b600083815260028084016020526040822082815560018101805460ff19169055919061354690830182613ebf565b50506040518381527f94da5eeca10d4d6ee8455f99240c10b0c74b0cf5bf754afb81c81e2704b9c42790602001612519565b6060816000018054806020026020016040519081016040528092919081815260200182805480156135c857602002820191906000526020600020905b8154815260200190600101908083116135b4575b50505050509050919050565b6135de8282611e26565b61158057808260405163e2517d3f60e01b8152600401610f9292919061435b565b600061208b83836138e3565b60008060008061361b868661392d565b92509250925061362b828261397a565b5090949350505050565b7f9b779b17422d0df92223018b32b4d1fa46e071723d6817e2486d003becc55f0090565b600080613664612576565b90506136708484611e26565b6136f0576000848152602082815260408083206001600160a01b03871684529091529020805460ff191660011790556136a63390565b6001600160a01b0316836001600160a01b0316857f2f8788117e7eff1d82e926ec794901d17c78024a50270940304540a733656f0d60405160405180910390a46001915050610cf8565b6000915050610cf8565b600061208b836001600160a01b0384166138e3565b613717613a33565b61264f57604051631afcd79f60e31b815260040160405180910390fd5b60008061373f612576565b905061374b8484611e26565b156136f0576000848152602082815260408083206001600160a01b0387168085529252808320805460ff1916905551339287917ff6391f5c32d9c69d2a47ea670b442974b53935d1edc7fd64eb21e047a839171b9190a46001915050610cf8565b600061208b836001600160a01b038416613a4d565b600061208b8383613a4d565b600080516020614e5f833981519152546001600160a01b031690565b6137f282613b36565b6040516001600160a01b038316907fbc7cd75a20ee27fd9adebab32041f755214dbc6bffa90cc0225b39da2e5c2d3b90600090a280511561383757610f5f8282613b92565b611580613c08565b600061208b83835b60009081526001919091016020526040902054151590565b600082600001828154811061387657613876614954565b9060005260206000200154905092915050565b600061389e6001600160a01b03841683613c27565b905080516000141580156138c35750808060200190518101906138c191906149d7565b155b15610f5f5782604051635274afe760e01b8152600401610f9291906145a9565b60006138ef8383613847565b61392557508154600181810184556000848152602080822090930184905584548482528286019093526040902091909155610cf8565b506000610cf8565b600080600083516041036139675760208401516040850151606086015160001a61395988828585613c35565b955095509550505050613973565b50508151600091506002905b9250925092565b600082600381111561398e5761398e614de8565b03613997575050565b60018260038111156139ab576139ab614de8565b036139c95760405163f645eedf60e01b815260040160405180910390fd5b60028260038111156139dd576139dd614de8565b036139fe5760405163fce698f760e01b815260048101829052602401610f92565b6003826003811115613a1257613a12614de8565b03611580576040516335e2f38360e21b815260048101829052602401610f92565b6000613a3d612623565b54600160401b900460ff16919050565b600081815260018301602052604081205480156136f0576000613a71600183614a0a565b8554909150600090613a8590600190614a0a565b9050808214613aea576000866000018281548110613aa557613aa5614954565b9060005260206000200154905080876000018481548110613ac857613ac8614954565b6000918252602080832090910192909255918252600188019052604090208390555b8554869080613afb57613afb614dd2565b600190038181906000526020600020016000905590558560010160008681526020019081526020016000206000905560019350505050610cf8565b806001600160a01b03163b600003613b635780604051634c9c8ce360e01b8152600401610f9291906145a9565b600080516020614e5f83398151915280546001600160a01b0319166001600160a01b0392909216919091179055565b6060600080846001600160a01b031684604051613baf9190614c74565b600060405180830381855af49150503d8060008114613bea576040519150601f19603f3d011682016040523d82523d6000602084013e613bef565b606091505b5091509150613bff858383613cfa565b95945050505050565b341561264f5760405163b398979f60e01b815260040160405180910390fd5b606061208b83836000613d46565b600080806fa2a8918ca85bafe22016d0b997e4df60600160ff1b03841115613c665750600091506003905082613cf0565b604080516000808252602082018084528a905260ff891692820192909252606081018790526080810186905260019060a0016020604051602081039080840390855afa158015613cba573d6000803e3d6000fd5b5050604051601f1901519150506001600160a01b038116613ce657506000925060019150829050613cf0565b9250600091508190505b9450945094915050565b606082613d0f57613d0a82613de3565b61208b565b8151158015613d2657506001600160a01b0384163b155b15610e215783604051639996b31560e01b8152600401610f9291906145a9565b606081471015613d6b573060405163cd78605960e01b8152600401610f9291906145a9565b600080856001600160a01b03168486604051613d879190614c74565b60006040518083038185875af1925050503d8060008114613dc4576040519150601f19603f3d011682016040523d82523d6000602084013e613dc9565b606091505b5091509150613dd9868383613cfa565b9695505050505050565b805115613df35780518082602001fd5b604051630a12f52160e11b815260040160405180910390fd5b604051806060016040528060008152602001600015158152602001606081525090565b828054828255906000526020600020908101928215613e75579160200282015b82811115613e755782518290613e659082614ba2565b5091602001919060010190613e4f565b50613e81929150613ed9565b5090565b508054613e9190614a67565b6000825580601f10613ea1575050565b601f0160209004906000526020600020908101906111fe9190613ef6565b50805460008255906000526020600020908101906111fe91905b80821115613e81576000613eed8282613e85565b50600101613ed9565b5b80821115613e815760008155600101613ef7565b600060208284031215613f1d57600080fd5b81356001600160e01b03198116811461208b57600080fd5b60005b83811015613f50578181015183820152602001613f38565b50506000910152565b60008151808452613f71816020860160208601613f35565b601f01601f19169290920160200192915050565b60008282518085526020808601955060208260051b8401016020860160005b84811015613fd257601f19868403018952613fc0838351613f59565b98840198925090830190600101613fa4565b5090979650505050505050565b60208152600061208b6020830184613f85565b6020808252825182820181905260009190848201906040850190845b8181101561402a5783518352928401929184019160010161400e565b50909695505050505050565b6001600160a01b03811681146111fe57600080fd5b634e487b7160e01b600052604160045260246000fd5b604051601f8201601f191681016001600160401b03811182821017156140895761408961404b565b604052919050565b60006001600160401b038211156140aa576140aa61404b565b50601f01601f191660200190565b600082601f8301126140c957600080fd5b81356140dc6140d782614091565b614061565b8181528460208386010111156140f157600080fd5b816020850160208301376000918101602001919091529392505050565b6000806000806080858703121561412457600080fd5b843561412f81614036565b9350602085013561413f81614036565b92506040850135915060608501356001600160401b0381111561416157600080fd5b61416d878288016140b8565b91505092959194509250565b60006020828403121561418b57600080fd5b81356001600160401b038111156141a157600080fd5b611e1e848285016140b8565b6000806000606084860312156141c257600080fd5b83356141cd81614036565b925060208401356141dd81614036565b929592945050506040919091013590565b600082601f8301126141ff57600080fd5b813560206001600160401b038083111561421b5761421b61404b565b8260051b61422a838201614061565b938452858101830193838101908886111561424457600080fd5b84880192505b85831015614280578235848111156142625760008081fd5b6142708a87838c01016140b8565b835250918401919084019061424a565b98975050505050505050565b60006020828403121561429e57600080fd5b81356001600160401b038111156142b457600080fd5b611e1e848285016141ee565b600080600080600080600080610100898b0312156142dd57600080fd5b88356142e881614036565b975060208901356142f881614036565b9650604089013561430881614036565b9550606089013594506080890135935060a0890135925060c0890135915060e08901356001600160401b0381111561433f57600080fd5b61434b8b828c016140b8565b9150509295985092959890939650565b6001600160a01b03929092168252602082015260400190565b60006020828403121561438657600080fd5b5035919050565b600080604083850312156143a057600080fd5b8235915060208301356143b281614036565b809150509250929050565b600080600080600060a086880312156143d557600080fd5b85356143e081614036565b945060208601356143f081614036565b935060408601359250606086013561440781614036565b9150608086013561441781614036565b809150509295509295909350565b6000806040838503121561443857600080fd5b82356001600160401b0381111561444e57600080fd5b61445a858286016140b8565b95602094909401359450505050565b80151581146111fe57600080fd5b6000806000806080858703121561448d57600080fd5b84356001600160401b03808211156144a457600080fd5b6144b0888389016140b8565b955060208701359450604087013591506144c982614469565b909250606086013590808211156144df57600080fd5b5061416d878288016141ee565b600080600080600080600060e0888a03121561450757600080fd5b873561451281614036565b9650602088013561452281614036565b9550604088013561453281614036565b969995985095966060810135965060808101359560a0820135955060c0909101359350915050565b6000806040838503121561456d57600080fd5b823561457881614036565b915060208301356001600160401b0381111561459357600080fd5b61459f858286016140b8565b9150509250929050565b6001600160a01b0391909116815260200190565b600080604083850312156145d057600080fd5b82356145db81614036565b946020939093013593505050565b600080600080600060a0868803121561460157600080fd5b853561460c81614036565b945060208601356001600160401b0381111561462757600080fd5b614633888289016140b8565b9450506040860135925060608601359150608086013561441781614036565b918252602082015260400190565b60006020828403121561467257600080fd5b813561208b81614036565b6000806040838503121561469057600080fd5b50508035926020909101359150565b600080604083850312156146b257600080fd5b82356001600160401b03808211156146c957600080fd5b6146d5868387016140b8565b935060208501359150808211156146eb57600080fd5b5061459f858286016140b8565b600060608301825184526020808401511515602086015260408401516060604087015282815180855260808801915060808160051b890101945060208301925060005b8181101561476957607f19898703018352614757868551613f59565b9550928401929184019160010161473b565b5093979650505050505050565b6040815260006147896040830185613f85565b6020838203818501528185518084528284019150828160051b85010183880160005b838110156147d957601f198784030185526147c78383516146f8565b948601949250908501906001016147ab565b50909998505050505050505050565b60208152600061208b6020830184613f59565b6000806040838503121561480e57600080fd5b823561481981614036565b915060208301356143b281614036565b93845260208401929092526040830152606082015260800190565b60006020828403121561485657600080fd5b813561208b81614469565b6000806040838503121561487457600080fd5b82356001600160401b0381111561488a57600080fd5b614896858286016140b8565b92505060208301356143b281614469565b6020808252825182820181905260009190848201906040850190845b8181101561402a5783516001600160a01b0316835292840192918401916001016148c3565b60208152600061208b60208301846146f8565b6000806040838503121561490e57600080fd5b82356001600160401b038082111561492557600080fd5b614931868387016140b8565b9350602085013591508082111561494757600080fd5b5061459f858286016141ee565b634e487b7160e01b600052603260045260246000fd5b60006020828403121561497c57600080fd5b81516001600160401b0381111561499257600080fd5b8201601f810184136149a357600080fd5b80516149b16140d782614091565b8181528560208385010111156149c657600080fd5b613bff826020830160208601613f35565b6000602082840312156149e957600080fd5b815161208b81614469565b634e487b7160e01b600052601160045260246000fd5b81810381811115610cf857610cf86149f4565b600060018060a01b038089168352808816602084015260c06040840152614a4760c0840188613f59565b6060840196909652608083019490945250911660a0909101529392505050565b600181811c90821680614a7b57607f821691505b602082108103614a9b57634e487b7160e01b600052602260045260246000fd5b50919050565b600060208284031215614ab357600080fd5b5051919050565b8082028115828204841417610cf857610cf86149f4565b600082614aee57634e487b7160e01b600052601260045260246000fd5b500490565b80820180821115610cf857610cf86149f4565b600060208284031215614b1857600080fd5b815161208b81614036565b6001600160a01b0392831681529116602082015260400190565b601f821115610f5f576000816000526020600020601f850160051c81016020861015614b665750805b601f850160051c820191505b81811015614b8557828155600101614b72565b505050505050565b600019600383901b1c191660019190911b1790565b81516001600160401b03811115614bbb57614bbb61404b565b614bcf81614bc98454614a67565b84614b3d565b602080601f831160018114614bfe5760008415614bec5750858301515b614bf68582614b8d565b865550614b85565b600085815260208120601f198616915b82811015614c2d57888601518255948401946001909101908401614c0e565b5085821015614c4b5787850151600019600388901b60f8161c191681555b5050505050600190811b01905550565b828152604060208201526000611e1e6040830184613f59565b60008251614c86818460208701613f35565b9190910192915050565b6000808354614c9e81614a67565b60018281168015614cb65760018114614ccb57614cfa565b60ff1984168752821515830287019450614cfa565b8760005260208060002060005b85811015614cf15781548a820152908401908201614cd8565b50505082870194505b50929695505050505050565b818103614d11575050565b614d1b8254614a67565b6001600160401b03811115614d3257614d3261404b565b614d4081614bc98454614a67565b6000601f821160018114614d6e5760008315614d5c5750848201545b614d668482614b8d565b8555506114dc565b600085815260209020601f19841690600086815260209020845b83811015614da85782860154825560019586019590910190602001614d88565b5085831015614c4b5793015460001960f8600387901b161c19169092555050600190811b01905550565b634e487b7160e01b600052603160045260246000fd5b634e487b7160e01b600052602160045260246000fdfee562760eaa817d85ec1bf58364c4d65adb65d99d113c6785ef9aa66567076c954c1d97560aef1d9626af2ccff8a6ac6e245c44c307e795e9c16f7211c611a315189ab7a9244df0848122154315af71fe140f3db0fe014031783b0946b8c9d2e3360894a13ba1a3210667c828492db98dca3e2076cc3735a920a3ca505d382bbc9a95e87c5af084bf5db8491c3a6515da9dd6da39b24b0eb0af08d7b9cd808d91c6ae66da7afbd0becbe49ddf95a9256901d87f1bb5e3d43236030e5e4a585b6d10dac8c06a04bec0b551627dad28bc00d6516b0caacd1c7b345fcdb5211334e487b38f131334165ac2b361f08966c9fcff3a953fa7d9d9c2861b7f0b50445bcbc2f8787176b8ac6bf7215b4adcc1e069bf4ab82d9ab1df05a57a91d425935b6e3acdf00ba9ef08b5f2c22768276611b9af078bf6c24fa36b34ec5e9f2eb061faa2646970667358221220d4fe695f798b2cdbd93ac75abfc29f73ff41617d251ff28aea4f45601429b4c364736f6c63430008180033",
  "linkReferences": {
    "contracts/booking-token/BookingTokenOperator.sol": {
      "BookingTokenOperator": [
        {
          "length": 20,
          "start": 4747
        },
        {
          "length": 20,
          "start": 6032
        }
      ]
    }
  },
  "deployedLinkReferences": {
    "contracts/booking-token/BookingTokenOperator.sol": {
      "BookingTokenOperator": [
        {
          "length": 20,
          "start": 4487
        },
        {
          "length": 20,
          "start": 5772
        }
      ]
    }
  }
}