{
  "_format": "hh-sol-artifact-1",
  "contractName": "CMAccountFactory",
  "sourceName": "contracts/factory/CMAccountFactory.sol",
  "abi": [
    {
      "inputs": [],
      "stateMutability": "nonpayable",
      "type": "constructor"
    },
    {
      "inputs": [],
      "name": "AccessControlBadConfirmation",
      "type": "error"
    },
    {
      "inputs": [
        {
          "internalType": "address",
          "name": "account",
          "type": "address"
        },
        {
          "internalType": "bytes32",
          "name": "neededRole",
          "type": "bytes32"
        }
      ],
      "name": "AccessControlUnauthorizedAccount",
      "type": "error"
    },
    {
      "inputs": [
        {
          "internalType": "address",
          "name": "target",
          "type": "address"
        }
      ],
      "name": "AddressEmptyCode",
      "type": "error"
    },
    {
      "inputs": [
        {
          "internalType": "address",
          "name": "implementation",
          "type": "address"
        }
      ],
      "name": "CMAccountInvalidImplementation",
      "type": "error"
    },
    {
      "inputs": [
        {
          "internalType": "address",
          "name": "admin",
          "type": "address"
        }
      ],
      "name": "CMAccountInvalidOwner",
      "type": "error"
    },
    {
      "inputs": [
        {
          "internalType": "address",
          "name": "implementation",
          "type": "address"
        }
      ],
      "name": "ERC1967InvalidImplementation",
      "type": "error"
    },
    {
      "inputs": [],
      "name": "ERC1967NonPayable",
      "type": "error"
    },
    {
      "inputs": [],
      "name": "EnforcedPause",
      "type": "error"
    },
    {
      "inputs": [],
      "name": "ExpectedPause",
      "type": "error"
    },
    {
      "inputs": [],
      "name": "FailedInnerCall",
      "type": "error"
    },
    {
      "inputs": [],
      "name": "InvalidInitialization",
      "type": "error"
    },
    {
      "inputs": [],
      "name": "NotInitializing",
      "type": "error"
    },
    {
      "inputs": [],
      "name": "UUPSUnauthorizedCallContext",
      "type": "error"
    },
    {
      "inputs": [
        {
          "internalType": "bytes32",
          "name": "slot",
          "type": "bytes32"
        }
      ],
      "name": "UUPSUnsupportedProxiableUUID",
      "type": "error"
    },
    {
      "anonymous": false,
      "inputs": [
        {
          "indexed": false,
          "internalType": "address",
          "name": "account",
          "type": "address"
        }
      ],
      "name": "CMAccountCreated",
      "type": "event"
    },
    {
      "anonymous": false,
      "inputs": [
        {
          "indexed": false,
          "internalType": "uint64",
          "name": "version",
          "type": "uint64"
        }
      ],
      "name": "Initialized",
      "type": "event"
    },
    {
      "anonymous": false,
      "inputs": [
        {
          "indexed": false,
          "internalType": "address",
          "name": "account",
          "type": "address"
        }
      ],
      "name": "Paused",
      "type": "event"
    },
    {
      "anonymous": false,
      "inputs": [
        {
          "indexed": true,
          "internalType": "bytes32",
          "name": "role",
          "type": "bytes32"
        },
        {
          "indexed": true,
          "internalType": "bytes32",
          "name": "previousAdminRole",
          "type": "bytes32"
        },
        {
          "indexed": true,
          "internalType": "bytes32",
          "name": "newAdminRole",
          "type": "bytes32"
        }
      ],
      "name": "RoleAdminChanged",
      "type": "event"
    },
    {
      "anonymous": false,
      "inputs": [
        {
          "indexed": true,
          "internalType": "bytes32",
          "name": "role",
          "type": "bytes32"
        },
        {
          "indexed": true,
          "internalType": "address",
          "name": "account",
          "type": "address"
        },
        {
          "indexed": true,
          "internalType": "address",
          "name": "sender",
          "type": "address"
        }
      ],
      "name": "RoleGranted",
      "type": "event"
    },
    {
      "anonymous": false,
      "inputs": [
        {
          "indexed": true,
          "internalType": "bytes32",
          "name": "role",
          "type": "bytes32"
        },
        {
          "indexed": true,
          "internalType": "address",
          "name": "account",
          "type": "address"
        },
        {
          "indexed": true,
          "internalType": "address",
          "name": "sender",
          "type": "address"
        }
      ],
      "name": "RoleRevoked",
      "type": "event"
    },
    {
      "anonymous": false,
      "inputs": [
        {
          "indexed": false,
          "internalType": "address",
          "name": "account",
          "type": "address"
        }
      ],
      "name": "Unpaused",
      "type": "event"
    },
    {
      "anonymous": false,
      "inputs": [
        {
          "indexed": true,
          "internalType": "address",
          "name": "implementation",
          "type": "address"
        }
      ],
      "name": "Upgraded",
      "type": "event"
    },
    {
      "inputs": [],
      "name": "DEFAULT_ADMIN_ROLE",
      "outputs": [
        {
          "internalType": "bytes32",
          "name": "",
          "type": "bytes32"
        }
      ],
      "stateMutability": "view",
      "type": "function"
    },
    {
      "inputs": [],
      "name": "PAUSER_ROLE",
      "outputs": [
        {
          "internalType": "bytes32",
          "name": "",
          "type": "bytes32"
        }
      ],
      "stateMutability": "view",
      "type": "function"
    },
    {
      "inputs": [],
      "name": "UPGRADER_ROLE",
      "outputs": [
        {
          "internalType": "bytes32",
          "name": "",
          "type": "bytes32"
        }
      ],
      "stateMutability": "view",
      "type": "function"
    },
    {
      "inputs": [],
      "name": "UPGRADE_INTERFACE_VERSION",
      "outputs": [
        {
          "internalType": "string",
          "name": "",
          "type": "string"
        }
      ],
      "stateMutability": "view",
      "type": "function"
    },
    {
      "inputs": [],
      "name": "VERSIONER_ROLE",
      "outputs": [
        {
          "internalType": "bytes32",
          "name": "",
          "type": "bytes32"
        }
      ],
      "stateMutability": "view",
      "type": "function"
    },
    {
      "inputs": [
        {
          "internalType": "address",
          "name": "initialOwner",
          "type": "address"
        },
        {
          "internalType": "address",
          "name": "pauser",
          "type": "address"
        },
        {
          "internalType": "address",
          "name": "upgrader",
          "type": "address"
        }
      ],
      "name": "createCMAccount",
      "outputs": [
        {
          "internalType": "address",
          "name": "",
          "type": "address"
        }
      ],
      "stateMutability": "nonpayable",
      "type": "function"
    },
    {
      "inputs": [],
      "name": "getAccountImplementation",
      "outputs": [
        {
          "internalType": "address",
          "name": "",
          "type": "address"
        }
      ],
      "stateMutability": "view",
      "type": "function"
    },
    {
      "inputs": [
        {
          "internalType": "bytes32",
          "name": "role",
          "type": "bytes32"
        }
      ],
      "name": "getRoleAdmin",
      "outputs": [
        {
          "internalType": "bytes32",
          "name": "",
          "type": "bytes32"
        }
      ],
      "stateMutability": "view",
      "type": "function"
    },
    {
      "inputs": [
        {
          "internalType": "bytes32",
          "name": "role",
          "type": "bytes32"
        },
        {
          "internalType": "address",
          "name": "account",
          "type": "address"
        }
      ],
      "name": "grantRole",
      "outputs": [],
      "stateMutability": "nonpayable",
      "type": "function"
    },
    {
      "inputs": [
        {
          "internalType": "bytes32",
          "name": "role",
          "type": "bytes32"
        },
        {
          "internalType": "address",
          "name": "account",
          "type": "address"
        }
      ],
      "name": "hasRole",
      "outputs": [
        {
          "internalType": "bool",
          "name": "",
          "type": "bool"
        }
      ],
      "stateMutability": "view",
      "type": "function"
    },
    {
      "inputs": [
        {
          "internalType": "address",
          "name": "defaultAdmin",
          "type": "address"
        },
        {
          "internalType": "address",
          "name": "pauser",
          "type": "address"
        },
        {
          "internalType": "address",
          "name": "upgrader",
          "type": "address"
        }
      ],
      "name": "initialize",
      "outputs": [],
      "stateMutability": "nonpayable",
      "type": "function"
    },
    {
      "inputs": [],
      "name": "pause",
      "outputs": [],
      "stateMutability": "nonpayable",
      "type": "function"
    },
    {
      "inputs": [],
      "name": "paused",
      "outputs": [
        {
          "internalType": "bool",
          "name": "",
          "type": "bool"
        }
      ],
      "stateMutability": "view",
      "type": "function"
    },
    {
      "inputs": [],
      "name": "proxiableUUID",
      "outputs": [
        {
          "internalType": "bytes32",
          "name": "",
          "type": "bytes32"
        }
      ],
      "stateMutability": "view",
      "type": "function"
    },
    {
      "inputs": [
        {
          "internalType": "bytes32",
          "name": "role",
          "type": "bytes32"
        },
        {
          "internalType": "address",
          "name": "callerConfirmation",
          "type": "address"
        }
      ],
      "name": "renounceRole",
      "outputs": [],
      "stateMutability": "nonpayable",
      "type": "function"
    },
    {
      "inputs": [
        {
          "internalType": "bytes32",
          "name": "role",
          "type": "bytes32"
        },
        {
          "internalType": "address",
          "name": "account",
          "type": "address"
        }
      ],
      "name": "revokeRole",
      "outputs": [],
      "stateMutability": "nonpayable",
      "type": "function"
    },
    {
      "inputs": [
        {
          "internalType": "address",
          "name": "newImplementation",
          "type": "address"
        }
      ],
      "name": "setAccountImplementation",
      "outputs": [],
      "stateMutability": "nonpayable",
      "type": "function"
    },
    {
      "inputs": [
        {
          "internalType": "bytes4",
          "name": "interfaceId",
          "type": "bytes4"
        }
      ],
      "name": "supportsInterface",
      "outputs": [
        {
          "internalType": "bool",
          "name": "",
          "type": "bool"
        }
      ],
      "stateMutability": "view",
      "type": "function"
    },
    {
      "inputs": [],
      "name": "unpause",
      "outputs": [],
      "stateMutability": "nonpayable",
      "type": "function"
    },
    {
      "inputs": [
        {
          "internalType": "address",
          "name": "newImplementation",
          "type": "address"
        },
        {
          "internalType": "bytes",
          "name": "data",
          "type": "bytes"
        }
      ],
      "name": "upgradeToAndCall",
      "outputs": [],
      "stateMutability": "payable",
      "type": "function"
    }
  ],
  "bytecode": "0x60a06040523060805234801561001457600080fd5b5061001d610022565b6100d4565b7ff0c57e16840df040f15088dc2f81fe391c3923bec73e23a9662efc9c229c6a00805468010000000000000000900460ff16156100725760405163f92ee8a960e01b815260040160405180910390fd5b80546001600160401b03908116146100d15780546001600160401b0319166001600160401b0390811782556040519081527fc7f505b2f371ae2175ee4913f4499e1f2633a7b5936321eed1cdaeb6115181d29060200160405180910390a15b50565b6080516117d16100fd60003960008181610b4b01528181610b750152610ce901526117d16000f3fe608060405260043610620001375760003560e01c806391d1485411620000ad578063c0c53b8b116200006c578063c0c53b8b146200038a578063d547741f14620003af578063d99edcd314620003d4578063e63ab1e914620003f9578063f72c0d8b146200041e57600080fd5b806391d1485414620002a25780639d825bc514620002c7578063a217fddf14620002fb578063ad3cb1cc1462000312578063b289819c146200035457600080fd5b80633f4ba83a11620000fa5780633f4ba83a146200021b5780634f1ef286146200023357806352d1902d146200024a5780635c975abb14620002625780638456cb59146200028a57600080fd5b806301ffc9a7146200013c57806309766da21462000176578063248a9ca3146200019d5780632f2ff15d14620001d157806336568abe14620001f6575b600080fd5b3480156200014957600080fd5b50620001616200015b366004620010a0565b62000454565b60405190151581526020015b60405180910390f35b3480156200018357600080fd5b506200019b62000195366004620010e9565b6200048c565b005b348015620001aa57600080fd5b50620001c2620001bc36600462001107565b62000517565b6040519081526020016200016d565b348015620001de57600080fd5b506200019b620001f036600462001121565b6200053a565b3480156200020357600080fd5b506200019b6200021536600462001121565b62000562565b3480156200022857600080fd5b506200019b6200059d565b6200019b6200024436600462001166565b620005c5565b3480156200025757600080fd5b50620001c2620005ea565b3480156200026f57600080fd5b506000805160206200177c8339815191525460ff1662000161565b3480156200029757600080fd5b506200019b6200060a565b348015620002af57600080fd5b5062000161620002c136600462001121565b6200062f565b348015620002d457600080fd5b506000546001600160a01b03165b6040516001600160a01b0390911681526020016200016d565b3480156200030857600080fd5b50620001c2600081565b3480156200031f57600080fd5b5062000345604051806040016040528060058152602001640352e302e360dc1b81525081565b6040516200016d91906200125a565b3480156200036157600080fd5b50620001c27f6a42249708403f5ed28bf492facd11e85bc1054e6c27c155ed468f6ff4f7ecd081565b3480156200039757600080fd5b506200019b620003a93660046200128f565b62000668565b348015620003bc57600080fd5b506200019b620003ce36600462001121565b620007ec565b348015620003e157600080fd5b50620002e2620003f33660046200128f565b6200080e565b3480156200040657600080fd5b50620001c26000805160206200173c83398151915281565b3480156200042b57600080fd5b50620001c27f189ab7a9244df0848122154315af71fe140f3db0fe014031783b0946b8c9d2e381565b60006001600160e01b03198216637965db0b60e01b14806200048657506301ffc9a760e01b6001600160e01b03198316145b92915050565b7f6a42249708403f5ed28bf492facd11e85bc1054e6c27c155ed468f6ff4f7ecd0620004b881620009a4565b816001600160a01b03163b600003620004f4576040516337766f4360e11b81526001600160a01b03831660048201526024015b60405180910390fd5b50600080546001600160a01b0319166001600160a01b0392909216919091179055565b60009081526000805160206200175c833981519152602052604090206001015490565b620005458262000517565b6200055081620009a4565b6200055c8383620009b0565b50505050565b6001600160a01b03811633146200058c5760405163334bd91960e11b815260040160405180910390fd5b62000598828262000a5c565b505050565b6000805160206200173c833981519152620005b881620009a4565b620005c262000add565b50565b620005cf62000b40565b620005da8262000beb565b620005e6828262000c17565b5050565b6000620005f662000cde565b506000805160206200171c83398151915290565b6000805160206200173c8339815191526200062581620009a4565b620005c262000d28565b60009182526000805160206200175c833981519152602090815260408084206001600160a01b0393909316845291905290205460ff1690565b7ff0c57e16840df040f15088dc2f81fe391c3923bec73e23a9662efc9c229c6a008054600160401b810460ff16159067ffffffffffffffff16600081158015620006af5750825b905060008267ffffffffffffffff166001148015620006cd5750303b155b905081158015620006dc575080155b15620006fb5760405163f92ee8a960e01b815260040160405180910390fd5b845467ffffffffffffffff1916600117855583156200072657845460ff60401b1916600160401b1785555b6200073062000d75565b6200073a62000d89565b6200074462000d89565b62000751600089620009b0565b506200076d6000805160206200173c83398151915288620009b0565b506200079a7f189ab7a9244df0848122154315af71fe140f3db0fe014031783b0946b8c9d2e387620009b0565b508315620007e257845460ff60401b19168555604051600181527fc7f505b2f371ae2175ee4913f4499e1f2633a7b5936321eed1cdaeb6115181d29060200160405180910390a15b5050505050505050565b620007f78262000517565b6200080281620009a4565b6200055c838362000a5c565b60006200081a62000d93565b600080546001600160a01b03163b900362000858576000546040516337766f4360e11b81526001600160a01b039091166004820152602401620004eb565b6001600160a01b0384166200088c5760405163d4a5b0b160e01b81526001600160a01b0385166004820152602401620004eb565b600080546040516001600160a01b0390911690620008aa9062001092565b6001600160a01b039091168152604060208201819052600090820152606001604051809103906000f080158015620008e6573d6000803e3d6000fd5b506040516001600160a01b03821681529091507f22de16ef21e3a33810fbcaf0e737ab9c9e2854fa565d8535041456c789afcd939060200160405180910390a1604051637c643b2f60e11b81523060048201526001600160a01b0386811660248301528581166044830152848116606483015282169063f8c8765e90608401600060405180830381600087803b1580156200098057600080fd5b505af115801562000995573d6000803e3d6000fd5b509293505050505b9392505050565b620005c2813362000dc6565b60006000805160206200175c833981519152620009ce84846200062f565b62000a51576000848152602082815260408083206001600160a01b03871684529091529020805460ff1916600117905562000a063390565b6001600160a01b0316836001600160a01b0316857f2f8788117e7eff1d82e926ec794901d17c78024a50270940304540a733656f0d60405160405180910390a4600191505062000486565b600091505062000486565b60006000805160206200175c83398151915262000a7a84846200062f565b1562000a51576000848152602082815260408083206001600160a01b0387168085529252808320805460ff1916905551339287917ff6391f5c32d9c69d2a47ea670b442974b53935d1edc7fd64eb21e047a839171b9190a4600191505062000486565b62000ae762000e03565b6000805160206200177c833981519152805460ff191681557f5db9ee0a495bf2e6ff9c91a7834c1ba4fdd244a5e8aa4e537bd38aeae4b073aa335b6040516001600160a01b03909116815260200160405180910390a150565b306001600160a01b037f000000000000000000000000000000000000000000000000000000000000000016148062000bca57507f00000000000000000000000000000000000000000000000000000000000000006001600160a01b031662000bbe6000805160206200171c833981519152546001600160a01b031690565b6001600160a01b031614155b1562000be95760405163703e46dd60e11b815260040160405180910390fd5b565b7f189ab7a9244df0848122154315af71fe140f3db0fe014031783b0946b8c9d2e3620005e681620009a4565b816001600160a01b03166352d1902d6040518163ffffffff1660e01b8152600401602060405180830381865afa92505050801562000c74575060408051601f3d908101601f1916820190925262000c7191810190620012d9565b60015b62000c9e57604051634c9c8ce360e01b81526001600160a01b0383166004820152602401620004eb565b6000805160206200171c833981519152811462000cd257604051632a87526960e21b815260048101829052602401620004eb565b62000598838362000e35565b306001600160a01b037f0000000000000000000000000000000000000000000000000000000000000000161462000be95760405163703e46dd60e11b815260040160405180910390fd5b62000d3262000d93565b6000805160206200177c833981519152805460ff191660011781557f62e78cea01bee320cd4e420270b5ea74000d11b0c9f74754ebdbfc544b05a2583362000b22565b62000d7f62000e92565b62000be962000edc565b62000be962000e92565b6000805160206200177c8339815191525460ff161562000be95760405163d93c066560e01b815260040160405180910390fd5b62000dd282826200062f565b620005e65760405163e2517d3f60e01b81526001600160a01b038216600482015260248101839052604401620004eb565b6000805160206200177c8339815191525460ff1662000be957604051638dfc202b60e01b815260040160405180910390fd5b62000e408262000f00565b6040516001600160a01b038316907fbc7cd75a20ee27fd9adebab32041f755214dbc6bffa90cc0225b39da2e5c2d3b90600090a280511562000e885762000598828262000f68565b620005e662000fe4565b7ff0c57e16840df040f15088dc2f81fe391c3923bec73e23a9662efc9c229c6a0054600160401b900460ff1662000be957604051631afcd79f60e31b815260040160405180910390fd5b62000ee662000e92565b6000805160206200177c833981519152805460ff19169055565b806001600160a01b03163b60000362000f3857604051634c9c8ce360e01b81526001600160a01b0382166004820152602401620004eb565b6000805160206200171c83398151915280546001600160a01b0319166001600160a01b0392909216919091179055565b6060600080846001600160a01b03168460405162000f879190620012f3565b600060405180830381855af49150503d806000811462000fc4576040519150601f19603f3d011682016040523d82523d6000602084013e62000fc9565b606091505b509150915062000fdb85838362001004565b95945050505050565b341562000be95760405163b398979f60e01b815260040160405180910390fd5b6060826200101d57620010178262001068565b6200099d565b81511580156200103557506001600160a01b0384163b155b156200106057604051639996b31560e01b81526001600160a01b0385166004820152602401620004eb565b50806200099d565b805115620010795780518082602001fd5b604051630a12f52160e11b815260040160405180910390fd5b61040a806200131283390190565b600060208284031215620010b357600080fd5b81356001600160e01b0319811681146200099d57600080fd5b80356001600160a01b0381168114620010e457600080fd5b919050565b600060208284031215620010fc57600080fd5b6200099d82620010cc565b6000602082840312156200111a57600080fd5b5035919050565b600080604083850312156200113557600080fd5b823591506200114760208401620010cc565b90509250929050565b634e487b7160e01b600052604160045260246000fd5b600080604083850312156200117a57600080fd5b6200118583620010cc565b9150602083013567ffffffffffffffff80821115620011a357600080fd5b818501915085601f830112620011b857600080fd5b813581811115620011cd57620011cd62001150565b604051601f8201601f19908116603f01168101908382118183101715620011f857620011f862001150565b816040528281528860208487010111156200121257600080fd5b8260208601602083013760006020848301015280955050505050509250929050565b60005b838110156200125157818101518382015260200162001237565b50506000910152565b60208152600082518060208401526200127b81604085016020870162001234565b601f01601f19169190910160400192915050565b600080600060608486031215620012a557600080fd5b620012b084620010cc565b9250620012c060208501620010cc565b9150620012d060408501620010cc565b90509250925092565b600060208284031215620012ec57600080fd5b5051919050565b600082516200130781846020870162001234565b919091019291505056fe608060405260405161040a38038061040a83398101604081905261002291610268565b61002c8282610033565b5050610352565b61003c82610092565b6040516001600160a01b038316907fbc7cd75a20ee27fd9adebab32041f755214dbc6bffa90cc0225b39da2e5c2d3b90600090a280511561008657610081828261010e565b505050565b61008e610185565b5050565b806001600160a01b03163b6000036100cd57604051634c9c8ce360e01b81526001600160a01b03821660048201526024015b60405180910390fd5b7f360894a13ba1a3210667c828492db98dca3e2076cc3735a920a3ca505d382bbc80546001600160a01b0319166001600160a01b0392909216919091179055565b6060600080846001600160a01b03168460405161012b9190610336565b600060405180830381855af49150503d8060008114610166576040519150601f19603f3d011682016040523d82523d6000602084013e61016b565b606091505b50909250905061017c8583836101a6565b95945050505050565b34156101a45760405163b398979f60e01b815260040160405180910390fd5b565b6060826101bb576101b682610205565b6101fe565b81511580156101d257506001600160a01b0384163b155b156101fb57604051639996b31560e01b81526001600160a01b03851660048201526024016100c4565b50805b9392505050565b8051156102155780518082602001fd5b604051630a12f52160e11b815260040160405180910390fd5b634e487b7160e01b600052604160045260246000fd5b60005b8381101561025f578181015183820152602001610247565b50506000910152565b6000806040838503121561027b57600080fd5b82516001600160a01b038116811461029257600080fd5b60208401519092506001600160401b03808211156102af57600080fd5b818501915085601f8301126102c357600080fd5b8151818111156102d5576102d561022e565b604051601f8201601f19908116603f011681019083821181831017156102fd576102fd61022e565b8160405282815288602084870101111561031657600080fd5b610327836020830160208801610244565b80955050505050509250929050565b60008251610348818460208701610244565b9190910192915050565b60aa806103606000396000f3fe6080604052600a600c565b005b60186014601a565b6051565b565b6000604c7f360894a13ba1a3210667c828492db98dca3e2076cc3735a920a3ca505d382bbc546001600160a01b031690565b905090565b3660008037600080366000845af43d6000803e808015606f573d6000f35b3d6000fdfea2646970667358221220bd42728c374f7f0ddc17b53ec61cdb40d51094c5fa601cbd894add86d0771b8264736f6c63430008180033360894a13ba1a3210667c828492db98dca3e2076cc3735a920a3ca505d382bbc65d7a28e3265b37a6474929f336521b332c1681b933f6cb9f3376673440d862a02dd7bc7dec4dceedda775e58dd541e08a116c6c53815c0bd028192f7b626800cd5ed15c6e187e77e9aee88184c21f4f2182ab5827cb3b7e07fbedcd63f03300a2646970667358221220d1a0cb8d341b536c7139fa27df3a853ae3de0780bf1fc36794f4c9a1ff43f0c164736f6c63430008180033",
  "linkReferences": {},
  "deployedLinkReferences": {}
}