{
  "_format": "hh-sol-artifact-1",
  "contractName": "CMAccountFactoryV2",
  "sourceName": "contracts/factory/CMAccountFactory.sol",
  "abi": [
    {
      "inputs": [],
      "name": "AccessControlBadConfirmation",
      "type": "error"
    },
    {
      "inputs": [
        {
          "internalType": "address",
          "name": "account",
          "type": "address"
        },
        {
          "internalType": "bytes32",
          "name": "neededRole",
          "type": "bytes32"
        }
      ],
      "name": "AccessControlUnauthorizedAccount",
      "type": "error"
    },
    {
      "inputs": [
        {
          "internalType": "address",
          "name": "target",
          "type": "address"
        }
      ],
      "name": "AddressEmptyCode",
      "type": "error"
    },
    {
      "inputs": [
        {
          "internalType": "address",
          "name": "implementation",
          "type": "address"
        }
      ],
      "name": "CMAccountInvalidImplementation",
      "type": "error"
    },
    {
      "inputs": [
        {
          "internalType": "address",
          "name": "admin",
          "type": "address"
        }
      ],
      "name": "CMAccountInvalidOwner",
      "type": "error"
    },
    {
      "inputs": [
        {
          "internalType": "address",
          "name": "implementation",
          "type": "address"
        }
      ],
      "name": "ERC1967InvalidImplementation",
      "type": "error"
    },
    {
      "inputs": [],
      "name": "ERC1967NonPayable",
      "type": "error"
    },
    {
      "inputs": [],
      "name": "EnforcedPause",
      "type": "error"
    },
    {
      "inputs": [],
      "name": "ExpectedPause",
      "type": "error"
    },
    {
      "inputs": [],
      "name": "FailedInnerCall",
      "type": "error"
    },
    {
      "inputs": [],
      "name": "InvalidInitialization",
      "type": "error"
    },
    {
      "inputs": [],
      "name": "NotInitializing",
      "type": "error"
    },
    {
      "inputs": [],
      "name": "UUPSUnauthorizedCallContext",
      "type": "error"
    },
    {
      "inputs": [
        {
          "internalType": "bytes32",
          "name": "slot",
          "type": "bytes32"
        }
      ],
      "name": "UUPSUnsupportedProxiableUUID",
      "type": "error"
    },
    {
      "anonymous": false,
      "inputs": [
        {
          "indexed": false,
          "internalType": "address",
          "name": "account",
          "type": "address"
        }
      ],
      "name": "CMAccountCreated",
      "type": "event"
    },
    {
      "anonymous": false,
      "inputs": [
        {
          "indexed": false,
          "internalType": "uint64",
          "name": "version",
          "type": "uint64"
        }
      ],
      "name": "Initialized",
      "type": "event"
    },
    {
      "anonymous": false,
      "inputs": [
        {
          "indexed": false,
          "internalType": "address",
          "name": "account",
          "type": "address"
        }
      ],
      "name": "Paused",
      "type": "event"
    },
    {
      "anonymous": false,
      "inputs": [
        {
          "indexed": true,
          "internalType": "bytes32",
          "name": "role",
          "type": "bytes32"
        },
        {
          "indexed": true,
          "internalType": "bytes32",
          "name": "previousAdminRole",
          "type": "bytes32"
        },
        {
          "indexed": true,
          "internalType": "bytes32",
          "name": "newAdminRole",
          "type": "bytes32"
        }
      ],
      "name": "RoleAdminChanged",
      "type": "event"
    },
    {
      "anonymous": false,
      "inputs": [
        {
          "indexed": true,
          "internalType": "bytes32",
          "name": "role",
          "type": "bytes32"
        },
        {
          "indexed": true,
          "internalType": "address",
          "name": "account",
          "type": "address"
        },
        {
          "indexed": true,
          "internalType": "address",
          "name": "sender",
          "type": "address"
        }
      ],
      "name": "RoleGranted",
      "type": "event"
    },
    {
      "anonymous": false,
      "inputs": [
        {
          "indexed": true,
          "internalType": "bytes32",
          "name": "role",
          "type": "bytes32"
        },
        {
          "indexed": true,
          "internalType": "address",
          "name": "account",
          "type": "address"
        },
        {
          "indexed": true,
          "internalType": "address",
          "name": "sender",
          "type": "address"
        }
      ],
      "name": "RoleRevoked",
      "type": "event"
    },
    {
      "anonymous": false,
      "inputs": [
        {
          "indexed": false,
          "internalType": "address",
          "name": "account",
          "type": "address"
        }
      ],
      "name": "Unpaused",
      "type": "event"
    },
    {
      "anonymous": false,
      "inputs": [
        {
          "indexed": true,
          "internalType": "address",
          "name": "implementation",
          "type": "address"
        }
      ],
      "name": "Upgraded",
      "type": "event"
    },
    {
      "inputs": [],
      "name": "DEFAULT_ADMIN_ROLE",
      "outputs": [
        {
          "internalType": "bytes32",
          "name": "",
          "type": "bytes32"
        }
      ],
      "stateMutability": "view",
      "type": "function"
    },
    {
      "inputs": [],
      "name": "PAUSER_ROLE",
      "outputs": [
        {
          "internalType": "bytes32",
          "name": "",
          "type": "bytes32"
        }
      ],
      "stateMutability": "view",
      "type": "function"
    },
    {
      "inputs": [],
      "name": "UPGRADER_ROLE",
      "outputs": [
        {
          "internalType": "bytes32",
          "name": "",
          "type": "bytes32"
        }
      ],
      "stateMutability": "view",
      "type": "function"
    },
    {
      "inputs": [],
      "name": "UPGRADE_INTERFACE_VERSION",
      "outputs": [
        {
          "internalType": "string",
          "name": "",
          "type": "string"
        }
      ],
      "stateMutability": "view",
      "type": "function"
    },
    {
      "inputs": [],
      "name": "VERSIONER_ROLE",
      "outputs": [
        {
          "internalType": "bytes32",
          "name": "",
          "type": "bytes32"
        }
      ],
      "stateMutability": "view",
      "type": "function"
    },
    {
      "inputs": [
        {
          "internalType": "address",
          "name": "initialOwner",
          "type": "address"
        },
        {
          "internalType": "address",
          "name": "pauser",
          "type": "address"
        },
        {
          "internalType": "address",
          "name": "upgrader",
          "type": "address"
        }
      ],
      "name": "createCMAccount",
      "outputs": [
        {
          "internalType": "address",
          "name": "",
          "type": "address"
        }
      ],
      "stateMutability": "nonpayable",
      "type": "function"
    },
    {
      "inputs": [],
      "name": "getAccountImplementation",
      "outputs": [
        {
          "internalType": "address",
          "name": "",
          "type": "address"
        }
      ],
      "stateMutability": "view",
      "type": "function"
    },
    {
      "inputs": [
        {
          "internalType": "bytes32",
          "name": "role",
          "type": "bytes32"
        }
      ],
      "name": "getRoleAdmin",
      "outputs": [
        {
          "internalType": "bytes32",
          "name": "",
          "type": "bytes32"
        }
      ],
      "stateMutability": "view",
      "type": "function"
    },
    {
      "inputs": [],
      "name": "getVersion",
      "outputs": [
        {
          "internalType": "string",
          "name": "",
          "type": "string"
        }
      ],
      "stateMutability": "pure",
      "type": "function"
    },
    {
      "inputs": [
        {
          "internalType": "bytes32",
          "name": "role",
          "type": "bytes32"
        },
        {
          "internalType": "address",
          "name": "account",
          "type": "address"
        }
      ],
      "name": "grantRole",
      "outputs": [],
      "stateMutability": "nonpayable",
      "type": "function"
    },
    {
      "inputs": [
        {
          "internalType": "bytes32",
          "name": "role",
          "type": "bytes32"
        },
        {
          "internalType": "address",
          "name": "account",
          "type": "address"
        }
      ],
      "name": "hasRole",
      "outputs": [
        {
          "internalType": "bool",
          "name": "",
          "type": "bool"
        }
      ],
      "stateMutability": "view",
      "type": "function"
    },
    {
      "inputs": [
        {
          "internalType": "address",
          "name": "defaultAdmin",
          "type": "address"
        },
        {
          "internalType": "address",
          "name": "pauser",
          "type": "address"
        },
        {
          "internalType": "address",
          "name": "upgrader",
          "type": "address"
        }
      ],
      "name": "initialize",
      "outputs": [],
      "stateMutability": "nonpayable",
      "type": "function"
    },
    {
      "inputs": [],
      "name": "pause",
      "outputs": [],
      "stateMutability": "nonpayable",
      "type": "function"
    },
    {
      "inputs": [],
      "name": "paused",
      "outputs": [
        {
          "internalType": "bool",
          "name": "",
          "type": "bool"
        }
      ],
      "stateMutability": "view",
      "type": "function"
    },
    {
      "inputs": [],
      "name": "proxiableUUID",
      "outputs": [
        {
          "internalType": "bytes32",
          "name": "",
          "type": "bytes32"
        }
      ],
      "stateMutability": "view",
      "type": "function"
    },
    {
      "inputs": [
        {
          "internalType": "bytes32",
          "name": "role",
          "type": "bytes32"
        },
        {
          "internalType": "address",
          "name": "callerConfirmation",
          "type": "address"
        }
      ],
      "name": "renounceRole",
      "outputs": [],
      "stateMutability": "nonpayable",
      "type": "function"
    },
    {
      "inputs": [
        {
          "internalType": "bytes32",
          "name": "role",
          "type": "bytes32"
        },
        {
          "internalType": "address",
          "name": "account",
          "type": "address"
        }
      ],
      "name": "revokeRole",
      "outputs": [],
      "stateMutability": "nonpayable",
      "type": "function"
    },
    {
      "inputs": [
        {
          "internalType": "address",
          "name": "newImplementation",
          "type": "address"
        }
      ],
      "name": "setAccountImplementation",
      "outputs": [],
      "stateMutability": "nonpayable",
      "type": "function"
    },
    {
      "inputs": [
        {
          "internalType": "bytes4",
          "name": "interfaceId",
          "type": "bytes4"
        }
      ],
      "name": "supportsInterface",
      "outputs": [
        {
          "internalType": "bool",
          "name": "",
          "type": "bool"
        }
      ],
      "stateMutability": "view",
      "type": "function"
    },
    {
      "inputs": [],
      "name": "unpause",
      "outputs": [],
      "stateMutability": "nonpayable",
      "type": "function"
    },
    {
      "inputs": [
        {
          "internalType": "address",
          "name": "newImplementation",
          "type": "address"
        },
        {
          "internalType": "bytes",
          "name": "data",
          "type": "bytes"
        }
      ],
      "name": "upgradeToAndCall",
      "outputs": [],
      "stateMutability": "payable",
      "type": "function"
    }
  ],
  "bytecode": "0x60a06040523060805234801561001457600080fd5b5061001d610022565b6100d4565b7ff0c57e16840df040f15088dc2f81fe391c3923bec73e23a9662efc9c229c6a00805468010000000000000000900460ff16156100725760405163f92ee8a960e01b815260040160405180910390fd5b80546001600160401b03908116146100d15780546001600160401b0319166001600160401b0390811782556040519081527fc7f505b2f371ae2175ee4913f4499e1f2633a7b5936321eed1cdaeb6115181d29060200160405180910390a15b50565b6080516118156100fd60003960008181610b8f01528181610bb90152610d2d01526118156000f3fe608060405260043610620001435760003560e01c80638456cb5911620000b9578063b289819c1162000078578063b289819c1462000398578063c0c53b8b14620003ce578063d547741f14620003f3578063d99edcd31462000418578063e63ab1e9146200043d578063f72c0d8b146200046257600080fd5b80638456cb5914620002dd57806391d1485414620002f55780639d825bc5146200031a578063a217fddf146200034e578063ad3cb1cc146200036557600080fd5b806336568abe116200010657806336568abe14620002495780633f4ba83a146200026e5780634f1ef286146200028657806352d1902d146200029d5780635c975abb14620002b557600080fd5b806301ffc9a7146200014857806309766da214620001825780630d8e6e2c14620001a9578063248a9ca314620001f05780632f2ff15d1462000224575b600080fd5b3480156200015557600080fd5b506200016d62000167366004620010e4565b62000498565b60405190151581526020015b60405180910390f35b3480156200018f57600080fd5b50620001a7620001a13660046200112d565b620004d0565b005b348015620001b657600080fd5b5060408051808201909152601281527121a6a0b1b1b7bab73a2330b1ba37b93cab1960711b60208201525b60405162000179919062001171565b348015620001fd57600080fd5b50620002156200020f366004620011a6565b6200055b565b60405190815260200162000179565b3480156200023157600080fd5b50620001a762000243366004620011c0565b6200057e565b3480156200025657600080fd5b50620001a762000268366004620011c0565b620005a6565b3480156200027b57600080fd5b50620001a7620005e1565b620001a76200029736600462001205565b62000609565b348015620002aa57600080fd5b50620002156200062e565b348015620002c257600080fd5b50600080516020620017c08339815191525460ff166200016d565b348015620002ea57600080fd5b50620001a76200064e565b3480156200030257600080fd5b506200016d62000314366004620011c0565b62000673565b3480156200032757600080fd5b506000546001600160a01b03165b6040516001600160a01b03909116815260200162000179565b3480156200035b57600080fd5b5062000215600081565b3480156200037257600080fd5b50620001e1604051806040016040528060058152602001640352e302e360dc1b81525081565b348015620003a557600080fd5b50620002157f6a42249708403f5ed28bf492facd11e85bc1054e6c27c155ed468f6ff4f7ecd081565b348015620003db57600080fd5b50620001a7620003ed366004620012d3565b620006ac565b3480156200040057600080fd5b50620001a762000412366004620011c0565b62000830565b3480156200042557600080fd5b506200033562000437366004620012d3565b62000852565b3480156200044a57600080fd5b50620002156000805160206200178083398151915281565b3480156200046f57600080fd5b50620002157f189ab7a9244df0848122154315af71fe140f3db0fe014031783b0946b8c9d2e381565b60006001600160e01b03198216637965db0b60e01b1480620004ca57506301ffc9a760e01b6001600160e01b03198316145b92915050565b7f6a42249708403f5ed28bf492facd11e85bc1054e6c27c155ed468f6ff4f7ecd0620004fc81620009e8565b816001600160a01b03163b60000362000538576040516337766f4360e11b81526001600160a01b03831660048201526024015b60405180910390fd5b50600080546001600160a01b0319166001600160a01b0392909216919091179055565b6000908152600080516020620017a0833981519152602052604090206001015490565b62000589826200055b565b6200059481620009e8565b620005a08383620009f4565b50505050565b6001600160a01b0381163314620005d05760405163334bd91960e11b815260040160405180910390fd5b620005dc828262000aa0565b505050565b60008051602062001780833981519152620005fc81620009e8565b6200060662000b21565b50565b6200061362000b84565b6200061e8262000c2f565b6200062a828262000c5b565b5050565b60006200063a62000d22565b506000805160206200176083398151915290565b600080516020620017808339815191526200066981620009e8565b6200060662000d6c565b6000918252600080516020620017a0833981519152602090815260408084206001600160a01b0393909316845291905290205460ff1690565b7ff0c57e16840df040f15088dc2f81fe391c3923bec73e23a9662efc9c229c6a008054600160401b810460ff16159067ffffffffffffffff16600081158015620006f35750825b905060008267ffffffffffffffff166001148015620007115750303b155b90508115801562000720575080155b156200073f5760405163f92ee8a960e01b815260040160405180910390fd5b845467ffffffffffffffff1916600117855583156200076a57845460ff60401b1916600160401b1785555b6200077462000db9565b6200077e62000dcd565b6200078862000dcd565b62000795600089620009f4565b50620007b16000805160206200178083398151915288620009f4565b50620007de7f189ab7a9244df0848122154315af71fe140f3db0fe014031783b0946b8c9d2e387620009f4565b5083156200082657845460ff60401b19168555604051600181527fc7f505b2f371ae2175ee4913f4499e1f2633a7b5936321eed1cdaeb6115181d29060200160405180910390a15b5050505050505050565b6200083b826200055b565b6200084681620009e8565b620005a0838362000aa0565b60006200085e62000dd7565b600080546001600160a01b03163b90036200089c576000546040516337766f4360e11b81526001600160a01b0390911660048201526024016200052f565b6001600160a01b038416620008d05760405163d4a5b0b160e01b81526001600160a01b03851660048201526024016200052f565b600080546040516001600160a01b0390911690620008ee90620010d6565b6001600160a01b039091168152604060208201819052600090820152606001604051809103906000f0801580156200092a573d6000803e3d6000fd5b506040516001600160a01b03821681529091507f22de16ef21e3a33810fbcaf0e737ab9c9e2854fa565d8535041456c789afcd939060200160405180910390a1604051637c643b2f60e11b81523060048201526001600160a01b0386811660248301528581166044830152848116606483015282169063f8c8765e90608401600060405180830381600087803b158015620009c457600080fd5b505af1158015620009d9573d6000803e3d6000fd5b509293505050505b9392505050565b62000606813362000e0a565b6000600080516020620017a083398151915262000a12848462000673565b62000a95576000848152602082815260408083206001600160a01b03871684529091529020805460ff1916600117905562000a4a3390565b6001600160a01b0316836001600160a01b0316857f2f8788117e7eff1d82e926ec794901d17c78024a50270940304540a733656f0d60405160405180910390a46001915050620004ca565b6000915050620004ca565b6000600080516020620017a083398151915262000abe848462000673565b1562000a95576000848152602082815260408083206001600160a01b0387168085529252808320805460ff1916905551339287917ff6391f5c32d9c69d2a47ea670b442974b53935d1edc7fd64eb21e047a839171b9190a46001915050620004ca565b62000b2b62000e47565b600080516020620017c0833981519152805460ff191681557f5db9ee0a495bf2e6ff9c91a7834c1ba4fdd244a5e8aa4e537bd38aeae4b073aa335b6040516001600160a01b03909116815260200160405180910390a150565b306001600160a01b037f000000000000000000000000000000000000000000000000000000000000000016148062000c0e57507f00000000000000000000000000000000000000000000000000000000000000006001600160a01b031662000c0260008051602062001760833981519152546001600160a01b031690565b6001600160a01b031614155b1562000c2d5760405163703e46dd60e11b815260040160405180910390fd5b565b7f189ab7a9244df0848122154315af71fe140f3db0fe014031783b0946b8c9d2e36200062a81620009e8565b816001600160a01b03166352d1902d6040518163ffffffff1660e01b8152600401602060405180830381865afa92505050801562000cb8575060408051601f3d908101601f1916820190925262000cb5918101906200131d565b60015b62000ce257604051634c9c8ce360e01b81526001600160a01b03831660048201526024016200052f565b60008051602062001760833981519152811462000d1657604051632a87526960e21b8152600481018290526024016200052f565b620005dc838362000e79565b306001600160a01b037f0000000000000000000000000000000000000000000000000000000000000000161462000c2d5760405163703e46dd60e11b815260040160405180910390fd5b62000d7662000dd7565b600080516020620017c0833981519152805460ff191660011781557f62e78cea01bee320cd4e420270b5ea74000d11b0c9f74754ebdbfc544b05a2583362000b66565b62000dc362000ed6565b62000c2d62000f20565b62000c2d62000ed6565b600080516020620017c08339815191525460ff161562000c2d5760405163d93c066560e01b815260040160405180910390fd5b62000e16828262000673565b6200062a5760405163e2517d3f60e01b81526001600160a01b0382166004820152602481018390526044016200052f565b600080516020620017c08339815191525460ff1662000c2d57604051638dfc202b60e01b815260040160405180910390fd5b62000e848262000f44565b6040516001600160a01b038316907fbc7cd75a20ee27fd9adebab32041f755214dbc6bffa90cc0225b39da2e5c2d3b90600090a280511562000ecc57620005dc828262000fac565b6200062a62001028565b7ff0c57e16840df040f15088dc2f81fe391c3923bec73e23a9662efc9c229c6a0054600160401b900460ff1662000c2d57604051631afcd79f60e31b815260040160405180910390fd5b62000f2a62000ed6565b600080516020620017c0833981519152805460ff19169055565b806001600160a01b03163b60000362000f7c57604051634c9c8ce360e01b81526001600160a01b03821660048201526024016200052f565b6000805160206200176083398151915280546001600160a01b0319166001600160a01b0392909216919091179055565b6060600080846001600160a01b03168460405162000fcb919062001337565b600060405180830381855af49150503d806000811462001008576040519150601f19603f3d011682016040523d82523d6000602084013e6200100d565b606091505b50915091506200101f85838362001048565b95945050505050565b341562000c2d5760405163b398979f60e01b815260040160405180910390fd5b60608262001061576200105b82620010ac565b620009e1565b81511580156200107957506001600160a01b0384163b155b15620010a457604051639996b31560e01b81526001600160a01b03851660048201526024016200052f565b5080620009e1565b805115620010bd5780518082602001fd5b604051630a12f52160e11b815260040160405180910390fd5b61040a806200135683390190565b600060208284031215620010f757600080fd5b81356001600160e01b031981168114620009e157600080fd5b80356001600160a01b03811681146200112857600080fd5b919050565b6000602082840312156200114057600080fd5b620009e18262001110565b60005b83811015620011685781810151838201526020016200114e565b50506000910152565b6020815260008251806020840152620011928160408501602087016200114b565b601f01601f19169190910160400192915050565b600060208284031215620011b957600080fd5b5035919050565b60008060408385031215620011d457600080fd5b82359150620011e66020840162001110565b90509250929050565b634e487b7160e01b600052604160045260246000fd5b600080604083850312156200121957600080fd5b620012248362001110565b9150602083013567ffffffffffffffff808211156200124257600080fd5b818501915085601f8301126200125757600080fd5b8135818111156200126c576200126c620011ef565b604051601f8201601f19908116603f01168101908382118183101715620012975762001297620011ef565b81604052828152886020848701011115620012b157600080fd5b8260208601602083013760006020848301015280955050505050509250929050565b600080600060608486031215620012e957600080fd5b620012f48462001110565b9250620013046020850162001110565b9150620013146040850162001110565b90509250925092565b6000602082840312156200133057600080fd5b5051919050565b600082516200134b8184602087016200114b565b919091019291505056fe608060405260405161040a38038061040a83398101604081905261002291610268565b61002c8282610033565b5050610352565b61003c82610092565b6040516001600160a01b038316907fbc7cd75a20ee27fd9adebab32041f755214dbc6bffa90cc0225b39da2e5c2d3b90600090a280511561008657610081828261010e565b505050565b61008e610185565b5050565b806001600160a01b03163b6000036100cd57604051634c9c8ce360e01b81526001600160a01b03821660048201526024015b60405180910390fd5b7f360894a13ba1a3210667c828492db98dca3e2076cc3735a920a3ca505d382bbc80546001600160a01b0319166001600160a01b0392909216919091179055565b6060600080846001600160a01b03168460405161012b9190610336565b600060405180830381855af49150503d8060008114610166576040519150601f19603f3d011682016040523d82523d6000602084013e61016b565b606091505b50909250905061017c8583836101a6565b95945050505050565b34156101a45760405163b398979f60e01b815260040160405180910390fd5b565b6060826101bb576101b682610205565b6101fe565b81511580156101d257506001600160a01b0384163b155b156101fb57604051639996b31560e01b81526001600160a01b03851660048201526024016100c4565b50805b9392505050565b8051156102155780518082602001fd5b604051630a12f52160e11b815260040160405180910390fd5b634e487b7160e01b600052604160045260246000fd5b60005b8381101561025f578181015183820152602001610247565b50506000910152565b6000806040838503121561027b57600080fd5b82516001600160a01b038116811461029257600080fd5b60208401519092506001600160401b03808211156102af57600080fd5b818501915085601f8301126102c357600080fd5b8151818111156102d5576102d561022e565b604051601f8201601f19908116603f011681019083821181831017156102fd576102fd61022e565b8160405282815288602084870101111561031657600080fd5b610327836020830160208801610244565b80955050505050509250929050565b60008251610348818460208701610244565b9190910192915050565b60aa806103606000396000f3fe6080604052600a600c565b005b60186014601a565b6051565b565b6000604c7f360894a13ba1a3210667c828492db98dca3e2076cc3735a920a3ca505d382bbc546001600160a01b031690565b905090565b3660008037600080366000845af43d6000803e808015606f573d6000f35b3d6000fdfea2646970667358221220bd42728c374f7f0ddc17b53ec61cdb40d51094c5fa601cbd894add86d0771b8264736f6c63430008180033360894a13ba1a3210667c828492db98dca3e2076cc3735a920a3ca505d382bbc65d7a28e3265b37a6474929f336521b332c1681b933f6cb9f3376673440d862a02dd7bc7dec4dceedda775e58dd541e08a116c6c53815c0bd028192f7b626800cd5ed15c6e187e77e9aee88184c21f4f2182ab5827cb3b7e07fbedcd63f03300a26469706673582212207d01bb569c5b4b7819a53fb6db809be58e1daa79b6285099f1b3aa0b3025f12264736f6c63430008180033",
  "linkReferences": {},
  "deployedLinkReferences": {}
}